{
	"contracts/digiLocker.sol": {
		"digiLocker": {
			"abi": [
				{
					"anonymous": false,
					"inputs": [
						{
							"indexed": false,
							"internalType": "string",
							"name": "_email",
							"type": "string"
						},
						{
							"indexed": false,
							"internalType": "enum digiLocker.userType",
							"name": "utype",
							"type": "uint8"
						},
						{
							"indexed": true,
							"internalType": "address",
							"name": "_useraddress",
							"type": "address"
						}
					],
					"name": "registeredUserEvent",
					"type": "event"
				},
				{
					"anonymous": false,
					"inputs": [
						{
							"indexed": true,
							"internalType": "bytes32",
							"name": "docid",
							"type": "bytes32"
						},
						{
							"indexed": true,
							"internalType": "address",
							"name": "docOwner",
							"type": "address"
						},
						{
							"indexed": true,
							"internalType": "address",
							"name": "sharedWith",
							"type": "address"
						},
						{
							"indexed": false,
							"internalType": "uint8",
							"name": "permission",
							"type": "uint8"
						}
					],
					"name": "sharedDocumentEvent",
					"type": "event"
				},
				{
					"anonymous": false,
					"inputs": [
						{
							"indexed": true,
							"internalType": "bytes32",
							"name": "docid",
							"type": "bytes32"
						},
						{
							"indexed": false,
							"internalType": "bytes32",
							"name": "docHash",
							"type": "bytes32"
						},
						{
							"indexed": true,
							"internalType": "address",
							"name": "user_addr",
							"type": "address"
						}
					],
					"name": "uploadDocumentEvent",
					"type": "event"
				},
				{
					"anonymous": false,
					"inputs": [
						{
							"indexed": true,
							"internalType": "bytes32",
							"name": "docid",
							"type": "bytes32"
						},
						{
							"indexed": true,
							"internalType": "address",
							"name": "docOwner",
							"type": "address"
						},
						{
							"indexed": true,
							"internalType": "address",
							"name": "sharedWith",
							"type": "address"
						}
					],
					"name": "verifyDocumentEvent",
					"type": "event"
				},
				{
					"inputs": [
						{
							"internalType": "bytes32",
							"name": "docId",
							"type": "bytes32"
						}
					],
					"name": "checkAlreadyUpload",
					"outputs": [
						{
							"internalType": "bool",
							"name": "",
							"type": "bool"
						}
					],
					"stateMutability": "view",
					"type": "function"
				},
				{
					"inputs": [
						{
							"internalType": "string",
							"name": "_email",
							"type": "string"
						}
					],
					"name": "getAddressByEmail",
					"outputs": [
						{
							"internalType": "address",
							"name": "",
							"type": "address"
						}
					],
					"stateMutability": "view",
					"type": "function"
				},
				{
					"inputs": [],
					"name": "getDocCountByUserId",
					"outputs": [
						{
							"internalType": "uint256",
							"name": "",
							"type": "uint256"
						}
					],
					"stateMutability": "view",
					"type": "function"
				},
				{
					"inputs": [
						{
							"internalType": "bytes32",
							"name": "docid",
							"type": "bytes32"
						},
						{
							"internalType": "address",
							"name": "uaddr",
							"type": "address"
						}
					],
					"name": "getDocIndex",
					"outputs": [
						{
							"internalType": "uint256",
							"name": "",
							"type": "uint256"
						}
					],
					"stateMutability": "view",
					"type": "function"
				},
				{
					"inputs": [
						{
							"internalType": "bytes32",
							"name": "_docId",
							"type": "bytes32"
						}
					],
					"name": "getDocumentListbyDocId",
					"outputs": [
						{
							"internalType": "bytes32",
							"name": "",
							"type": "bytes32"
						},
						{
							"internalType": "string",
							"name": "",
							"type": "string"
						},
						{
							"internalType": "string",
							"name": "",
							"type": "string"
						},
						{
							"internalType": "bytes32",
							"name": "",
							"type": "bytes32"
						},
						{
							"internalType": "string",
							"name": "",
							"type": "string"
						},
						{
							"internalType": "string",
							"name": "",
							"type": "string"
						},
						{
							"internalType": "string",
							"name": "",
							"type": "string"
						},
						{
							"internalType": "string",
							"name": "",
							"type": "string"
						}
					],
					"stateMutability": "view",
					"type": "function"
				},
				{
					"inputs": [
						{
							"internalType": "bytes32",
							"name": "_docId",
							"type": "bytes32"
						},
						{
							"internalType": "address",
							"name": "docOwner",
							"type": "address"
						}
					],
					"name": "getDocumentName",
					"outputs": [
						{
							"internalType": "string",
							"name": "",
							"type": "string"
						}
					],
					"stateMutability": "view",
					"type": "function"
				},
				{
					"inputs": [
						{
							"internalType": "address",
							"name": "_useradd",
							"type": "address"
						}
					],
					"name": "getDocumetList",
					"outputs": [
						{
							"internalType": "string[]",
							"name": "",
							"type": "string[]"
						},
						{
							"internalType": "string[]",
							"name": "",
							"type": "string[]"
						},
						{
							"internalType": "bytes32[]",
							"name": "",
							"type": "bytes32[]"
						}
					],
					"stateMutability": "view",
					"type": "function"
				},
				{
					"inputs": [],
					"name": "getEmailIdByAddrss",
					"outputs": [
						{
							"internalType": "string",
							"name": "",
							"type": "string"
						},
						{
							"internalType": "string",
							"name": "",
							"type": "string"
						},
						{
							"internalType": "string",
							"name": "",
							"type": "string"
						}
					],
					"stateMutability": "view",
					"type": "function"
				},
				{
					"inputs": [
						{
							"internalType": "address",
							"name": "_usraddrs",
							"type": "address"
						}
					],
					"name": "getEmailIdByUsrAddr",
					"outputs": [
						{
							"internalType": "string",
							"name": "",
							"type": "string"
						},
						{
							"internalType": "string",
							"name": "",
							"type": "string"
						},
						{
							"internalType": "string",
							"name": "",
							"type": "string"
						}
					],
					"stateMutability": "view",
					"type": "function"
				},
				{
					"inputs": [
						{
							"internalType": "bytes32",
							"name": "docId",
							"type": "bytes32"
						}
					],
					"name": "getOwnerDocInfoByDocId",
					"outputs": [
						{
							"internalType": "string",
							"name": "",
							"type": "string"
						},
						{
							"internalType": "string",
							"name": "",
							"type": "string"
						}
					],
					"stateMutability": "view",
					"type": "function"
				},
				{
					"inputs": [],
					"name": "getOwnerDocumetList",
					"outputs": [
						{
							"internalType": "string[]",
							"name": "",
							"type": "string[]"
						},
						{
							"internalType": "string[]",
							"name": "",
							"type": "string[]"
						},
						{
							"internalType": "bytes32[]",
							"name": "",
							"type": "bytes32[]"
						}
					],
					"stateMutability": "view",
					"type": "function"
				},
				{
					"inputs": [
						{
							"internalType": "address",
							"name": "uaddr",
							"type": "address"
						}
					],
					"name": "getPublicKey",
					"outputs": [
						{
							"internalType": "string",
							"name": "",
							"type": "string"
						}
					],
					"stateMutability": "view",
					"type": "function"
				},
				{
					"inputs": [],
					"name": "getRegisteredUser",
					"outputs": [
						{
							"internalType": "bytes32",
							"name": "",
							"type": "bytes32"
						},
						{
							"internalType": "address",
							"name": "",
							"type": "address"
						},
						{
							"internalType": "string",
							"name": "",
							"type": "string"
						}
					],
					"stateMutability": "view",
					"type": "function"
				},
				{
					"inputs": [],
					"name": "getUserType",
					"outputs": [
						{
							"internalType": "uint8",
							"name": "",
							"type": "uint8"
						}
					],
					"stateMutability": "view",
					"type": "function"
				},
				{
					"inputs": [],
					"name": "getUseraccessKey",
					"outputs": [
						{
							"internalType": "bytes32",
							"name": "",
							"type": "bytes32"
						}
					],
					"stateMutability": "view",
					"type": "function"
				},
				{
					"inputs": [
						{
							"internalType": "string",
							"name": "email_",
							"type": "string"
						}
					],
					"name": "isValidSharableUser",
					"outputs": [
						{
							"internalType": "bool",
							"name": "",
							"type": "bool"
						}
					],
					"stateMutability": "view",
					"type": "function"
				},
				{
					"inputs": [],
					"name": "isalreadyRegisteredUser",
					"outputs": [
						{
							"internalType": "bool",
							"name": "",
							"type": "bool"
						}
					],
					"stateMutability": "view",
					"type": "function"
				},
				{
					"inputs": [
						{
							"internalType": "string",
							"name": "_firstName",
							"type": "string"
						},
						{
							"internalType": "string",
							"name": "_lastName",
							"type": "string"
						},
						{
							"internalType": "string",
							"name": "_email",
							"type": "string"
						},
						{
							"internalType": "uint8",
							"name": "_utype",
							"type": "uint8"
						},
						{
							"internalType": "string",
							"name": "_contact",
							"type": "string"
						},
						{
							"internalType": "bytes32",
							"name": "accessKey",
							"type": "bytes32"
						},
						{
							"internalType": "string",
							"name": "pubKey",
							"type": "string"
						}
					],
					"name": "registerUser",
					"outputs": [
						{
							"internalType": "bool",
							"name": "",
							"type": "bool"
						}
					],
					"stateMutability": "nonpayable",
					"type": "function"
				},
				{
					"inputs": [
						{
							"internalType": "bytes32",
							"name": "docid",
							"type": "bytes32"
						},
						{
							"internalType": "uint8",
							"name": "permission",
							"type": "uint8"
						},
						{
							"internalType": "address",
							"name": "_requester",
							"type": "address"
						}
					],
					"name": "shareDocumentwithUser",
					"outputs": [],
					"stateMutability": "nonpayable",
					"type": "function"
				},
				{
					"inputs": [
						{
							"internalType": "string",
							"name": "docName",
							"type": "string"
						},
						{
							"internalType": "bytes32",
							"name": "docId",
							"type": "bytes32"
						},
						{
							"internalType": "bytes32",
							"name": "docHash",
							"type": "bytes32"
						},
						{
							"internalType": "string",
							"name": "timestamp",
							"type": "string"
						}
					],
					"name": "uploadDocument",
					"outputs": [
						{
							"internalType": "bool",
							"name": "",
							"type": "bool"
						}
					],
					"stateMutability": "nonpayable",
					"type": "function"
				},
				{
					"inputs": [
						{
							"internalType": "bytes32",
							"name": "docid",
							"type": "bytes32"
						},
						{
							"internalType": "address",
							"name": "_owner",
							"type": "address"
						}
					],
					"name": "verifyUserDocument",
					"outputs": [],
					"stateMutability": "nonpayable",
					"type": "function"
				}
			],
			"devdoc": {
				"kind": "dev",
				"methods": {},
				"version": 1
			},
			"evm": {
				"assembly": "    /* \"contracts/digiLocker.sol\":94:9194  contract digiLocker {... */\n  mstore(0x40, 0x80)\n    /* \"contracts/digiLocker.sol\":711:712  0 */\n  0x00\n    /* \"contracts/digiLocker.sol\":694:712  uint usercount = 0 */\n  dup1\n  sstore\n    /* \"contracts/digiLocker.sol\":94:9194  contract digiLocker {... */\n  callvalue\n  dup1\n  iszero\n  tag_1\n  jumpi\n  0x00\n  dup1\n  revert\ntag_1:\n  pop\n  dataSize(sub_0)\n  dup1\n  dataOffset(sub_0)\n  0x00\n  codecopy\n  0x00\n  return\nstop\n\nsub_0: assembly {\n        /* \"contracts/digiLocker.sol\":94:9194  contract digiLocker {... */\n      mstore(0x40, 0x80)\n      callvalue\n      dup1\n      iszero\n      tag_1\n      jumpi\n      0x00\n      dup1\n      revert\n    tag_1:\n      pop\n      jumpi(tag_2, lt(calldatasize, 0x04))\n      shr(0xe0, calldataload(0x00))\n      dup1\n      0x8f578bf7\n      gt\n      tag_24\n      jumpi\n      dup1\n      0xd9cb2800\n      gt\n      tag_25\n      jumpi\n      dup1\n      0xd9cb2800\n      eq\n      tag_18\n      jumpi\n      dup1\n      0xddcab3ff\n      eq\n      tag_19\n      jumpi\n      dup1\n      0xe3d6f700\n      eq\n      tag_20\n      jumpi\n      dup1\n      0xe6ccc2be\n      eq\n      tag_21\n      jumpi\n      dup1\n      0xf78bedf6\n      eq\n      tag_22\n      jumpi\n      dup1\n      0xfaa380f2\n      eq\n      tag_23\n      jumpi\n      jump(tag_2)\n    tag_25:\n      dup1\n      0x8f578bf7\n      eq\n      tag_13\n      jumpi\n      dup1\n      0xb744b46d\n      eq\n      tag_14\n      jumpi\n      dup1\n      0xc5caea01\n      eq\n      tag_15\n      jumpi\n      dup1\n      0xc5ef9f7f\n      eq\n      tag_16\n      jumpi\n      dup1\n      0xcafdef5a\n      eq\n      tag_17\n      jumpi\n      jump(tag_2)\n    tag_24:\n      dup1\n      0x309a91d5\n      gt\n      tag_26\n      jumpi\n      dup1\n      0x309a91d5\n      eq\n      tag_8\n      jumpi\n      dup1\n      0x35103499\n      eq\n      tag_9\n      jumpi\n      dup1\n      0x41990077\n      eq\n      tag_10\n      jumpi\n      dup1\n      0x71f87d02\n      eq\n      tag_11\n      jumpi\n      dup1\n      0x857cdbb8\n      eq\n      tag_12\n      jumpi\n      jump(tag_2)\n    tag_26:\n      dup1\n      0xd0810a\n      eq\n      tag_3\n      jumpi\n      dup1\n      0x1614b37a\n      eq\n      tag_4\n      jumpi\n      dup1\n      0x1796fd91\n      eq\n      tag_5\n      jumpi\n      dup1\n      0x1870705a\n      eq\n      tag_6\n      jumpi\n      dup1\n      0x2dad6b65\n      eq\n      tag_7\n      jumpi\n    tag_2:\n      0x00\n      dup1\n      revert\n        /* \"contracts/digiLocker.sol\":5644:6343  function getDocumetList(address _useradd)public view returns (... */\n    tag_3:\n      tag_27\n      0x04\n      dup1\n      calldatasize\n      sub\n      dup2\n      add\n      swap1\n      tag_28\n      swap2\n      swap1\n      tag_29\n      jump\t// in\n    tag_28:\n      tag_30\n      jump\t// in\n    tag_27:\n      mload(0x40)\n      tag_31\n      swap4\n      swap3\n      swap2\n      swap1\n      tag_32\n      jump\t// in\n    tag_31:\n      mload(0x40)\n      dup1\n      swap2\n      sub\n      swap1\n      return\n        /* \"contracts/digiLocker.sol\":3891:4228  function uploadDocument(string memory docName, bytes32 docId, bytes32 docHash, string memory timestamp) public returns(bool){... */\n    tag_4:\n      tag_33\n      0x04\n      dup1\n      calldatasize\n      sub\n      dup2\n      add\n      swap1\n      tag_34\n      swap2\n      swap1\n      tag_35\n      jump\t// in\n    tag_34:\n      tag_36\n      jump\t// in\n    tag_33:\n      mload(0x40)\n      tag_37\n      swap2\n      swap1\n      tag_38\n      jump\t// in\n    tag_37:\n      mload(0x40)\n      dup1\n      swap2\n      sub\n      swap1\n      return\n        /* \"contracts/digiLocker.sol\":2328:2603  function getRegisteredUser() public view returns(bytes32, address, string memory){... */\n    tag_5:\n      tag_39\n      tag_40\n      jump\t// in\n    tag_39:\n      mload(0x40)\n      tag_41\n      swap4\n      swap3\n      swap2\n      swap1\n      tag_42\n      jump\t// in\n    tag_41:\n      mload(0x40)\n      dup1\n      swap2\n      sub\n      swap1\n      return\n        /* \"contracts/digiLocker.sol\":1788:2045  function isalreadyRegisteredUser() public view returns(bool){... */\n    tag_6:\n      tag_43\n      tag_44\n      jump\t// in\n    tag_43:\n      mload(0x40)\n      tag_45\n      swap2\n      swap1\n      tag_38\n      jump\t// in\n    tag_45:\n      mload(0x40)\n      dup1\n      swap2\n      sub\n      swap1\n      return\n        /* \"contracts/digiLocker.sol\":8082:8378  function getEmailIdByUsrAddr(address _usraddrs)public view returns(string memory,string memory,string memory){... */\n    tag_7:\n      tag_46\n      0x04\n      dup1\n      calldatasize\n      sub\n      dup2\n      add\n      swap1\n      tag_47\n      swap2\n      swap1\n      tag_29\n      jump\t// in\n    tag_47:\n      tag_48\n      jump\t// in\n    tag_46:\n      mload(0x40)\n      tag_49\n      swap4\n      swap3\n      swap2\n      swap1\n      tag_50\n      jump\t// in\n    tag_49:\n      mload(0x40)\n      dup1\n      swap2\n      sub\n      swap1\n      return\n        /* \"contracts/digiLocker.sol\":4462:4642  function verifyUserDocument(bytes32 docid, address  _owner) public{... */\n    tag_8:\n      tag_51\n      0x04\n      dup1\n      calldatasize\n      sub\n      dup2\n      add\n      swap1\n      tag_52\n      swap2\n      swap1\n      tag_53\n      jump\t// in\n    tag_52:\n      tag_54\n      jump\t// in\n    tag_51:\n      stop\n        /* \"contracts/digiLocker.sol\":2073:2191  function getUseraccessKey() public view returns(bytes32){... */\n    tag_9:\n      tag_55\n      tag_56\n      jump\t// in\n    tag_55:\n      mload(0x40)\n      tag_57\n      swap2\n      swap1\n      tag_58\n      jump\t// in\n    tag_57:\n      mload(0x40)\n      dup1\n      swap2\n      sub\n      swap1\n      return\n        /* \"contracts/digiLocker.sol\":2203:2316  function getUserType() public view returns(uint8){... */\n    tag_10:\n      tag_59\n      tag_60\n      jump\t// in\n    tag_59:\n      mload(0x40)\n      tag_61\n      swap2\n      swap1\n      tag_62\n      jump\t// in\n    tag_61:\n      mload(0x40)\n      dup1\n      swap2\n      sub\n      swap1\n      return\n        /* \"contracts/digiLocker.sol\":4236:4454  function shareDocumentwithUser(bytes32 docid, uint8 permission,address _requester) public{... */\n    tag_11:\n      tag_63\n      0x04\n      dup1\n      calldatasize\n      sub\n      dup2\n      add\n      swap1\n      tag_64\n      swap2\n      swap1\n      tag_65\n      jump\t// in\n    tag_64:\n      tag_66\n      jump\t// in\n    tag_63:\n      stop\n        /* \"contracts/digiLocker.sol\":8705:8828  function getPublicKey(address uaddr)public view returns(string memory){... */\n    tag_12:\n      tag_67\n      0x04\n      dup1\n      calldatasize\n      sub\n      dup2\n      add\n      swap1\n      tag_68\n      swap2\n      swap1\n      tag_29\n      jump\t// in\n    tag_68:\n      tag_69\n      jump\t// in\n    tag_67:\n      mload(0x40)\n      tag_70\n      swap2\n      swap1\n      tag_71\n      jump\t// in\n    tag_70:\n      mload(0x40)\n      dup1\n      swap2\n      sub\n      swap1\n      return\n        /* \"contracts/digiLocker.sol\":2636:3487  function registerUser(string memory _firstName,... */\n    tag_13:\n      tag_72\n      0x04\n      dup1\n      calldatasize\n      sub\n      dup2\n      add\n      swap1\n      tag_73\n      swap2\n      swap1\n      tag_74\n      jump\t// in\n    tag_73:\n      tag_75\n      jump\t// in\n    tag_72:\n      mload(0x40)\n      tag_76\n      swap2\n      swap1\n      tag_38\n      jump\t// in\n    tag_76:\n      mload(0x40)\n      dup1\n      swap2\n      sub\n      swap1\n      return\n        /* \"contracts/digiLocker.sol\":6361:7610  function getDocumentListbyDocId(bytes32 _docId) public view returns(... */\n    tag_14:\n      tag_77\n      0x04\n      dup1\n      calldatasize\n      sub\n      dup2\n      add\n      swap1\n      tag_78\n      swap2\n      swap1\n      tag_79\n      jump\t// in\n    tag_78:\n      tag_80\n      jump\t// in\n    tag_77:\n      mload(0x40)\n      tag_81\n      swap9\n      swap8\n      swap7\n      swap6\n      swap5\n      swap4\n      swap3\n      swap2\n      swap1\n      tag_82\n      jump\t// in\n    tag_81:\n      mload(0x40)\n      dup1\n      swap2\n      sub\n      swap1\n      return\n        /* \"contracts/digiLocker.sol\":7911:8040  function getAddressByEmail(string memory _email)public view returns(address){... */\n    tag_15:\n      tag_83\n      0x04\n      dup1\n      calldatasize\n      sub\n      dup2\n      add\n      swap1\n      tag_84\n      swap2\n      swap1\n      tag_85\n      jump\t// in\n    tag_84:\n      tag_86\n      jump\t// in\n    tag_83:\n      mload(0x40)\n      tag_87\n      swap2\n      swap1\n      tag_88\n      jump\t// in\n    tag_87:\n      mload(0x40)\n      dup1\n      swap2\n      sub\n      swap1\n      return\n        /* \"contracts/digiLocker.sol\":5467:5632  function getOwnerDocumetList()public view returns (... */\n    tag_16:\n      tag_89\n      tag_90\n      jump\t// in\n    tag_89:\n      mload(0x40)\n      tag_91\n      swap4\n      swap3\n      swap2\n      swap1\n      tag_32\n      jump\t// in\n    tag_91:\n      mload(0x40)\n      dup1\n      swap2\n      sub\n      swap1\n      return\n        /* \"contracts/digiLocker.sol\":8846:9185  function getDocumentName(bytes32 _docId, address docOwner) public view returns(string memory){... */\n    tag_17:\n      tag_92\n      0x04\n      dup1\n      calldatasize\n      sub\n      dup2\n      add\n      swap1\n      tag_93\n      swap2\n      swap1\n      tag_53\n      jump\t// in\n    tag_93:\n      tag_94\n      jump\t// in\n    tag_92:\n      mload(0x40)\n      tag_95\n      swap2\n      swap1\n      tag_71\n      jump\t// in\n    tag_95:\n      mload(0x40)\n      dup1\n      swap2\n      sub\n      swap1\n      return\n        /* \"contracts/digiLocker.sol\":3761:3879  function getDocCountByUserId() public view returns(uint256){... */\n    tag_18:\n      tag_96\n      tag_97\n      jump\t// in\n    tag_96:\n      mload(0x40)\n      tag_98\n      swap2\n      swap1\n      tag_99\n      jump\t// in\n    tag_98:\n      mload(0x40)\n      dup1\n      swap2\n      sub\n      swap1\n      return\n        /* \"contracts/digiLocker.sol\":7618:7899  function getEmailIdByAddrss()public view returns(string memory,string memory,string memory){... */\n    tag_19:\n      tag_100\n      tag_101\n      jump\t// in\n    tag_100:\n      mload(0x40)\n      tag_102\n      swap4\n      swap3\n      swap2\n      swap1\n      tag_50\n      jump\t// in\n    tag_102:\n      mload(0x40)\n      dup1\n      swap2\n      sub\n      swap1\n      return\n        /* \"contracts/digiLocker.sol\":4650:4989  function isValidSharableUser(string memory email_) public view returns(bool){... */\n    tag_20:\n      tag_103\n      0x04\n      dup1\n      calldatasize\n      sub\n      dup2\n      add\n      swap1\n      tag_104\n      swap2\n      swap1\n      tag_85\n      jump\t// in\n    tag_104:\n      tag_105\n      jump\t// in\n    tag_103:\n      mload(0x40)\n      tag_106\n      swap2\n      swap1\n      tag_38\n      jump\t// in\n    tag_106:\n      mload(0x40)\n      dup1\n      swap2\n      sub\n      swap1\n      return\n        /* \"contracts/digiLocker.sol\":4997:5455  function getOwnerDocInfoByDocId(bytes32 docId)public view returns (string memory, string memory){... */\n    tag_21:\n      tag_107\n      0x04\n      dup1\n      calldatasize\n      sub\n      dup2\n      add\n      swap1\n      tag_108\n      swap2\n      swap1\n      tag_79\n      jump\t// in\n    tag_108:\n      tag_109\n      jump\t// in\n    tag_107:\n      mload(0x40)\n      tag_110\n      swap3\n      swap2\n      swap1\n      tag_111\n      jump\t// in\n    tag_110:\n      mload(0x40)\n      dup1\n      swap2\n      sub\n      swap1\n      return\n        /* \"contracts/digiLocker.sol\":8393:8693  function getDocIndex(bytes32 docid,address uaddr)public view returns(uint256){... */\n    tag_22:\n      tag_112\n      0x04\n      dup1\n      calldatasize\n      sub\n      dup2\n      add\n      swap1\n      tag_113\n      swap2\n      swap1\n      tag_53\n      jump\t// in\n    tag_113:\n      tag_114\n      jump\t// in\n    tag_112:\n      mload(0x40)\n      tag_115\n      swap2\n      swap1\n      tag_99\n      jump\t// in\n    tag_115:\n      mload(0x40)\n      dup1\n      swap2\n      sub\n      swap1\n      return\n        /* \"contracts/digiLocker.sol\":3496:3753  function checkAlreadyUpload(bytes32 docId)public view returns(bool){... */\n    tag_23:\n      tag_116\n      0x04\n      dup1\n      calldatasize\n      sub\n      dup2\n      add\n      swap1\n      tag_117\n      swap2\n      swap1\n      tag_79\n      jump\t// in\n    tag_117:\n      tag_118\n      jump\t// in\n    tag_116:\n      mload(0x40)\n      tag_119\n      swap2\n      swap1\n      tag_38\n      jump\t// in\n    tag_119:\n      mload(0x40)\n      dup1\n      swap2\n      sub\n      swap1\n      return\n        /* \"contracts/digiLocker.sol\":5644:6343  function getDocumetList(address _useradd)public view returns (... */\n    tag_30:\n        /* \"contracts/digiLocker.sol\":5716:5731  string[] memory */\n      0x60\n        /* \"contracts/digiLocker.sol\":5733:5748  string[] memory */\n      dup1\n        /* \"contracts/digiLocker.sol\":5750:5766  bytes32[] memory */\n      0x60\n        /* \"contracts/digiLocker.sol\":5779:5803  string[] memory _docName */\n      0x00\n        /* \"contracts/digiLocker.sol\":5819:5833  ownerDocuments */\n      0x03\n        /* \"contracts/digiLocker.sol\":5819:5843  ownerDocuments[_useradd] */\n      0x00\n        /* \"contracts/digiLocker.sol\":5834:5842  _useradd */\n      dup7\n        /* \"contracts/digiLocker.sol\":5819:5843  ownerDocuments[_useradd] */\n      0xffffffffffffffffffffffffffffffffffffffff\n      and\n      0xffffffffffffffffffffffffffffffffffffffff\n      and\n      dup2\n      mstore\n      0x20\n      add\n      swap1\n      dup2\n      mstore\n      0x20\n      add\n      0x00\n      keccak256\n        /* \"contracts/digiLocker.sol\":5819:5850  ownerDocuments[_useradd].length */\n      dup1\n      sload\n      swap1\n      pop\n        /* \"contracts/digiLocker.sol\":5806:5851  new string[](ownerDocuments[_useradd].length) */\n      0xffffffffffffffff\n      dup2\n      gt\n      iszero\n      tag_121\n      jumpi\n      tag_122\n      tag_123\n      jump\t// in\n    tag_122:\n    tag_121:\n      mload(0x40)\n      swap1\n      dup1\n      dup3\n      mstore\n      dup1\n      0x20\n      mul\n      0x20\n      add\n      dup3\n      add\n      0x40\n      mstore\n      dup1\n      iszero\n      tag_124\n      jumpi\n      dup2\n      0x20\n      add\n    tag_125:\n      0x60\n      dup2\n      mstore\n      0x20\n      add\n      swap1\n      0x01\n      swap1\n      sub\n      swap1\n      dup2\n      tag_125\n      jumpi\n      swap1\n      pop\n    tag_124:\n      pop\n        /* \"contracts/digiLocker.sol\":5779:5851  string[] memory _docName = new string[](ownerDocuments[_useradd].length) */\n      swap1\n      pop\n        /* \"contracts/digiLocker.sol\":5860:5886  string[] memory _timestamp */\n      0x00\n        /* \"contracts/digiLocker.sol\":5902:5916  ownerDocuments */\n      0x03\n        /* \"contracts/digiLocker.sol\":5902:5926  ownerDocuments[_useradd] */\n      0x00\n        /* \"contracts/digiLocker.sol\":5917:5925  _useradd */\n      dup8\n        /* \"contracts/digiLocker.sol\":5902:5926  ownerDocuments[_useradd] */\n      0xffffffffffffffffffffffffffffffffffffffff\n      and\n      0xffffffffffffffffffffffffffffffffffffffff\n      and\n      dup2\n      mstore\n      0x20\n      add\n      swap1\n      dup2\n      mstore\n      0x20\n      add\n      0x00\n      keccak256\n        /* \"contracts/digiLocker.sol\":5902:5933  ownerDocuments[_useradd].length */\n      dup1\n      sload\n      swap1\n      pop\n        /* \"contracts/digiLocker.sol\":5889:5934  new string[](ownerDocuments[_useradd].length) */\n      0xffffffffffffffff\n      dup2\n      gt\n      iszero\n      tag_126\n      jumpi\n      tag_127\n      tag_123\n      jump\t// in\n    tag_127:\n    tag_126:\n      mload(0x40)\n      swap1\n      dup1\n      dup3\n      mstore\n      dup1\n      0x20\n      mul\n      0x20\n      add\n      dup3\n      add\n      0x40\n      mstore\n      dup1\n      iszero\n      tag_128\n      jumpi\n      dup2\n      0x20\n      add\n    tag_129:\n      0x60\n      dup2\n      mstore\n      0x20\n      add\n      swap1\n      0x01\n      swap1\n      sub\n      swap1\n      dup2\n      tag_129\n      jumpi\n      swap1\n      pop\n    tag_128:\n      pop\n        /* \"contracts/digiLocker.sol\":5860:5934  string[] memory _timestamp = new string[](ownerDocuments[_useradd].length) */\n      swap1\n      pop\n        /* \"contracts/digiLocker.sol\":5943:5966  bytes32[] memory _docid */\n      0x00\n        /* \"contracts/digiLocker.sol\":5983:5997  ownerDocuments */\n      0x03\n        /* \"contracts/digiLocker.sol\":5983:6007  ownerDocuments[_useradd] */\n      0x00\n        /* \"contracts/digiLocker.sol\":5998:6006  _useradd */\n      dup9\n        /* \"contracts/digiLocker.sol\":5983:6007  ownerDocuments[_useradd] */\n      0xffffffffffffffffffffffffffffffffffffffff\n      and\n      0xffffffffffffffffffffffffffffffffffffffff\n      and\n      dup2\n      mstore\n      0x20\n      add\n      swap1\n      dup2\n      mstore\n      0x20\n      add\n      0x00\n      keccak256\n        /* \"contracts/digiLocker.sol\":5983:6014  ownerDocuments[_useradd].length */\n      dup1\n      sload\n      swap1\n      pop\n        /* \"contracts/digiLocker.sol\":5969:6015  new bytes32[](ownerDocuments[_useradd].length) */\n      0xffffffffffffffff\n      dup2\n      gt\n      iszero\n      tag_130\n      jumpi\n      tag_131\n      tag_123\n      jump\t// in\n    tag_131:\n    tag_130:\n      mload(0x40)\n      swap1\n      dup1\n      dup3\n      mstore\n      dup1\n      0x20\n      mul\n      0x20\n      add\n      dup3\n      add\n      0x40\n      mstore\n      dup1\n      iszero\n      tag_132\n      jumpi\n      dup2\n      0x20\n      add\n      0x20\n      dup3\n      mul\n      dup1\n      calldatasize\n      dup4\n      calldatacopy\n      dup1\n      dup3\n      add\n      swap2\n      pop\n      pop\n      swap1\n      pop\n    tag_132:\n      pop\n        /* \"contracts/digiLocker.sol\":5943:6015  bytes32[] memory _docid = new bytes32[](ownerDocuments[_useradd].length) */\n      swap1\n      pop\n        /* \"contracts/digiLocker.sol\":6038:6044  uint i */\n      0x00\n        /* \"contracts/digiLocker.sol\":6034:6283  for(uint i=0;i<ownerDocuments[_useradd].length;i++){... */\n    tag_133:\n        /* \"contracts/digiLocker.sol\":6049:6063  ownerDocuments */\n      0x03\n        /* \"contracts/digiLocker.sol\":6049:6073  ownerDocuments[_useradd] */\n      0x00\n        /* \"contracts/digiLocker.sol\":6064:6072  _useradd */\n      dup10\n        /* \"contracts/digiLocker.sol\":6049:6073  ownerDocuments[_useradd] */\n      0xffffffffffffffffffffffffffffffffffffffff\n      and\n      0xffffffffffffffffffffffffffffffffffffffff\n      and\n      dup2\n      mstore\n      0x20\n      add\n      swap1\n      dup2\n      mstore\n      0x20\n      add\n      0x00\n      keccak256\n        /* \"contracts/digiLocker.sol\":6049:6080  ownerDocuments[_useradd].length */\n      dup1\n      sload\n      swap1\n      pop\n        /* \"contracts/digiLocker.sol\":6047:6048  i */\n      dup2\n        /* \"contracts/digiLocker.sol\":6047:6080  i<ownerDocuments[_useradd].length */\n      lt\n        /* \"contracts/digiLocker.sol\":6034:6283  for(uint i=0;i<ownerDocuments[_useradd].length;i++){... */\n      iszero\n      tag_134\n      jumpi\n        /* \"contracts/digiLocker.sol\":6113:6127  ownerDocuments */\n      0x03\n        /* \"contracts/digiLocker.sol\":6113:6137  ownerDocuments[_useradd] */\n      0x00\n        /* \"contracts/digiLocker.sol\":6128:6136  _useradd */\n      dup10\n        /* \"contracts/digiLocker.sol\":6113:6137  ownerDocuments[_useradd] */\n      0xffffffffffffffffffffffffffffffffffffffff\n      and\n      0xffffffffffffffffffffffffffffffffffffffff\n      and\n      dup2\n      mstore\n      0x20\n      add\n      swap1\n      dup2\n      mstore\n      0x20\n      add\n      0x00\n      keccak256\n        /* \"contracts/digiLocker.sol\":6138:6139  i */\n      dup2\n        /* \"contracts/digiLocker.sol\":6113:6140  ownerDocuments[_useradd][i] */\n      dup2\n      sload\n      dup2\n      lt\n      tag_136\n      jumpi\n      tag_137\n      tag_138\n      jump\t// in\n    tag_137:\n    tag_136:\n      swap1\n      0x00\n      mstore\n      keccak256(0x00, 0x20)\n      swap1\n      0x04\n      mul\n      add\n        /* \"contracts/digiLocker.sol\":6113:6150  ownerDocuments[_useradd][i].timestamp */\n      0x02\n      add\n        /* \"contracts/digiLocker.sol\":6097:6150  _timestamp[i] = ownerDocuments[_useradd][i].timestamp */\n      dup1\n      sload\n      tag_140\n      swap1\n      tag_141\n      jump\t// in\n    tag_140:\n      dup1\n      0x1f\n      add\n      0x20\n      dup1\n      swap2\n      div\n      mul\n      0x20\n      add\n      mload(0x40)\n      swap1\n      dup2\n      add\n      0x40\n      mstore\n      dup1\n      swap3\n      swap2\n      swap1\n      dup2\n      dup2\n      mstore\n      0x20\n      add\n      dup3\n      dup1\n      sload\n      tag_142\n      swap1\n      tag_141\n      jump\t// in\n    tag_142:\n      dup1\n      iszero\n      tag_143\n      jumpi\n      dup1\n      0x1f\n      lt\n      tag_144\n      jumpi\n      0x0100\n      dup1\n      dup4\n      sload\n      div\n      mul\n      dup4\n      mstore\n      swap2\n      0x20\n      add\n      swap2\n      jump(tag_143)\n    tag_144:\n      dup3\n      add\n      swap2\n      swap1\n      0x00\n      mstore\n      keccak256(0x00, 0x20)\n      swap1\n    tag_145:\n      dup2\n      sload\n      dup2\n      mstore\n      swap1\n      0x01\n      add\n      swap1\n      0x20\n      add\n      dup1\n      dup4\n      gt\n      tag_145\n      jumpi\n      dup3\n      swap1\n      sub\n      0x1f\n      and\n      dup3\n      add\n      swap2\n    tag_143:\n      pop\n      pop\n      pop\n      pop\n      pop\n        /* \"contracts/digiLocker.sol\":6097:6107  _timestamp */\n      dup4\n        /* \"contracts/digiLocker.sol\":6108:6109  i */\n      dup3\n        /* \"contracts/digiLocker.sol\":6097:6110  _timestamp[i] */\n      dup2\n      mload\n      dup2\n      lt\n      tag_146\n      jumpi\n      tag_147\n      tag_138\n      jump\t// in\n    tag_147:\n    tag_146:\n      0x20\n      mul\n      0x20\n      add\n      add\n        /* \"contracts/digiLocker.sol\":6097:6150  _timestamp[i] = ownerDocuments[_useradd][i].timestamp */\n      dup2\n      swap1\n      mstore\n      pop\n        /* \"contracts/digiLocker.sol\":6176:6190  ownerDocuments */\n      0x03\n        /* \"contracts/digiLocker.sol\":6176:6200  ownerDocuments[_useradd] */\n      0x00\n        /* \"contracts/digiLocker.sol\":6191:6199  _useradd */\n      dup10\n        /* \"contracts/digiLocker.sol\":6176:6200  ownerDocuments[_useradd] */\n      0xffffffffffffffffffffffffffffffffffffffff\n      and\n      0xffffffffffffffffffffffffffffffffffffffff\n      and\n      dup2\n      mstore\n      0x20\n      add\n      swap1\n      dup2\n      mstore\n      0x20\n      add\n      0x00\n      keccak256\n        /* \"contracts/digiLocker.sol\":6201:6202  i */\n      dup2\n        /* \"contracts/digiLocker.sol\":6176:6203  ownerDocuments[_useradd][i] */\n      dup2\n      sload\n      dup2\n      lt\n      tag_148\n      jumpi\n      tag_149\n      tag_138\n      jump\t// in\n    tag_149:\n    tag_148:\n      swap1\n      0x00\n      mstore\n      keccak256(0x00, 0x20)\n      swap1\n      0x04\n      mul\n      add\n        /* \"contracts/digiLocker.sol\":6176:6211  ownerDocuments[_useradd][i].docName */\n      0x01\n      add\n        /* \"contracts/digiLocker.sol\":6162:6211  _docName[i] = ownerDocuments[_useradd][i].docName */\n      dup1\n      sload\n      tag_151\n      swap1\n      tag_141\n      jump\t// in\n    tag_151:\n      dup1\n      0x1f\n      add\n      0x20\n      dup1\n      swap2\n      div\n      mul\n      0x20\n      add\n      mload(0x40)\n      swap1\n      dup2\n      add\n      0x40\n      mstore\n      dup1\n      swap3\n      swap2\n      swap1\n      dup2\n      dup2\n      mstore\n      0x20\n      add\n      dup3\n      dup1\n      sload\n      tag_152\n      swap1\n      tag_141\n      jump\t// in\n    tag_152:\n      dup1\n      iszero\n      tag_153\n      jumpi\n      dup1\n      0x1f\n      lt\n      tag_154\n      jumpi\n      0x0100\n      dup1\n      dup4\n      sload\n      div\n      mul\n      dup4\n      mstore\n      swap2\n      0x20\n      add\n      swap2\n      jump(tag_153)\n    tag_154:\n      dup3\n      add\n      swap2\n      swap1\n      0x00\n      mstore\n      keccak256(0x00, 0x20)\n      swap1\n    tag_155:\n      dup2\n      sload\n      dup2\n      mstore\n      swap1\n      0x01\n      add\n      swap1\n      0x20\n      add\n      dup1\n      dup4\n      gt\n      tag_155\n      jumpi\n      dup3\n      swap1\n      sub\n      0x1f\n      and\n      dup3\n      add\n      swap2\n    tag_153:\n      pop\n      pop\n      pop\n      pop\n      pop\n        /* \"contracts/digiLocker.sol\":6162:6170  _docName */\n      dup5\n        /* \"contracts/digiLocker.sol\":6171:6172  i */\n      dup3\n        /* \"contracts/digiLocker.sol\":6162:6173  _docName[i] */\n      dup2\n      mload\n      dup2\n      lt\n      tag_156\n      jumpi\n      tag_157\n      tag_138\n      jump\t// in\n    tag_157:\n    tag_156:\n      0x20\n      mul\n      0x20\n      add\n      add\n        /* \"contracts/digiLocker.sol\":6162:6211  _docName[i] = ownerDocuments[_useradd][i].docName */\n      dup2\n      swap1\n      mstore\n      pop\n        /* \"contracts/digiLocker.sol\":6235:6249  ownerDocuments */\n      0x03\n        /* \"contracts/digiLocker.sol\":6235:6259  ownerDocuments[_useradd] */\n      0x00\n        /* \"contracts/digiLocker.sol\":6250:6258  _useradd */\n      dup10\n        /* \"contracts/digiLocker.sol\":6235:6259  ownerDocuments[_useradd] */\n      0xffffffffffffffffffffffffffffffffffffffff\n      and\n      0xffffffffffffffffffffffffffffffffffffffff\n      and\n      dup2\n      mstore\n      0x20\n      add\n      swap1\n      dup2\n      mstore\n      0x20\n      add\n      0x00\n      keccak256\n        /* \"contracts/digiLocker.sol\":6260:6261  i */\n      dup2\n        /* \"contracts/digiLocker.sol\":6235:6262  ownerDocuments[_useradd][i] */\n      dup2\n      sload\n      dup2\n      lt\n      tag_158\n      jumpi\n      tag_159\n      tag_138\n      jump\t// in\n    tag_159:\n    tag_158:\n      swap1\n      0x00\n      mstore\n      keccak256(0x00, 0x20)\n      swap1\n      0x04\n      mul\n      add\n        /* \"contracts/digiLocker.sol\":6235:6268  ownerDocuments[_useradd][i].docid */\n      0x00\n      add\n      sload\n        /* \"contracts/digiLocker.sol\":6223:6229  _docid */\n      dup3\n        /* \"contracts/digiLocker.sol\":6230:6231  i */\n      dup3\n        /* \"contracts/digiLocker.sol\":6223:6232  _docid[i] */\n      dup2\n      mload\n      dup2\n      lt\n      tag_161\n      jumpi\n      tag_162\n      tag_138\n      jump\t// in\n    tag_162:\n    tag_161:\n      0x20\n      mul\n      0x20\n      add\n      add\n        /* \"contracts/digiLocker.sol\":6223:6268  _docid[i] = ownerDocuments[_useradd][i].docid */\n      dup2\n      dup2\n      mstore\n      pop\n      pop\n        /* \"contracts/digiLocker.sol\":6081:6084  i++ */\n      dup1\n      dup1\n      0x01\n      add\n      swap2\n      pop\n      pop\n        /* \"contracts/digiLocker.sol\":6034:6283  for(uint i=0;i<ownerDocuments[_useradd].length;i++){... */\n      jump(tag_133)\n    tag_134:\n      pop\n        /* \"contracts/digiLocker.sol\":6307:6315  _docName */\n      dup3\n        /* \"contracts/digiLocker.sol\":6316:6326  _timestamp */\n      dup3\n        /* \"contracts/digiLocker.sol\":6328:6334  _docid */\n      dup3\n        /* \"contracts/digiLocker.sol\":6299:6335  return (_docName,_timestamp, _docid) */\n      swap6\n      pop\n      swap6\n      pop\n      swap6\n      pop\n      pop\n      pop\n      pop\n        /* \"contracts/digiLocker.sol\":5644:6343  function getDocumetList(address _useradd)public view returns (... */\n      swap2\n      swap4\n      swap1\n      swap3\n      pop\n      jump\t// out\n        /* \"contracts/digiLocker.sol\":3891:4228  function uploadDocument(string memory docName, bytes32 docId, bytes32 docHash, string memory timestamp) public returns(bool){... */\n    tag_36:\n        /* \"contracts/digiLocker.sol\":4010:4014  bool */\n      0x00\n        /* \"contracts/digiLocker.sol\":4026:4043  Document memory d */\n      dup1\n        /* \"contracts/digiLocker.sol\":4046:4090  Document(docId, docName, timestamp, docHash) */\n      mload(0x40)\n      dup1\n      0x80\n      add\n      0x40\n      mstore\n      dup1\n        /* \"contracts/digiLocker.sol\":4055:4060  docId */\n      dup7\n        /* \"contracts/digiLocker.sol\":4046:4090  Document(docId, docName, timestamp, docHash) */\n      dup2\n      mstore\n      0x20\n      add\n        /* \"contracts/digiLocker.sol\":4062:4069  docName */\n      dup8\n        /* \"contracts/digiLocker.sol\":4046:4090  Document(docId, docName, timestamp, docHash) */\n      dup2\n      mstore\n      0x20\n      add\n        /* \"contracts/digiLocker.sol\":4071:4080  timestamp */\n      dup5\n        /* \"contracts/digiLocker.sol\":4046:4090  Document(docId, docName, timestamp, docHash) */\n      dup2\n      mstore\n      0x20\n      add\n        /* \"contracts/digiLocker.sol\":4082:4089  docHash */\n      dup6\n        /* \"contracts/digiLocker.sol\":4046:4090  Document(docId, docName, timestamp, docHash) */\n      dup2\n      mstore\n      pop\n        /* \"contracts/digiLocker.sol\":4026:4090  Document memory d = Document(docId, docName, timestamp, docHash) */\n      swap1\n      pop\n        /* \"contracts/digiLocker.sol\":4101:4115  ownerDocuments */\n      0x03\n        /* \"contracts/digiLocker.sol\":4101:4127  ownerDocuments[msg.sender] */\n      0x00\n        /* \"contracts/digiLocker.sol\":4116:4126  msg.sender */\n      caller\n        /* \"contracts/digiLocker.sol\":4101:4127  ownerDocuments[msg.sender] */\n      0xffffffffffffffffffffffffffffffffffffffff\n      and\n      0xffffffffffffffffffffffffffffffffffffffff\n      and\n      dup2\n      mstore\n      0x20\n      add\n      swap1\n      dup2\n      mstore\n      0x20\n      add\n      0x00\n      keccak256\n        /* \"contracts/digiLocker.sol\":4133:4134  d */\n      dup2\n        /* \"contracts/digiLocker.sol\":4101:4135  ownerDocuments[msg.sender].push(d) */\n      swap1\n      dup1\n      0x01\n      dup2\n      sload\n      add\n      dup1\n      dup3\n      sstore\n      dup1\n      swap2\n      pop\n      pop\n      0x01\n      swap1\n      sub\n      swap1\n      0x00\n      mstore\n      keccak256(0x00, 0x20)\n      swap1\n      0x04\n      mul\n      add\n      0x00\n      swap1\n      swap2\n      swap1\n      swap2\n      swap1\n      swap2\n      pop\n      0x00\n      dup3\n      add\n      mload\n      dup2\n      0x00\n      add\n      sstore\n      0x20\n      dup3\n      add\n      mload\n      dup2\n      0x01\n      add\n      swap1\n      dup2\n      tag_165\n      swap2\n      swap1\n      tag_166\n      jump\t// in\n    tag_165:\n      pop\n      0x40\n      dup3\n      add\n      mload\n      dup2\n      0x02\n      add\n      swap1\n      dup2\n      tag_167\n      swap2\n      swap1\n      tag_166\n      jump\t// in\n    tag_167:\n      pop\n      0x60\n      dup3\n      add\n      mload\n      dup2\n      0x03\n      add\n      sstore\n      pop\n      pop\n        /* \"contracts/digiLocker.sol\":4187:4197  msg.sender */\n      caller\n        /* \"contracts/digiLocker.sol\":4151:4198  uploadDocumentEvent(docId, docHash, msg.sender) */\n      0xffffffffffffffffffffffffffffffffffffffff\n      and\n        /* \"contracts/digiLocker.sol\":4171:4176  docId */\n      dup6\n        /* \"contracts/digiLocker.sol\":4151:4198  uploadDocumentEvent(docId, docHash, msg.sender) */\n      0x55855a3d3674c1acb8c196da3dfa5649298733532349de3028e120d990afbc0b\n        /* \"contracts/digiLocker.sol\":4178:4185  docHash */\n      dup7\n        /* \"contracts/digiLocker.sol\":4151:4198  uploadDocumentEvent(docId, docHash, msg.sender) */\n      mload(0x40)\n      tag_168\n      swap2\n      swap1\n      tag_58\n      jump\t// in\n    tag_168:\n      mload(0x40)\n      dup1\n      swap2\n      sub\n      swap1\n      log3\n        /* \"contracts/digiLocker.sol\":4216:4220  true */\n      0x01\n        /* \"contracts/digiLocker.sol\":4209:4220  return true */\n      swap2\n      pop\n      pop\n        /* \"contracts/digiLocker.sol\":3891:4228  function uploadDocument(string memory docName, bytes32 docId, bytes32 docHash, string memory timestamp) public returns(bool){... */\n      swap5\n      swap4\n      pop\n      pop\n      pop\n      pop\n      jump\t// out\n        /* \"contracts/digiLocker.sol\":2328:2603  function getRegisteredUser() public view returns(bytes32, address, string memory){... */\n    tag_40:\n        /* \"contracts/digiLocker.sol\":2377:2384  bytes32 */\n      0x00\n        /* \"contracts/digiLocker.sol\":2386:2393  address */\n      dup1\n        /* \"contracts/digiLocker.sol\":2395:2408  string memory */\n      0x60\n        /* \"contracts/digiLocker.sol\":2440:2453  registerUsers */\n      0x02\n        /* \"contracts/digiLocker.sol\":2440:2465  registerUsers[msg.sender] */\n      0x00\n        /* \"contracts/digiLocker.sol\":2454:2464  msg.sender */\n      caller\n        /* \"contracts/digiLocker.sol\":2440:2465  registerUsers[msg.sender] */\n      0xffffffffffffffffffffffffffffffffffffffff\n      and\n      0xffffffffffffffffffffffffffffffffffffffff\n      and\n      dup2\n      mstore\n      0x20\n      add\n      swap1\n      dup2\n      mstore\n      0x20\n      add\n      0x00\n      keccak256\n        /* \"contracts/digiLocker.sol\":2440:2475  registerUsers[msg.sender].accessKey */\n      0x06\n      add\n      sload\n        /* \"contracts/digiLocker.sol\":2490:2503  registerUsers */\n      0x02\n        /* \"contracts/digiLocker.sol\":2490:2515  registerUsers[msg.sender] */\n      0x00\n        /* \"contracts/digiLocker.sol\":2504:2514  msg.sender */\n      caller\n        /* \"contracts/digiLocker.sol\":2490:2515  registerUsers[msg.sender] */\n      0xffffffffffffffffffffffffffffffffffffffff\n      and\n      0xffffffffffffffffffffffffffffffffffffffff\n      and\n      dup2\n      mstore\n      0x20\n      add\n      swap1\n      dup2\n      mstore\n      0x20\n      add\n      0x00\n      keccak256\n        /* \"contracts/digiLocker.sol\":2490:2528  registerUsers[msg.sender]._useraddress */\n      0x05\n      add\n      0x00\n      swap1\n      sload\n      swap1\n      0x0100\n      exp\n      swap1\n      div\n      0xffffffffffffffffffffffffffffffffffffffff\n      and\n        /* \"contracts/digiLocker.sol\":2542:2555  registerUsers */\n      0x02\n        /* \"contracts/digiLocker.sol\":2542:2567  registerUsers[msg.sender] */\n      0x00\n        /* \"contracts/digiLocker.sol\":2556:2566  msg.sender */\n      caller\n        /* \"contracts/digiLocker.sol\":2542:2567  registerUsers[msg.sender] */\n      0xffffffffffffffffffffffffffffffffffffffff\n      and\n      0xffffffffffffffffffffffffffffffffffffffff\n      and\n      dup2\n      mstore\n      0x20\n      add\n      swap1\n      dup2\n      mstore\n      0x20\n      add\n      0x00\n      keccak256\n        /* \"contracts/digiLocker.sol\":2542:2575  registerUsers[msg.sender].details */\n      0x01\n      add\n        /* \"contracts/digiLocker.sol\":2542:2585  registerUsers[msg.sender].details.firstName */\n      0x00\n      add\n        /* \"contracts/digiLocker.sol\":2419:2595  return (... */\n      dup1\n      dup1\n      sload\n      tag_170\n      swap1\n      tag_141\n      jump\t// in\n    tag_170:\n      dup1\n      0x1f\n      add\n      0x20\n      dup1\n      swap2\n      div\n      mul\n      0x20\n      add\n      mload(0x40)\n      swap1\n      dup2\n      add\n      0x40\n      mstore\n      dup1\n      swap3\n      swap2\n      swap1\n      dup2\n      dup2\n      mstore\n      0x20\n      add\n      dup3\n      dup1\n      sload\n      tag_171\n      swap1\n      tag_141\n      jump\t// in\n    tag_171:\n      dup1\n      iszero\n      tag_172\n      jumpi\n      dup1\n      0x1f\n      lt\n      tag_173\n      jumpi\n      0x0100\n      dup1\n      dup4\n      sload\n      div\n      mul\n      dup4\n      mstore\n      swap2\n      0x20\n      add\n      swap2\n      jump(tag_172)\n    tag_173:\n      dup3\n      add\n      swap2\n      swap1\n      0x00\n      mstore\n      keccak256(0x00, 0x20)\n      swap1\n    tag_174:\n      dup2\n      sload\n      dup2\n      mstore\n      swap1\n      0x01\n      add\n      swap1\n      0x20\n      add\n      dup1\n      dup4\n      gt\n      tag_174\n      jumpi\n      dup3\n      swap1\n      sub\n      0x1f\n      and\n      dup3\n      add\n      swap2\n    tag_172:\n      pop\n      pop\n      pop\n      pop\n      pop\n      swap1\n      pop\n      swap3\n      pop\n      swap3\n      pop\n      swap3\n      pop\n        /* \"contracts/digiLocker.sol\":2328:2603  function getRegisteredUser() public view returns(bytes32, address, string memory){... */\n      swap1\n      swap2\n      swap3\n      jump\t// out\n        /* \"contracts/digiLocker.sol\":1788:2045  function isalreadyRegisteredUser() public view returns(bool){... */\n    tag_44:\n        /* \"contracts/digiLocker.sol\":1843:1847  bool */\n      0x00\n        /* \"contracts/digiLocker.sol\":1904:1946  0x0000000000000000000000000000000000000000 */\n      dup1\n        /* \"contracts/digiLocker.sol\":1862:1946  registerUsers[msg.sender]._useraddress == 0x0000000000000000000000000000000000000000 */\n      0xffffffffffffffffffffffffffffffffffffffff\n      and\n        /* \"contracts/digiLocker.sol\":1862:1875  registerUsers */\n      0x02\n        /* \"contracts/digiLocker.sol\":1862:1887  registerUsers[msg.sender] */\n      0x00\n        /* \"contracts/digiLocker.sol\":1876:1886  msg.sender */\n      caller\n        /* \"contracts/digiLocker.sol\":1862:1887  registerUsers[msg.sender] */\n      0xffffffffffffffffffffffffffffffffffffffff\n      and\n      0xffffffffffffffffffffffffffffffffffffffff\n      and\n      dup2\n      mstore\n      0x20\n      add\n      swap1\n      dup2\n      mstore\n      0x20\n      add\n      0x00\n      keccak256\n        /* \"contracts/digiLocker.sol\":1862:1900  registerUsers[msg.sender]._useraddress */\n      0x05\n      add\n      0x00\n      swap1\n      sload\n      swap1\n      0x0100\n      exp\n      swap1\n      div\n      0xffffffffffffffffffffffffffffffffffffffff\n      and\n        /* \"contracts/digiLocker.sol\":1862:1946  registerUsers[msg.sender]._useraddress == 0x0000000000000000000000000000000000000000 */\n      0xffffffffffffffffffffffffffffffffffffffff\n      and\n      sub\n        /* \"contracts/digiLocker.sol\":1859:2038  if(registerUsers[msg.sender]._useraddress == 0x0000000000000000000000000000000000000000){... */\n      tag_176\n      jumpi\n        /* \"contracts/digiLocker.sol\":1969:1974  false */\n      0x00\n        /* \"contracts/digiLocker.sol\":1962:1974  return false */\n      swap1\n      pop\n      jump(tag_175)\n        /* \"contracts/digiLocker.sol\":1859:2038  if(registerUsers[msg.sender]._useraddress == 0x0000000000000000000000000000000000000000){... */\n    tag_176:\n        /* \"contracts/digiLocker.sol\":2022:2026  true */\n      0x01\n        /* \"contracts/digiLocker.sol\":2015:2026  return true */\n      swap1\n      pop\n        /* \"contracts/digiLocker.sol\":1788:2045  function isalreadyRegisteredUser() public view returns(bool){... */\n    tag_175:\n      swap1\n      jump\t// out\n        /* \"contracts/digiLocker.sol\":8082:8378  function getEmailIdByUsrAddr(address _usraddrs)public view returns(string memory,string memory,string memory){... */\n    tag_48:\n        /* \"contracts/digiLocker.sol\":8149:8162  string memory */\n      0x60\n        /* \"contracts/digiLocker.sol\":8163:8176  string memory */\n      dup1\n        /* \"contracts/digiLocker.sol\":8177:8190  string memory */\n      0x60\n        /* \"contracts/digiLocker.sol\":8210:8223  registerUsers */\n      0x02\n        /* \"contracts/digiLocker.sol\":8210:8234  registerUsers[_usraddrs] */\n      0x00\n        /* \"contracts/digiLocker.sol\":8224:8233  _usraddrs */\n      dup6\n        /* \"contracts/digiLocker.sol\":8210:8234  registerUsers[_usraddrs] */\n      0xffffffffffffffffffffffffffffffffffffffff\n      and\n      0xffffffffffffffffffffffffffffffffffffffff\n      and\n      dup2\n      mstore\n      0x20\n      add\n      swap1\n      dup2\n      mstore\n      0x20\n      add\n      0x00\n      keccak256\n        /* \"contracts/digiLocker.sol\":8210:8242  registerUsers[_usraddrs].details */\n      0x01\n      add\n        /* \"contracts/digiLocker.sol\":8210:8248  registerUsers[_usraddrs].details.email */\n      0x02\n      add\n        /* \"contracts/digiLocker.sol\":8267:8280  registerUsers */\n      0x02\n        /* \"contracts/digiLocker.sol\":8267:8291  registerUsers[_usraddrs] */\n      0x00\n        /* \"contracts/digiLocker.sol\":8281:8290  _usraddrs */\n      dup7\n        /* \"contracts/digiLocker.sol\":8267:8291  registerUsers[_usraddrs] */\n      0xffffffffffffffffffffffffffffffffffffffff\n      and\n      0xffffffffffffffffffffffffffffffffffffffff\n      and\n      dup2\n      mstore\n      0x20\n      add\n      swap1\n      dup2\n      mstore\n      0x20\n      add\n      0x00\n      keccak256\n        /* \"contracts/digiLocker.sol\":8267:8299  registerUsers[_usraddrs].details */\n      0x01\n      add\n        /* \"contracts/digiLocker.sol\":8267:8309  registerUsers[_usraddrs].details.firstName */\n      0x00\n      add\n        /* \"contracts/digiLocker.sol\":8328:8341  registerUsers */\n      0x02\n        /* \"contracts/digiLocker.sol\":8328:8352  registerUsers[_usraddrs] */\n      0x00\n        /* \"contracts/digiLocker.sol\":8342:8351  _usraddrs */\n      dup8\n        /* \"contracts/digiLocker.sol\":8328:8352  registerUsers[_usraddrs] */\n      0xffffffffffffffffffffffffffffffffffffffff\n      and\n      0xffffffffffffffffffffffffffffffffffffffff\n      and\n      dup2\n      mstore\n      0x20\n      add\n      swap1\n      dup2\n      mstore\n      0x20\n      add\n      0x00\n      keccak256\n        /* \"contracts/digiLocker.sol\":8328:8360  registerUsers[_usraddrs].details */\n      0x01\n      add\n        /* \"contracts/digiLocker.sol\":8328:8369  registerUsers[_usraddrs].details.lastName */\n      0x01\n      add\n        /* \"contracts/digiLocker.sol\":8202:8370  return (registerUsers[_usraddrs].details.email,... */\n      dup3\n      dup1\n      sload\n      tag_179\n      swap1\n      tag_141\n      jump\t// in\n    tag_179:\n      dup1\n      0x1f\n      add\n      0x20\n      dup1\n      swap2\n      div\n      mul\n      0x20\n      add\n      mload(0x40)\n      swap1\n      dup2\n      add\n      0x40\n      mstore\n      dup1\n      swap3\n      swap2\n      swap1\n      dup2\n      dup2\n      mstore\n      0x20\n      add\n      dup3\n      dup1\n      sload\n      tag_180\n      swap1\n      tag_141\n      jump\t// in\n    tag_180:\n      dup1\n      iszero\n      tag_181\n      jumpi\n      dup1\n      0x1f\n      lt\n      tag_182\n      jumpi\n      0x0100\n      dup1\n      dup4\n      sload\n      div\n      mul\n      dup4\n      mstore\n      swap2\n      0x20\n      add\n      swap2\n      jump(tag_181)\n    tag_182:\n      dup3\n      add\n      swap2\n      swap1\n      0x00\n      mstore\n      keccak256(0x00, 0x20)\n      swap1\n    tag_183:\n      dup2\n      sload\n      dup2\n      mstore\n      swap1\n      0x01\n      add\n      swap1\n      0x20\n      add\n      dup1\n      dup4\n      gt\n      tag_183\n      jumpi\n      dup3\n      swap1\n      sub\n      0x1f\n      and\n      dup3\n      add\n      swap2\n    tag_181:\n      pop\n      pop\n      pop\n      pop\n      pop\n      swap3\n      pop\n      dup2\n      dup1\n      sload\n      tag_184\n      swap1\n      tag_141\n      jump\t// in\n    tag_184:\n      dup1\n      0x1f\n      add\n      0x20\n      dup1\n      swap2\n      div\n      mul\n      0x20\n      add\n      mload(0x40)\n      swap1\n      dup2\n      add\n      0x40\n      mstore\n      dup1\n      swap3\n      swap2\n      swap1\n      dup2\n      dup2\n      mstore\n      0x20\n      add\n      dup3\n      dup1\n      sload\n      tag_185\n      swap1\n      tag_141\n      jump\t// in\n    tag_185:\n      dup1\n      iszero\n      tag_186\n      jumpi\n      dup1\n      0x1f\n      lt\n      tag_187\n      jumpi\n      0x0100\n      dup1\n      dup4\n      sload\n      div\n      mul\n      dup4\n      mstore\n      swap2\n      0x20\n      add\n      swap2\n      jump(tag_186)\n    tag_187:\n      dup3\n      add\n      swap2\n      swap1\n      0x00\n      mstore\n      keccak256(0x00, 0x20)\n      swap1\n    tag_188:\n      dup2\n      sload\n      dup2\n      mstore\n      swap1\n      0x01\n      add\n      swap1\n      0x20\n      add\n      dup1\n      dup4\n      gt\n      tag_188\n      jumpi\n      dup3\n      swap1\n      sub\n      0x1f\n      and\n      dup3\n      add\n      swap2\n    tag_186:\n      pop\n      pop\n      pop\n      pop\n      pop\n      swap2\n      pop\n      dup1\n      dup1\n      sload\n      tag_189\n      swap1\n      tag_141\n      jump\t// in\n    tag_189:\n      dup1\n      0x1f\n      add\n      0x20\n      dup1\n      swap2\n      div\n      mul\n      0x20\n      add\n      mload(0x40)\n      swap1\n      dup2\n      add\n      0x40\n      mstore\n      dup1\n      swap3\n      swap2\n      swap1\n      dup2\n      dup2\n      mstore\n      0x20\n      add\n      dup3\n      dup1\n      sload\n      tag_190\n      swap1\n      tag_141\n      jump\t// in\n    tag_190:\n      dup1\n      iszero\n      tag_191\n      jumpi\n      dup1\n      0x1f\n      lt\n      tag_192\n      jumpi\n      0x0100\n      dup1\n      dup4\n      sload\n      div\n      mul\n      dup4\n      mstore\n      swap2\n      0x20\n      add\n      swap2\n      jump(tag_191)\n    tag_192:\n      dup3\n      add\n      swap2\n      swap1\n      0x00\n      mstore\n      keccak256(0x00, 0x20)\n      swap1\n    tag_193:\n      dup2\n      sload\n      dup2\n      mstore\n      swap1\n      0x01\n      add\n      swap1\n      0x20\n      add\n      dup1\n      dup4\n      gt\n      tag_193\n      jumpi\n      dup3\n      swap1\n      sub\n      0x1f\n      and\n      dup3\n      add\n      swap2\n    tag_191:\n      pop\n      pop\n      pop\n      pop\n      pop\n      swap1\n      pop\n      swap3\n      pop\n      swap3\n      pop\n      swap3\n      pop\n        /* \"contracts/digiLocker.sol\":8082:8378  function getEmailIdByUsrAddr(address _usraddrs)public view returns(string memory,string memory,string memory){... */\n      swap2\n      swap4\n      swap1\n      swap3\n      pop\n      jump\t// out\n        /* \"contracts/digiLocker.sol\":4462:4642  function verifyUserDocument(bytes32 docid, address  _owner) public{... */\n    tag_54:\n        /* \"contracts/digiLocker.sol\":4623:4633  msg.sender */\n      caller\n        /* \"contracts/digiLocker.sol\":4590:4634  verifyDocumentEvent(docid,_owner,msg.sender) */\n      0xffffffffffffffffffffffffffffffffffffffff\n      and\n        /* \"contracts/digiLocker.sol\":4616:4622  _owner */\n      dup2\n        /* \"contracts/digiLocker.sol\":4590:4634  verifyDocumentEvent(docid,_owner,msg.sender) */\n      0xffffffffffffffffffffffffffffffffffffffff\n      and\n        /* \"contracts/digiLocker.sol\":4610:4615  docid */\n      dup4\n        /* \"contracts/digiLocker.sol\":4590:4634  verifyDocumentEvent(docid,_owner,msg.sender) */\n      0xefa9780427d41555988632182f6bb7afd5abc6dd414ee4e7385006b847244656\n      mload(0x40)\n      mload(0x40)\n      dup1\n      swap2\n      sub\n      swap1\n      log4\n        /* \"contracts/digiLocker.sol\":4462:4642  function verifyUserDocument(bytes32 docid, address  _owner) public{... */\n      pop\n      pop\n      jump\t// out\n        /* \"contracts/digiLocker.sol\":2073:2191  function getUseraccessKey() public view returns(bytes32){... */\n    tag_56:\n        /* \"contracts/digiLocker.sol\":2121:2128  bytes32 */\n      0x00\n        /* \"contracts/digiLocker.sol\":2147:2160  registerUsers */\n      0x02\n        /* \"contracts/digiLocker.sol\":2147:2172  registerUsers[msg.sender] */\n      0x00\n        /* \"contracts/digiLocker.sol\":2161:2171  msg.sender */\n      caller\n        /* \"contracts/digiLocker.sol\":2147:2172  registerUsers[msg.sender] */\n      0xffffffffffffffffffffffffffffffffffffffff\n      and\n      0xffffffffffffffffffffffffffffffffffffffff\n      and\n      dup2\n      mstore\n      0x20\n      add\n      swap1\n      dup2\n      mstore\n      0x20\n      add\n      0x00\n      keccak256\n        /* \"contracts/digiLocker.sol\":2147:2182  registerUsers[msg.sender].accessKey */\n      0x06\n      add\n      sload\n        /* \"contracts/digiLocker.sol\":2139:2183  return (registerUsers[msg.sender].accessKey) */\n      swap1\n      pop\n        /* \"contracts/digiLocker.sol\":2073:2191  function getUseraccessKey() public view returns(bytes32){... */\n      swap1\n      jump\t// out\n        /* \"contracts/digiLocker.sol\":2203:2316  function getUserType() public view returns(uint8){... */\n    tag_60:\n        /* \"contracts/digiLocker.sol\":2246:2251  uint8 */\n      0x00\n        /* \"contracts/digiLocker.sol\":2276:2289  registerUsers */\n      0x02\n        /* \"contracts/digiLocker.sol\":2276:2301  registerUsers[msg.sender] */\n      0x00\n        /* \"contracts/digiLocker.sol\":2290:2300  msg.sender */\n      caller\n        /* \"contracts/digiLocker.sol\":2276:2301  registerUsers[msg.sender] */\n      0xffffffffffffffffffffffffffffffffffffffff\n      and\n      0xffffffffffffffffffffffffffffffffffffffff\n      and\n      dup2\n      mstore\n      0x20\n      add\n      swap1\n      dup2\n      mstore\n      0x20\n      add\n      0x00\n      keccak256\n        /* \"contracts/digiLocker.sol\":2276:2307  registerUsers[msg.sender].utype */\n      0x00\n      add\n      0x00\n      swap1\n      sload\n      swap1\n      0x0100\n      exp\n      swap1\n      div\n      0xff\n      and\n        /* \"contracts/digiLocker.sol\":2270:2308  uint8(registerUsers[msg.sender].utype) */\n      0x03\n      dup2\n      gt\n      iszero\n      tag_197\n      jumpi\n      tag_198\n      tag_199\n      jump\t// in\n    tag_198:\n    tag_197:\n        /* \"contracts/digiLocker.sol\":2263:2308  return uint8(registerUsers[msg.sender].utype) */\n      swap1\n      pop\n        /* \"contracts/digiLocker.sol\":2203:2316  function getUserType() public view returns(uint8){... */\n      swap1\n      jump\t// out\n        /* \"contracts/digiLocker.sol\":4236:4454  function shareDocumentwithUser(bytes32 docid, uint8 permission,address _requester) public{... */\n    tag_66:\n        /* \"contracts/digiLocker.sol\":4423:4433  _requester */\n      dup1\n        /* \"contracts/digiLocker.sol\":4384:4446  sharedDocumentEvent(docid, msg.sender, _requester, permission) */\n      0xffffffffffffffffffffffffffffffffffffffff\n      and\n        /* \"contracts/digiLocker.sol\":4411:4421  msg.sender */\n      caller\n        /* \"contracts/digiLocker.sol\":4384:4446  sharedDocumentEvent(docid, msg.sender, _requester, permission) */\n      0xffffffffffffffffffffffffffffffffffffffff\n      and\n        /* \"contracts/digiLocker.sol\":4404:4409  docid */\n      dup5\n        /* \"contracts/digiLocker.sol\":4384:4446  sharedDocumentEvent(docid, msg.sender, _requester, permission) */\n      0x8a37e769a30d7c802c6c7e129e45ffa69a48ca0ee91129702aca0653b92cbb7c\n        /* \"contracts/digiLocker.sol\":4435:4445  permission */\n      dup6\n        /* \"contracts/digiLocker.sol\":4384:4446  sharedDocumentEvent(docid, msg.sender, _requester, permission) */\n      mload(0x40)\n      tag_201\n      swap2\n      swap1\n      tag_62\n      jump\t// in\n    tag_201:\n      mload(0x40)\n      dup1\n      swap2\n      sub\n      swap1\n      log4\n        /* \"contracts/digiLocker.sol\":4236:4454  function shareDocumentwithUser(bytes32 docid, uint8 permission,address _requester) public{... */\n      pop\n      pop\n      pop\n      jump\t// out\n        /* \"contracts/digiLocker.sol\":8705:8828  function getPublicKey(address uaddr)public view returns(string memory){... */\n    tag_69:\n        /* \"contracts/digiLocker.sol\":8761:8774  string memory */\n      0x60\n        /* \"contracts/digiLocker.sol\":8793:8806  registerUsers */\n      0x02\n        /* \"contracts/digiLocker.sol\":8793:8813  registerUsers[uaddr] */\n      0x00\n        /* \"contracts/digiLocker.sol\":8807:8812  uaddr */\n      dup4\n        /* \"contracts/digiLocker.sol\":8793:8813  registerUsers[uaddr] */\n      0xffffffffffffffffffffffffffffffffffffffff\n      and\n      0xffffffffffffffffffffffffffffffffffffffff\n      and\n      dup2\n      mstore\n      0x20\n      add\n      swap1\n      dup2\n      mstore\n      0x20\n      add\n      0x00\n      keccak256\n        /* \"contracts/digiLocker.sol\":8793:8820  registerUsers[uaddr].pubKey */\n      0x07\n      add\n        /* \"contracts/digiLocker.sol\":8786:8820  return registerUsers[uaddr].pubKey */\n      dup1\n      sload\n      tag_203\n      swap1\n      tag_141\n      jump\t// in\n    tag_203:\n      dup1\n      0x1f\n      add\n      0x20\n      dup1\n      swap2\n      div\n      mul\n      0x20\n      add\n      mload(0x40)\n      swap1\n      dup2\n      add\n      0x40\n      mstore\n      dup1\n      swap3\n      swap2\n      swap1\n      dup2\n      dup2\n      mstore\n      0x20\n      add\n      dup3\n      dup1\n      sload\n      tag_204\n      swap1\n      tag_141\n      jump\t// in\n    tag_204:\n      dup1\n      iszero\n      tag_205\n      jumpi\n      dup1\n      0x1f\n      lt\n      tag_206\n      jumpi\n      0x0100\n      dup1\n      dup4\n      sload\n      div\n      mul\n      dup4\n      mstore\n      swap2\n      0x20\n      add\n      swap2\n      jump(tag_205)\n    tag_206:\n      dup3\n      add\n      swap2\n      swap1\n      0x00\n      mstore\n      keccak256(0x00, 0x20)\n      swap1\n    tag_207:\n      dup2\n      sload\n      dup2\n      mstore\n      swap1\n      0x01\n      add\n      swap1\n      0x20\n      add\n      dup1\n      dup4\n      gt\n      tag_207\n      jumpi\n      dup3\n      swap1\n      sub\n      0x1f\n      and\n      dup3\n      add\n      swap2\n    tag_205:\n      pop\n      pop\n      pop\n      pop\n      pop\n      swap1\n      pop\n        /* \"contracts/digiLocker.sol\":8705:8828  function getPublicKey(address uaddr)public view returns(string memory){... */\n      swap2\n      swap1\n      pop\n      jump\t// out\n        /* \"contracts/digiLocker.sol\":2636:3487  function registerUser(string memory _firstName,... */\n    tag_75:\n        /* \"contracts/digiLocker.sol\":2877:2881  bool */\n      0x00\n        /* \"contracts/digiLocker.sol\":2898:2918  UserDetails memory d */\n      dup1\n        /* \"contracts/digiLocker.sol\":2921:2972  UserDetails(_firstName,_lastName, _email, _contact) */\n      mload(0x40)\n      dup1\n      0x80\n      add\n      0x40\n      mstore\n      dup1\n        /* \"contracts/digiLocker.sol\":2933:2943  _firstName */\n      dup11\n        /* \"contracts/digiLocker.sol\":2921:2972  UserDetails(_firstName,_lastName, _email, _contact) */\n      dup2\n      mstore\n      0x20\n      add\n        /* \"contracts/digiLocker.sol\":2944:2953  _lastName */\n      dup10\n        /* \"contracts/digiLocker.sol\":2921:2972  UserDetails(_firstName,_lastName, _email, _contact) */\n      dup2\n      mstore\n      0x20\n      add\n        /* \"contracts/digiLocker.sol\":2955:2961  _email */\n      dup9\n        /* \"contracts/digiLocker.sol\":2921:2972  UserDetails(_firstName,_lastName, _email, _contact) */\n      dup2\n      mstore\n      0x20\n      add\n        /* \"contracts/digiLocker.sol\":2963:2971  _contact */\n      dup7\n        /* \"contracts/digiLocker.sol\":2921:2972  UserDetails(_firstName,_lastName, _email, _contact) */\n      dup2\n      mstore\n      pop\n        /* \"contracts/digiLocker.sol\":2898:2972  UserDetails memory d = UserDetails(_firstName,_lastName, _email, _contact) */\n      swap1\n      pop\n        /* \"contracts/digiLocker.sol\":2991:3010  User memory newuser */\n      0x00\n        /* \"contracts/digiLocker.sol\":3013:3137  User(... */\n      mload(0x40)\n      dup1\n      0xc0\n      add\n      0x40\n      mstore\n      dup1\n        /* \"contracts/digiLocker.sol\":3049:3055  _utype */\n      dup9\n        /* \"contracts/digiLocker.sol\":3040:3056  userType(_utype) */\n      0xff\n      and\n      0x03\n      dup2\n      gt\n      iszero\n      tag_209\n      jumpi\n      tag_210\n      tag_199\n      jump\t// in\n    tag_210:\n    tag_209:\n        /* \"contracts/digiLocker.sol\":3013:3137  User(... */\n      0x03\n      dup2\n      gt\n      iszero\n      tag_211\n      jumpi\n      tag_212\n      tag_199\n      jump\t// in\n    tag_212:\n    tag_211:\n      dup2\n      mstore\n      0x20\n      add\n        /* \"contracts/digiLocker.sol\":3058:3062  true */\n      0x01\n        /* \"contracts/digiLocker.sol\":3013:3137  User(... */\n      iszero\n      iszero\n      dup2\n      mstore\n      0x20\n      add\n        /* \"contracts/digiLocker.sol\":3064:3065  d */\n      dup4\n        /* \"contracts/digiLocker.sol\":3013:3137  User(... */\n      dup2\n      mstore\n      0x20\n      add\n        /* \"contracts/digiLocker.sol\":3089:3099  msg.sender */\n      caller\n        /* \"contracts/digiLocker.sol\":3013:3137  User(... */\n      0xffffffffffffffffffffffffffffffffffffffff\n      and\n      dup2\n      mstore\n      0x20\n      add\n        /* \"contracts/digiLocker.sol\":3101:3110  accessKey */\n      dup7\n        /* \"contracts/digiLocker.sol\":3013:3137  User(... */\n      dup2\n      mstore\n      0x20\n      add\n        /* \"contracts/digiLocker.sol\":3112:3118  pubKey */\n      dup6\n        /* \"contracts/digiLocker.sol\":3013:3137  User(... */\n      dup2\n      mstore\n      pop\n        /* \"contracts/digiLocker.sol\":2991:3137  User memory newuser = User(... */\n      swap1\n      pop\n        /* \"contracts/digiLocker.sol\":3204:3214  msg.sender */\n      caller\n        /* \"contracts/digiLocker.sol\":3174:3193  emailAddressMapping */\n      0x04\n        /* \"contracts/digiLocker.sol\":3194:3200  _email */\n      dup10\n        /* \"contracts/digiLocker.sol\":3174:3201  emailAddressMapping[_email] */\n      mload(0x40)\n      tag_213\n      swap2\n      swap1\n      tag_214\n      jump\t// in\n    tag_213:\n      swap1\n      dup2\n      mstore\n      0x20\n      add\n      mload(0x40)\n      dup1\n      swap2\n      sub\n      swap1\n      keccak256\n      0x00\n        /* \"contracts/digiLocker.sol\":3174:3214  emailAddressMapping[_email] = msg.sender */\n      0x0100\n      exp\n      dup2\n      sload\n      dup2\n      0xffffffffffffffffffffffffffffffffffffffff\n      mul\n      not\n      and\n      swap1\n      dup4\n      0xffffffffffffffffffffffffffffffffffffffff\n      and\n      mul\n      or\n      swap1\n      sstore\n      pop\n        /* \"contracts/digiLocker.sol\":3279:3286  newuser */\n      dup1\n        /* \"contracts/digiLocker.sol\":3251:3264  registerUsers */\n      0x02\n        /* \"contracts/digiLocker.sol\":3251:3276  registerUsers[msg.sender] */\n      0x00\n        /* \"contracts/digiLocker.sol\":3265:3275  msg.sender */\n      caller\n        /* \"contracts/digiLocker.sol\":3251:3276  registerUsers[msg.sender] */\n      0xffffffffffffffffffffffffffffffffffffffff\n      and\n      0xffffffffffffffffffffffffffffffffffffffff\n      and\n      dup2\n      mstore\n      0x20\n      add\n      swap1\n      dup2\n      mstore\n      0x20\n      add\n      0x00\n      keccak256\n        /* \"contracts/digiLocker.sol\":3251:3286  registerUsers[msg.sender] = newuser */\n      0x00\n      dup3\n      add\n      mload\n      dup2\n      0x00\n      add\n      exp(0x0100, 0x00)\n      dup2\n      sload\n      dup2\n      0xff\n      mul\n      not\n      and\n      swap1\n      dup4\n      0x03\n      dup2\n      gt\n      iszero\n      tag_215\n      jumpi\n      tag_216\n      tag_199\n      jump\t// in\n    tag_216:\n    tag_215:\n      mul\n      or\n      swap1\n      sstore\n      pop\n      0x20\n      dup3\n      add\n      mload\n      dup2\n      0x00\n      add\n      exp(0x0100, 0x01)\n      dup2\n      sload\n      dup2\n      0xff\n      mul\n      not\n      and\n      swap1\n      dup4\n      iszero\n      iszero\n      mul\n      or\n      swap1\n      sstore\n      pop\n      0x40\n      dup3\n      add\n      mload\n      dup2\n      0x01\n      add\n      0x00\n      dup3\n      add\n      mload\n      dup2\n      0x00\n      add\n      swap1\n      dup2\n      tag_217\n      swap2\n      swap1\n      tag_166\n      jump\t// in\n    tag_217:\n      pop\n      0x20\n      dup3\n      add\n      mload\n      dup2\n      0x01\n      add\n      swap1\n      dup2\n      tag_218\n      swap2\n      swap1\n      tag_166\n      jump\t// in\n    tag_218:\n      pop\n      0x40\n      dup3\n      add\n      mload\n      dup2\n      0x02\n      add\n      swap1\n      dup2\n      tag_219\n      swap2\n      swap1\n      tag_166\n      jump\t// in\n    tag_219:\n      pop\n      0x60\n      dup3\n      add\n      mload\n      dup2\n      0x03\n      add\n      swap1\n      dup2\n      tag_220\n      swap2\n      swap1\n      tag_166\n      jump\t// in\n    tag_220:\n      pop\n      pop\n      pop\n      0x60\n      dup3\n      add\n      mload\n      dup2\n      0x05\n      add\n      exp(0x0100, 0x00)\n      dup2\n      sload\n      dup2\n      0xffffffffffffffffffffffffffffffffffffffff\n      mul\n      not\n      and\n      swap1\n      dup4\n      0xffffffffffffffffffffffffffffffffffffffff\n      and\n      mul\n      or\n      swap1\n      sstore\n      pop\n      0x80\n      dup3\n      add\n      mload\n      dup2\n      0x06\n      add\n      sstore\n      0xa0\n      dup3\n      add\n      mload\n      dup2\n      0x07\n      add\n      swap1\n      dup2\n      tag_221\n      swap2\n      swap1\n      tag_166\n      jump\t// in\n    tag_221:\n      pop\n      swap1\n      pop\n      pop\n        /* \"contracts/digiLocker.sol\":3356:3366  msg.sender */\n      caller\n        /* \"contracts/digiLocker.sol\":3310:3367  registeredUserEvent(_email, userType(_utype), msg.sender) */\n      0xffffffffffffffffffffffffffffffffffffffff\n      and\n      0xfdad81b5969e49863813d58b8e0c260ab1c544829173977d205d8440d844bde5\n        /* \"contracts/digiLocker.sol\":3330:3336  _email */\n      dup10\n        /* \"contracts/digiLocker.sol\":3347:3353  _utype */\n      dup10\n        /* \"contracts/digiLocker.sol\":3338:3354  userType(_utype) */\n      0xff\n      and\n      0x03\n      dup2\n      gt\n      iszero\n      tag_222\n      jumpi\n      tag_223\n      tag_199\n      jump\t// in\n    tag_223:\n    tag_222:\n        /* \"contracts/digiLocker.sol\":3310:3367  registeredUserEvent(_email, userType(_utype), msg.sender) */\n      mload(0x40)\n      tag_224\n      swap3\n      swap2\n      swap1\n      tag_225\n      jump\t// in\n    tag_224:\n      mload(0x40)\n      dup1\n      swap2\n      sub\n      swap1\n      log2\n        /* \"contracts/digiLocker.sol\":3386:3402  _glbluseraddress */\n      0x01\n        /* \"contracts/digiLocker.sol\":3408:3418  msg.sender */\n      caller\n        /* \"contracts/digiLocker.sol\":3386:3419  _glbluseraddress.push(msg.sender) */\n      swap1\n      dup1\n      0x01\n      dup2\n      sload\n      add\n      dup1\n      dup3\n      sstore\n      dup1\n      swap2\n      pop\n      pop\n      0x01\n      swap1\n      sub\n      swap1\n      0x00\n      mstore\n      keccak256(0x00, 0x20)\n      add\n      0x00\n      swap1\n      swap2\n      swap1\n      swap2\n      swap1\n      swap2\n      0x0100\n      exp\n      dup2\n      sload\n      dup2\n      0xffffffffffffffffffffffffffffffffffffffff\n      mul\n      not\n      and\n      swap1\n      dup4\n      0xffffffffffffffffffffffffffffffffffffffff\n      and\n      mul\n      or\n      swap1\n      sstore\n      pop\n        /* \"contracts/digiLocker.sol\":3438:3447  usercount */\n      0x00\n      dup1\n        /* \"contracts/digiLocker.sol\":3438:3449  usercount++ */\n      dup2\n      sload\n      dup1\n      swap3\n      swap2\n      swap1\n      tag_227\n      swap1\n      tag_228\n      jump\t// in\n    tag_227:\n      swap2\n      swap1\n      pop\n      sstore\n      pop\n        /* \"contracts/digiLocker.sol\":3475:3479  true */\n      0x01\n        /* \"contracts/digiLocker.sol\":3468:3479  return true */\n      swap3\n      pop\n      pop\n      pop\n        /* \"contracts/digiLocker.sol\":2636:3487  function registerUser(string memory _firstName,... */\n      swap8\n      swap7\n      pop\n      pop\n      pop\n      pop\n      pop\n      pop\n      pop\n      jump\t// out\n        /* \"contracts/digiLocker.sol\":6361:7610  function getDocumentListbyDocId(bytes32 _docId) public view returns(... */\n    tag_80:\n        /* \"contracts/digiLocker.sol\":6439:6446  bytes32 */\n      0x00\n        /* \"contracts/digiLocker.sol\":6458:6471  string memory */\n      0x60\n        /* \"contracts/digiLocker.sol\":6483:6496  string memory */\n      dup1\n        /* \"contracts/digiLocker.sol\":6508:6515  bytes32 */\n      0x00\n        /* \"contracts/digiLocker.sol\":6527:6540  string memory */\n      0x60\n        /* \"contracts/digiLocker.sol\":6552:6565  string memory */\n      dup1\n        /* \"contracts/digiLocker.sol\":6577:6590  string memory */\n      0x60\n        /* \"contracts/digiLocker.sol\":6602:6615  string memory */\n      dup1\n        /* \"contracts/digiLocker.sol\":6631:6637  uint i */\n      0x00\n        /* \"contracts/digiLocker.sol\":6627:7564  for(uint i=0;i<usercount;i++){... */\n    tag_230:\n        /* \"contracts/digiLocker.sol\":6642:6651  usercount */\n      sload(0x00)\n        /* \"contracts/digiLocker.sol\":6640:6641  i */\n      dup2\n        /* \"contracts/digiLocker.sol\":6640:6651  i<usercount */\n      lt\n        /* \"contracts/digiLocker.sol\":6627:7564  for(uint i=0;i<usercount;i++){... */\n      iszero\n      tag_231\n      jumpi\n        /* \"contracts/digiLocker.sol\":6675:6681  uint j */\n      0x00\n        /* \"contracts/digiLocker.sol\":6671:7539  for(uint j=0;j < ownerDocuments[_glbluseraddress[i]].length;j++){... */\n    tag_233:\n        /* \"contracts/digiLocker.sol\":6688:6702  ownerDocuments */\n      0x03\n        /* \"contracts/digiLocker.sol\":6688:6723  ownerDocuments[_glbluseraddress[i]] */\n      0x00\n        /* \"contracts/digiLocker.sol\":6703:6719  _glbluseraddress */\n      0x01\n        /* \"contracts/digiLocker.sol\":6720:6721  i */\n      dup5\n        /* \"contracts/digiLocker.sol\":6703:6722  _glbluseraddress[i] */\n      dup2\n      sload\n      dup2\n      lt\n      tag_236\n      jumpi\n      tag_237\n      tag_138\n      jump\t// in\n    tag_237:\n    tag_236:\n      swap1\n      0x00\n      mstore\n      keccak256(0x00, 0x20)\n      add\n      0x00\n      swap1\n      sload\n      swap1\n      0x0100\n      exp\n      swap1\n      div\n      0xffffffffffffffffffffffffffffffffffffffff\n      and\n        /* \"contracts/digiLocker.sol\":6688:6723  ownerDocuments[_glbluseraddress[i]] */\n      0xffffffffffffffffffffffffffffffffffffffff\n      and\n      0xffffffffffffffffffffffffffffffffffffffff\n      and\n      dup2\n      mstore\n      0x20\n      add\n      swap1\n      dup2\n      mstore\n      0x20\n      add\n      0x00\n      keccak256\n        /* \"contracts/digiLocker.sol\":6688:6730  ownerDocuments[_glbluseraddress[i]].length */\n      dup1\n      sload\n      swap1\n      pop\n        /* \"contracts/digiLocker.sol\":6684:6685  j */\n      dup2\n        /* \"contracts/digiLocker.sol\":6684:6730  j < ownerDocuments[_glbluseraddress[i]].length */\n      lt\n        /* \"contracts/digiLocker.sol\":6671:7539  for(uint j=0;j < ownerDocuments[_glbluseraddress[i]].length;j++){... */\n      iszero\n      tag_234\n      jumpi\n        /* \"contracts/digiLocker.sol\":6823:6829  _docId */\n      dup11\n        /* \"contracts/digiLocker.sol\":6775:6789  ownerDocuments */\n      0x03\n        /* \"contracts/digiLocker.sol\":6775:6810  ownerDocuments[_glbluseraddress[i]] */\n      0x00\n        /* \"contracts/digiLocker.sol\":6790:6806  _glbluseraddress */\n      0x01\n        /* \"contracts/digiLocker.sol\":6807:6808  i */\n      dup6\n        /* \"contracts/digiLocker.sol\":6790:6809  _glbluseraddress[i] */\n      dup2\n      sload\n      dup2\n      lt\n      tag_239\n      jumpi\n      tag_240\n      tag_138\n      jump\t// in\n    tag_240:\n    tag_239:\n      swap1\n      0x00\n      mstore\n      keccak256(0x00, 0x20)\n      add\n      0x00\n      swap1\n      sload\n      swap1\n      0x0100\n      exp\n      swap1\n      div\n      0xffffffffffffffffffffffffffffffffffffffff\n      and\n        /* \"contracts/digiLocker.sol\":6775:6810  ownerDocuments[_glbluseraddress[i]] */\n      0xffffffffffffffffffffffffffffffffffffffff\n      and\n      0xffffffffffffffffffffffffffffffffffffffff\n      and\n      dup2\n      mstore\n      0x20\n      add\n      swap1\n      dup2\n      mstore\n      0x20\n      add\n      0x00\n      keccak256\n        /* \"contracts/digiLocker.sol\":6811:6812  j */\n      dup3\n        /* \"contracts/digiLocker.sol\":6775:6813  ownerDocuments[_glbluseraddress[i]][j] */\n      dup2\n      sload\n      dup2\n      lt\n      tag_242\n      jumpi\n      tag_243\n      tag_138\n      jump\t// in\n    tag_243:\n    tag_242:\n      swap1\n      0x00\n      mstore\n      keccak256(0x00, 0x20)\n      swap1\n      0x04\n      mul\n      add\n        /* \"contracts/digiLocker.sol\":6775:6819  ownerDocuments[_glbluseraddress[i]][j].docid */\n      0x00\n      add\n      sload\n        /* \"contracts/digiLocker.sol\":6775:6829  ownerDocuments[_glbluseraddress[i]][j].docid == _docId */\n      sub\n        /* \"contracts/digiLocker.sol\":6772:7505  if(ownerDocuments[_glbluseraddress[i]][j].docid == _docId)... */\n      tag_245\n      jumpi\n        /* \"contracts/digiLocker.sol\":6908:6922  ownerDocuments */\n      0x03\n        /* \"contracts/digiLocker.sol\":6908:6943  ownerDocuments[_glbluseraddress[i]] */\n      0x00\n        /* \"contracts/digiLocker.sol\":6923:6939  _glbluseraddress */\n      0x01\n        /* \"contracts/digiLocker.sol\":6940:6941  i */\n      dup5\n        /* \"contracts/digiLocker.sol\":6923:6942  _glbluseraddress[i] */\n      dup2\n      sload\n      dup2\n      lt\n      tag_246\n      jumpi\n      tag_247\n      tag_138\n      jump\t// in\n    tag_247:\n    tag_246:\n      swap1\n      0x00\n      mstore\n      keccak256(0x00, 0x20)\n      add\n      0x00\n      swap1\n      sload\n      swap1\n      0x0100\n      exp\n      swap1\n      div\n      0xffffffffffffffffffffffffffffffffffffffff\n      and\n        /* \"contracts/digiLocker.sol\":6908:6943  ownerDocuments[_glbluseraddress[i]] */\n      0xffffffffffffffffffffffffffffffffffffffff\n      and\n      0xffffffffffffffffffffffffffffffffffffffff\n      and\n      dup2\n      mstore\n      0x20\n      add\n      swap1\n      dup2\n      mstore\n      0x20\n      add\n      0x00\n      keccak256\n        /* \"contracts/digiLocker.sol\":6944:6945  j */\n      dup2\n        /* \"contracts/digiLocker.sol\":6908:6946  ownerDocuments[_glbluseraddress[i]][j] */\n      dup2\n      sload\n      dup2\n      lt\n      tag_249\n      jumpi\n      tag_250\n      tag_138\n      jump\t// in\n    tag_250:\n    tag_249:\n      swap1\n      0x00\n      mstore\n      keccak256(0x00, 0x20)\n      swap1\n      0x04\n      mul\n      add\n        /* \"contracts/digiLocker.sol\":6908:6952  ownerDocuments[_glbluseraddress[i]][j].docid */\n      0x00\n      add\n      sload\n        /* \"contracts/digiLocker.sol\":6979:6993  ownerDocuments */\n      0x03\n        /* \"contracts/digiLocker.sol\":6979:7014  ownerDocuments[_glbluseraddress[i]] */\n      0x00\n        /* \"contracts/digiLocker.sol\":6994:7010  _glbluseraddress */\n      0x01\n        /* \"contracts/digiLocker.sol\":7011:7012  i */\n      dup6\n        /* \"contracts/digiLocker.sol\":6994:7013  _glbluseraddress[i] */\n      dup2\n      sload\n      dup2\n      lt\n      tag_252\n      jumpi\n      tag_253\n      tag_138\n      jump\t// in\n    tag_253:\n    tag_252:\n      swap1\n      0x00\n      mstore\n      keccak256(0x00, 0x20)\n      add\n      0x00\n      swap1\n      sload\n      swap1\n      0x0100\n      exp\n      swap1\n      div\n      0xffffffffffffffffffffffffffffffffffffffff\n      and\n        /* \"contracts/digiLocker.sol\":6979:7014  ownerDocuments[_glbluseraddress[i]] */\n      0xffffffffffffffffffffffffffffffffffffffff\n      and\n      0xffffffffffffffffffffffffffffffffffffffff\n      and\n      dup2\n      mstore\n      0x20\n      add\n      swap1\n      dup2\n      mstore\n      0x20\n      add\n      0x00\n      keccak256\n        /* \"contracts/digiLocker.sol\":7015:7016  j */\n      dup3\n        /* \"contracts/digiLocker.sol\":6979:7017  ownerDocuments[_glbluseraddress[i]][j] */\n      dup2\n      sload\n      dup2\n      lt\n      tag_255\n      jumpi\n      tag_256\n      tag_138\n      jump\t// in\n    tag_256:\n    tag_255:\n      swap1\n      0x00\n      mstore\n      keccak256(0x00, 0x20)\n      swap1\n      0x04\n      mul\n      add\n        /* \"contracts/digiLocker.sol\":6979:7025  ownerDocuments[_glbluseraddress[i]][j].docName */\n      0x01\n      add\n        /* \"contracts/digiLocker.sol\":7052:7066  ownerDocuments */\n      0x03\n        /* \"contracts/digiLocker.sol\":7052:7087  ownerDocuments[_glbluseraddress[i]] */\n      0x00\n        /* \"contracts/digiLocker.sol\":7067:7083  _glbluseraddress */\n      0x01\n        /* \"contracts/digiLocker.sol\":7084:7085  i */\n      dup7\n        /* \"contracts/digiLocker.sol\":7067:7086  _glbluseraddress[i] */\n      dup2\n      sload\n      dup2\n      lt\n      tag_258\n      jumpi\n      tag_259\n      tag_138\n      jump\t// in\n    tag_259:\n    tag_258:\n      swap1\n      0x00\n      mstore\n      keccak256(0x00, 0x20)\n      add\n      0x00\n      swap1\n      sload\n      swap1\n      0x0100\n      exp\n      swap1\n      div\n      0xffffffffffffffffffffffffffffffffffffffff\n      and\n        /* \"contracts/digiLocker.sol\":7052:7087  ownerDocuments[_glbluseraddress[i]] */\n      0xffffffffffffffffffffffffffffffffffffffff\n      and\n      0xffffffffffffffffffffffffffffffffffffffff\n      and\n      dup2\n      mstore\n      0x20\n      add\n      swap1\n      dup2\n      mstore\n      0x20\n      add\n      0x00\n      keccak256\n        /* \"contracts/digiLocker.sol\":7088:7089  j */\n      dup4\n        /* \"contracts/digiLocker.sol\":7052:7090  ownerDocuments[_glbluseraddress[i]][j] */\n      dup2\n      sload\n      dup2\n      lt\n      tag_261\n      jumpi\n      tag_262\n      tag_138\n      jump\t// in\n    tag_262:\n    tag_261:\n      swap1\n      0x00\n      mstore\n      keccak256(0x00, 0x20)\n      swap1\n      0x04\n      mul\n      add\n        /* \"contracts/digiLocker.sol\":7052:7100  ownerDocuments[_glbluseraddress[i]][j].timestamp */\n      0x02\n      add\n        /* \"contracts/digiLocker.sol\":7127:7141  ownerDocuments */\n      0x03\n        /* \"contracts/digiLocker.sol\":7127:7162  ownerDocuments[_glbluseraddress[i]] */\n      0x00\n        /* \"contracts/digiLocker.sol\":7142:7158  _glbluseraddress */\n      0x01\n        /* \"contracts/digiLocker.sol\":7159:7160  i */\n      dup8\n        /* \"contracts/digiLocker.sol\":7142:7161  _glbluseraddress[i] */\n      dup2\n      sload\n      dup2\n      lt\n      tag_264\n      jumpi\n      tag_265\n      tag_138\n      jump\t// in\n    tag_265:\n    tag_264:\n      swap1\n      0x00\n      mstore\n      keccak256(0x00, 0x20)\n      add\n      0x00\n      swap1\n      sload\n      swap1\n      0x0100\n      exp\n      swap1\n      div\n      0xffffffffffffffffffffffffffffffffffffffff\n      and\n        /* \"contracts/digiLocker.sol\":7127:7162  ownerDocuments[_glbluseraddress[i]] */\n      0xffffffffffffffffffffffffffffffffffffffff\n      and\n      0xffffffffffffffffffffffffffffffffffffffff\n      and\n      dup2\n      mstore\n      0x20\n      add\n      swap1\n      dup2\n      mstore\n      0x20\n      add\n      0x00\n      keccak256\n        /* \"contracts/digiLocker.sol\":7163:7164  j */\n      dup5\n        /* \"contracts/digiLocker.sol\":7127:7165  ownerDocuments[_glbluseraddress[i]][j] */\n      dup2\n      sload\n      dup2\n      lt\n      tag_267\n      jumpi\n      tag_268\n      tag_138\n      jump\t// in\n    tag_268:\n    tag_267:\n      swap1\n      0x00\n      mstore\n      keccak256(0x00, 0x20)\n      swap1\n      0x04\n      mul\n      add\n        /* \"contracts/digiLocker.sol\":7127:7173  ownerDocuments[_glbluseraddress[i]][j].docHash */\n      0x03\n      add\n      sload\n        /* \"contracts/digiLocker.sol\":7200:7213  registerUsers */\n      0x02\n        /* \"contracts/digiLocker.sol\":7200:7234  registerUsers[_glbluseraddress[i]] */\n      0x00\n        /* \"contracts/digiLocker.sol\":7214:7230  _glbluseraddress */\n      0x01\n        /* \"contracts/digiLocker.sol\":7231:7232  i */\n      dup9\n        /* \"contracts/digiLocker.sol\":7214:7233  _glbluseraddress[i] */\n      dup2\n      sload\n      dup2\n      lt\n      tag_270\n      jumpi\n      tag_271\n      tag_138\n      jump\t// in\n    tag_271:\n    tag_270:\n      swap1\n      0x00\n      mstore\n      keccak256(0x00, 0x20)\n      add\n      0x00\n      swap1\n      sload\n      swap1\n      0x0100\n      exp\n      swap1\n      div\n      0xffffffffffffffffffffffffffffffffffffffff\n      and\n        /* \"contracts/digiLocker.sol\":7200:7234  registerUsers[_glbluseraddress[i]] */\n      0xffffffffffffffffffffffffffffffffffffffff\n      and\n      0xffffffffffffffffffffffffffffffffffffffff\n      and\n      dup2\n      mstore\n      0x20\n      add\n      swap1\n      dup2\n      mstore\n      0x20\n      add\n      0x00\n      keccak256\n        /* \"contracts/digiLocker.sol\":7200:7242  registerUsers[_glbluseraddress[i]].details */\n      0x01\n      add\n        /* \"contracts/digiLocker.sol\":7200:7252  registerUsers[_glbluseraddress[i]].details.firstName */\n      0x00\n      add\n        /* \"contracts/digiLocker.sol\":7279:7292  registerUsers */\n      0x02\n        /* \"contracts/digiLocker.sol\":7279:7313  registerUsers[_glbluseraddress[i]] */\n      0x00\n        /* \"contracts/digiLocker.sol\":7293:7309  _glbluseraddress */\n      0x01\n        /* \"contracts/digiLocker.sol\":7310:7311  i */\n      dup10\n        /* \"contracts/digiLocker.sol\":7293:7312  _glbluseraddress[i] */\n      dup2\n      sload\n      dup2\n      lt\n      tag_273\n      jumpi\n      tag_274\n      tag_138\n      jump\t// in\n    tag_274:\n    tag_273:\n      swap1\n      0x00\n      mstore\n      keccak256(0x00, 0x20)\n      add\n      0x00\n      swap1\n      sload\n      swap1\n      0x0100\n      exp\n      swap1\n      div\n      0xffffffffffffffffffffffffffffffffffffffff\n      and\n        /* \"contracts/digiLocker.sol\":7279:7313  registerUsers[_glbluseraddress[i]] */\n      0xffffffffffffffffffffffffffffffffffffffff\n      and\n      0xffffffffffffffffffffffffffffffffffffffff\n      and\n      dup2\n      mstore\n      0x20\n      add\n      swap1\n      dup2\n      mstore\n      0x20\n      add\n      0x00\n      keccak256\n        /* \"contracts/digiLocker.sol\":7279:7321  registerUsers[_glbluseraddress[i]].details */\n      0x01\n      add\n        /* \"contracts/digiLocker.sol\":7279:7327  registerUsers[_glbluseraddress[i]].details.email */\n      0x02\n      add\n        /* \"contracts/digiLocker.sol\":7354:7367  registerUsers */\n      0x02\n        /* \"contracts/digiLocker.sol\":7354:7388  registerUsers[_glbluseraddress[i]] */\n      0x00\n        /* \"contracts/digiLocker.sol\":7368:7384  _glbluseraddress */\n      0x01\n        /* \"contracts/digiLocker.sol\":7385:7386  i */\n      dup11\n        /* \"contracts/digiLocker.sol\":7368:7387  _glbluseraddress[i] */\n      dup2\n      sload\n      dup2\n      lt\n      tag_276\n      jumpi\n      tag_277\n      tag_138\n      jump\t// in\n    tag_277:\n    tag_276:\n      swap1\n      0x00\n      mstore\n      keccak256(0x00, 0x20)\n      add\n      0x00\n      swap1\n      sload\n      swap1\n      0x0100\n      exp\n      swap1\n      div\n      0xffffffffffffffffffffffffffffffffffffffff\n      and\n        /* \"contracts/digiLocker.sol\":7354:7388  registerUsers[_glbluseraddress[i]] */\n      0xffffffffffffffffffffffffffffffffffffffff\n      and\n      0xffffffffffffffffffffffffffffffffffffffff\n      and\n      dup2\n      mstore\n      0x20\n      add\n      swap1\n      dup2\n      mstore\n      0x20\n      add\n      0x00\n      keccak256\n        /* \"contracts/digiLocker.sol\":7354:7396  registerUsers[_glbluseraddress[i]].details */\n      0x01\n      add\n        /* \"contracts/digiLocker.sol\":7354:7405  registerUsers[_glbluseraddress[i]].details.lastName */\n      0x01\n      add\n        /* \"contracts/digiLocker.sol\":7432:7445  registerUsers */\n      0x02\n        /* \"contracts/digiLocker.sol\":7432:7466  registerUsers[_glbluseraddress[i]] */\n      0x00\n        /* \"contracts/digiLocker.sol\":7446:7462  _glbluseraddress */\n      0x01\n        /* \"contracts/digiLocker.sol\":7463:7464  i */\n      dup12\n        /* \"contracts/digiLocker.sol\":7446:7465  _glbluseraddress[i] */\n      dup2\n      sload\n      dup2\n      lt\n      tag_279\n      jumpi\n      tag_280\n      tag_138\n      jump\t// in\n    tag_280:\n    tag_279:\n      swap1\n      0x00\n      mstore\n      keccak256(0x00, 0x20)\n      add\n      0x00\n      swap1\n      sload\n      swap1\n      0x0100\n      exp\n      swap1\n      div\n      0xffffffffffffffffffffffffffffffffffffffff\n      and\n        /* \"contracts/digiLocker.sol\":7432:7466  registerUsers[_glbluseraddress[i]] */\n      0xffffffffffffffffffffffffffffffffffffffff\n      and\n      0xffffffffffffffffffffffffffffffffffffffff\n      and\n      dup2\n      mstore\n      0x20\n      add\n      swap1\n      dup2\n      mstore\n      0x20\n      add\n      0x00\n      keccak256\n        /* \"contracts/digiLocker.sol\":7432:7474  registerUsers[_glbluseraddress[i]].details */\n      0x01\n      add\n        /* \"contracts/digiLocker.sol\":7432:7482  registerUsers[_glbluseraddress[i]].details.contact */\n      0x03\n      add\n        /* \"contracts/digiLocker.sol\":6874:7505  return (... */\n      dup7\n      dup1\n      sload\n      tag_282\n      swap1\n      tag_141\n      jump\t// in\n    tag_282:\n      dup1\n      0x1f\n      add\n      0x20\n      dup1\n      swap2\n      div\n      mul\n      0x20\n      add\n      mload(0x40)\n      swap1\n      dup2\n      add\n      0x40\n      mstore\n      dup1\n      swap3\n      swap2\n      swap1\n      dup2\n      dup2\n      mstore\n      0x20\n      add\n      dup3\n      dup1\n      sload\n      tag_283\n      swap1\n      tag_141\n      jump\t// in\n    tag_283:\n      dup1\n      iszero\n      tag_284\n      jumpi\n      dup1\n      0x1f\n      lt\n      tag_285\n      jumpi\n      0x0100\n      dup1\n      dup4\n      sload\n      div\n      mul\n      dup4\n      mstore\n      swap2\n      0x20\n      add\n      swap2\n      jump(tag_284)\n    tag_285:\n      dup3\n      add\n      swap2\n      swap1\n      0x00\n      mstore\n      keccak256(0x00, 0x20)\n      swap1\n    tag_286:\n      dup2\n      sload\n      dup2\n      mstore\n      swap1\n      0x01\n      add\n      swap1\n      0x20\n      add\n      dup1\n      dup4\n      gt\n      tag_286\n      jumpi\n      dup3\n      swap1\n      sub\n      0x1f\n      and\n      dup3\n      add\n      swap2\n    tag_284:\n      pop\n      pop\n      pop\n      pop\n      pop\n      swap7\n      pop\n      dup6\n      dup1\n      sload\n      tag_287\n      swap1\n      tag_141\n      jump\t// in\n    tag_287:\n      dup1\n      0x1f\n      add\n      0x20\n      dup1\n      swap2\n      div\n      mul\n      0x20\n      add\n      mload(0x40)\n      swap1\n      dup2\n      add\n      0x40\n      mstore\n      dup1\n      swap3\n      swap2\n      swap1\n      dup2\n      dup2\n      mstore\n      0x20\n      add\n      dup3\n      dup1\n      sload\n      tag_288\n      swap1\n      tag_141\n      jump\t// in\n    tag_288:\n      dup1\n      iszero\n      tag_289\n      jumpi\n      dup1\n      0x1f\n      lt\n      tag_290\n      jumpi\n      0x0100\n      dup1\n      dup4\n      sload\n      div\n      mul\n      dup4\n      mstore\n      swap2\n      0x20\n      add\n      swap2\n      jump(tag_289)\n    tag_290:\n      dup3\n      add\n      swap2\n      swap1\n      0x00\n      mstore\n      keccak256(0x00, 0x20)\n      swap1\n    tag_291:\n      dup2\n      sload\n      dup2\n      mstore\n      swap1\n      0x01\n      add\n      swap1\n      0x20\n      add\n      dup1\n      dup4\n      gt\n      tag_291\n      jumpi\n      dup3\n      swap1\n      sub\n      0x1f\n      and\n      dup3\n      add\n      swap2\n    tag_289:\n      pop\n      pop\n      pop\n      pop\n      pop\n      swap6\n      pop\n      dup4\n      dup1\n      sload\n      tag_292\n      swap1\n      tag_141\n      jump\t// in\n    tag_292:\n      dup1\n      0x1f\n      add\n      0x20\n      dup1\n      swap2\n      div\n      mul\n      0x20\n      add\n      mload(0x40)\n      swap1\n      dup2\n      add\n      0x40\n      mstore\n      dup1\n      swap3\n      swap2\n      swap1\n      dup2\n      dup2\n      mstore\n      0x20\n      add\n      dup3\n      dup1\n      sload\n      tag_293\n      swap1\n      tag_141\n      jump\t// in\n    tag_293:\n      dup1\n      iszero\n      tag_294\n      jumpi\n      dup1\n      0x1f\n      lt\n      tag_295\n      jumpi\n      0x0100\n      dup1\n      dup4\n      sload\n      div\n      mul\n      dup4\n      mstore\n      swap2\n      0x20\n      add\n      swap2\n      jump(tag_294)\n    tag_295:\n      dup3\n      add\n      swap2\n      swap1\n      0x00\n      mstore\n      keccak256(0x00, 0x20)\n      swap1\n    tag_296:\n      dup2\n      sload\n      dup2\n      mstore\n      swap1\n      0x01\n      add\n      swap1\n      0x20\n      add\n      dup1\n      dup4\n      gt\n      tag_296\n      jumpi\n      dup3\n      swap1\n      sub\n      0x1f\n      and\n      dup3\n      add\n      swap2\n    tag_294:\n      pop\n      pop\n      pop\n      pop\n      pop\n      swap4\n      pop\n      dup3\n      dup1\n      sload\n      tag_297\n      swap1\n      tag_141\n      jump\t// in\n    tag_297:\n      dup1\n      0x1f\n      add\n      0x20\n      dup1\n      swap2\n      div\n      mul\n      0x20\n      add\n      mload(0x40)\n      swap1\n      dup2\n      add\n      0x40\n      mstore\n      dup1\n      swap3\n      swap2\n      swap1\n      dup2\n      dup2\n      mstore\n      0x20\n      add\n      dup3\n      dup1\n      sload\n      tag_298\n      swap1\n      tag_141\n      jump\t// in\n    tag_298:\n      dup1\n      iszero\n      tag_299\n      jumpi\n      dup1\n      0x1f\n      lt\n      tag_300\n      jumpi\n      0x0100\n      dup1\n      dup4\n      sload\n      div\n      mul\n      dup4\n      mstore\n      swap2\n      0x20\n      add\n      swap2\n      jump(tag_299)\n    tag_300:\n      dup3\n      add\n      swap2\n      swap1\n      0x00\n      mstore\n      keccak256(0x00, 0x20)\n      swap1\n    tag_301:\n      dup2\n      sload\n      dup2\n      mstore\n      swap1\n      0x01\n      add\n      swap1\n      0x20\n      add\n      dup1\n      dup4\n      gt\n      tag_301\n      jumpi\n      dup3\n      swap1\n      sub\n      0x1f\n      and\n      dup3\n      add\n      swap2\n    tag_299:\n      pop\n      pop\n      pop\n      pop\n      pop\n      swap3\n      pop\n      dup2\n      dup1\n      sload\n      tag_302\n      swap1\n      tag_141\n      jump\t// in\n    tag_302:\n      dup1\n      0x1f\n      add\n      0x20\n      dup1\n      swap2\n      div\n      mul\n      0x20\n      add\n      mload(0x40)\n      swap1\n      dup2\n      add\n      0x40\n      mstore\n      dup1\n      swap3\n      swap2\n      swap1\n      dup2\n      dup2\n      mstore\n      0x20\n      add\n      dup3\n      dup1\n      sload\n      tag_303\n      swap1\n      tag_141\n      jump\t// in\n    tag_303:\n      dup1\n      iszero\n      tag_304\n      jumpi\n      dup1\n      0x1f\n      lt\n      tag_305\n      jumpi\n      0x0100\n      dup1\n      dup4\n      sload\n      div\n      mul\n      dup4\n      mstore\n      swap2\n      0x20\n      add\n      swap2\n      jump(tag_304)\n    tag_305:\n      dup3\n      add\n      swap2\n      swap1\n      0x00\n      mstore\n      keccak256(0x00, 0x20)\n      swap1\n    tag_306:\n      dup2\n      sload\n      dup2\n      mstore\n      swap1\n      0x01\n      add\n      swap1\n      0x20\n      add\n      dup1\n      dup4\n      gt\n      tag_306\n      jumpi\n      dup3\n      swap1\n      sub\n      0x1f\n      and\n      dup3\n      add\n      swap2\n    tag_304:\n      pop\n      pop\n      pop\n      pop\n      pop\n      swap2\n      pop\n      dup1\n      dup1\n      sload\n      tag_307\n      swap1\n      tag_141\n      jump\t// in\n    tag_307:\n      dup1\n      0x1f\n      add\n      0x20\n      dup1\n      swap2\n      div\n      mul\n      0x20\n      add\n      mload(0x40)\n      swap1\n      dup2\n      add\n      0x40\n      mstore\n      dup1\n      swap3\n      swap2\n      swap1\n      dup2\n      dup2\n      mstore\n      0x20\n      add\n      dup3\n      dup1\n      sload\n      tag_308\n      swap1\n      tag_141\n      jump\t// in\n    tag_308:\n      dup1\n      iszero\n      tag_309\n      jumpi\n      dup1\n      0x1f\n      lt\n      tag_310\n      jumpi\n      0x0100\n      dup1\n      dup4\n      sload\n      div\n      mul\n      dup4\n      mstore\n      swap2\n      0x20\n      add\n      swap2\n      jump(tag_309)\n    tag_310:\n      dup3\n      add\n      swap2\n      swap1\n      0x00\n      mstore\n      keccak256(0x00, 0x20)\n      swap1\n    tag_311:\n      dup2\n      sload\n      dup2\n      mstore\n      swap1\n      0x01\n      add\n      swap1\n      0x20\n      add\n      dup1\n      dup4\n      gt\n      tag_311\n      jumpi\n      dup3\n      swap1\n      sub\n      0x1f\n      and\n      dup3\n      add\n      swap2\n    tag_309:\n      pop\n      pop\n      pop\n      pop\n      pop\n      swap1\n      pop\n      swap10\n      pop\n      swap10\n      pop\n      swap10\n      pop\n      swap10\n      pop\n      swap10\n      pop\n      swap10\n      pop\n      swap10\n      pop\n      swap10\n      pop\n      pop\n      pop\n      jump(tag_229)\n        /* \"contracts/digiLocker.sol\":6772:7505  if(ownerDocuments[_glbluseraddress[i]][j].docid == _docId)... */\n    tag_245:\n        /* \"contracts/digiLocker.sol\":6731:6734  j++ */\n      dup1\n      dup1\n      0x01\n      add\n      swap2\n      pop\n      pop\n        /* \"contracts/digiLocker.sol\":6671:7539  for(uint j=0;j < ownerDocuments[_glbluseraddress[i]].length;j++){... */\n      jump(tag_233)\n    tag_234:\n      pop\n        /* \"contracts/digiLocker.sol\":6652:6655  i++ */\n      dup1\n      dup1\n      0x01\n      add\n      swap2\n      pop\n      pop\n        /* \"contracts/digiLocker.sol\":6627:7564  for(uint i=0;i<usercount;i++){... */\n      jump(tag_230)\n    tag_231:\n      pop\n        /* \"contracts/digiLocker.sol\":7574:7602  revert(\"Document not found\") */\n      mload(0x40)\n      0x08c379a000000000000000000000000000000000000000000000000000000000\n      dup2\n      mstore\n      0x04\n      add\n      tag_312\n      swap1\n      tag_313\n      jump\t// in\n    tag_312:\n      mload(0x40)\n      dup1\n      swap2\n      sub\n      swap1\n      revert\n        /* \"contracts/digiLocker.sol\":6361:7610  function getDocumentListbyDocId(bytes32 _docId) public view returns(... */\n    tag_229:\n      swap2\n      swap4\n      swap6\n      swap8\n      pop\n      swap2\n      swap4\n      swap6\n      swap8\n      jump\t// out\n        /* \"contracts/digiLocker.sol\":7911:8040  function getAddressByEmail(string memory _email)public view returns(address){... */\n    tag_86:\n        /* \"contracts/digiLocker.sol\":7979:7986  address */\n      0x00\n        /* \"contracts/digiLocker.sol\":8005:8024  emailAddressMapping */\n      0x04\n        /* \"contracts/digiLocker.sol\":8025:8031  _email */\n      dup3\n        /* \"contracts/digiLocker.sol\":8005:8032  emailAddressMapping[_email] */\n      mload(0x40)\n      tag_315\n      swap2\n      swap1\n      tag_214\n      jump\t// in\n    tag_315:\n      swap1\n      dup2\n      mstore\n      0x20\n      add\n      mload(0x40)\n      dup1\n      swap2\n      sub\n      swap1\n      keccak256\n      0x00\n      swap1\n      sload\n      swap1\n      0x0100\n      exp\n      swap1\n      div\n      0xffffffffffffffffffffffffffffffffffffffff\n      and\n        /* \"contracts/digiLocker.sol\":7998:8032  return emailAddressMapping[_email] */\n      swap1\n      pop\n        /* \"contracts/digiLocker.sol\":7911:8040  function getAddressByEmail(string memory _email)public view returns(address){... */\n      swap2\n      swap1\n      pop\n      jump\t// out\n        /* \"contracts/digiLocker.sol\":5467:5632  function getOwnerDocumetList()public view returns (... */\n    tag_90:\n        /* \"contracts/digiLocker.sol\":5528:5543  string[] memory */\n      0x60\n        /* \"contracts/digiLocker.sol\":5545:5560  string[] memory */\n      dup1\n        /* \"contracts/digiLocker.sol\":5562:5578  bytes32[] memory */\n      0x60\n        /* \"contracts/digiLocker.sol\":5598:5624  getDocumetList(msg.sender) */\n      tag_317\n        /* \"contracts/digiLocker.sol\":5613:5623  msg.sender */\n      caller\n        /* \"contracts/digiLocker.sol\":5598:5612  getDocumetList */\n      tag_30\n        /* \"contracts/digiLocker.sol\":5598:5624  getDocumetList(msg.sender) */\n      jump\t// in\n    tag_317:\n        /* \"contracts/digiLocker.sol\":5591:5624  return getDocumetList(msg.sender) */\n      swap3\n      pop\n      swap3\n      pop\n      swap3\n      pop\n        /* \"contracts/digiLocker.sol\":5467:5632  function getOwnerDocumetList()public view returns (... */\n      swap1\n      swap2\n      swap3\n      jump\t// out\n        /* \"contracts/digiLocker.sol\":8846:9185  function getDocumentName(bytes32 _docId, address docOwner) public view returns(string memory){... */\n    tag_94:\n        /* \"contracts/digiLocker.sol\":8925:8938  string memory */\n      0x60\n        /* \"contracts/digiLocker.sol\":8954:8960  uint j */\n      0x00\n        /* \"contracts/digiLocker.sol\":8950:9139  for(uint j=0;j < ownerDocuments[docOwner].length;j++){... */\n    tag_319:\n        /* \"contracts/digiLocker.sol\":8967:8981  ownerDocuments */\n      0x03\n        /* \"contracts/digiLocker.sol\":8967:8991  ownerDocuments[docOwner] */\n      0x00\n        /* \"contracts/digiLocker.sol\":8982:8990  docOwner */\n      dup5\n        /* \"contracts/digiLocker.sol\":8967:8991  ownerDocuments[docOwner] */\n      0xffffffffffffffffffffffffffffffffffffffff\n      and\n      0xffffffffffffffffffffffffffffffffffffffff\n      and\n      dup2\n      mstore\n      0x20\n      add\n      swap1\n      dup2\n      mstore\n      0x20\n      add\n      0x00\n      keccak256\n        /* \"contracts/digiLocker.sol\":8967:8998  ownerDocuments[docOwner].length */\n      dup1\n      sload\n      swap1\n      pop\n        /* \"contracts/digiLocker.sol\":8963:8964  j */\n      dup2\n        /* \"contracts/digiLocker.sol\":8963:8998  j < ownerDocuments[docOwner].length */\n      lt\n        /* \"contracts/digiLocker.sol\":8950:9139  for(uint j=0;j < ownerDocuments[docOwner].length;j++){... */\n      iszero\n      tag_320\n      jumpi\n        /* \"contracts/digiLocker.sol\":9058:9064  _docId */\n      dup4\n        /* \"contracts/digiLocker.sol\":9021:9035  ownerDocuments */\n      0x03\n        /* \"contracts/digiLocker.sol\":9021:9045  ownerDocuments[docOwner] */\n      0x00\n        /* \"contracts/digiLocker.sol\":9036:9044  docOwner */\n      dup6\n        /* \"contracts/digiLocker.sol\":9021:9045  ownerDocuments[docOwner] */\n      0xffffffffffffffffffffffffffffffffffffffff\n      and\n      0xffffffffffffffffffffffffffffffffffffffff\n      and\n      dup2\n      mstore\n      0x20\n      add\n      swap1\n      dup2\n      mstore\n      0x20\n      add\n      0x00\n      keccak256\n        /* \"contracts/digiLocker.sol\":9046:9047  j */\n      dup3\n        /* \"contracts/digiLocker.sol\":9021:9048  ownerDocuments[docOwner][j] */\n      dup2\n      sload\n      dup2\n      lt\n      tag_322\n      jumpi\n      tag_323\n      tag_138\n      jump\t// in\n    tag_323:\n    tag_322:\n      swap1\n      0x00\n      mstore\n      keccak256(0x00, 0x20)\n      swap1\n      0x04\n      mul\n      add\n        /* \"contracts/digiLocker.sol\":9021:9054  ownerDocuments[docOwner][j].docid */\n      0x00\n      add\n      sload\n        /* \"contracts/digiLocker.sol\":9021:9064  ownerDocuments[docOwner][j].docid == _docId */\n      sub\n        /* \"contracts/digiLocker.sol\":9018:9127  if(ownerDocuments[docOwner][j].docid == _docId)... */\n      tag_325\n      jumpi\n        /* \"contracts/digiLocker.sol\":9091:9105  ownerDocuments */\n      0x03\n        /* \"contracts/digiLocker.sol\":9091:9115  ownerDocuments[docOwner] */\n      0x00\n        /* \"contracts/digiLocker.sol\":9106:9114  docOwner */\n      dup5\n        /* \"contracts/digiLocker.sol\":9091:9115  ownerDocuments[docOwner] */\n      0xffffffffffffffffffffffffffffffffffffffff\n      and\n      0xffffffffffffffffffffffffffffffffffffffff\n      and\n      dup2\n      mstore\n      0x20\n      add\n      swap1\n      dup2\n      mstore\n      0x20\n      add\n      0x00\n      keccak256\n        /* \"contracts/digiLocker.sol\":9116:9117  j */\n      dup2\n        /* \"contracts/digiLocker.sol\":9091:9118  ownerDocuments[docOwner][j] */\n      dup2\n      sload\n      dup2\n      lt\n      tag_326\n      jumpi\n      tag_327\n      tag_138\n      jump\t// in\n    tag_327:\n    tag_326:\n      swap1\n      0x00\n      mstore\n      keccak256(0x00, 0x20)\n      swap1\n      0x04\n      mul\n      add\n        /* \"contracts/digiLocker.sol\":9091:9126  ownerDocuments[docOwner][j].docName */\n      0x01\n      add\n        /* \"contracts/digiLocker.sol\":9083:9127  return (ownerDocuments[docOwner][j].docName) */\n      dup1\n      sload\n      tag_329\n      swap1\n      tag_141\n      jump\t// in\n    tag_329:\n      dup1\n      0x1f\n      add\n      0x20\n      dup1\n      swap2\n      div\n      mul\n      0x20\n      add\n      mload(0x40)\n      swap1\n      dup2\n      add\n      0x40\n      mstore\n      dup1\n      swap3\n      swap2\n      swap1\n      dup2\n      dup2\n      mstore\n      0x20\n      add\n      dup3\n      dup1\n      sload\n      tag_330\n      swap1\n      tag_141\n      jump\t// in\n    tag_330:\n      dup1\n      iszero\n      tag_331\n      jumpi\n      dup1\n      0x1f\n      lt\n      tag_332\n      jumpi\n      0x0100\n      dup1\n      dup4\n      sload\n      div\n      mul\n      dup4\n      mstore\n      swap2\n      0x20\n      add\n      swap2\n      jump(tag_331)\n    tag_332:\n      dup3\n      add\n      swap2\n      swap1\n      0x00\n      mstore\n      keccak256(0x00, 0x20)\n      swap1\n    tag_333:\n      dup2\n      sload\n      dup2\n      mstore\n      swap1\n      0x01\n      add\n      swap1\n      0x20\n      add\n      dup1\n      dup4\n      gt\n      tag_333\n      jumpi\n      dup3\n      swap1\n      sub\n      0x1f\n      and\n      dup3\n      add\n      swap2\n    tag_331:\n      pop\n      pop\n      pop\n      pop\n      pop\n      swap2\n      pop\n      pop\n      jump(tag_318)\n        /* \"contracts/digiLocker.sol\":9018:9127  if(ownerDocuments[docOwner][j].docid == _docId)... */\n    tag_325:\n        /* \"contracts/digiLocker.sol\":8999:9002  j++ */\n      dup1\n      dup1\n      0x01\n      add\n      swap2\n      pop\n      pop\n        /* \"contracts/digiLocker.sol\":8950:9139  for(uint j=0;j < ownerDocuments[docOwner].length;j++){... */\n      jump(tag_319)\n    tag_320:\n      pop\n        /* \"contracts/digiLocker.sol\":9149:9177  revert(\"Document not found\") */\n      mload(0x40)\n      0x08c379a000000000000000000000000000000000000000000000000000000000\n      dup2\n      mstore\n      0x04\n      add\n      tag_334\n      swap1\n      tag_313\n      jump\t// in\n    tag_334:\n      mload(0x40)\n      dup1\n      swap2\n      sub\n      swap1\n      revert\n        /* \"contracts/digiLocker.sol\":8846:9185  function getDocumentName(bytes32 _docId, address docOwner) public view returns(string memory){... */\n    tag_318:\n      swap3\n      swap2\n      pop\n      pop\n      jump\t// out\n        /* \"contracts/digiLocker.sol\":3761:3879  function getDocCountByUserId() public view returns(uint256){... */\n    tag_97:\n        /* \"contracts/digiLocker.sol\":3812:3819  uint256 */\n      0x00\n        /* \"contracts/digiLocker.sol\":3838:3852  ownerDocuments */\n      0x03\n        /* \"contracts/digiLocker.sol\":3838:3864  ownerDocuments[msg.sender] */\n      0x00\n        /* \"contracts/digiLocker.sol\":3853:3863  msg.sender */\n      caller\n        /* \"contracts/digiLocker.sol\":3838:3864  ownerDocuments[msg.sender] */\n      0xffffffffffffffffffffffffffffffffffffffff\n      and\n      0xffffffffffffffffffffffffffffffffffffffff\n      and\n      dup2\n      mstore\n      0x20\n      add\n      swap1\n      dup2\n      mstore\n      0x20\n      add\n      0x00\n      keccak256\n        /* \"contracts/digiLocker.sol\":3838:3871  ownerDocuments[msg.sender].length */\n      dup1\n      sload\n      swap1\n      pop\n        /* \"contracts/digiLocker.sol\":3831:3871  return ownerDocuments[msg.sender].length */\n      swap1\n      pop\n        /* \"contracts/digiLocker.sol\":3761:3879  function getDocCountByUserId() public view returns(uint256){... */\n      swap1\n      jump\t// out\n        /* \"contracts/digiLocker.sol\":7618:7899  function getEmailIdByAddrss()public view returns(string memory,string memory,string memory){... */\n    tag_101:\n        /* \"contracts/digiLocker.sol\":7667:7680  string memory */\n      0x60\n        /* \"contracts/digiLocker.sol\":7681:7694  string memory */\n      dup1\n        /* \"contracts/digiLocker.sol\":7695:7708  string memory */\n      0x60\n        /* \"contracts/digiLocker.sol\":7728:7741  registerUsers */\n      0x02\n        /* \"contracts/digiLocker.sol\":7728:7753  registerUsers[msg.sender] */\n      0x00\n        /* \"contracts/digiLocker.sol\":7742:7752  msg.sender */\n      caller\n        /* \"contracts/digiLocker.sol\":7728:7753  registerUsers[msg.sender] */\n      0xffffffffffffffffffffffffffffffffffffffff\n      and\n      0xffffffffffffffffffffffffffffffffffffffff\n      and\n      dup2\n      mstore\n      0x20\n      add\n      swap1\n      dup2\n      mstore\n      0x20\n      add\n      0x00\n      keccak256\n        /* \"contracts/digiLocker.sol\":7728:7761  registerUsers[msg.sender].details */\n      0x01\n      add\n        /* \"contracts/digiLocker.sol\":7728:7767  registerUsers[msg.sender].details.email */\n      0x02\n      add\n        /* \"contracts/digiLocker.sol\":7786:7799  registerUsers */\n      0x02\n        /* \"contracts/digiLocker.sol\":7786:7811  registerUsers[msg.sender] */\n      0x00\n        /* \"contracts/digiLocker.sol\":7800:7810  msg.sender */\n      caller\n        /* \"contracts/digiLocker.sol\":7786:7811  registerUsers[msg.sender] */\n      0xffffffffffffffffffffffffffffffffffffffff\n      and\n      0xffffffffffffffffffffffffffffffffffffffff\n      and\n      dup2\n      mstore\n      0x20\n      add\n      swap1\n      dup2\n      mstore\n      0x20\n      add\n      0x00\n      keccak256\n        /* \"contracts/digiLocker.sol\":7786:7819  registerUsers[msg.sender].details */\n      0x01\n      add\n        /* \"contracts/digiLocker.sol\":7786:7829  registerUsers[msg.sender].details.firstName */\n      0x00\n      add\n        /* \"contracts/digiLocker.sol\":7848:7861  registerUsers */\n      0x02\n        /* \"contracts/digiLocker.sol\":7848:7873  registerUsers[msg.sender] */\n      0x00\n        /* \"contracts/digiLocker.sol\":7862:7872  msg.sender */\n      caller\n        /* \"contracts/digiLocker.sol\":7848:7873  registerUsers[msg.sender] */\n      0xffffffffffffffffffffffffffffffffffffffff\n      and\n      0xffffffffffffffffffffffffffffffffffffffff\n      and\n      dup2\n      mstore\n      0x20\n      add\n      swap1\n      dup2\n      mstore\n      0x20\n      add\n      0x00\n      keccak256\n        /* \"contracts/digiLocker.sol\":7848:7881  registerUsers[msg.sender].details */\n      0x01\n      add\n        /* \"contracts/digiLocker.sol\":7848:7890  registerUsers[msg.sender].details.lastName */\n      0x01\n      add\n        /* \"contracts/digiLocker.sol\":7720:7891  return (registerUsers[msg.sender].details.email,... */\n      dup3\n      dup1\n      sload\n      tag_337\n      swap1\n      tag_141\n      jump\t// in\n    tag_337:\n      dup1\n      0x1f\n      add\n      0x20\n      dup1\n      swap2\n      div\n      mul\n      0x20\n      add\n      mload(0x40)\n      swap1\n      dup2\n      add\n      0x40\n      mstore\n      dup1\n      swap3\n      swap2\n      swap1\n      dup2\n      dup2\n      mstore\n      0x20\n      add\n      dup3\n      dup1\n      sload\n      tag_338\n      swap1\n      tag_141\n      jump\t// in\n    tag_338:\n      dup1\n      iszero\n      tag_339\n      jumpi\n      dup1\n      0x1f\n      lt\n      tag_340\n      jumpi\n      0x0100\n      dup1\n      dup4\n      sload\n      div\n      mul\n      dup4\n      mstore\n      swap2\n      0x20\n      add\n      swap2\n      jump(tag_339)\n    tag_340:\n      dup3\n      add\n      swap2\n      swap1\n      0x00\n      mstore\n      keccak256(0x00, 0x20)\n      swap1\n    tag_341:\n      dup2\n      sload\n      dup2\n      mstore\n      swap1\n      0x01\n      add\n      swap1\n      0x20\n      add\n      dup1\n      dup4\n      gt\n      tag_341\n      jumpi\n      dup3\n      swap1\n      sub\n      0x1f\n      and\n      dup3\n      add\n      swap2\n    tag_339:\n      pop\n      pop\n      pop\n      pop\n      pop\n      swap3\n      pop\n      dup2\n      dup1\n      sload\n      tag_342\n      swap1\n      tag_141\n      jump\t// in\n    tag_342:\n      dup1\n      0x1f\n      add\n      0x20\n      dup1\n      swap2\n      div\n      mul\n      0x20\n      add\n      mload(0x40)\n      swap1\n      dup2\n      add\n      0x40\n      mstore\n      dup1\n      swap3\n      swap2\n      swap1\n      dup2\n      dup2\n      mstore\n      0x20\n      add\n      dup3\n      dup1\n      sload\n      tag_343\n      swap1\n      tag_141\n      jump\t// in\n    tag_343:\n      dup1\n      iszero\n      tag_344\n      jumpi\n      dup1\n      0x1f\n      lt\n      tag_345\n      jumpi\n      0x0100\n      dup1\n      dup4\n      sload\n      div\n      mul\n      dup4\n      mstore\n      swap2\n      0x20\n      add\n      swap2\n      jump(tag_344)\n    tag_345:\n      dup3\n      add\n      swap2\n      swap1\n      0x00\n      mstore\n      keccak256(0x00, 0x20)\n      swap1\n    tag_346:\n      dup2\n      sload\n      dup2\n      mstore\n      swap1\n      0x01\n      add\n      swap1\n      0x20\n      add\n      dup1\n      dup4\n      gt\n      tag_346\n      jumpi\n      dup3\n      swap1\n      sub\n      0x1f\n      and\n      dup3\n      add\n      swap2\n    tag_344:\n      pop\n      pop\n      pop\n      pop\n      pop\n      swap2\n      pop\n      dup1\n      dup1\n      sload\n      tag_347\n      swap1\n      tag_141\n      jump\t// in\n    tag_347:\n      dup1\n      0x1f\n      add\n      0x20\n      dup1\n      swap2\n      div\n      mul\n      0x20\n      add\n      mload(0x40)\n      swap1\n      dup2\n      add\n      0x40\n      mstore\n      dup1\n      swap3\n      swap2\n      swap1\n      dup2\n      dup2\n      mstore\n      0x20\n      add\n      dup3\n      dup1\n      sload\n      tag_348\n      swap1\n      tag_141\n      jump\t// in\n    tag_348:\n      dup1\n      iszero\n      tag_349\n      jumpi\n      dup1\n      0x1f\n      lt\n      tag_350\n      jumpi\n      0x0100\n      dup1\n      dup4\n      sload\n      div\n      mul\n      dup4\n      mstore\n      swap2\n      0x20\n      add\n      swap2\n      jump(tag_349)\n    tag_350:\n      dup3\n      add\n      swap2\n      swap1\n      0x00\n      mstore\n      keccak256(0x00, 0x20)\n      swap1\n    tag_351:\n      dup2\n      sload\n      dup2\n      mstore\n      swap1\n      0x01\n      add\n      swap1\n      0x20\n      add\n      dup1\n      dup4\n      gt\n      tag_351\n      jumpi\n      dup3\n      swap1\n      sub\n      0x1f\n      and\n      dup3\n      add\n      swap2\n    tag_349:\n      pop\n      pop\n      pop\n      pop\n      pop\n      swap1\n      pop\n      swap3\n      pop\n      swap3\n      pop\n      swap3\n      pop\n        /* \"contracts/digiLocker.sol\":7618:7899  function getEmailIdByAddrss()public view returns(string memory,string memory,string memory){... */\n      swap1\n      swap2\n      swap3\n      jump\t// out\n        /* \"contracts/digiLocker.sol\":4650:4989  function isValidSharableUser(string memory email_) public view returns(bool){... */\n    tag_105:\n        /* \"contracts/digiLocker.sol\":4721:4725  bool */\n      0x00\n        /* \"contracts/digiLocker.sol\":4771:4813  0x0000000000000000000000000000000000000000 */\n      dup1\n        /* \"contracts/digiLocker.sol\":4740:4813  emailAddressMapping[email_] != 0x0000000000000000000000000000000000000000 */\n      0xffffffffffffffffffffffffffffffffffffffff\n      and\n        /* \"contracts/digiLocker.sol\":4740:4759  emailAddressMapping */\n      0x04\n        /* \"contracts/digiLocker.sol\":4760:4766  email_ */\n      dup4\n        /* \"contracts/digiLocker.sol\":4740:4767  emailAddressMapping[email_] */\n      mload(0x40)\n      tag_353\n      swap2\n      swap1\n      tag_214\n      jump\t// in\n    tag_353:\n      swap1\n      dup2\n      mstore\n      0x20\n      add\n      mload(0x40)\n      dup1\n      swap2\n      sub\n      swap1\n      keccak256\n      0x00\n      swap1\n      sload\n      swap1\n      0x0100\n      exp\n      swap1\n      div\n      0xffffffffffffffffffffffffffffffffffffffff\n      and\n        /* \"contracts/digiLocker.sol\":4740:4813  emailAddressMapping[email_] != 0x0000000000000000000000000000000000000000 */\n      0xffffffffffffffffffffffffffffffffffffffff\n      and\n      eq\n      iszero\n        /* \"contracts/digiLocker.sol\":4740:4890  emailAddressMapping[email_] != 0x0000000000000000000000000000000000000000 &&... */\n      dup1\n      iszero\n      tag_354\n      jumpi\n      pop\n        /* \"contracts/digiLocker.sol\":4889:4890  2 */\n      0x02\n        /* \"contracts/digiLocker.sol\":4836:4849  registerUsers */\n      dup1\n        /* \"contracts/digiLocker.sol\":4836:4878  registerUsers[emailAddressMapping[email_]] */\n      0x00\n        /* \"contracts/digiLocker.sol\":4850:4869  emailAddressMapping */\n      0x04\n        /* \"contracts/digiLocker.sol\":4870:4876  email_ */\n      dup6\n        /* \"contracts/digiLocker.sol\":4850:4877  emailAddressMapping[email_] */\n      mload(0x40)\n      tag_355\n      swap2\n      swap1\n      tag_214\n      jump\t// in\n    tag_355:\n      swap1\n      dup2\n      mstore\n      0x20\n      add\n      mload(0x40)\n      dup1\n      swap2\n      sub\n      swap1\n      keccak256\n      0x00\n      swap1\n      sload\n      swap1\n      0x0100\n      exp\n      swap1\n      div\n      0xffffffffffffffffffffffffffffffffffffffff\n      and\n        /* \"contracts/digiLocker.sol\":4836:4878  registerUsers[emailAddressMapping[email_]] */\n      0xffffffffffffffffffffffffffffffffffffffff\n      and\n      0xffffffffffffffffffffffffffffffffffffffff\n      and\n      dup2\n      mstore\n      0x20\n      add\n      swap1\n      dup2\n      mstore\n      0x20\n      add\n      0x00\n      keccak256\n        /* \"contracts/digiLocker.sol\":4836:4884  registerUsers[emailAddressMapping[email_]].utype */\n      0x00\n      add\n      0x00\n      swap1\n      sload\n      swap1\n      0x0100\n      exp\n      swap1\n      div\n      0xff\n      and\n        /* \"contracts/digiLocker.sol\":4830:4885  uint8(registerUsers[emailAddressMapping[email_]].utype) */\n      0x03\n      dup2\n      gt\n      iszero\n      tag_356\n      jumpi\n      tag_357\n      tag_199\n      jump\t// in\n    tag_357:\n    tag_356:\n        /* \"contracts/digiLocker.sol\":4830:4890  uint8(registerUsers[emailAddressMapping[email_]].utype) == 2 */\n      0xff\n      and\n      eq\n        /* \"contracts/digiLocker.sol\":4740:4890  emailAddressMapping[email_] != 0x0000000000000000000000000000000000000000 &&... */\n    tag_354:\n        /* \"contracts/digiLocker.sol\":4737:4982  if(emailAddressMapping[email_] != 0x0000000000000000000000000000000000000000 &&... */\n      iszero\n      tag_358\n      jumpi\n        /* \"contracts/digiLocker.sol\":4913:4917  true */\n      0x01\n        /* \"contracts/digiLocker.sol\":4906:4917  return true */\n      swap1\n      pop\n      jump(tag_352)\n        /* \"contracts/digiLocker.sol\":4737:4982  if(emailAddressMapping[email_] != 0x0000000000000000000000000000000000000000 &&... */\n    tag_358:\n        /* \"contracts/digiLocker.sol\":4965:4970  false */\n      0x00\n        /* \"contracts/digiLocker.sol\":4958:4970  return false */\n      swap1\n      pop\n        /* \"contracts/digiLocker.sol\":4650:4989  function isValidSharableUser(string memory email_) public view returns(bool){... */\n    tag_352:\n      swap2\n      swap1\n      pop\n      jump\t// out\n        /* \"contracts/digiLocker.sol\":4997:5455  function getOwnerDocInfoByDocId(bytes32 docId)public view returns (string memory, string memory){... */\n    tag_109:\n        /* \"contracts/digiLocker.sol\":5064:5077  string memory */\n      0x60\n        /* \"contracts/digiLocker.sol\":5079:5092  string memory */\n      dup1\n        /* \"contracts/digiLocker.sol\":5118:5124  uint i */\n      0x00\n        /* \"contracts/digiLocker.sol\":5114:5406  for(uint i = 0; i < ownerDocuments[msg.sender].length; i++){... */\n    tag_361:\n        /* \"contracts/digiLocker.sol\":5134:5148  ownerDocuments */\n      0x03\n        /* \"contracts/digiLocker.sol\":5134:5160  ownerDocuments[msg.sender] */\n      0x00\n        /* \"contracts/digiLocker.sol\":5149:5159  msg.sender */\n      caller\n        /* \"contracts/digiLocker.sol\":5134:5160  ownerDocuments[msg.sender] */\n      0xffffffffffffffffffffffffffffffffffffffff\n      and\n      0xffffffffffffffffffffffffffffffffffffffff\n      and\n      dup2\n      mstore\n      0x20\n      add\n      swap1\n      dup2\n      mstore\n      0x20\n      add\n      0x00\n      keccak256\n        /* \"contracts/digiLocker.sol\":5134:5167  ownerDocuments[msg.sender].length */\n      dup1\n      sload\n      swap1\n      pop\n        /* \"contracts/digiLocker.sol\":5130:5131  i */\n      dup2\n        /* \"contracts/digiLocker.sol\":5130:5167  i < ownerDocuments[msg.sender].length */\n      lt\n        /* \"contracts/digiLocker.sol\":5114:5406  for(uint i = 0; i < ownerDocuments[msg.sender].length; i++){... */\n      iszero\n      tag_362\n      jumpi\n        /* \"contracts/digiLocker.sol\":5230:5235  docId */\n      dup4\n        /* \"contracts/digiLocker.sol\":5191:5205  ownerDocuments */\n      0x03\n        /* \"contracts/digiLocker.sol\":5191:5217  ownerDocuments[msg.sender] */\n      0x00\n        /* \"contracts/digiLocker.sol\":5206:5216  msg.sender */\n      caller\n        /* \"contracts/digiLocker.sol\":5191:5217  ownerDocuments[msg.sender] */\n      0xffffffffffffffffffffffffffffffffffffffff\n      and\n      0xffffffffffffffffffffffffffffffffffffffff\n      and\n      dup2\n      mstore\n      0x20\n      add\n      swap1\n      dup2\n      mstore\n      0x20\n      add\n      0x00\n      keccak256\n        /* \"contracts/digiLocker.sol\":5218:5219  i */\n      dup3\n        /* \"contracts/digiLocker.sol\":5191:5220  ownerDocuments[msg.sender][i] */\n      dup2\n      sload\n      dup2\n      lt\n      tag_364\n      jumpi\n      tag_365\n      tag_138\n      jump\t// in\n    tag_365:\n    tag_364:\n      swap1\n      0x00\n      mstore\n      keccak256(0x00, 0x20)\n      swap1\n      0x04\n      mul\n      add\n        /* \"contracts/digiLocker.sol\":5191:5226  ownerDocuments[msg.sender][i].docid */\n      0x00\n      add\n      sload\n        /* \"contracts/digiLocker.sol\":5191:5235  ownerDocuments[msg.sender][i].docid == docId */\n      sub\n        /* \"contracts/digiLocker.sol\":5188:5380  if(ownerDocuments[msg.sender][i].docid == docId)... */\n      tag_367\n      jumpi\n        /* \"contracts/digiLocker.sol\":5262:5276  ownerDocuments */\n      0x03\n        /* \"contracts/digiLocker.sol\":5262:5288  ownerDocuments[msg.sender] */\n      0x00\n        /* \"contracts/digiLocker.sol\":5277:5287  msg.sender */\n      caller\n        /* \"contracts/digiLocker.sol\":5262:5288  ownerDocuments[msg.sender] */\n      0xffffffffffffffffffffffffffffffffffffffff\n      and\n      0xffffffffffffffffffffffffffffffffffffffff\n      and\n      dup2\n      mstore\n      0x20\n      add\n      swap1\n      dup2\n      mstore\n      0x20\n      add\n      0x00\n      keccak256\n        /* \"contracts/digiLocker.sol\":5289:5290  i */\n      dup2\n        /* \"contracts/digiLocker.sol\":5262:5291  ownerDocuments[msg.sender][i] */\n      dup2\n      sload\n      dup2\n      lt\n      tag_368\n      jumpi\n      tag_369\n      tag_138\n      jump\t// in\n    tag_369:\n    tag_368:\n      swap1\n      0x00\n      mstore\n      keccak256(0x00, 0x20)\n      swap1\n      0x04\n      mul\n      add\n        /* \"contracts/digiLocker.sol\":5262:5299  ownerDocuments[msg.sender][i].docName */\n      0x01\n      add\n        /* \"contracts/digiLocker.sol\":5322:5336  ownerDocuments */\n      0x03\n        /* \"contracts/digiLocker.sol\":5322:5348  ownerDocuments[msg.sender] */\n      0x00\n        /* \"contracts/digiLocker.sol\":5337:5347  msg.sender */\n      caller\n        /* \"contracts/digiLocker.sol\":5322:5348  ownerDocuments[msg.sender] */\n      0xffffffffffffffffffffffffffffffffffffffff\n      and\n      0xffffffffffffffffffffffffffffffffffffffff\n      and\n      dup2\n      mstore\n      0x20\n      add\n      swap1\n      dup2\n      mstore\n      0x20\n      add\n      0x00\n      keccak256\n        /* \"contracts/digiLocker.sol\":5349:5350  i */\n      dup3\n        /* \"contracts/digiLocker.sol\":5322:5351  ownerDocuments[msg.sender][i] */\n      dup2\n      sload\n      dup2\n      lt\n      tag_371\n      jumpi\n      tag_372\n      tag_138\n      jump\t// in\n    tag_372:\n    tag_371:\n      swap1\n      0x00\n      mstore\n      keccak256(0x00, 0x20)\n      swap1\n      0x04\n      mul\n      add\n        /* \"contracts/digiLocker.sol\":5322:5361  ownerDocuments[msg.sender][i].timestamp */\n      0x02\n      add\n        /* \"contracts/digiLocker.sol\":5254:5380  return (ownerDocuments[msg.sender][i].docName,... */\n      dup2\n      dup1\n      sload\n      tag_374\n      swap1\n      tag_141\n      jump\t// in\n    tag_374:\n      dup1\n      0x1f\n      add\n      0x20\n      dup1\n      swap2\n      div\n      mul\n      0x20\n      add\n      mload(0x40)\n      swap1\n      dup2\n      add\n      0x40\n      mstore\n      dup1\n      swap3\n      swap2\n      swap1\n      dup2\n      dup2\n      mstore\n      0x20\n      add\n      dup3\n      dup1\n      sload\n      tag_375\n      swap1\n      tag_141\n      jump\t// in\n    tag_375:\n      dup1\n      iszero\n      tag_376\n      jumpi\n      dup1\n      0x1f\n      lt\n      tag_377\n      jumpi\n      0x0100\n      dup1\n      dup4\n      sload\n      div\n      mul\n      dup4\n      mstore\n      swap2\n      0x20\n      add\n      swap2\n      jump(tag_376)\n    tag_377:\n      dup3\n      add\n      swap2\n      swap1\n      0x00\n      mstore\n      keccak256(0x00, 0x20)\n      swap1\n    tag_378:\n      dup2\n      sload\n      dup2\n      mstore\n      swap1\n      0x01\n      add\n      swap1\n      0x20\n      add\n      dup1\n      dup4\n      gt\n      tag_378\n      jumpi\n      dup3\n      swap1\n      sub\n      0x1f\n      and\n      dup3\n      add\n      swap2\n    tag_376:\n      pop\n      pop\n      pop\n      pop\n      pop\n      swap2\n      pop\n      dup1\n      dup1\n      sload\n      tag_379\n      swap1\n      tag_141\n      jump\t// in\n    tag_379:\n      dup1\n      0x1f\n      add\n      0x20\n      dup1\n      swap2\n      div\n      mul\n      0x20\n      add\n      mload(0x40)\n      swap1\n      dup2\n      add\n      0x40\n      mstore\n      dup1\n      swap3\n      swap2\n      swap1\n      dup2\n      dup2\n      mstore\n      0x20\n      add\n      dup3\n      dup1\n      sload\n      tag_380\n      swap1\n      tag_141\n      jump\t// in\n    tag_380:\n      dup1\n      iszero\n      tag_381\n      jumpi\n      dup1\n      0x1f\n      lt\n      tag_382\n      jumpi\n      0x0100\n      dup1\n      dup4\n      sload\n      div\n      mul\n      dup4\n      mstore\n      swap2\n      0x20\n      add\n      swap2\n      jump(tag_381)\n    tag_382:\n      dup3\n      add\n      swap2\n      swap1\n      0x00\n      mstore\n      keccak256(0x00, 0x20)\n      swap1\n    tag_383:\n      dup2\n      sload\n      dup2\n      mstore\n      swap1\n      0x01\n      add\n      swap1\n      0x20\n      add\n      dup1\n      dup4\n      gt\n      tag_383\n      jumpi\n      dup3\n      swap1\n      sub\n      0x1f\n      and\n      dup3\n      add\n      swap2\n    tag_381:\n      pop\n      pop\n      pop\n      pop\n      pop\n      swap1\n      pop\n      swap3\n      pop\n      swap3\n      pop\n      pop\n      jump(tag_360)\n        /* \"contracts/digiLocker.sol\":5188:5380  if(ownerDocuments[msg.sender][i].docid == docId)... */\n    tag_367:\n        /* \"contracts/digiLocker.sol\":5169:5172  i++ */\n      dup1\n      dup1\n      0x01\n      add\n      swap2\n      pop\n      pop\n        /* \"contracts/digiLocker.sol\":5114:5406  for(uint i = 0; i < ownerDocuments[msg.sender].length; i++){... */\n      jump(tag_361)\n    tag_362:\n      pop\n        /* \"contracts/digiLocker.sol\":5419:5447  revert(\"Document not found\") */\n      mload(0x40)\n      0x08c379a000000000000000000000000000000000000000000000000000000000\n      dup2\n      mstore\n      0x04\n      add\n      tag_384\n      swap1\n      tag_313\n      jump\t// in\n    tag_384:\n      mload(0x40)\n      dup1\n      swap2\n      sub\n      swap1\n      revert\n        /* \"contracts/digiLocker.sol\":4997:5455  function getOwnerDocInfoByDocId(bytes32 docId)public view returns (string memory, string memory){... */\n    tag_360:\n      swap2\n      pop\n      swap2\n      jump\t// out\n        /* \"contracts/digiLocker.sol\":8393:8693  function getDocIndex(bytes32 docid,address uaddr)public view returns(uint256){... */\n    tag_114:\n        /* \"contracts/digiLocker.sol\":8462:8469  uint256 */\n      0x00\n        /* \"contracts/digiLocker.sol\":8493:8499  uint i */\n      dup1\n        /* \"contracts/digiLocker.sol\":8500:8501  0 */\n      0x00\n        /* \"contracts/digiLocker.sol\":8493:8501  uint i=0 */\n      swap1\n      pop\n        /* \"contracts/digiLocker.sol\":8489:8648  for(uint i=0;i < ownerDocuments[uaddr].length ;i++){... */\n    tag_386:\n        /* \"contracts/digiLocker.sol\":8506:8520  ownerDocuments */\n      0x03\n        /* \"contracts/digiLocker.sol\":8506:8527  ownerDocuments[uaddr] */\n      0x00\n        /* \"contracts/digiLocker.sol\":8521:8526  uaddr */\n      dup5\n        /* \"contracts/digiLocker.sol\":8506:8527  ownerDocuments[uaddr] */\n      0xffffffffffffffffffffffffffffffffffffffff\n      and\n      0xffffffffffffffffffffffffffffffffffffffff\n      and\n      dup2\n      mstore\n      0x20\n      add\n      swap1\n      dup2\n      mstore\n      0x20\n      add\n      0x00\n      keccak256\n        /* \"contracts/digiLocker.sol\":8506:8534  ownerDocuments[uaddr].length */\n      dup1\n      sload\n      swap1\n      pop\n        /* \"contracts/digiLocker.sol\":8502:8503  i */\n      dup2\n        /* \"contracts/digiLocker.sol\":8502:8534  i < ownerDocuments[uaddr].length */\n      lt\n        /* \"contracts/digiLocker.sol\":8489:8648  for(uint i=0;i < ownerDocuments[uaddr].length ;i++){... */\n      iszero\n      tag_387\n      jumpi\n        /* \"contracts/digiLocker.sol\":8591:8596  docid */\n      dup4\n        /* \"contracts/digiLocker.sol\":8557:8571  ownerDocuments */\n      0x03\n        /* \"contracts/digiLocker.sol\":8557:8578  ownerDocuments[uaddr] */\n      0x00\n        /* \"contracts/digiLocker.sol\":8572:8577  uaddr */\n      dup6\n        /* \"contracts/digiLocker.sol\":8557:8578  ownerDocuments[uaddr] */\n      0xffffffffffffffffffffffffffffffffffffffff\n      and\n      0xffffffffffffffffffffffffffffffffffffffff\n      and\n      dup2\n      mstore\n      0x20\n      add\n      swap1\n      dup2\n      mstore\n      0x20\n      add\n      0x00\n      keccak256\n        /* \"contracts/digiLocker.sol\":8579:8580  i */\n      dup3\n        /* \"contracts/digiLocker.sol\":8557:8581  ownerDocuments[uaddr][i] */\n      dup2\n      sload\n      dup2\n      lt\n      tag_389\n      jumpi\n      tag_390\n      tag_138\n      jump\t// in\n    tag_390:\n    tag_389:\n      swap1\n      0x00\n      mstore\n      keccak256(0x00, 0x20)\n      swap1\n      0x04\n      mul\n      add\n        /* \"contracts/digiLocker.sol\":8557:8587  ownerDocuments[uaddr][i].docid */\n      0x00\n      add\n      sload\n        /* \"contracts/digiLocker.sol\":8557:8596  ownerDocuments[uaddr][i].docid == docid */\n      sub\n        /* \"contracts/digiLocker.sol\":8554:8638  if(ownerDocuments[uaddr][i].docid == docid){... */\n      tag_392\n      jumpi\n        /* \"contracts/digiLocker.sol\":8622:8623  i */\n      dup1\n        /* \"contracts/digiLocker.sol\":8615:8623  return i */\n      swap2\n      pop\n      pop\n      jump(tag_385)\n        /* \"contracts/digiLocker.sol\":8554:8638  if(ownerDocuments[uaddr][i].docid == docid){... */\n    tag_392:\n        /* \"contracts/digiLocker.sol\":8536:8539  i++ */\n      dup1\n      dup1\n      0x01\n      add\n      swap2\n      pop\n      pop\n        /* \"contracts/digiLocker.sol\":8489:8648  for(uint i=0;i < ownerDocuments[uaddr].length ;i++){... */\n      jump(tag_386)\n    tag_387:\n      pop\n        /* \"contracts/digiLocker.sol\":8657:8685  revert(\"Document not found\") */\n      mload(0x40)\n      0x08c379a000000000000000000000000000000000000000000000000000000000\n      dup2\n      mstore\n      0x04\n      add\n      tag_393\n      swap1\n      tag_313\n      jump\t// in\n    tag_393:\n      mload(0x40)\n      dup1\n      swap2\n      sub\n      swap1\n      revert\n        /* \"contracts/digiLocker.sol\":8393:8693  function getDocIndex(bytes32 docid,address uaddr)public view returns(uint256){... */\n    tag_385:\n      swap3\n      swap2\n      pop\n      pop\n      jump\t// out\n        /* \"contracts/digiLocker.sol\":3496:3753  function checkAlreadyUpload(bytes32 docId)public view returns(bool){... */\n    tag_118:\n        /* \"contracts/digiLocker.sol\":3558:3562  bool */\n      0x00\n        /* \"contracts/digiLocker.sol\":3578:3584  uint i */\n      dup1\n        /* \"contracts/digiLocker.sol\":3587:3588  0 */\n      0x00\n        /* \"contracts/digiLocker.sol\":3578:3588  uint i = 0 */\n      swap1\n      pop\n        /* \"contracts/digiLocker.sol\":3574:3722  for(uint i = 0; i<ownerDocuments[msg.sender].length; i++)... */\n    tag_395:\n        /* \"contracts/digiLocker.sol\":3592:3606  ownerDocuments */\n      0x03\n        /* \"contracts/digiLocker.sol\":3592:3618  ownerDocuments[msg.sender] */\n      0x00\n        /* \"contracts/digiLocker.sol\":3607:3617  msg.sender */\n      caller\n        /* \"contracts/digiLocker.sol\":3592:3618  ownerDocuments[msg.sender] */\n      0xffffffffffffffffffffffffffffffffffffffff\n      and\n      0xffffffffffffffffffffffffffffffffffffffff\n      and\n      dup2\n      mstore\n      0x20\n      add\n      swap1\n      dup2\n      mstore\n      0x20\n      add\n      0x00\n      keccak256\n        /* \"contracts/digiLocker.sol\":3592:3625  ownerDocuments[msg.sender].length */\n      dup1\n      sload\n      swap1\n      pop\n        /* \"contracts/digiLocker.sol\":3590:3591  i */\n      dup2\n        /* \"contracts/digiLocker.sol\":3590:3625  i<ownerDocuments[msg.sender].length */\n      lt\n        /* \"contracts/digiLocker.sol\":3574:3722  for(uint i = 0; i<ownerDocuments[msg.sender].length; i++)... */\n      iszero\n      tag_396\n      jumpi\n        /* \"contracts/digiLocker.sol\":3687:3692  docId */\n      dup3\n        /* \"contracts/digiLocker.sol\":3648:3662  ownerDocuments */\n      0x03\n        /* \"contracts/digiLocker.sol\":3648:3674  ownerDocuments[msg.sender] */\n      0x00\n        /* \"contracts/digiLocker.sol\":3663:3673  msg.sender */\n      caller\n        /* \"contracts/digiLocker.sol\":3648:3674  ownerDocuments[msg.sender] */\n      0xffffffffffffffffffffffffffffffffffffffff\n      and\n      0xffffffffffffffffffffffffffffffffffffffff\n      and\n      dup2\n      mstore\n      0x20\n      add\n      swap1\n      dup2\n      mstore\n      0x20\n      add\n      0x00\n      keccak256\n        /* \"contracts/digiLocker.sol\":3675:3676  i */\n      dup3\n        /* \"contracts/digiLocker.sol\":3648:3677  ownerDocuments[msg.sender][i] */\n      dup2\n      sload\n      dup2\n      lt\n      tag_398\n      jumpi\n      tag_399\n      tag_138\n      jump\t// in\n    tag_399:\n    tag_398:\n      swap1\n      0x00\n      mstore\n      keccak256(0x00, 0x20)\n      swap1\n      0x04\n      mul\n      add\n        /* \"contracts/digiLocker.sol\":3648:3683  ownerDocuments[msg.sender][i].docid */\n      0x00\n      add\n      sload\n        /* \"contracts/digiLocker.sol\":3648:3692  ownerDocuments[msg.sender][i].docid == docId */\n      sub\n        /* \"contracts/digiLocker.sol\":3645:3722  if(ownerDocuments[msg.sender][i].docid == docId)... */\n      tag_401\n      jumpi\n        /* \"contracts/digiLocker.sol\":3718:3722  true */\n      0x01\n        /* \"contracts/digiLocker.sol\":3711:3722  return true */\n      swap2\n      pop\n      pop\n      jump(tag_394)\n        /* \"contracts/digiLocker.sol\":3645:3722  if(ownerDocuments[msg.sender][i].docid == docId)... */\n    tag_401:\n        /* \"contracts/digiLocker.sol\":3627:3630  i++ */\n      dup1\n      dup1\n      0x01\n      add\n      swap2\n      pop\n      pop\n        /* \"contracts/digiLocker.sol\":3574:3722  for(uint i = 0; i<ownerDocuments[msg.sender].length; i++)... */\n      jump(tag_395)\n    tag_396:\n      pop\n        /* \"contracts/digiLocker.sol\":3740:3745  false */\n      0x00\n        /* \"contracts/digiLocker.sol\":3733:3745  return false */\n      swap1\n      pop\n        /* \"contracts/digiLocker.sol\":3496:3753  function checkAlreadyUpload(bytes32 docId)public view returns(bool){... */\n    tag_394:\n      swap2\n      swap1\n      pop\n      jump\t// out\n        /* \"#utility.yul\":7:82   */\n    tag_402:\n        /* \"#utility.yul\":40:46   */\n      0x00\n        /* \"#utility.yul\":73:75   */\n      0x40\n        /* \"#utility.yul\":67:76   */\n      mload\n        /* \"#utility.yul\":57:76   */\n      swap1\n      pop\n        /* \"#utility.yul\":7:82   */\n      swap1\n      jump\t// out\n        /* \"#utility.yul\":88:205   */\n    tag_403:\n        /* \"#utility.yul\":197:198   */\n      0x00\n        /* \"#utility.yul\":194:195   */\n      dup1\n        /* \"#utility.yul\":187:199   */\n      revert\n        /* \"#utility.yul\":211:328   */\n    tag_404:\n        /* \"#utility.yul\":320:321   */\n      0x00\n        /* \"#utility.yul\":317:318   */\n      dup1\n        /* \"#utility.yul\":310:322   */\n      revert\n        /* \"#utility.yul\":334:460   */\n    tag_405:\n        /* \"#utility.yul\":371:378   */\n      0x00\n        /* \"#utility.yul\":411:453   */\n      0xffffffffffffffffffffffffffffffffffffffff\n        /* \"#utility.yul\":404:409   */\n      dup3\n        /* \"#utility.yul\":400:454   */\n      and\n        /* \"#utility.yul\":389:454   */\n      swap1\n      pop\n        /* \"#utility.yul\":334:460   */\n      swap2\n      swap1\n      pop\n      jump\t// out\n        /* \"#utility.yul\":466:562   */\n    tag_406:\n        /* \"#utility.yul\":503:510   */\n      0x00\n        /* \"#utility.yul\":532:556   */\n      tag_481\n        /* \"#utility.yul\":550:555   */\n      dup3\n        /* \"#utility.yul\":532:556   */\n      tag_405\n      jump\t// in\n    tag_481:\n        /* \"#utility.yul\":521:556   */\n      swap1\n      pop\n        /* \"#utility.yul\":466:562   */\n      swap2\n      swap1\n      pop\n      jump\t// out\n        /* \"#utility.yul\":568:690   */\n    tag_407:\n        /* \"#utility.yul\":641:665   */\n      tag_483\n        /* \"#utility.yul\":659:664   */\n      dup2\n        /* \"#utility.yul\":641:665   */\n      tag_406\n      jump\t// in\n    tag_483:\n        /* \"#utility.yul\":634:639   */\n      dup2\n        /* \"#utility.yul\":631:666   */\n      eq\n        /* \"#utility.yul\":621:684   */\n      tag_484\n      jumpi\n        /* \"#utility.yul\":680:681   */\n      0x00\n        /* \"#utility.yul\":677:678   */\n      dup1\n        /* \"#utility.yul\":670:682   */\n      revert\n        /* \"#utility.yul\":621:684   */\n    tag_484:\n        /* \"#utility.yul\":568:690   */\n      pop\n      jump\t// out\n        /* \"#utility.yul\":696:835   */\n    tag_408:\n        /* \"#utility.yul\":742:747   */\n      0x00\n        /* \"#utility.yul\":780:786   */\n      dup2\n        /* \"#utility.yul\":767:787   */\n      calldataload\n        /* \"#utility.yul\":758:787   */\n      swap1\n      pop\n        /* \"#utility.yul\":796:829   */\n      tag_486\n        /* \"#utility.yul\":823:828   */\n      dup2\n        /* \"#utility.yul\":796:829   */\n      tag_407\n      jump\t// in\n    tag_486:\n        /* \"#utility.yul\":696:835   */\n      swap3\n      swap2\n      pop\n      pop\n      jump\t// out\n        /* \"#utility.yul\":841:1170   */\n    tag_29:\n        /* \"#utility.yul\":900:906   */\n      0x00\n        /* \"#utility.yul\":949:951   */\n      0x20\n        /* \"#utility.yul\":937:946   */\n      dup3\n        /* \"#utility.yul\":928:935   */\n      dup5\n        /* \"#utility.yul\":924:947   */\n      sub\n        /* \"#utility.yul\":920:952   */\n      slt\n        /* \"#utility.yul\":917:1036   */\n      iszero\n      tag_488\n      jumpi\n        /* \"#utility.yul\":955:1034   */\n      tag_489\n      tag_403\n      jump\t// in\n    tag_489:\n        /* \"#utility.yul\":917:1036   */\n    tag_488:\n        /* \"#utility.yul\":1075:1076   */\n      0x00\n        /* \"#utility.yul\":1100:1153   */\n      tag_490\n        /* \"#utility.yul\":1145:1152   */\n      dup5\n        /* \"#utility.yul\":1136:1142   */\n      dup3\n        /* \"#utility.yul\":1125:1134   */\n      dup6\n        /* \"#utility.yul\":1121:1143   */\n      add\n        /* \"#utility.yul\":1100:1153   */\n      tag_408\n      jump\t// in\n    tag_490:\n        /* \"#utility.yul\":1090:1153   */\n      swap2\n      pop\n        /* \"#utility.yul\":1046:1163   */\n      pop\n        /* \"#utility.yul\":841:1170   */\n      swap3\n      swap2\n      pop\n      pop\n      jump\t// out\n        /* \"#utility.yul\":1176:1300   */\n    tag_409:\n        /* \"#utility.yul\":1253:1259   */\n      0x00\n        /* \"#utility.yul\":1287:1292   */\n      dup2\n        /* \"#utility.yul\":1281:1293   */\n      mload\n        /* \"#utility.yul\":1271:1293   */\n      swap1\n      pop\n        /* \"#utility.yul\":1176:1300   */\n      swap2\n      swap1\n      pop\n      jump\t// out\n        /* \"#utility.yul\":1306:1500   */\n    tag_410:\n        /* \"#utility.yul\":1415:1426   */\n      0x00\n        /* \"#utility.yul\":1449:1455   */\n      dup3\n        /* \"#utility.yul\":1444:1447   */\n      dup3\n        /* \"#utility.yul\":1437:1456   */\n      mstore\n        /* \"#utility.yul\":1489:1493   */\n      0x20\n        /* \"#utility.yul\":1484:1487   */\n      dup3\n        /* \"#utility.yul\":1480:1494   */\n      add\n        /* \"#utility.yul\":1465:1494   */\n      swap1\n      pop\n        /* \"#utility.yul\":1306:1500   */\n      swap3\n      swap2\n      pop\n      pop\n      jump\t// out\n        /* \"#utility.yul\":1506:1648   */\n    tag_411:\n        /* \"#utility.yul\":1583:1587   */\n      0x00\n        /* \"#utility.yul\":1606:1609   */\n      dup2\n        /* \"#utility.yul\":1598:1609   */\n      swap1\n      pop\n        /* \"#utility.yul\":1636:1640   */\n      0x20\n        /* \"#utility.yul\":1631:1634   */\n      dup3\n        /* \"#utility.yul\":1627:1641   */\n      add\n        /* \"#utility.yul\":1619:1641   */\n      swap1\n      pop\n        /* \"#utility.yul\":1506:1648   */\n      swap2\n      swap1\n      pop\n      jump\t// out\n        /* \"#utility.yul\":1654:1753   */\n    tag_412:\n        /* \"#utility.yul\":1706:1712   */\n      0x00\n        /* \"#utility.yul\":1740:1745   */\n      dup2\n        /* \"#utility.yul\":1734:1746   */\n      mload\n        /* \"#utility.yul\":1724:1746   */\n      swap1\n      pop\n        /* \"#utility.yul\":1654:1753   */\n      swap2\n      swap1\n      pop\n      jump\t// out\n        /* \"#utility.yul\":1759:1918   */\n    tag_413:\n        /* \"#utility.yul\":1833:1844   */\n      0x00\n        /* \"#utility.yul\":1867:1873   */\n      dup3\n        /* \"#utility.yul\":1862:1865   */\n      dup3\n        /* \"#utility.yul\":1855:1874   */\n      mstore\n        /* \"#utility.yul\":1907:1911   */\n      0x20\n        /* \"#utility.yul\":1902:1905   */\n      dup3\n        /* \"#utility.yul\":1898:1912   */\n      add\n        /* \"#utility.yul\":1883:1912   */\n      swap1\n      pop\n        /* \"#utility.yul\":1759:1918   */\n      swap3\n      swap2\n      pop\n      pop\n      jump\t// out\n        /* \"#utility.yul\":1924:2172   */\n    tag_414:\n        /* \"#utility.yul\":2006:2007   */\n      0x00\n        /* \"#utility.yul\":2016:2129   */\n    tag_497:\n        /* \"#utility.yul\":2030:2036   */\n      dup4\n        /* \"#utility.yul\":2027:2028   */\n      dup2\n        /* \"#utility.yul\":2024:2037   */\n      lt\n        /* \"#utility.yul\":2016:2129   */\n      iszero\n      tag_499\n      jumpi\n        /* \"#utility.yul\":2115:2116   */\n      dup1\n        /* \"#utility.yul\":2110:2113   */\n      dup3\n        /* \"#utility.yul\":2106:2117   */\n      add\n        /* \"#utility.yul\":2100:2118   */\n      mload\n        /* \"#utility.yul\":2096:2097   */\n      dup2\n        /* \"#utility.yul\":2091:2094   */\n      dup5\n        /* \"#utility.yul\":2087:2098   */\n      add\n        /* \"#utility.yul\":2080:2119   */\n      mstore\n        /* \"#utility.yul\":2052:2054   */\n      0x20\n        /* \"#utility.yul\":2049:2050   */\n      dup2\n        /* \"#utility.yul\":2045:2055   */\n      add\n        /* \"#utility.yul\":2040:2055   */\n      swap1\n      pop\n        /* \"#utility.yul\":2016:2129   */\n      jump(tag_497)\n    tag_499:\n        /* \"#utility.yul\":2163:2164   */\n      0x00\n        /* \"#utility.yul\":2154:2160   */\n      dup5\n        /* \"#utility.yul\":2149:2152   */\n      dup5\n        /* \"#utility.yul\":2145:2161   */\n      add\n        /* \"#utility.yul\":2138:2165   */\n      mstore\n        /* \"#utility.yul\":1986:2172   */\n      pop\n        /* \"#utility.yul\":1924:2172   */\n      pop\n      pop\n      pop\n      jump\t// out\n        /* \"#utility.yul\":2178:2280   */\n    tag_415:\n        /* \"#utility.yul\":2219:2225   */\n      0x00\n        /* \"#utility.yul\":2270:2272   */\n      0x1f\n        /* \"#utility.yul\":2266:2273   */\n      not\n        /* \"#utility.yul\":2261:2263   */\n      0x1f\n        /* \"#utility.yul\":2254:2259   */\n      dup4\n        /* \"#utility.yul\":2250:2264   */\n      add\n        /* \"#utility.yul\":2246:2274   */\n      and\n        /* \"#utility.yul\":2236:2274   */\n      swap1\n      pop\n        /* \"#utility.yul\":2178:2280   */\n      swap2\n      swap1\n      pop\n      jump\t// out\n        /* \"#utility.yul\":2286:2643   */\n    tag_416:\n        /* \"#utility.yul\":2364:2367   */\n      0x00\n        /* \"#utility.yul\":2392:2431   */\n      tag_502\n        /* \"#utility.yul\":2425:2430   */\n      dup3\n        /* \"#utility.yul\":2392:2431   */\n      tag_412\n      jump\t// in\n    tag_502:\n        /* \"#utility.yul\":2447:2508   */\n      tag_503\n        /* \"#utility.yul\":2501:2507   */\n      dup2\n        /* \"#utility.yul\":2496:2499   */\n      dup6\n        /* \"#utility.yul\":2447:2508   */\n      tag_413\n      jump\t// in\n    tag_503:\n        /* \"#utility.yul\":2440:2508   */\n      swap4\n      pop\n        /* \"#utility.yul\":2517:2582   */\n      tag_504\n        /* \"#utility.yul\":2575:2581   */\n      dup2\n        /* \"#utility.yul\":2570:2573   */\n      dup6\n        /* \"#utility.yul\":2563:2567   */\n      0x20\n        /* \"#utility.yul\":2556:2561   */\n      dup7\n        /* \"#utility.yul\":2552:2568   */\n      add\n        /* \"#utility.yul\":2517:2582   */\n      tag_414\n      jump\t// in\n    tag_504:\n        /* \"#utility.yul\":2607:2636   */\n      tag_505\n        /* \"#utility.yul\":2629:2635   */\n      dup2\n        /* \"#utility.yul\":2607:2636   */\n      tag_415\n      jump\t// in\n    tag_505:\n        /* \"#utility.yul\":2602:2605   */\n      dup5\n        /* \"#utility.yul\":2598:2637   */\n      add\n        /* \"#utility.yul\":2591:2637   */\n      swap2\n      pop\n        /* \"#utility.yul\":2368:2643   */\n      pop\n        /* \"#utility.yul\":2286:2643   */\n      swap3\n      swap2\n      pop\n      pop\n      jump\t// out\n        /* \"#utility.yul\":2649:2845   */\n    tag_417:\n        /* \"#utility.yul\":2738:2748   */\n      0x00\n        /* \"#utility.yul\":2773:2839   */\n      tag_507\n        /* \"#utility.yul\":2835:2838   */\n      dup4\n        /* \"#utility.yul\":2827:2833   */\n      dup4\n        /* \"#utility.yul\":2773:2839   */\n      tag_416\n      jump\t// in\n    tag_507:\n        /* \"#utility.yul\":2759:2839   */\n      swap1\n      pop\n        /* \"#utility.yul\":2649:2845   */\n      swap3\n      swap2\n      pop\n      pop\n      jump\t// out\n        /* \"#utility.yul\":2851:2974   */\n    tag_418:\n        /* \"#utility.yul\":2931:2935   */\n      0x00\n        /* \"#utility.yul\":2963:2967   */\n      0x20\n        /* \"#utility.yul\":2958:2961   */\n      dup3\n        /* \"#utility.yul\":2954:2968   */\n      add\n        /* \"#utility.yul\":2946:2968   */\n      swap1\n      pop\n        /* \"#utility.yul\":2851:2974   */\n      swap2\n      swap1\n      pop\n      jump\t// out\n        /* \"#utility.yul\":3008:3999   */\n    tag_419:\n        /* \"#utility.yul\":3147:3150   */\n      0x00\n        /* \"#utility.yul\":3176:3240   */\n      tag_510\n        /* \"#utility.yul\":3234:3239   */\n      dup3\n        /* \"#utility.yul\":3176:3240   */\n      tag_409\n      jump\t// in\n    tag_510:\n        /* \"#utility.yul\":3256:3352   */\n      tag_511\n        /* \"#utility.yul\":3345:3351   */\n      dup2\n        /* \"#utility.yul\":3340:3343   */\n      dup6\n        /* \"#utility.yul\":3256:3352   */\n      tag_410\n      jump\t// in\n    tag_511:\n        /* \"#utility.yul\":3249:3352   */\n      swap4\n      pop\n        /* \"#utility.yul\":3378:3381   */\n      dup4\n        /* \"#utility.yul\":3423:3427   */\n      0x20\n        /* \"#utility.yul\":3415:3421   */\n      dup3\n        /* \"#utility.yul\":3411:3428   */\n      mul\n        /* \"#utility.yul\":3406:3409   */\n      dup6\n        /* \"#utility.yul\":3402:3429   */\n      add\n        /* \"#utility.yul\":3453:3519   */\n      tag_512\n        /* \"#utility.yul\":3513:3518   */\n      dup6\n        /* \"#utility.yul\":3453:3519   */\n      tag_411\n      jump\t// in\n    tag_512:\n        /* \"#utility.yul\":3542:3549   */\n      dup1\n        /* \"#utility.yul\":3573:3574   */\n      0x00\n        /* \"#utility.yul\":3558:3954   */\n    tag_513:\n        /* \"#utility.yul\":3583:3589   */\n      dup6\n        /* \"#utility.yul\":3580:3581   */\n      dup2\n        /* \"#utility.yul\":3577:3590   */\n      lt\n        /* \"#utility.yul\":3558:3954   */\n      iszero\n      tag_515\n      jumpi\n        /* \"#utility.yul\":3654:3663   */\n      dup5\n        /* \"#utility.yul\":3648:3652   */\n      dup5\n        /* \"#utility.yul\":3644:3664   */\n      sub\n        /* \"#utility.yul\":3639:3642   */\n      dup10\n        /* \"#utility.yul\":3632:3665   */\n      mstore\n        /* \"#utility.yul\":3705:3711   */\n      dup2\n        /* \"#utility.yul\":3699:3712   */\n      mload\n        /* \"#utility.yul\":3733:3817   */\n      tag_516\n        /* \"#utility.yul\":3812:3816   */\n      dup6\n        /* \"#utility.yul\":3797:3810   */\n      dup3\n        /* \"#utility.yul\":3733:3817   */\n      tag_417\n      jump\t// in\n    tag_516:\n        /* \"#utility.yul\":3725:3817   */\n      swap5\n      pop\n        /* \"#utility.yul\":3840:3910   */\n      tag_517\n        /* \"#utility.yul\":3903:3909   */\n      dup4\n        /* \"#utility.yul\":3840:3910   */\n      tag_418\n      jump\t// in\n    tag_517:\n        /* \"#utility.yul\":3830:3910   */\n      swap3\n      pop\n        /* \"#utility.yul\":3939:3943   */\n      0x20\n        /* \"#utility.yul\":3934:3937   */\n      dup11\n        /* \"#utility.yul\":3930:3944   */\n      add\n        /* \"#utility.yul\":3923:3944   */\n      swap10\n      pop\n        /* \"#utility.yul\":3618:3954   */\n      pop\n        /* \"#utility.yul\":3605:3606   */\n      0x01\n        /* \"#utility.yul\":3602:3603   */\n      dup2\n        /* \"#utility.yul\":3598:3607   */\n      add\n        /* \"#utility.yul\":3593:3607   */\n      swap1\n      pop\n        /* \"#utility.yul\":3558:3954   */\n      jump(tag_513)\n    tag_515:\n        /* \"#utility.yul\":3562:3576   */\n      pop\n        /* \"#utility.yul\":3970:3974   */\n      dup3\n        /* \"#utility.yul\":3963:3974   */\n      swap8\n      pop\n        /* \"#utility.yul\":3990:3993   */\n      dup8\n        /* \"#utility.yul\":3983:3993   */\n      swap6\n      pop\n        /* \"#utility.yul\":3152:3999   */\n      pop\n      pop\n      pop\n      pop\n      pop\n        /* \"#utility.yul\":3008:3999   */\n      swap3\n      swap2\n      pop\n      pop\n      jump\t// out\n        /* \"#utility.yul\":4005:4119   */\n    tag_420:\n        /* \"#utility.yul\":4072:4078   */\n      0x00\n        /* \"#utility.yul\":4106:4111   */\n      dup2\n        /* \"#utility.yul\":4100:4112   */\n      mload\n        /* \"#utility.yul\":4090:4112   */\n      swap1\n      pop\n        /* \"#utility.yul\":4005:4119   */\n      swap2\n      swap1\n      pop\n      jump\t// out\n        /* \"#utility.yul\":4125:4309   */\n    tag_421:\n        /* \"#utility.yul\":4224:4235   */\n      0x00\n        /* \"#utility.yul\":4258:4264   */\n      dup3\n        /* \"#utility.yul\":4253:4256   */\n      dup3\n        /* \"#utility.yul\":4246:4265   */\n      mstore\n        /* \"#utility.yul\":4298:4302   */\n      0x20\n        /* \"#utility.yul\":4293:4296   */\n      dup3\n        /* \"#utility.yul\":4289:4303   */\n      add\n        /* \"#utility.yul\":4274:4303   */\n      swap1\n      pop\n        /* \"#utility.yul\":4125:4309   */\n      swap3\n      swap2\n      pop\n      pop\n      jump\t// out\n        /* \"#utility.yul\":4315:4447   */\n    tag_422:\n        /* \"#utility.yul\":4382:4386   */\n      0x00\n        /* \"#utility.yul\":4405:4408   */\n      dup2\n        /* \"#utility.yul\":4397:4408   */\n      swap1\n      pop\n        /* \"#utility.yul\":4435:4439   */\n      0x20\n        /* \"#utility.yul\":4430:4433   */\n      dup3\n        /* \"#utility.yul\":4426:4440   */\n      add\n        /* \"#utility.yul\":4418:4440   */\n      swap1\n      pop\n        /* \"#utility.yul\":4315:4447   */\n      swap2\n      swap1\n      pop\n      jump\t// out\n        /* \"#utility.yul\":4453:4530   */\n    tag_423:\n        /* \"#utility.yul\":4490:4497   */\n      0x00\n        /* \"#utility.yul\":4519:4524   */\n      dup2\n        /* \"#utility.yul\":4508:4524   */\n      swap1\n      pop\n        /* \"#utility.yul\":4453:4530   */\n      swap2\n      swap1\n      pop\n      jump\t// out\n        /* \"#utility.yul\":4536:4644   */\n    tag_424:\n        /* \"#utility.yul\":4613:4637   */\n      tag_523\n        /* \"#utility.yul\":4631:4636   */\n      dup2\n        /* \"#utility.yul\":4613:4637   */\n      tag_423\n      jump\t// in\n    tag_523:\n        /* \"#utility.yul\":4608:4611   */\n      dup3\n        /* \"#utility.yul\":4601:4638   */\n      mstore\n        /* \"#utility.yul\":4536:4644   */\n      pop\n      pop\n      jump\t// out\n        /* \"#utility.yul\":4650:4829   */\n    tag_425:\n        /* \"#utility.yul\":4719:4729   */\n      0x00\n        /* \"#utility.yul\":4740:4786   */\n      tag_525\n        /* \"#utility.yul\":4782:4785   */\n      dup4\n        /* \"#utility.yul\":4774:4780   */\n      dup4\n        /* \"#utility.yul\":4740:4786   */\n      tag_424\n      jump\t// in\n    tag_525:\n        /* \"#utility.yul\":4818:4822   */\n      0x20\n        /* \"#utility.yul\":4813:4816   */\n      dup4\n        /* \"#utility.yul\":4809:4823   */\n      add\n        /* \"#utility.yul\":4795:4823   */\n      swap1\n      pop\n        /* \"#utility.yul\":4650:4829   */\n      swap3\n      swap2\n      pop\n      pop\n      jump\t// out\n        /* \"#utility.yul\":4835:4948   */\n    tag_426:\n        /* \"#utility.yul\":4905:4909   */\n      0x00\n        /* \"#utility.yul\":4937:4941   */\n      0x20\n        /* \"#utility.yul\":4932:4935   */\n      dup3\n        /* \"#utility.yul\":4928:4942   */\n      add\n        /* \"#utility.yul\":4920:4942   */\n      swap1\n      pop\n        /* \"#utility.yul\":4835:4948   */\n      swap2\n      swap1\n      pop\n      jump\t// out\n        /* \"#utility.yul\":4984:5716   */\n    tag_427:\n        /* \"#utility.yul\":5103:5106   */\n      0x00\n        /* \"#utility.yul\":5132:5186   */\n      tag_528\n        /* \"#utility.yul\":5180:5185   */\n      dup3\n        /* \"#utility.yul\":5132:5186   */\n      tag_420\n      jump\t// in\n    tag_528:\n        /* \"#utility.yul\":5202:5288   */\n      tag_529\n        /* \"#utility.yul\":5281:5287   */\n      dup2\n        /* \"#utility.yul\":5276:5279   */\n      dup6\n        /* \"#utility.yul\":5202:5288   */\n      tag_421\n      jump\t// in\n    tag_529:\n        /* \"#utility.yul\":5195:5288   */\n      swap4\n      pop\n        /* \"#utility.yul\":5312:5368   */\n      tag_530\n        /* \"#utility.yul\":5362:5367   */\n      dup4\n        /* \"#utility.yul\":5312:5368   */\n      tag_422\n      jump\t// in\n    tag_530:\n        /* \"#utility.yul\":5391:5398   */\n      dup1\n        /* \"#utility.yul\":5422:5423   */\n      0x00\n        /* \"#utility.yul\":5407:5691   */\n    tag_531:\n        /* \"#utility.yul\":5432:5438   */\n      dup4\n        /* \"#utility.yul\":5429:5430   */\n      dup2\n        /* \"#utility.yul\":5426:5439   */\n      lt\n        /* \"#utility.yul\":5407:5691   */\n      iszero\n      tag_533\n      jumpi\n        /* \"#utility.yul\":5508:5514   */\n      dup2\n        /* \"#utility.yul\":5502:5515   */\n      mload\n        /* \"#utility.yul\":5535:5598   */\n      tag_534\n        /* \"#utility.yul\":5594:5597   */\n      dup9\n        /* \"#utility.yul\":5579:5592   */\n      dup3\n        /* \"#utility.yul\":5535:5598   */\n      tag_425\n      jump\t// in\n    tag_534:\n        /* \"#utility.yul\":5528:5598   */\n      swap8\n      pop\n        /* \"#utility.yul\":5621:5681   */\n      tag_535\n        /* \"#utility.yul\":5674:5680   */\n      dup4\n        /* \"#utility.yul\":5621:5681   */\n      tag_426\n      jump\t// in\n    tag_535:\n        /* \"#utility.yul\":5611:5681   */\n      swap3\n      pop\n        /* \"#utility.yul\":5467:5691   */\n      pop\n        /* \"#utility.yul\":5454:5455   */\n      0x01\n        /* \"#utility.yul\":5451:5452   */\n      dup2\n        /* \"#utility.yul\":5447:5456   */\n      add\n        /* \"#utility.yul\":5442:5456   */\n      swap1\n      pop\n        /* \"#utility.yul\":5407:5691   */\n      jump(tag_531)\n    tag_533:\n        /* \"#utility.yul\":5411:5425   */\n      pop\n        /* \"#utility.yul\":5707:5710   */\n      dup6\n        /* \"#utility.yul\":5700:5710   */\n      swap4\n      pop\n        /* \"#utility.yul\":5108:5716   */\n      pop\n      pop\n      pop\n        /* \"#utility.yul\":4984:5716   */\n      swap3\n      swap2\n      pop\n      pop\n      jump\t// out\n        /* \"#utility.yul\":5722:6697   */\n    tag_32:\n        /* \"#utility.yul\":6061:6065   */\n      0x00\n        /* \"#utility.yul\":6099:6101   */\n      0x60\n        /* \"#utility.yul\":6088:6097   */\n      dup3\n        /* \"#utility.yul\":6084:6102   */\n      add\n        /* \"#utility.yul\":6076:6102   */\n      swap1\n      pop\n        /* \"#utility.yul\":6148:6157   */\n      dup2\n        /* \"#utility.yul\":6142:6146   */\n      dup2\n        /* \"#utility.yul\":6138:6158   */\n      sub\n        /* \"#utility.yul\":6134:6135   */\n      0x00\n        /* \"#utility.yul\":6123:6132   */\n      dup4\n        /* \"#utility.yul\":6119:6136   */\n      add\n        /* \"#utility.yul\":6112:6159   */\n      mstore\n        /* \"#utility.yul\":6176:6304   */\n      tag_537\n        /* \"#utility.yul\":6299:6303   */\n      dup2\n        /* \"#utility.yul\":6290:6296   */\n      dup7\n        /* \"#utility.yul\":6176:6304   */\n      tag_419\n      jump\t// in\n    tag_537:\n        /* \"#utility.yul\":6168:6304   */\n      swap1\n      pop\n        /* \"#utility.yul\":6351:6360   */\n      dup2\n        /* \"#utility.yul\":6345:6349   */\n      dup2\n        /* \"#utility.yul\":6341:6361   */\n      sub\n        /* \"#utility.yul\":6336:6338   */\n      0x20\n        /* \"#utility.yul\":6325:6334   */\n      dup4\n        /* \"#utility.yul\":6321:6339   */\n      add\n        /* \"#utility.yul\":6314:6362   */\n      mstore\n        /* \"#utility.yul\":6379:6507   */\n      tag_538\n        /* \"#utility.yul\":6502:6506   */\n      dup2\n        /* \"#utility.yul\":6493:6499   */\n      dup6\n        /* \"#utility.yul\":6379:6507   */\n      tag_419\n      jump\t// in\n    tag_538:\n        /* \"#utility.yul\":6371:6507   */\n      swap1\n      pop\n        /* \"#utility.yul\":6554:6563   */\n      dup2\n        /* \"#utility.yul\":6548:6552   */\n      dup2\n        /* \"#utility.yul\":6544:6564   */\n      sub\n        /* \"#utility.yul\":6539:6541   */\n      0x40\n        /* \"#utility.yul\":6528:6537   */\n      dup4\n        /* \"#utility.yul\":6524:6542   */\n      add\n        /* \"#utility.yul\":6517:6565   */\n      mstore\n        /* \"#utility.yul\":6582:6690   */\n      tag_539\n        /* \"#utility.yul\":6685:6689   */\n      dup2\n        /* \"#utility.yul\":6676:6682   */\n      dup5\n        /* \"#utility.yul\":6582:6690   */\n      tag_427\n      jump\t// in\n    tag_539:\n        /* \"#utility.yul\":6574:6690   */\n      swap1\n      pop\n        /* \"#utility.yul\":5722:6697   */\n      swap5\n      swap4\n      pop\n      pop\n      pop\n      pop\n      jump\t// out\n        /* \"#utility.yul\":6703:6820   */\n    tag_428:\n        /* \"#utility.yul\":6812:6813   */\n      0x00\n        /* \"#utility.yul\":6809:6810   */\n      dup1\n        /* \"#utility.yul\":6802:6814   */\n      revert\n        /* \"#utility.yul\":6826:6943   */\n    tag_429:\n        /* \"#utility.yul\":6935:6936   */\n      0x00\n        /* \"#utility.yul\":6932:6933   */\n      dup1\n        /* \"#utility.yul\":6925:6937   */\n      revert\n        /* \"#utility.yul\":6949:7129   */\n    tag_123:\n        /* \"#utility.yul\":6997:7074   */\n      0x4e487b7100000000000000000000000000000000000000000000000000000000\n        /* \"#utility.yul\":6994:6995   */\n      0x00\n        /* \"#utility.yul\":6987:7075   */\n      mstore\n        /* \"#utility.yul\":7094:7098   */\n      0x41\n        /* \"#utility.yul\":7091:7092   */\n      0x04\n        /* \"#utility.yul\":7084:7099   */\n      mstore\n        /* \"#utility.yul\":7118:7122   */\n      0x24\n        /* \"#utility.yul\":7115:7116   */\n      0x00\n        /* \"#utility.yul\":7108:7123   */\n      revert\n        /* \"#utility.yul\":7135:7416   */\n    tag_430:\n        /* \"#utility.yul\":7218:7245   */\n      tag_544\n        /* \"#utility.yul\":7240:7244   */\n      dup3\n        /* \"#utility.yul\":7218:7245   */\n      tag_415\n      jump\t// in\n    tag_544:\n        /* \"#utility.yul\":7210:7216   */\n      dup2\n        /* \"#utility.yul\":7206:7246   */\n      add\n        /* \"#utility.yul\":7348:7354   */\n      dup2\n        /* \"#utility.yul\":7336:7346   */\n      dup2\n        /* \"#utility.yul\":7333:7355   */\n      lt\n        /* \"#utility.yul\":7312:7330   */\n      0xffffffffffffffff\n        /* \"#utility.yul\":7300:7310   */\n      dup3\n        /* \"#utility.yul\":7297:7331   */\n      gt\n        /* \"#utility.yul\":7294:7356   */\n      or\n        /* \"#utility.yul\":7291:7379   */\n      iszero\n      tag_545\n      jumpi\n        /* \"#utility.yul\":7359:7377   */\n      tag_546\n      tag_123\n      jump\t// in\n    tag_546:\n        /* \"#utility.yul\":7291:7379   */\n    tag_545:\n        /* \"#utility.yul\":7399:7409   */\n      dup1\n        /* \"#utility.yul\":7395:7397   */\n      0x40\n        /* \"#utility.yul\":7388:7410   */\n      mstore\n        /* \"#utility.yul\":7178:7416   */\n      pop\n        /* \"#utility.yul\":7135:7416   */\n      pop\n      pop\n      jump\t// out\n        /* \"#utility.yul\":7422:7551   */\n    tag_431:\n        /* \"#utility.yul\":7456:7462   */\n      0x00\n        /* \"#utility.yul\":7483:7503   */\n      tag_548\n      tag_402\n      jump\t// in\n    tag_548:\n        /* \"#utility.yul\":7473:7503   */\n      swap1\n      pop\n        /* \"#utility.yul\":7512:7545   */\n      tag_549\n        /* \"#utility.yul\":7540:7544   */\n      dup3\n        /* \"#utility.yul\":7532:7538   */\n      dup3\n        /* \"#utility.yul\":7512:7545   */\n      tag_430\n      jump\t// in\n    tag_549:\n        /* \"#utility.yul\":7422:7551   */\n      swap2\n      swap1\n      pop\n      jump\t// out\n        /* \"#utility.yul\":7557:7865   */\n    tag_432:\n        /* \"#utility.yul\":7619:7623   */\n      0x00\n        /* \"#utility.yul\":7709:7727   */\n      0xffffffffffffffff\n        /* \"#utility.yul\":7701:7707   */\n      dup3\n        /* \"#utility.yul\":7698:7728   */\n      gt\n        /* \"#utility.yul\":7695:7751   */\n      iszero\n      tag_551\n      jumpi\n        /* \"#utility.yul\":7731:7749   */\n      tag_552\n      tag_123\n      jump\t// in\n    tag_552:\n        /* \"#utility.yul\":7695:7751   */\n    tag_551:\n        /* \"#utility.yul\":7769:7798   */\n      tag_553\n        /* \"#utility.yul\":7791:7797   */\n      dup3\n        /* \"#utility.yul\":7769:7798   */\n      tag_415\n      jump\t// in\n    tag_553:\n        /* \"#utility.yul\":7761:7798   */\n      swap1\n      pop\n        /* \"#utility.yul\":7853:7857   */\n      0x20\n        /* \"#utility.yul\":7847:7851   */\n      dup2\n        /* \"#utility.yul\":7843:7858   */\n      add\n        /* \"#utility.yul\":7835:7858   */\n      swap1\n      pop\n        /* \"#utility.yul\":7557:7865   */\n      swap2\n      swap1\n      pop\n      jump\t// out\n        /* \"#utility.yul\":7871:8019   */\n    tag_433:\n        /* \"#utility.yul\":7969:7975   */\n      dup3\n        /* \"#utility.yul\":7964:7967   */\n      dup2\n        /* \"#utility.yul\":7959:7962   */\n      dup4\n        /* \"#utility.yul\":7946:7976   */\n      calldatacopy\n        /* \"#utility.yul\":8010:8011   */\n      0x00\n        /* \"#utility.yul\":8001:8007   */\n      dup4\n        /* \"#utility.yul\":7996:7999   */\n      dup4\n        /* \"#utility.yul\":7992:8008   */\n      add\n        /* \"#utility.yul\":7985:8012   */\n      mstore\n        /* \"#utility.yul\":7871:8019   */\n      pop\n      pop\n      pop\n      jump\t// out\n        /* \"#utility.yul\":8025:8450   */\n    tag_434:\n        /* \"#utility.yul\":8103:8108   */\n      0x00\n        /* \"#utility.yul\":8128:8194   */\n      tag_556\n        /* \"#utility.yul\":8144:8193   */\n      tag_557\n        /* \"#utility.yul\":8186:8192   */\n      dup5\n        /* \"#utility.yul\":8144:8193   */\n      tag_432\n      jump\t// in\n    tag_557:\n        /* \"#utility.yul\":8128:8194   */\n      tag_431\n      jump\t// in\n    tag_556:\n        /* \"#utility.yul\":8119:8194   */\n      swap1\n      pop\n        /* \"#utility.yul\":8217:8223   */\n      dup3\n        /* \"#utility.yul\":8210:8215   */\n      dup2\n        /* \"#utility.yul\":8203:8224   */\n      mstore\n        /* \"#utility.yul\":8255:8259   */\n      0x20\n        /* \"#utility.yul\":8248:8253   */\n      dup2\n        /* \"#utility.yul\":8244:8260   */\n      add\n        /* \"#utility.yul\":8293:8296   */\n      dup5\n        /* \"#utility.yul\":8284:8290   */\n      dup5\n        /* \"#utility.yul\":8279:8282   */\n      dup5\n        /* \"#utility.yul\":8275:8291   */\n      add\n        /* \"#utility.yul\":8272:8297   */\n      gt\n        /* \"#utility.yul\":8269:8381   */\n      iszero\n      tag_558\n      jumpi\n        /* \"#utility.yul\":8300:8379   */\n      tag_559\n      tag_429\n      jump\t// in\n    tag_559:\n        /* \"#utility.yul\":8269:8381   */\n    tag_558:\n        /* \"#utility.yul\":8390:8444   */\n      tag_560\n        /* \"#utility.yul\":8437:8443   */\n      dup5\n        /* \"#utility.yul\":8432:8435   */\n      dup3\n        /* \"#utility.yul\":8427:8430   */\n      dup6\n        /* \"#utility.yul\":8390:8444   */\n      tag_433\n      jump\t// in\n    tag_560:\n        /* \"#utility.yul\":8109:8450   */\n      pop\n        /* \"#utility.yul\":8025:8450   */\n      swap4\n      swap3\n      pop\n      pop\n      pop\n      jump\t// out\n        /* \"#utility.yul\":8470:8810   */\n    tag_435:\n        /* \"#utility.yul\":8526:8531   */\n      0x00\n        /* \"#utility.yul\":8575:8578   */\n      dup3\n        /* \"#utility.yul\":8568:8572   */\n      0x1f\n        /* \"#utility.yul\":8560:8566   */\n      dup4\n        /* \"#utility.yul\":8556:8573   */\n      add\n        /* \"#utility.yul\":8552:8579   */\n      slt\n        /* \"#utility.yul\":8542:8664   */\n      tag_562\n      jumpi\n        /* \"#utility.yul\":8583:8662   */\n      tag_563\n      tag_428\n      jump\t// in\n    tag_563:\n        /* \"#utility.yul\":8542:8664   */\n    tag_562:\n        /* \"#utility.yul\":8700:8706   */\n      dup2\n        /* \"#utility.yul\":8687:8707   */\n      calldataload\n        /* \"#utility.yul\":8725:8804   */\n      tag_564\n        /* \"#utility.yul\":8800:8803   */\n      dup5\n        /* \"#utility.yul\":8792:8798   */\n      dup3\n        /* \"#utility.yul\":8785:8789   */\n      0x20\n        /* \"#utility.yul\":8777:8783   */\n      dup7\n        /* \"#utility.yul\":8773:8790   */\n      add\n        /* \"#utility.yul\":8725:8804   */\n      tag_434\n      jump\t// in\n    tag_564:\n        /* \"#utility.yul\":8716:8804   */\n      swap2\n      pop\n        /* \"#utility.yul\":8532:8810   */\n      pop\n        /* \"#utility.yul\":8470:8810   */\n      swap3\n      swap2\n      pop\n      pop\n      jump\t// out\n        /* \"#utility.yul\":8816:8938   */\n    tag_436:\n        /* \"#utility.yul\":8889:8913   */\n      tag_566\n        /* \"#utility.yul\":8907:8912   */\n      dup2\n        /* \"#utility.yul\":8889:8913   */\n      tag_423\n      jump\t// in\n    tag_566:\n        /* \"#utility.yul\":8882:8887   */\n      dup2\n        /* \"#utility.yul\":8879:8914   */\n      eq\n        /* \"#utility.yul\":8869:8932   */\n      tag_567\n      jumpi\n        /* \"#utility.yul\":8928:8929   */\n      0x00\n        /* \"#utility.yul\":8925:8926   */\n      dup1\n        /* \"#utility.yul\":8918:8930   */\n      revert\n        /* \"#utility.yul\":8869:8932   */\n    tag_567:\n        /* \"#utility.yul\":8816:8938   */\n      pop\n      jump\t// out\n        /* \"#utility.yul\":8944:9083   */\n    tag_437:\n        /* \"#utility.yul\":8990:8995   */\n      0x00\n        /* \"#utility.yul\":9028:9034   */\n      dup2\n        /* \"#utility.yul\":9015:9035   */\n      calldataload\n        /* \"#utility.yul\":9006:9035   */\n      swap1\n      pop\n        /* \"#utility.yul\":9044:9077   */\n      tag_569\n        /* \"#utility.yul\":9071:9076   */\n      dup2\n        /* \"#utility.yul\":9044:9077   */\n      tag_436\n      jump\t// in\n    tag_569:\n        /* \"#utility.yul\":8944:9083   */\n      swap3\n      swap2\n      pop\n      pop\n      jump\t// out\n        /* \"#utility.yul\":9089:10214   */\n    tag_35:\n        /* \"#utility.yul\":9195:9201   */\n      0x00\n        /* \"#utility.yul\":9203:9209   */\n      dup1\n        /* \"#utility.yul\":9211:9217   */\n      0x00\n        /* \"#utility.yul\":9219:9225   */\n      dup1\n        /* \"#utility.yul\":9268:9271   */\n      0x80\n        /* \"#utility.yul\":9256:9265   */\n      dup6\n        /* \"#utility.yul\":9247:9254   */\n      dup8\n        /* \"#utility.yul\":9243:9266   */\n      sub\n        /* \"#utility.yul\":9239:9272   */\n      slt\n        /* \"#utility.yul\":9236:9356   */\n      iszero\n      tag_571\n      jumpi\n        /* \"#utility.yul\":9275:9354   */\n      tag_572\n      tag_403\n      jump\t// in\n    tag_572:\n        /* \"#utility.yul\":9236:9356   */\n    tag_571:\n        /* \"#utility.yul\":9423:9424   */\n      0x00\n        /* \"#utility.yul\":9412:9421   */\n      dup6\n        /* \"#utility.yul\":9408:9425   */\n      add\n        /* \"#utility.yul\":9395:9426   */\n      calldataload\n        /* \"#utility.yul\":9453:9471   */\n      0xffffffffffffffff\n        /* \"#utility.yul\":9445:9451   */\n      dup2\n        /* \"#utility.yul\":9442:9472   */\n      gt\n        /* \"#utility.yul\":9439:9556   */\n      iszero\n      tag_573\n      jumpi\n        /* \"#utility.yul\":9475:9554   */\n      tag_574\n      tag_404\n      jump\t// in\n    tag_574:\n        /* \"#utility.yul\":9439:9556   */\n    tag_573:\n        /* \"#utility.yul\":9580:9643   */\n      tag_575\n        /* \"#utility.yul\":9635:9642   */\n      dup8\n        /* \"#utility.yul\":9626:9632   */\n      dup3\n        /* \"#utility.yul\":9615:9624   */\n      dup9\n        /* \"#utility.yul\":9611:9633   */\n      add\n        /* \"#utility.yul\":9580:9643   */\n      tag_435\n      jump\t// in\n    tag_575:\n        /* \"#utility.yul\":9570:9643   */\n      swap5\n      pop\n        /* \"#utility.yul\":9366:9653   */\n      pop\n        /* \"#utility.yul\":9692:9694   */\n      0x20\n        /* \"#utility.yul\":9718:9771   */\n      tag_576\n        /* \"#utility.yul\":9763:9770   */\n      dup8\n        /* \"#utility.yul\":9754:9760   */\n      dup3\n        /* \"#utility.yul\":9743:9752   */\n      dup9\n        /* \"#utility.yul\":9739:9761   */\n      add\n        /* \"#utility.yul\":9718:9771   */\n      tag_437\n      jump\t// in\n    tag_576:\n        /* \"#utility.yul\":9708:9771   */\n      swap4\n      pop\n        /* \"#utility.yul\":9663:9781   */\n      pop\n        /* \"#utility.yul\":9820:9822   */\n      0x40\n        /* \"#utility.yul\":9846:9899   */\n      tag_577\n        /* \"#utility.yul\":9891:9898   */\n      dup8\n        /* \"#utility.yul\":9882:9888   */\n      dup3\n        /* \"#utility.yul\":9871:9880   */\n      dup9\n        /* \"#utility.yul\":9867:9889   */\n      add\n        /* \"#utility.yul\":9846:9899   */\n      tag_437\n      jump\t// in\n    tag_577:\n        /* \"#utility.yul\":9836:9899   */\n      swap3\n      pop\n        /* \"#utility.yul\":9791:9909   */\n      pop\n        /* \"#utility.yul\":9976:9978   */\n      0x60\n        /* \"#utility.yul\":9965:9974   */\n      dup6\n        /* \"#utility.yul\":9961:9979   */\n      add\n        /* \"#utility.yul\":9948:9980   */\n      calldataload\n        /* \"#utility.yul\":10007:10025   */\n      0xffffffffffffffff\n        /* \"#utility.yul\":9999:10005   */\n      dup2\n        /* \"#utility.yul\":9996:10026   */\n      gt\n        /* \"#utility.yul\":9993:10110   */\n      iszero\n      tag_578\n      jumpi\n        /* \"#utility.yul\":10029:10108   */\n      tag_579\n      tag_404\n      jump\t// in\n    tag_579:\n        /* \"#utility.yul\":9993:10110   */\n    tag_578:\n        /* \"#utility.yul\":10134:10197   */\n      tag_580\n        /* \"#utility.yul\":10189:10196   */\n      dup8\n        /* \"#utility.yul\":10180:10186   */\n      dup3\n        /* \"#utility.yul\":10169:10178   */\n      dup9\n        /* \"#utility.yul\":10165:10187   */\n      add\n        /* \"#utility.yul\":10134:10197   */\n      tag_435\n      jump\t// in\n    tag_580:\n        /* \"#utility.yul\":10124:10197   */\n      swap2\n      pop\n        /* \"#utility.yul\":9919:10207   */\n      pop\n        /* \"#utility.yul\":9089:10214   */\n      swap3\n      swap6\n      swap2\n      swap5\n      pop\n      swap3\n      pop\n      jump\t// out\n        /* \"#utility.yul\":10220:10310   */\n    tag_438:\n        /* \"#utility.yul\":10254:10261   */\n      0x00\n        /* \"#utility.yul\":10297:10302   */\n      dup2\n        /* \"#utility.yul\":10290:10303   */\n      iszero\n        /* \"#utility.yul\":10283:10304   */\n      iszero\n        /* \"#utility.yul\":10272:10304   */\n      swap1\n      pop\n        /* \"#utility.yul\":10220:10310   */\n      swap2\n      swap1\n      pop\n      jump\t// out\n        /* \"#utility.yul\":10316:10425   */\n    tag_439:\n        /* \"#utility.yul\":10397:10418   */\n      tag_583\n        /* \"#utility.yul\":10412:10417   */\n      dup2\n        /* \"#utility.yul\":10397:10418   */\n      tag_438\n      jump\t// in\n    tag_583:\n        /* \"#utility.yul\":10392:10395   */\n      dup3\n        /* \"#utility.yul\":10385:10419   */\n      mstore\n        /* \"#utility.yul\":10316:10425   */\n      pop\n      pop\n      jump\t// out\n        /* \"#utility.yul\":10431:10641   */\n    tag_38:\n        /* \"#utility.yul\":10518:10522   */\n      0x00\n        /* \"#utility.yul\":10556:10558   */\n      0x20\n        /* \"#utility.yul\":10545:10554   */\n      dup3\n        /* \"#utility.yul\":10541:10559   */\n      add\n        /* \"#utility.yul\":10533:10559   */\n      swap1\n      pop\n        /* \"#utility.yul\":10569:10634   */\n      tag_585\n        /* \"#utility.yul\":10631:10632   */\n      0x00\n        /* \"#utility.yul\":10620:10629   */\n      dup4\n        /* \"#utility.yul\":10616:10633   */\n      add\n        /* \"#utility.yul\":10607:10613   */\n      dup5\n        /* \"#utility.yul\":10569:10634   */\n      tag_439\n      jump\t// in\n    tag_585:\n        /* \"#utility.yul\":10431:10641   */\n      swap3\n      swap2\n      pop\n      pop\n      jump\t// out\n        /* \"#utility.yul\":10647:10765   */\n    tag_440:\n        /* \"#utility.yul\":10734:10758   */\n      tag_587\n        /* \"#utility.yul\":10752:10757   */\n      dup2\n        /* \"#utility.yul\":10734:10758   */\n      tag_423\n      jump\t// in\n    tag_587:\n        /* \"#utility.yul\":10729:10732   */\n      dup3\n        /* \"#utility.yul\":10722:10759   */\n      mstore\n        /* \"#utility.yul\":10647:10765   */\n      pop\n      pop\n      jump\t// out\n        /* \"#utility.yul\":10771:10889   */\n    tag_441:\n        /* \"#utility.yul\":10858:10882   */\n      tag_589\n        /* \"#utility.yul\":10876:10881   */\n      dup2\n        /* \"#utility.yul\":10858:10882   */\n      tag_406\n      jump\t// in\n    tag_589:\n        /* \"#utility.yul\":10853:10856   */\n      dup3\n        /* \"#utility.yul\":10846:10883   */\n      mstore\n        /* \"#utility.yul\":10771:10889   */\n      pop\n      pop\n      jump\t// out\n        /* \"#utility.yul\":10895:11064   */\n    tag_442:\n        /* \"#utility.yul\":10979:10990   */\n      0x00\n        /* \"#utility.yul\":11013:11019   */\n      dup3\n        /* \"#utility.yul\":11008:11011   */\n      dup3\n        /* \"#utility.yul\":11001:11020   */\n      mstore\n        /* \"#utility.yul\":11053:11057   */\n      0x20\n        /* \"#utility.yul\":11048:11051   */\n      dup3\n        /* \"#utility.yul\":11044:11058   */\n      add\n        /* \"#utility.yul\":11029:11058   */\n      swap1\n      pop\n        /* \"#utility.yul\":10895:11064   */\n      swap3\n      swap2\n      pop\n      pop\n      jump\t// out\n        /* \"#utility.yul\":11070:11447   */\n    tag_443:\n        /* \"#utility.yul\":11158:11161   */\n      0x00\n        /* \"#utility.yul\":11186:11225   */\n      tag_592\n        /* \"#utility.yul\":11219:11224   */\n      dup3\n        /* \"#utility.yul\":11186:11225   */\n      tag_412\n      jump\t// in\n    tag_592:\n        /* \"#utility.yul\":11241:11312   */\n      tag_593\n        /* \"#utility.yul\":11305:11311   */\n      dup2\n        /* \"#utility.yul\":11300:11303   */\n      dup6\n        /* \"#utility.yul\":11241:11312   */\n      tag_442\n      jump\t// in\n    tag_593:\n        /* \"#utility.yul\":11234:11312   */\n      swap4\n      pop\n        /* \"#utility.yul\":11321:11386   */\n      tag_594\n        /* \"#utility.yul\":11379:11385   */\n      dup2\n        /* \"#utility.yul\":11374:11377   */\n      dup6\n        /* \"#utility.yul\":11367:11371   */\n      0x20\n        /* \"#utility.yul\":11360:11365   */\n      dup7\n        /* \"#utility.yul\":11356:11372   */\n      add\n        /* \"#utility.yul\":11321:11386   */\n      tag_414\n      jump\t// in\n    tag_594:\n        /* \"#utility.yul\":11411:11440   */\n      tag_595\n        /* \"#utility.yul\":11433:11439   */\n      dup2\n        /* \"#utility.yul\":11411:11440   */\n      tag_415\n      jump\t// in\n    tag_595:\n        /* \"#utility.yul\":11406:11409   */\n      dup5\n        /* \"#utility.yul\":11402:11441   */\n      add\n        /* \"#utility.yul\":11395:11441   */\n      swap2\n      pop\n        /* \"#utility.yul\":11162:11447   */\n      pop\n        /* \"#utility.yul\":11070:11447   */\n      swap3\n      swap2\n      pop\n      pop\n      jump\t// out\n        /* \"#utility.yul\":11453:11986   */\n    tag_42:\n        /* \"#utility.yul\":11622:11626   */\n      0x00\n        /* \"#utility.yul\":11660:11662   */\n      0x60\n        /* \"#utility.yul\":11649:11658   */\n      dup3\n        /* \"#utility.yul\":11645:11663   */\n      add\n        /* \"#utility.yul\":11637:11663   */\n      swap1\n      pop\n        /* \"#utility.yul\":11673:11744   */\n      tag_597\n        /* \"#utility.yul\":11741:11742   */\n      0x00\n        /* \"#utility.yul\":11730:11739   */\n      dup4\n        /* \"#utility.yul\":11726:11743   */\n      add\n        /* \"#utility.yul\":11717:11723   */\n      dup7\n        /* \"#utility.yul\":11673:11744   */\n      tag_440\n      jump\t// in\n    tag_597:\n        /* \"#utility.yul\":11754:11826   */\n      tag_598\n        /* \"#utility.yul\":11822:11824   */\n      0x20\n        /* \"#utility.yul\":11811:11820   */\n      dup4\n        /* \"#utility.yul\":11807:11825   */\n      add\n        /* \"#utility.yul\":11798:11804   */\n      dup6\n        /* \"#utility.yul\":11754:11826   */\n      tag_441\n      jump\t// in\n    tag_598:\n        /* \"#utility.yul\":11873:11882   */\n      dup2\n        /* \"#utility.yul\":11867:11871   */\n      dup2\n        /* \"#utility.yul\":11863:11883   */\n      sub\n        /* \"#utility.yul\":11858:11860   */\n      0x40\n        /* \"#utility.yul\":11847:11856   */\n      dup4\n        /* \"#utility.yul\":11843:11861   */\n      add\n        /* \"#utility.yul\":11836:11884   */\n      mstore\n        /* \"#utility.yul\":11901:11979   */\n      tag_599\n        /* \"#utility.yul\":11974:11978   */\n      dup2\n        /* \"#utility.yul\":11965:11971   */\n      dup5\n        /* \"#utility.yul\":11901:11979   */\n      tag_443\n      jump\t// in\n    tag_599:\n        /* \"#utility.yul\":11893:11979   */\n      swap1\n      pop\n        /* \"#utility.yul\":11453:11986   */\n      swap5\n      swap4\n      pop\n      pop\n      pop\n      pop\n      jump\t// out\n        /* \"#utility.yul\":11992:12707   */\n    tag_50:\n        /* \"#utility.yul\":12201:12205   */\n      0x00\n        /* \"#utility.yul\":12239:12241   */\n      0x60\n        /* \"#utility.yul\":12228:12237   */\n      dup3\n        /* \"#utility.yul\":12224:12242   */\n      add\n        /* \"#utility.yul\":12216:12242   */\n      swap1\n      pop\n        /* \"#utility.yul\":12288:12297   */\n      dup2\n        /* \"#utility.yul\":12282:12286   */\n      dup2\n        /* \"#utility.yul\":12278:12298   */\n      sub\n        /* \"#utility.yul\":12274:12275   */\n      0x00\n        /* \"#utility.yul\":12263:12272   */\n      dup4\n        /* \"#utility.yul\":12259:12276   */\n      add\n        /* \"#utility.yul\":12252:12299   */\n      mstore\n        /* \"#utility.yul\":12316:12394   */\n      tag_601\n        /* \"#utility.yul\":12389:12393   */\n      dup2\n        /* \"#utility.yul\":12380:12386   */\n      dup7\n        /* \"#utility.yul\":12316:12394   */\n      tag_443\n      jump\t// in\n    tag_601:\n        /* \"#utility.yul\":12308:12394   */\n      swap1\n      pop\n        /* \"#utility.yul\":12441:12450   */\n      dup2\n        /* \"#utility.yul\":12435:12439   */\n      dup2\n        /* \"#utility.yul\":12431:12451   */\n      sub\n        /* \"#utility.yul\":12426:12428   */\n      0x20\n        /* \"#utility.yul\":12415:12424   */\n      dup4\n        /* \"#utility.yul\":12411:12429   */\n      add\n        /* \"#utility.yul\":12404:12452   */\n      mstore\n        /* \"#utility.yul\":12469:12547   */\n      tag_602\n        /* \"#utility.yul\":12542:12546   */\n      dup2\n        /* \"#utility.yul\":12533:12539   */\n      dup6\n        /* \"#utility.yul\":12469:12547   */\n      tag_443\n      jump\t// in\n    tag_602:\n        /* \"#utility.yul\":12461:12547   */\n      swap1\n      pop\n        /* \"#utility.yul\":12594:12603   */\n      dup2\n        /* \"#utility.yul\":12588:12592   */\n      dup2\n        /* \"#utility.yul\":12584:12604   */\n      sub\n        /* \"#utility.yul\":12579:12581   */\n      0x40\n        /* \"#utility.yul\":12568:12577   */\n      dup4\n        /* \"#utility.yul\":12564:12582   */\n      add\n        /* \"#utility.yul\":12557:12605   */\n      mstore\n        /* \"#utility.yul\":12622:12700   */\n      tag_603\n        /* \"#utility.yul\":12695:12699   */\n      dup2\n        /* \"#utility.yul\":12686:12692   */\n      dup5\n        /* \"#utility.yul\":12622:12700   */\n      tag_443\n      jump\t// in\n    tag_603:\n        /* \"#utility.yul\":12614:12700   */\n      swap1\n      pop\n        /* \"#utility.yul\":11992:12707   */\n      swap5\n      swap4\n      pop\n      pop\n      pop\n      pop\n      jump\t// out\n        /* \"#utility.yul\":12713:13187   */\n    tag_53:\n        /* \"#utility.yul\":12781:12787   */\n      0x00\n        /* \"#utility.yul\":12789:12795   */\n      dup1\n        /* \"#utility.yul\":12838:12840   */\n      0x40\n        /* \"#utility.yul\":12826:12835   */\n      dup4\n        /* \"#utility.yul\":12817:12824   */\n      dup6\n        /* \"#utility.yul\":12813:12836   */\n      sub\n        /* \"#utility.yul\":12809:12841   */\n      slt\n        /* \"#utility.yul\":12806:12925   */\n      iszero\n      tag_605\n      jumpi\n        /* \"#utility.yul\":12844:12923   */\n      tag_606\n      tag_403\n      jump\t// in\n    tag_606:\n        /* \"#utility.yul\":12806:12925   */\n    tag_605:\n        /* \"#utility.yul\":12964:12965   */\n      0x00\n        /* \"#utility.yul\":12989:13042   */\n      tag_607\n        /* \"#utility.yul\":13034:13041   */\n      dup6\n        /* \"#utility.yul\":13025:13031   */\n      dup3\n        /* \"#utility.yul\":13014:13023   */\n      dup7\n        /* \"#utility.yul\":13010:13032   */\n      add\n        /* \"#utility.yul\":12989:13042   */\n      tag_437\n      jump\t// in\n    tag_607:\n        /* \"#utility.yul\":12979:13042   */\n      swap3\n      pop\n        /* \"#utility.yul\":12935:13052   */\n      pop\n        /* \"#utility.yul\":13091:13093   */\n      0x20\n        /* \"#utility.yul\":13117:13170   */\n      tag_608\n        /* \"#utility.yul\":13162:13169   */\n      dup6\n        /* \"#utility.yul\":13153:13159   */\n      dup3\n        /* \"#utility.yul\":13142:13151   */\n      dup7\n        /* \"#utility.yul\":13138:13160   */\n      add\n        /* \"#utility.yul\":13117:13170   */\n      tag_408\n      jump\t// in\n    tag_608:\n        /* \"#utility.yul\":13107:13170   */\n      swap2\n      pop\n        /* \"#utility.yul\":13062:13180   */\n      pop\n        /* \"#utility.yul\":12713:13187   */\n      swap3\n      pop\n      swap3\n      swap1\n      pop\n      jump\t// out\n        /* \"#utility.yul\":13193:13415   */\n    tag_58:\n        /* \"#utility.yul\":13286:13290   */\n      0x00\n        /* \"#utility.yul\":13324:13326   */\n      0x20\n        /* \"#utility.yul\":13313:13322   */\n      dup3\n        /* \"#utility.yul\":13309:13327   */\n      add\n        /* \"#utility.yul\":13301:13327   */\n      swap1\n      pop\n        /* \"#utility.yul\":13337:13408   */\n      tag_610\n        /* \"#utility.yul\":13405:13406   */\n      0x00\n        /* \"#utility.yul\":13394:13403   */\n      dup4\n        /* \"#utility.yul\":13390:13407   */\n      add\n        /* \"#utility.yul\":13381:13387   */\n      dup5\n        /* \"#utility.yul\":13337:13408   */\n      tag_440\n      jump\t// in\n    tag_610:\n        /* \"#utility.yul\":13193:13415   */\n      swap3\n      swap2\n      pop\n      pop\n      jump\t// out\n        /* \"#utility.yul\":13421:13507   */\n    tag_444:\n        /* \"#utility.yul\":13456:13463   */\n      0x00\n        /* \"#utility.yul\":13496:13500   */\n      0xff\n        /* \"#utility.yul\":13489:13494   */\n      dup3\n        /* \"#utility.yul\":13485:13501   */\n      and\n        /* \"#utility.yul\":13474:13501   */\n      swap1\n      pop\n        /* \"#utility.yul\":13421:13507   */\n      swap2\n      swap1\n      pop\n      jump\t// out\n        /* \"#utility.yul\":13513:13625   */\n    tag_445:\n        /* \"#utility.yul\":13596:13618   */\n      tag_613\n        /* \"#utility.yul\":13612:13617   */\n      dup2\n        /* \"#utility.yul\":13596:13618   */\n      tag_444\n      jump\t// in\n    tag_613:\n        /* \"#utility.yul\":13591:13594   */\n      dup3\n        /* \"#utility.yul\":13584:13619   */\n      mstore\n        /* \"#utility.yul\":13513:13625   */\n      pop\n      pop\n      jump\t// out\n        /* \"#utility.yul\":13631:13845   */\n    tag_62:\n        /* \"#utility.yul\":13720:13724   */\n      0x00\n        /* \"#utility.yul\":13758:13760   */\n      0x20\n        /* \"#utility.yul\":13747:13756   */\n      dup3\n        /* \"#utility.yul\":13743:13761   */\n      add\n        /* \"#utility.yul\":13735:13761   */\n      swap1\n      pop\n        /* \"#utility.yul\":13771:13838   */\n      tag_615\n        /* \"#utility.yul\":13835:13836   */\n      0x00\n        /* \"#utility.yul\":13824:13833   */\n      dup4\n        /* \"#utility.yul\":13820:13837   */\n      add\n        /* \"#utility.yul\":13811:13817   */\n      dup5\n        /* \"#utility.yul\":13771:13838   */\n      tag_445\n      jump\t// in\n    tag_615:\n        /* \"#utility.yul\":13631:13845   */\n      swap3\n      swap2\n      pop\n      pop\n      jump\t// out\n        /* \"#utility.yul\":13851:13969   */\n    tag_446:\n        /* \"#utility.yul\":13922:13944   */\n      tag_617\n        /* \"#utility.yul\":13938:13943   */\n      dup2\n        /* \"#utility.yul\":13922:13944   */\n      tag_444\n      jump\t// in\n    tag_617:\n        /* \"#utility.yul\":13915:13920   */\n      dup2\n        /* \"#utility.yul\":13912:13945   */\n      eq\n        /* \"#utility.yul\":13902:13963   */\n      tag_618\n      jumpi\n        /* \"#utility.yul\":13959:13960   */\n      0x00\n        /* \"#utility.yul\":13956:13957   */\n      dup1\n        /* \"#utility.yul\":13949:13961   */\n      revert\n        /* \"#utility.yul\":13902:13963   */\n    tag_618:\n        /* \"#utility.yul\":13851:13969   */\n      pop\n      jump\t// out\n        /* \"#utility.yul\":13975:14110   */\n    tag_447:\n        /* \"#utility.yul\":14019:14024   */\n      0x00\n        /* \"#utility.yul\":14057:14063   */\n      dup2\n        /* \"#utility.yul\":14044:14064   */\n      calldataload\n        /* \"#utility.yul\":14035:14064   */\n      swap1\n      pop\n        /* \"#utility.yul\":14073:14104   */\n      tag_620\n        /* \"#utility.yul\":14098:14103   */\n      dup2\n        /* \"#utility.yul\":14073:14104   */\n      tag_446\n      jump\t// in\n    tag_620:\n        /* \"#utility.yul\":13975:14110   */\n      swap3\n      swap2\n      pop\n      pop\n      jump\t// out\n        /* \"#utility.yul\":14116:14731   */\n    tag_65:\n        /* \"#utility.yul\":14191:14197   */\n      0x00\n        /* \"#utility.yul\":14199:14205   */\n      dup1\n        /* \"#utility.yul\":14207:14213   */\n      0x00\n        /* \"#utility.yul\":14256:14258   */\n      0x60\n        /* \"#utility.yul\":14244:14253   */\n      dup5\n        /* \"#utility.yul\":14235:14242   */\n      dup7\n        /* \"#utility.yul\":14231:14254   */\n      sub\n        /* \"#utility.yul\":14227:14259   */\n      slt\n        /* \"#utility.yul\":14224:14343   */\n      iszero\n      tag_622\n      jumpi\n        /* \"#utility.yul\":14262:14341   */\n      tag_623\n      tag_403\n      jump\t// in\n    tag_623:\n        /* \"#utility.yul\":14224:14343   */\n    tag_622:\n        /* \"#utility.yul\":14382:14383   */\n      0x00\n        /* \"#utility.yul\":14407:14460   */\n      tag_624\n        /* \"#utility.yul\":14452:14459   */\n      dup7\n        /* \"#utility.yul\":14443:14449   */\n      dup3\n        /* \"#utility.yul\":14432:14441   */\n      dup8\n        /* \"#utility.yul\":14428:14450   */\n      add\n        /* \"#utility.yul\":14407:14460   */\n      tag_437\n      jump\t// in\n    tag_624:\n        /* \"#utility.yul\":14397:14460   */\n      swap4\n      pop\n        /* \"#utility.yul\":14353:14470   */\n      pop\n        /* \"#utility.yul\":14509:14511   */\n      0x20\n        /* \"#utility.yul\":14535:14586   */\n      tag_625\n        /* \"#utility.yul\":14578:14585   */\n      dup7\n        /* \"#utility.yul\":14569:14575   */\n      dup3\n        /* \"#utility.yul\":14558:14567   */\n      dup8\n        /* \"#utility.yul\":14554:14576   */\n      add\n        /* \"#utility.yul\":14535:14586   */\n      tag_447\n      jump\t// in\n    tag_625:\n        /* \"#utility.yul\":14525:14586   */\n      swap3\n      pop\n        /* \"#utility.yul\":14480:14596   */\n      pop\n        /* \"#utility.yul\":14635:14637   */\n      0x40\n        /* \"#utility.yul\":14661:14714   */\n      tag_626\n        /* \"#utility.yul\":14706:14713   */\n      dup7\n        /* \"#utility.yul\":14697:14703   */\n      dup3\n        /* \"#utility.yul\":14686:14695   */\n      dup8\n        /* \"#utility.yul\":14682:14704   */\n      add\n        /* \"#utility.yul\":14661:14714   */\n      tag_408\n      jump\t// in\n    tag_626:\n        /* \"#utility.yul\":14651:14714   */\n      swap2\n      pop\n        /* \"#utility.yul\":14606:14724   */\n      pop\n        /* \"#utility.yul\":14116:14731   */\n      swap3\n      pop\n      swap3\n      pop\n      swap3\n      jump\t// out\n        /* \"#utility.yul\":14737:15050   */\n    tag_71:\n        /* \"#utility.yul\":14850:14854   */\n      0x00\n        /* \"#utility.yul\":14888:14890   */\n      0x20\n        /* \"#utility.yul\":14877:14886   */\n      dup3\n        /* \"#utility.yul\":14873:14891   */\n      add\n        /* \"#utility.yul\":14865:14891   */\n      swap1\n      pop\n        /* \"#utility.yul\":14937:14946   */\n      dup2\n        /* \"#utility.yul\":14931:14935   */\n      dup2\n        /* \"#utility.yul\":14927:14947   */\n      sub\n        /* \"#utility.yul\":14923:14924   */\n      0x00\n        /* \"#utility.yul\":14912:14921   */\n      dup4\n        /* \"#utility.yul\":14908:14925   */\n      add\n        /* \"#utility.yul\":14901:14948   */\n      mstore\n        /* \"#utility.yul\":14965:15043   */\n      tag_628\n        /* \"#utility.yul\":15038:15042   */\n      dup2\n        /* \"#utility.yul\":15029:15035   */\n      dup5\n        /* \"#utility.yul\":14965:15043   */\n      tag_443\n      jump\t// in\n    tag_628:\n        /* \"#utility.yul\":14957:15043   */\n      swap1\n      pop\n        /* \"#utility.yul\":14737:15050   */\n      swap3\n      swap2\n      pop\n      pop\n      jump\t// out\n        /* \"#utility.yul\":15056:17155   */\n    tag_74:\n        /* \"#utility.yul\":15217:15223   */\n      0x00\n        /* \"#utility.yul\":15225:15231   */\n      dup1\n        /* \"#utility.yul\":15233:15239   */\n      0x00\n        /* \"#utility.yul\":15241:15247   */\n      dup1\n        /* \"#utility.yul\":15249:15255   */\n      0x00\n        /* \"#utility.yul\":15257:15263   */\n      dup1\n        /* \"#utility.yul\":15265:15271   */\n      0x00\n        /* \"#utility.yul\":15314:15317   */\n      0xe0\n        /* \"#utility.yul\":15302:15311   */\n      dup9\n        /* \"#utility.yul\":15293:15300   */\n      dup11\n        /* \"#utility.yul\":15289:15312   */\n      sub\n        /* \"#utility.yul\":15285:15318   */\n      slt\n        /* \"#utility.yul\":15282:15402   */\n      iszero\n      tag_630\n      jumpi\n        /* \"#utility.yul\":15321:15400   */\n      tag_631\n      tag_403\n      jump\t// in\n    tag_631:\n        /* \"#utility.yul\":15282:15402   */\n    tag_630:\n        /* \"#utility.yul\":15469:15470   */\n      0x00\n        /* \"#utility.yul\":15458:15467   */\n      dup9\n        /* \"#utility.yul\":15454:15471   */\n      add\n        /* \"#utility.yul\":15441:15472   */\n      calldataload\n        /* \"#utility.yul\":15499:15517   */\n      0xffffffffffffffff\n        /* \"#utility.yul\":15491:15497   */\n      dup2\n        /* \"#utility.yul\":15488:15518   */\n      gt\n        /* \"#utility.yul\":15485:15602   */\n      iszero\n      tag_632\n      jumpi\n        /* \"#utility.yul\":15521:15600   */\n      tag_633\n      tag_404\n      jump\t// in\n    tag_633:\n        /* \"#utility.yul\":15485:15602   */\n    tag_632:\n        /* \"#utility.yul\":15626:15689   */\n      tag_634\n        /* \"#utility.yul\":15681:15688   */\n      dup11\n        /* \"#utility.yul\":15672:15678   */\n      dup3\n        /* \"#utility.yul\":15661:15670   */\n      dup12\n        /* \"#utility.yul\":15657:15679   */\n      add\n        /* \"#utility.yul\":15626:15689   */\n      tag_435\n      jump\t// in\n    tag_634:\n        /* \"#utility.yul\":15616:15689   */\n      swap8\n      pop\n        /* \"#utility.yul\":15412:15699   */\n      pop\n        /* \"#utility.yul\":15766:15768   */\n      0x20\n        /* \"#utility.yul\":15755:15764   */\n      dup9\n        /* \"#utility.yul\":15751:15769   */\n      add\n        /* \"#utility.yul\":15738:15770   */\n      calldataload\n        /* \"#utility.yul\":15797:15815   */\n      0xffffffffffffffff\n        /* \"#utility.yul\":15789:15795   */\n      dup2\n        /* \"#utility.yul\":15786:15816   */\n      gt\n        /* \"#utility.yul\":15783:15900   */\n      iszero\n      tag_635\n      jumpi\n        /* \"#utility.yul\":15819:15898   */\n      tag_636\n      tag_404\n      jump\t// in\n    tag_636:\n        /* \"#utility.yul\":15783:15900   */\n    tag_635:\n        /* \"#utility.yul\":15924:15987   */\n      tag_637\n        /* \"#utility.yul\":15979:15986   */\n      dup11\n        /* \"#utility.yul\":15970:15976   */\n      dup3\n        /* \"#utility.yul\":15959:15968   */\n      dup12\n        /* \"#utility.yul\":15955:15977   */\n      add\n        /* \"#utility.yul\":15924:15987   */\n      tag_435\n      jump\t// in\n    tag_637:\n        /* \"#utility.yul\":15914:15987   */\n      swap7\n      pop\n        /* \"#utility.yul\":15709:15997   */\n      pop\n        /* \"#utility.yul\":16064:16066   */\n      0x40\n        /* \"#utility.yul\":16053:16062   */\n      dup9\n        /* \"#utility.yul\":16049:16067   */\n      add\n        /* \"#utility.yul\":16036:16068   */\n      calldataload\n        /* \"#utility.yul\":16095:16113   */\n      0xffffffffffffffff\n        /* \"#utility.yul\":16087:16093   */\n      dup2\n        /* \"#utility.yul\":16084:16114   */\n      gt\n        /* \"#utility.yul\":16081:16198   */\n      iszero\n      tag_638\n      jumpi\n        /* \"#utility.yul\":16117:16196   */\n      tag_639\n      tag_404\n      jump\t// in\n    tag_639:\n        /* \"#utility.yul\":16081:16198   */\n    tag_638:\n        /* \"#utility.yul\":16222:16285   */\n      tag_640\n        /* \"#utility.yul\":16277:16284   */\n      dup11\n        /* \"#utility.yul\":16268:16274   */\n      dup3\n        /* \"#utility.yul\":16257:16266   */\n      dup12\n        /* \"#utility.yul\":16253:16275   */\n      add\n        /* \"#utility.yul\":16222:16285   */\n      tag_435\n      jump\t// in\n    tag_640:\n        /* \"#utility.yul\":16212:16285   */\n      swap6\n      pop\n        /* \"#utility.yul\":16007:16295   */\n      pop\n        /* \"#utility.yul\":16334:16336   */\n      0x60\n        /* \"#utility.yul\":16360:16411   */\n      tag_641\n        /* \"#utility.yul\":16403:16410   */\n      dup11\n        /* \"#utility.yul\":16394:16400   */\n      dup3\n        /* \"#utility.yul\":16383:16392   */\n      dup12\n        /* \"#utility.yul\":16379:16401   */\n      add\n        /* \"#utility.yul\":16360:16411   */\n      tag_447\n      jump\t// in\n    tag_641:\n        /* \"#utility.yul\":16350:16411   */\n      swap5\n      pop\n        /* \"#utility.yul\":16305:16421   */\n      pop\n        /* \"#utility.yul\":16488:16491   */\n      0x80\n        /* \"#utility.yul\":16477:16486   */\n      dup9\n        /* \"#utility.yul\":16473:16492   */\n      add\n        /* \"#utility.yul\":16460:16493   */\n      calldataload\n        /* \"#utility.yul\":16520:16538   */\n      0xffffffffffffffff\n        /* \"#utility.yul\":16512:16518   */\n      dup2\n        /* \"#utility.yul\":16509:16539   */\n      gt\n        /* \"#utility.yul\":16506:16623   */\n      iszero\n      tag_642\n      jumpi\n        /* \"#utility.yul\":16542:16621   */\n      tag_643\n      tag_404\n      jump\t// in\n    tag_643:\n        /* \"#utility.yul\":16506:16623   */\n    tag_642:\n        /* \"#utility.yul\":16647:16710   */\n      tag_644\n        /* \"#utility.yul\":16702:16709   */\n      dup11\n        /* \"#utility.yul\":16693:16699   */\n      dup3\n        /* \"#utility.yul\":16682:16691   */\n      dup12\n        /* \"#utility.yul\":16678:16700   */\n      add\n        /* \"#utility.yul\":16647:16710   */\n      tag_435\n      jump\t// in\n    tag_644:\n        /* \"#utility.yul\":16637:16710   */\n      swap4\n      pop\n        /* \"#utility.yul\":16431:16720   */\n      pop\n        /* \"#utility.yul\":16759:16762   */\n      0xa0\n        /* \"#utility.yul\":16786:16839   */\n      tag_645\n        /* \"#utility.yul\":16831:16838   */\n      dup11\n        /* \"#utility.yul\":16822:16828   */\n      dup3\n        /* \"#utility.yul\":16811:16820   */\n      dup12\n        /* \"#utility.yul\":16807:16829   */\n      add\n        /* \"#utility.yul\":16786:16839   */\n      tag_437\n      jump\t// in\n    tag_645:\n        /* \"#utility.yul\":16776:16839   */\n      swap3\n      pop\n        /* \"#utility.yul\":16730:16849   */\n      pop\n        /* \"#utility.yul\":16916:16919   */\n      0xc0\n        /* \"#utility.yul\":16905:16914   */\n      dup9\n        /* \"#utility.yul\":16901:16920   */\n      add\n        /* \"#utility.yul\":16888:16921   */\n      calldataload\n        /* \"#utility.yul\":16948:16966   */\n      0xffffffffffffffff\n        /* \"#utility.yul\":16940:16946   */\n      dup2\n        /* \"#utility.yul\":16937:16967   */\n      gt\n        /* \"#utility.yul\":16934:17051   */\n      iszero\n      tag_646\n      jumpi\n        /* \"#utility.yul\":16970:17049   */\n      tag_647\n      tag_404\n      jump\t// in\n    tag_647:\n        /* \"#utility.yul\":16934:17051   */\n    tag_646:\n        /* \"#utility.yul\":17075:17138   */\n      tag_648\n        /* \"#utility.yul\":17130:17137   */\n      dup11\n        /* \"#utility.yul\":17121:17127   */\n      dup3\n        /* \"#utility.yul\":17110:17119   */\n      dup12\n        /* \"#utility.yul\":17106:17128   */\n      add\n        /* \"#utility.yul\":17075:17138   */\n      tag_435\n      jump\t// in\n    tag_648:\n        /* \"#utility.yul\":17065:17138   */\n      swap2\n      pop\n        /* \"#utility.yul\":16859:17148   */\n      pop\n        /* \"#utility.yul\":15056:17155   */\n      swap3\n      swap6\n      swap9\n      swap2\n      swap5\n      swap8\n      pop\n      swap3\n      swap6\n      pop\n      jump\t// out\n        /* \"#utility.yul\":17161:17490   */\n    tag_79:\n        /* \"#utility.yul\":17220:17226   */\n      0x00\n        /* \"#utility.yul\":17269:17271   */\n      0x20\n        /* \"#utility.yul\":17257:17266   */\n      dup3\n        /* \"#utility.yul\":17248:17255   */\n      dup5\n        /* \"#utility.yul\":17244:17267   */\n      sub\n        /* \"#utility.yul\":17240:17272   */\n      slt\n        /* \"#utility.yul\":17237:17356   */\n      iszero\n      tag_650\n      jumpi\n        /* \"#utility.yul\":17275:17354   */\n      tag_651\n      tag_403\n      jump\t// in\n    tag_651:\n        /* \"#utility.yul\":17237:17356   */\n    tag_650:\n        /* \"#utility.yul\":17395:17396   */\n      0x00\n        /* \"#utility.yul\":17420:17473   */\n      tag_652\n        /* \"#utility.yul\":17465:17472   */\n      dup5\n        /* \"#utility.yul\":17456:17462   */\n      dup3\n        /* \"#utility.yul\":17445:17454   */\n      dup6\n        /* \"#utility.yul\":17441:17463   */\n      add\n        /* \"#utility.yul\":17420:17473   */\n      tag_437\n      jump\t// in\n    tag_652:\n        /* \"#utility.yul\":17410:17473   */\n      swap2\n      pop\n        /* \"#utility.yul\":17366:17483   */\n      pop\n        /* \"#utility.yul\":17161:17490   */\n      swap3\n      swap2\n      pop\n      pop\n      jump\t// out\n        /* \"#utility.yul\":17496:19039   */\n    tag_82:\n        /* \"#utility.yul\":17905:17909   */\n      0x00\n        /* \"#utility.yul\":17943:17946   */\n      0x0100\n        /* \"#utility.yul\":17932:17941   */\n      dup3\n        /* \"#utility.yul\":17928:17947   */\n      add\n        /* \"#utility.yul\":17920:17947   */\n      swap1\n      pop\n        /* \"#utility.yul\":17957:18028   */\n      tag_654\n        /* \"#utility.yul\":18025:18026   */\n      0x00\n        /* \"#utility.yul\":18014:18023   */\n      dup4\n        /* \"#utility.yul\":18010:18027   */\n      add\n        /* \"#utility.yul\":18001:18007   */\n      dup12\n        /* \"#utility.yul\":17957:18028   */\n      tag_440\n      jump\t// in\n    tag_654:\n        /* \"#utility.yul\":18075:18084   */\n      dup2\n        /* \"#utility.yul\":18069:18073   */\n      dup2\n        /* \"#utility.yul\":18065:18085   */\n      sub\n        /* \"#utility.yul\":18060:18062   */\n      0x20\n        /* \"#utility.yul\":18049:18058   */\n      dup4\n        /* \"#utility.yul\":18045:18063   */\n      add\n        /* \"#utility.yul\":18038:18086   */\n      mstore\n        /* \"#utility.yul\":18103:18181   */\n      tag_655\n        /* \"#utility.yul\":18176:18180   */\n      dup2\n        /* \"#utility.yul\":18167:18173   */\n      dup11\n        /* \"#utility.yul\":18103:18181   */\n      tag_443\n      jump\t// in\n    tag_655:\n        /* \"#utility.yul\":18095:18181   */\n      swap1\n      pop\n        /* \"#utility.yul\":18228:18237   */\n      dup2\n        /* \"#utility.yul\":18222:18226   */\n      dup2\n        /* \"#utility.yul\":18218:18238   */\n      sub\n        /* \"#utility.yul\":18213:18215   */\n      0x40\n        /* \"#utility.yul\":18202:18211   */\n      dup4\n        /* \"#utility.yul\":18198:18216   */\n      add\n        /* \"#utility.yul\":18191:18239   */\n      mstore\n        /* \"#utility.yul\":18256:18334   */\n      tag_656\n        /* \"#utility.yul\":18329:18333   */\n      dup2\n        /* \"#utility.yul\":18320:18326   */\n      dup10\n        /* \"#utility.yul\":18256:18334   */\n      tag_443\n      jump\t// in\n    tag_656:\n        /* \"#utility.yul\":18248:18334   */\n      swap1\n      pop\n        /* \"#utility.yul\":18344:18416   */\n      tag_657\n        /* \"#utility.yul\":18412:18414   */\n      0x60\n        /* \"#utility.yul\":18401:18410   */\n      dup4\n        /* \"#utility.yul\":18397:18415   */\n      add\n        /* \"#utility.yul\":18388:18394   */\n      dup9\n        /* \"#utility.yul\":18344:18416   */\n      tag_440\n      jump\t// in\n    tag_657:\n        /* \"#utility.yul\":18464:18473   */\n      dup2\n        /* \"#utility.yul\":18458:18462   */\n      dup2\n        /* \"#utility.yul\":18454:18474   */\n      sub\n        /* \"#utility.yul\":18448:18451   */\n      0x80\n        /* \"#utility.yul\":18437:18446   */\n      dup4\n        /* \"#utility.yul\":18433:18452   */\n      add\n        /* \"#utility.yul\":18426:18475   */\n      mstore\n        /* \"#utility.yul\":18492:18570   */\n      tag_658\n        /* \"#utility.yul\":18565:18569   */\n      dup2\n        /* \"#utility.yul\":18556:18562   */\n      dup8\n        /* \"#utility.yul\":18492:18570   */\n      tag_443\n      jump\t// in\n    tag_658:\n        /* \"#utility.yul\":18484:18570   */\n      swap1\n      pop\n        /* \"#utility.yul\":18618:18627   */\n      dup2\n        /* \"#utility.yul\":18612:18616   */\n      dup2\n        /* \"#utility.yul\":18608:18628   */\n      sub\n        /* \"#utility.yul\":18602:18605   */\n      0xa0\n        /* \"#utility.yul\":18591:18600   */\n      dup4\n        /* \"#utility.yul\":18587:18606   */\n      add\n        /* \"#utility.yul\":18580:18629   */\n      mstore\n        /* \"#utility.yul\":18646:18724   */\n      tag_659\n        /* \"#utility.yul\":18719:18723   */\n      dup2\n        /* \"#utility.yul\":18710:18716   */\n      dup7\n        /* \"#utility.yul\":18646:18724   */\n      tag_443\n      jump\t// in\n    tag_659:\n        /* \"#utility.yul\":18638:18724   */\n      swap1\n      pop\n        /* \"#utility.yul\":18772:18781   */\n      dup2\n        /* \"#utility.yul\":18766:18770   */\n      dup2\n        /* \"#utility.yul\":18762:18782   */\n      sub\n        /* \"#utility.yul\":18756:18759   */\n      0xc0\n        /* \"#utility.yul\":18745:18754   */\n      dup4\n        /* \"#utility.yul\":18741:18760   */\n      add\n        /* \"#utility.yul\":18734:18783   */\n      mstore\n        /* \"#utility.yul\":18800:18878   */\n      tag_660\n        /* \"#utility.yul\":18873:18877   */\n      dup2\n        /* \"#utility.yul\":18864:18870   */\n      dup6\n        /* \"#utility.yul\":18800:18878   */\n      tag_443\n      jump\t// in\n    tag_660:\n        /* \"#utility.yul\":18792:18878   */\n      swap1\n      pop\n        /* \"#utility.yul\":18926:18935   */\n      dup2\n        /* \"#utility.yul\":18920:18924   */\n      dup2\n        /* \"#utility.yul\":18916:18936   */\n      sub\n        /* \"#utility.yul\":18910:18913   */\n      0xe0\n        /* \"#utility.yul\":18899:18908   */\n      dup4\n        /* \"#utility.yul\":18895:18914   */\n      add\n        /* \"#utility.yul\":18888:18937   */\n      mstore\n        /* \"#utility.yul\":18954:19032   */\n      tag_661\n        /* \"#utility.yul\":19027:19031   */\n      dup2\n        /* \"#utility.yul\":19018:19024   */\n      dup5\n        /* \"#utility.yul\":18954:19032   */\n      tag_443\n      jump\t// in\n    tag_661:\n        /* \"#utility.yul\":18946:19032   */\n      swap1\n      pop\n        /* \"#utility.yul\":17496:19039   */\n      swap10\n      swap9\n      pop\n      pop\n      pop\n      pop\n      pop\n      pop\n      pop\n      pop\n      pop\n      jump\t// out\n        /* \"#utility.yul\":19045:19554   */\n    tag_85:\n        /* \"#utility.yul\":19114:19120   */\n      0x00\n        /* \"#utility.yul\":19163:19165   */\n      0x20\n        /* \"#utility.yul\":19151:19160   */\n      dup3\n        /* \"#utility.yul\":19142:19149   */\n      dup5\n        /* \"#utility.yul\":19138:19161   */\n      sub\n        /* \"#utility.yul\":19134:19166   */\n      slt\n        /* \"#utility.yul\":19131:19250   */\n      iszero\n      tag_663\n      jumpi\n        /* \"#utility.yul\":19169:19248   */\n      tag_664\n      tag_403\n      jump\t// in\n    tag_664:\n        /* \"#utility.yul\":19131:19250   */\n    tag_663:\n        /* \"#utility.yul\":19317:19318   */\n      0x00\n        /* \"#utility.yul\":19306:19315   */\n      dup3\n        /* \"#utility.yul\":19302:19319   */\n      add\n        /* \"#utility.yul\":19289:19320   */\n      calldataload\n        /* \"#utility.yul\":19347:19365   */\n      0xffffffffffffffff\n        /* \"#utility.yul\":19339:19345   */\n      dup2\n        /* \"#utility.yul\":19336:19366   */\n      gt\n        /* \"#utility.yul\":19333:19450   */\n      iszero\n      tag_665\n      jumpi\n        /* \"#utility.yul\":19369:19448   */\n      tag_666\n      tag_404\n      jump\t// in\n    tag_666:\n        /* \"#utility.yul\":19333:19450   */\n    tag_665:\n        /* \"#utility.yul\":19474:19537   */\n      tag_667\n        /* \"#utility.yul\":19529:19536   */\n      dup5\n        /* \"#utility.yul\":19520:19526   */\n      dup3\n        /* \"#utility.yul\":19509:19518   */\n      dup6\n        /* \"#utility.yul\":19505:19527   */\n      add\n        /* \"#utility.yul\":19474:19537   */\n      tag_435\n      jump\t// in\n    tag_667:\n        /* \"#utility.yul\":19464:19537   */\n      swap2\n      pop\n        /* \"#utility.yul\":19260:19547   */\n      pop\n        /* \"#utility.yul\":19045:19554   */\n      swap3\n      swap2\n      pop\n      pop\n      jump\t// out\n        /* \"#utility.yul\":19560:19782   */\n    tag_88:\n        /* \"#utility.yul\":19653:19657   */\n      0x00\n        /* \"#utility.yul\":19691:19693   */\n      0x20\n        /* \"#utility.yul\":19680:19689   */\n      dup3\n        /* \"#utility.yul\":19676:19694   */\n      add\n        /* \"#utility.yul\":19668:19694   */\n      swap1\n      pop\n        /* \"#utility.yul\":19704:19775   */\n      tag_669\n        /* \"#utility.yul\":19772:19773   */\n      0x00\n        /* \"#utility.yul\":19761:19770   */\n      dup4\n        /* \"#utility.yul\":19757:19774   */\n      add\n        /* \"#utility.yul\":19748:19754   */\n      dup5\n        /* \"#utility.yul\":19704:19775   */\n      tag_441\n      jump\t// in\n    tag_669:\n        /* \"#utility.yul\":19560:19782   */\n      swap3\n      swap2\n      pop\n      pop\n      jump\t// out\n        /* \"#utility.yul\":19788:19865   */\n    tag_448:\n        /* \"#utility.yul\":19825:19832   */\n      0x00\n        /* \"#utility.yul\":19854:19859   */\n      dup2\n        /* \"#utility.yul\":19843:19859   */\n      swap1\n      pop\n        /* \"#utility.yul\":19788:19865   */\n      swap2\n      swap1\n      pop\n      jump\t// out\n        /* \"#utility.yul\":19871:19989   */\n    tag_449:\n        /* \"#utility.yul\":19958:19982   */\n      tag_672\n        /* \"#utility.yul\":19976:19981   */\n      dup2\n        /* \"#utility.yul\":19958:19982   */\n      tag_448\n      jump\t// in\n    tag_672:\n        /* \"#utility.yul\":19953:19956   */\n      dup3\n        /* \"#utility.yul\":19946:19983   */\n      mstore\n        /* \"#utility.yul\":19871:19989   */\n      pop\n      pop\n      jump\t// out\n        /* \"#utility.yul\":19995:20217   */\n    tag_99:\n        /* \"#utility.yul\":20088:20092   */\n      0x00\n        /* \"#utility.yul\":20126:20128   */\n      0x20\n        /* \"#utility.yul\":20115:20124   */\n      dup3\n        /* \"#utility.yul\":20111:20129   */\n      add\n        /* \"#utility.yul\":20103:20129   */\n      swap1\n      pop\n        /* \"#utility.yul\":20139:20210   */\n      tag_674\n        /* \"#utility.yul\":20207:20208   */\n      0x00\n        /* \"#utility.yul\":20196:20205   */\n      dup4\n        /* \"#utility.yul\":20192:20209   */\n      add\n        /* \"#utility.yul\":20183:20189   */\n      dup5\n        /* \"#utility.yul\":20139:20210   */\n      tag_449\n      jump\t// in\n    tag_674:\n        /* \"#utility.yul\":19995:20217   */\n      swap3\n      swap2\n      pop\n      pop\n      jump\t// out\n        /* \"#utility.yul\":20223:20737   */\n    tag_111:\n        /* \"#utility.yul\":20384:20388   */\n      0x00\n        /* \"#utility.yul\":20422:20424   */\n      0x40\n        /* \"#utility.yul\":20411:20420   */\n      dup3\n        /* \"#utility.yul\":20407:20425   */\n      add\n        /* \"#utility.yul\":20399:20425   */\n      swap1\n      pop\n        /* \"#utility.yul\":20471:20480   */\n      dup2\n        /* \"#utility.yul\":20465:20469   */\n      dup2\n        /* \"#utility.yul\":20461:20481   */\n      sub\n        /* \"#utility.yul\":20457:20458   */\n      0x00\n        /* \"#utility.yul\":20446:20455   */\n      dup4\n        /* \"#utility.yul\":20442:20459   */\n      add\n        /* \"#utility.yul\":20435:20482   */\n      mstore\n        /* \"#utility.yul\":20499:20577   */\n      tag_676\n        /* \"#utility.yul\":20572:20576   */\n      dup2\n        /* \"#utility.yul\":20563:20569   */\n      dup6\n        /* \"#utility.yul\":20499:20577   */\n      tag_443\n      jump\t// in\n    tag_676:\n        /* \"#utility.yul\":20491:20577   */\n      swap1\n      pop\n        /* \"#utility.yul\":20624:20633   */\n      dup2\n        /* \"#utility.yul\":20618:20622   */\n      dup2\n        /* \"#utility.yul\":20614:20634   */\n      sub\n        /* \"#utility.yul\":20609:20611   */\n      0x20\n        /* \"#utility.yul\":20598:20607   */\n      dup4\n        /* \"#utility.yul\":20594:20612   */\n      add\n        /* \"#utility.yul\":20587:20635   */\n      mstore\n        /* \"#utility.yul\":20652:20730   */\n      tag_677\n        /* \"#utility.yul\":20725:20729   */\n      dup2\n        /* \"#utility.yul\":20716:20722   */\n      dup5\n        /* \"#utility.yul\":20652:20730   */\n      tag_443\n      jump\t// in\n    tag_677:\n        /* \"#utility.yul\":20644:20730   */\n      swap1\n      pop\n        /* \"#utility.yul\":20223:20737   */\n      swap4\n      swap3\n      pop\n      pop\n      pop\n      jump\t// out\n        /* \"#utility.yul\":20743:20923   */\n    tag_138:\n        /* \"#utility.yul\":20791:20868   */\n      0x4e487b7100000000000000000000000000000000000000000000000000000000\n        /* \"#utility.yul\":20788:20789   */\n      0x00\n        /* \"#utility.yul\":20781:20869   */\n      mstore\n        /* \"#utility.yul\":20888:20892   */\n      0x32\n        /* \"#utility.yul\":20885:20886   */\n      0x04\n        /* \"#utility.yul\":20878:20893   */\n      mstore\n        /* \"#utility.yul\":20912:20916   */\n      0x24\n        /* \"#utility.yul\":20909:20910   */\n      0x00\n        /* \"#utility.yul\":20902:20917   */\n      revert\n        /* \"#utility.yul\":20929:21109   */\n    tag_450:\n        /* \"#utility.yul\":20977:21054   */\n      0x4e487b7100000000000000000000000000000000000000000000000000000000\n        /* \"#utility.yul\":20974:20975   */\n      0x00\n        /* \"#utility.yul\":20967:21055   */\n      mstore\n        /* \"#utility.yul\":21074:21078   */\n      0x22\n        /* \"#utility.yul\":21071:21072   */\n      0x04\n        /* \"#utility.yul\":21064:21079   */\n      mstore\n        /* \"#utility.yul\":21098:21102   */\n      0x24\n        /* \"#utility.yul\":21095:21096   */\n      0x00\n        /* \"#utility.yul\":21088:21103   */\n      revert\n        /* \"#utility.yul\":21115:21435   */\n    tag_141:\n        /* \"#utility.yul\":21159:21165   */\n      0x00\n        /* \"#utility.yul\":21196:21197   */\n      0x02\n        /* \"#utility.yul\":21190:21194   */\n      dup3\n        /* \"#utility.yul\":21186:21198   */\n      div\n        /* \"#utility.yul\":21176:21198   */\n      swap1\n      pop\n        /* \"#utility.yul\":21243:21244   */\n      0x01\n        /* \"#utility.yul\":21237:21241   */\n      dup3\n        /* \"#utility.yul\":21233:21245   */\n      and\n        /* \"#utility.yul\":21264:21282   */\n      dup1\n        /* \"#utility.yul\":21254:21335   */\n      tag_681\n      jumpi\n        /* \"#utility.yul\":21320:21324   */\n      0x7f\n        /* \"#utility.yul\":21312:21318   */\n      dup3\n        /* \"#utility.yul\":21308:21325   */\n      and\n        /* \"#utility.yul\":21298:21325   */\n      swap2\n      pop\n        /* \"#utility.yul\":21254:21335   */\n    tag_681:\n        /* \"#utility.yul\":21382:21384   */\n      0x20\n        /* \"#utility.yul\":21374:21380   */\n      dup3\n        /* \"#utility.yul\":21371:21385   */\n      lt\n        /* \"#utility.yul\":21351:21369   */\n      dup2\n        /* \"#utility.yul\":21348:21386   */\n      sub\n        /* \"#utility.yul\":21345:21429   */\n      tag_682\n      jumpi\n        /* \"#utility.yul\":21401:21419   */\n      tag_683\n      tag_450\n      jump\t// in\n    tag_683:\n        /* \"#utility.yul\":21345:21429   */\n    tag_682:\n        /* \"#utility.yul\":21166:21435   */\n      pop\n        /* \"#utility.yul\":21115:21435   */\n      swap2\n      swap1\n      pop\n      jump\t// out\n        /* \"#utility.yul\":21441:21582   */\n    tag_451:\n        /* \"#utility.yul\":21490:21494   */\n      0x00\n        /* \"#utility.yul\":21513:21516   */\n      dup2\n        /* \"#utility.yul\":21505:21516   */\n      swap1\n      pop\n        /* \"#utility.yul\":21536:21539   */\n      dup2\n        /* \"#utility.yul\":21533:21534   */\n      0x00\n        /* \"#utility.yul\":21526:21540   */\n      mstore\n        /* \"#utility.yul\":21570:21574   */\n      0x20\n        /* \"#utility.yul\":21567:21568   */\n      0x00\n        /* \"#utility.yul\":21557:21575   */\n      keccak256\n        /* \"#utility.yul\":21549:21575   */\n      swap1\n      pop\n        /* \"#utility.yul\":21441:21582   */\n      swap2\n      swap1\n      pop\n      jump\t// out\n        /* \"#utility.yul\":21588:21681   */\n    tag_452:\n        /* \"#utility.yul\":21625:21631   */\n      0x00\n        /* \"#utility.yul\":21672:21674   */\n      0x20\n        /* \"#utility.yul\":21667:21669   */\n      0x1f\n        /* \"#utility.yul\":21660:21665   */\n      dup4\n        /* \"#utility.yul\":21656:21670   */\n      add\n        /* \"#utility.yul\":21652:21675   */\n      div\n        /* \"#utility.yul\":21642:21675   */\n      swap1\n      pop\n        /* \"#utility.yul\":21588:21681   */\n      swap2\n      swap1\n      pop\n      jump\t// out\n        /* \"#utility.yul\":21687:21794   */\n    tag_453:\n        /* \"#utility.yul\":21731:21739   */\n      0x00\n        /* \"#utility.yul\":21781:21786   */\n      dup3\n        /* \"#utility.yul\":21775:21779   */\n      dup3\n        /* \"#utility.yul\":21771:21787   */\n      shl\n        /* \"#utility.yul\":21750:21787   */\n      swap1\n      pop\n        /* \"#utility.yul\":21687:21794   */\n      swap3\n      swap2\n      pop\n      pop\n      jump\t// out\n        /* \"#utility.yul\":21800:22193   */\n    tag_454:\n        /* \"#utility.yul\":21869:21875   */\n      0x00\n        /* \"#utility.yul\":21919:21920   */\n      0x08\n        /* \"#utility.yul\":21907:21917   */\n      dup4\n        /* \"#utility.yul\":21903:21921   */\n      mul\n        /* \"#utility.yul\":21942:22039   */\n      tag_688\n        /* \"#utility.yul\":21972:22038   */\n      0xffffffffffffffffffffffffffffffffffffffffffffffffffffffffffffffff\n        /* \"#utility.yul\":21961:21970   */\n      dup3\n        /* \"#utility.yul\":21942:22039   */\n      tag_453\n      jump\t// in\n    tag_688:\n        /* \"#utility.yul\":22060:22099   */\n      tag_689\n        /* \"#utility.yul\":22090:22098   */\n      dup7\n        /* \"#utility.yul\":22079:22088   */\n      dup4\n        /* \"#utility.yul\":22060:22099   */\n      tag_453\n      jump\t// in\n    tag_689:\n        /* \"#utility.yul\":22048:22099   */\n      swap6\n      pop\n        /* \"#utility.yul\":22132:22136   */\n      dup1\n        /* \"#utility.yul\":22128:22137   */\n      not\n        /* \"#utility.yul\":22121:22126   */\n      dup5\n        /* \"#utility.yul\":22117:22138   */\n      and\n        /* \"#utility.yul\":22108:22138   */\n      swap4\n      pop\n        /* \"#utility.yul\":22181:22185   */\n      dup1\n        /* \"#utility.yul\":22171:22179   */\n      dup7\n        /* \"#utility.yul\":22167:22186   */\n      and\n        /* \"#utility.yul\":22160:22165   */\n      dup5\n        /* \"#utility.yul\":22157:22187   */\n      or\n        /* \"#utility.yul\":22147:22187   */\n      swap3\n      pop\n        /* \"#utility.yul\":21876:22193   */\n      pop\n      pop\n        /* \"#utility.yul\":21800:22193   */\n      swap4\n      swap3\n      pop\n      pop\n      pop\n      jump\t// out\n        /* \"#utility.yul\":22199:22259   */\n    tag_455:\n        /* \"#utility.yul\":22227:22230   */\n      0x00\n        /* \"#utility.yul\":22248:22253   */\n      dup2\n        /* \"#utility.yul\":22241:22253   */\n      swap1\n      pop\n        /* \"#utility.yul\":22199:22259   */\n      swap2\n      swap1\n      pop\n      jump\t// out\n        /* \"#utility.yul\":22265:22407   */\n    tag_456:\n        /* \"#utility.yul\":22315:22324   */\n      0x00\n        /* \"#utility.yul\":22348:22401   */\n      tag_692\n        /* \"#utility.yul\":22366:22400   */\n      tag_693\n        /* \"#utility.yul\":22375:22399   */\n      tag_694\n        /* \"#utility.yul\":22393:22398   */\n      dup5\n        /* \"#utility.yul\":22375:22399   */\n      tag_448\n      jump\t// in\n    tag_694:\n        /* \"#utility.yul\":22366:22400   */\n      tag_455\n      jump\t// in\n    tag_693:\n        /* \"#utility.yul\":22348:22401   */\n      tag_448\n      jump\t// in\n    tag_692:\n        /* \"#utility.yul\":22335:22401   */\n      swap1\n      pop\n        /* \"#utility.yul\":22265:22407   */\n      swap2\n      swap1\n      pop\n      jump\t// out\n        /* \"#utility.yul\":22413:22488   */\n    tag_457:\n        /* \"#utility.yul\":22456:22459   */\n      0x00\n        /* \"#utility.yul\":22477:22482   */\n      dup2\n        /* \"#utility.yul\":22470:22482   */\n      swap1\n      pop\n        /* \"#utility.yul\":22413:22488   */\n      swap2\n      swap1\n      pop\n      jump\t// out\n        /* \"#utility.yul\":22494:22763   */\n    tag_458:\n        /* \"#utility.yul\":22604:22643   */\n      tag_697\n        /* \"#utility.yul\":22635:22642   */\n      dup4\n        /* \"#utility.yul\":22604:22643   */\n      tag_456\n      jump\t// in\n    tag_697:\n        /* \"#utility.yul\":22665:22756   */\n      tag_698\n        /* \"#utility.yul\":22714:22755   */\n      tag_699\n        /* \"#utility.yul\":22738:22754   */\n      dup3\n        /* \"#utility.yul\":22714:22755   */\n      tag_457\n      jump\t// in\n    tag_699:\n        /* \"#utility.yul\":22706:22712   */\n      dup5\n        /* \"#utility.yul\":22699:22703   */\n      dup5\n        /* \"#utility.yul\":22693:22704   */\n      sload\n        /* \"#utility.yul\":22665:22756   */\n      tag_454\n      jump\t// in\n    tag_698:\n        /* \"#utility.yul\":22659:22663   */\n      dup3\n        /* \"#utility.yul\":22652:22757   */\n      sstore\n        /* \"#utility.yul\":22570:22763   */\n      pop\n        /* \"#utility.yul\":22494:22763   */\n      pop\n      pop\n      pop\n      jump\t// out\n        /* \"#utility.yul\":22769:22842   */\n    tag_459:\n        /* \"#utility.yul\":22814:22817   */\n      0x00\n        /* \"#utility.yul\":22769:22842   */\n      swap1\n      jump\t// out\n        /* \"#utility.yul\":22848:23037   */\n    tag_460:\n        /* \"#utility.yul\":22925:22957   */\n      tag_702\n      tag_459\n      jump\t// in\n    tag_702:\n        /* \"#utility.yul\":22966:23031   */\n      tag_703\n        /* \"#utility.yul\":23024:23030   */\n      dup2\n        /* \"#utility.yul\":23016:23022   */\n      dup5\n        /* \"#utility.yul\":23010:23014   */\n      dup5\n        /* \"#utility.yul\":22966:23031   */\n      tag_458\n      jump\t// in\n    tag_703:\n        /* \"#utility.yul\":22901:23037   */\n      pop\n        /* \"#utility.yul\":22848:23037   */\n      pop\n      pop\n      jump\t// out\n        /* \"#utility.yul\":23043:23229   */\n    tag_461:\n        /* \"#utility.yul\":23103:23223   */\n    tag_705:\n        /* \"#utility.yul\":23120:23123   */\n      dup2\n        /* \"#utility.yul\":23113:23118   */\n      dup2\n        /* \"#utility.yul\":23110:23124   */\n      lt\n        /* \"#utility.yul\":23103:23223   */\n      iszero\n      tag_707\n      jumpi\n        /* \"#utility.yul\":23174:23213   */\n      tag_708\n        /* \"#utility.yul\":23211:23212   */\n      0x00\n        /* \"#utility.yul\":23204:23209   */\n      dup3\n        /* \"#utility.yul\":23174:23213   */\n      tag_460\n      jump\t// in\n    tag_708:\n        /* \"#utility.yul\":23147:23148   */\n      0x01\n        /* \"#utility.yul\":23140:23145   */\n      dup2\n        /* \"#utility.yul\":23136:23149   */\n      add\n        /* \"#utility.yul\":23127:23149   */\n      swap1\n      pop\n        /* \"#utility.yul\":23103:23223   */\n      jump(tag_705)\n    tag_707:\n        /* \"#utility.yul\":23043:23229   */\n      pop\n      pop\n      jump\t// out\n        /* \"#utility.yul\":23235:23778   */\n    tag_462:\n        /* \"#utility.yul\":23336:23338   */\n      0x1f\n        /* \"#utility.yul\":23331:23334   */\n      dup3\n        /* \"#utility.yul\":23328:23339   */\n      gt\n        /* \"#utility.yul\":23325:23771   */\n      iszero\n      tag_710\n      jumpi\n        /* \"#utility.yul\":23370:23408   */\n      tag_711\n        /* \"#utility.yul\":23402:23407   */\n      dup2\n        /* \"#utility.yul\":23370:23408   */\n      tag_451\n      jump\t// in\n    tag_711:\n        /* \"#utility.yul\":23454:23483   */\n      tag_712\n        /* \"#utility.yul\":23472:23482   */\n      dup5\n        /* \"#utility.yul\":23454:23483   */\n      tag_452\n      jump\t// in\n    tag_712:\n        /* \"#utility.yul\":23444:23452   */\n      dup2\n        /* \"#utility.yul\":23440:23484   */\n      add\n        /* \"#utility.yul\":23637:23639   */\n      0x20\n        /* \"#utility.yul\":23625:23635   */\n      dup6\n        /* \"#utility.yul\":23622:23640   */\n      lt\n        /* \"#utility.yul\":23619:23668   */\n      iszero\n      tag_713\n      jumpi\n        /* \"#utility.yul\":23658:23666   */\n      dup2\n        /* \"#utility.yul\":23643:23666   */\n      swap1\n      pop\n        /* \"#utility.yul\":23619:23668   */\n    tag_713:\n        /* \"#utility.yul\":23681:23761   */\n      tag_714\n        /* \"#utility.yul\":23737:23759   */\n      tag_715\n        /* \"#utility.yul\":23755:23758   */\n      dup6\n        /* \"#utility.yul\":23737:23759   */\n      tag_452\n      jump\t// in\n    tag_715:\n        /* \"#utility.yul\":23727:23735   */\n      dup4\n        /* \"#utility.yul\":23723:23760   */\n      add\n        /* \"#utility.yul\":23710:23721   */\n      dup3\n        /* \"#utility.yul\":23681:23761   */\n      tag_461\n      jump\t// in\n    tag_714:\n        /* \"#utility.yul\":23340:23771   */\n      pop\n      pop\n        /* \"#utility.yul\":23325:23771   */\n    tag_710:\n        /* \"#utility.yul\":23235:23778   */\n      pop\n      pop\n      pop\n      jump\t// out\n        /* \"#utility.yul\":23784:23901   */\n    tag_463:\n        /* \"#utility.yul\":23838:23846   */\n      0x00\n        /* \"#utility.yul\":23888:23893   */\n      dup3\n        /* \"#utility.yul\":23882:23886   */\n      dup3\n        /* \"#utility.yul\":23878:23894   */\n      shr\n        /* \"#utility.yul\":23857:23894   */\n      swap1\n      pop\n        /* \"#utility.yul\":23784:23901   */\n      swap3\n      swap2\n      pop\n      pop\n      jump\t// out\n        /* \"#utility.yul\":23907:24076   */\n    tag_464:\n        /* \"#utility.yul\":23951:23957   */\n      0x00\n        /* \"#utility.yul\":23984:24035   */\n      tag_718\n        /* \"#utility.yul\":24032:24033   */\n      0x00\n        /* \"#utility.yul\":24028:24034   */\n      not\n        /* \"#utility.yul\":24020:24025   */\n      dup5\n        /* \"#utility.yul\":24017:24018   */\n      0x08\n        /* \"#utility.yul\":24013:24026   */\n      mul\n        /* \"#utility.yul\":23984:24035   */\n      tag_463\n      jump\t// in\n    tag_718:\n        /* \"#utility.yul\":23980:24036   */\n      not\n        /* \"#utility.yul\":24065:24069   */\n      dup1\n        /* \"#utility.yul\":24059:24063   */\n      dup4\n        /* \"#utility.yul\":24055:24070   */\n      and\n        /* \"#utility.yul\":24045:24070   */\n      swap2\n      pop\n        /* \"#utility.yul\":23958:24076   */\n      pop\n        /* \"#utility.yul\":23907:24076   */\n      swap3\n      swap2\n      pop\n      pop\n      jump\t// out\n        /* \"#utility.yul\":24081:24376   */\n    tag_465:\n        /* \"#utility.yul\":24157:24161   */\n      0x00\n        /* \"#utility.yul\":24303:24332   */\n      tag_720\n        /* \"#utility.yul\":24328:24331   */\n      dup4\n        /* \"#utility.yul\":24322:24326   */\n      dup4\n        /* \"#utility.yul\":24303:24332   */\n      tag_464\n      jump\t// in\n    tag_720:\n        /* \"#utility.yul\":24295:24332   */\n      swap2\n      pop\n        /* \"#utility.yul\":24365:24368   */\n      dup3\n        /* \"#utility.yul\":24362:24363   */\n      0x02\n        /* \"#utility.yul\":24358:24369   */\n      mul\n        /* \"#utility.yul\":24352:24356   */\n      dup3\n        /* \"#utility.yul\":24349:24370   */\n      or\n        /* \"#utility.yul\":24341:24370   */\n      swap1\n      pop\n        /* \"#utility.yul\":24081:24376   */\n      swap3\n      swap2\n      pop\n      pop\n      jump\t// out\n        /* \"#utility.yul\":24381:25776   */\n    tag_166:\n        /* \"#utility.yul\":24498:24535   */\n      tag_722\n        /* \"#utility.yul\":24531:24534   */\n      dup3\n        /* \"#utility.yul\":24498:24535   */\n      tag_412\n      jump\t// in\n    tag_722:\n        /* \"#utility.yul\":24600:24618   */\n      0xffffffffffffffff\n        /* \"#utility.yul\":24592:24598   */\n      dup2\n        /* \"#utility.yul\":24589:24619   */\n      gt\n        /* \"#utility.yul\":24586:24642   */\n      iszero\n      tag_723\n      jumpi\n        /* \"#utility.yul\":24622:24640   */\n      tag_724\n      tag_123\n      jump\t// in\n    tag_724:\n        /* \"#utility.yul\":24586:24642   */\n    tag_723:\n        /* \"#utility.yul\":24666:24704   */\n      tag_725\n        /* \"#utility.yul\":24698:24702   */\n      dup3\n        /* \"#utility.yul\":24692:24703   */\n      sload\n        /* \"#utility.yul\":24666:24704   */\n      tag_141\n      jump\t// in\n    tag_725:\n        /* \"#utility.yul\":24751:24818   */\n      tag_726\n        /* \"#utility.yul\":24811:24817   */\n      dup3\n        /* \"#utility.yul\":24803:24809   */\n      dup3\n        /* \"#utility.yul\":24797:24801   */\n      dup6\n        /* \"#utility.yul\":24751:24818   */\n      tag_462\n      jump\t// in\n    tag_726:\n        /* \"#utility.yul\":24845:24846   */\n      0x00\n        /* \"#utility.yul\":24869:24873   */\n      0x20\n        /* \"#utility.yul\":24856:24873   */\n      swap1\n      pop\n        /* \"#utility.yul\":24901:24903   */\n      0x1f\n        /* \"#utility.yul\":24893:24899   */\n      dup4\n        /* \"#utility.yul\":24890:24904   */\n      gt\n        /* \"#utility.yul\":24918:24919   */\n      0x01\n        /* \"#utility.yul\":24913:25531   */\n      dup2\n      eq\n      tag_728\n      jumpi\n        /* \"#utility.yul\":25575:25576   */\n      0x00\n        /* \"#utility.yul\":25592:25598   */\n      dup5\n        /* \"#utility.yul\":25589:25666   */\n      iszero\n      tag_729\n      jumpi\n        /* \"#utility.yul\":25641:25650   */\n      dup3\n        /* \"#utility.yul\":25636:25639   */\n      dup8\n        /* \"#utility.yul\":25632:25651   */\n      add\n        /* \"#utility.yul\":25626:25652   */\n      mload\n        /* \"#utility.yul\":25617:25652   */\n      swap1\n      pop\n        /* \"#utility.yul\":25589:25666   */\n    tag_729:\n        /* \"#utility.yul\":25692:25759   */\n      tag_730\n        /* \"#utility.yul\":25752:25758   */\n      dup6\n        /* \"#utility.yul\":25745:25750   */\n      dup3\n        /* \"#utility.yul\":25692:25759   */\n      tag_465\n      jump\t// in\n    tag_730:\n        /* \"#utility.yul\":25686:25690   */\n      dup7\n        /* \"#utility.yul\":25679:25760   */\n      sstore\n        /* \"#utility.yul\":25548:25770   */\n      pop\n        /* \"#utility.yul\":24883:25770   */\n      jump(tag_727)\n        /* \"#utility.yul\":24913:25531   */\n    tag_728:\n        /* \"#utility.yul\":24965:24969   */\n      0x1f\n        /* \"#utility.yul\":24961:24970   */\n      not\n        /* \"#utility.yul\":24953:24959   */\n      dup5\n        /* \"#utility.yul\":24949:24971   */\n      and\n        /* \"#utility.yul\":24999:25036   */\n      tag_731\n        /* \"#utility.yul\":25031:25035   */\n      dup7\n        /* \"#utility.yul\":24999:25036   */\n      tag_451\n      jump\t// in\n    tag_731:\n        /* \"#utility.yul\":25058:25059   */\n      0x00\n        /* \"#utility.yul\":25072:25280   */\n    tag_732:\n        /* \"#utility.yul\":25086:25093   */\n      dup3\n        /* \"#utility.yul\":25083:25084   */\n      dup2\n        /* \"#utility.yul\":25080:25094   */\n      lt\n        /* \"#utility.yul\":25072:25280   */\n      iszero\n      tag_734\n      jumpi\n        /* \"#utility.yul\":25165:25174   */\n      dup5\n        /* \"#utility.yul\":25160:25163   */\n      dup10\n        /* \"#utility.yul\":25156:25175   */\n      add\n        /* \"#utility.yul\":25150:25176   */\n      mload\n        /* \"#utility.yul\":25142:25148   */\n      dup3\n        /* \"#utility.yul\":25135:25177   */\n      sstore\n        /* \"#utility.yul\":25216:25217   */\n      0x01\n        /* \"#utility.yul\":25208:25214   */\n      dup3\n        /* \"#utility.yul\":25204:25218   */\n      add\n        /* \"#utility.yul\":25194:25218   */\n      swap2\n      pop\n        /* \"#utility.yul\":25263:25265   */\n      0x20\n        /* \"#utility.yul\":25252:25261   */\n      dup6\n        /* \"#utility.yul\":25248:25266   */\n      add\n        /* \"#utility.yul\":25235:25266   */\n      swap5\n      pop\n        /* \"#utility.yul\":25109:25113   */\n      0x20\n        /* \"#utility.yul\":25106:25107   */\n      dup2\n        /* \"#utility.yul\":25102:25114   */\n      add\n        /* \"#utility.yul\":25097:25114   */\n      swap1\n      pop\n        /* \"#utility.yul\":25072:25280   */\n      jump(tag_732)\n    tag_734:\n        /* \"#utility.yul\":25308:25314   */\n      dup7\n        /* \"#utility.yul\":25299:25306   */\n      dup4\n        /* \"#utility.yul\":25296:25315   */\n      lt\n        /* \"#utility.yul\":25293:25472   */\n      iszero\n      tag_735\n      jumpi\n        /* \"#utility.yul\":25366:25375   */\n      dup5\n        /* \"#utility.yul\":25361:25364   */\n      dup10\n        /* \"#utility.yul\":25357:25376   */\n      add\n        /* \"#utility.yul\":25351:25377   */\n      mload\n        /* \"#utility.yul\":25409:25457   */\n      tag_736\n        /* \"#utility.yul\":25451:25455   */\n      0x1f\n        /* \"#utility.yul\":25443:25449   */\n      dup10\n        /* \"#utility.yul\":25439:25456   */\n      and\n        /* \"#utility.yul\":25428:25437   */\n      dup3\n        /* \"#utility.yul\":25409:25457   */\n      tag_464\n      jump\t// in\n    tag_736:\n        /* \"#utility.yul\":25401:25407   */\n      dup4\n        /* \"#utility.yul\":25394:25458   */\n      sstore\n        /* \"#utility.yul\":25316:25472   */\n      pop\n        /* \"#utility.yul\":25293:25472   */\n    tag_735:\n        /* \"#utility.yul\":25518:25519   */\n      0x01\n        /* \"#utility.yul\":25514:25515   */\n      0x02\n        /* \"#utility.yul\":25506:25512   */\n      dup9\n        /* \"#utility.yul\":25502:25516   */\n      mul\n        /* \"#utility.yul\":25498:25520   */\n      add\n        /* \"#utility.yul\":25492:25496   */\n      dup9\n        /* \"#utility.yul\":25485:25521   */\n      sstore\n        /* \"#utility.yul\":24920:25531   */\n      pop\n      pop\n      pop\n        /* \"#utility.yul\":24883:25770   */\n    tag_727:\n      pop\n        /* \"#utility.yul\":24473:25776   */\n      pop\n      pop\n      pop\n        /* \"#utility.yul\":24381:25776   */\n      pop\n      pop\n      jump\t// out\n        /* \"#utility.yul\":25782:25962   */\n    tag_199:\n        /* \"#utility.yul\":25830:25907   */\n      0x4e487b7100000000000000000000000000000000000000000000000000000000\n        /* \"#utility.yul\":25827:25828   */\n      0x00\n        /* \"#utility.yul\":25820:25908   */\n      mstore\n        /* \"#utility.yul\":25927:25931   */\n      0x21\n        /* \"#utility.yul\":25924:25925   */\n      0x04\n        /* \"#utility.yul\":25917:25932   */\n      mstore\n        /* \"#utility.yul\":25951:25955   */\n      0x24\n        /* \"#utility.yul\":25948:25949   */\n      0x00\n        /* \"#utility.yul\":25941:25956   */\n      revert\n        /* \"#utility.yul\":25968:26116   */\n    tag_466:\n        /* \"#utility.yul\":26070:26081   */\n      0x00\n        /* \"#utility.yul\":26107:26110   */\n      dup2\n        /* \"#utility.yul\":26092:26110   */\n      swap1\n      pop\n        /* \"#utility.yul\":25968:26116   */\n      swap3\n      swap2\n      pop\n      pop\n      jump\t// out\n        /* \"#utility.yul\":26122:26512   */\n    tag_467:\n        /* \"#utility.yul\":26228:26231   */\n      0x00\n        /* \"#utility.yul\":26256:26295   */\n      tag_740\n        /* \"#utility.yul\":26289:26294   */\n      dup3\n        /* \"#utility.yul\":26256:26295   */\n      tag_412\n      jump\t// in\n    tag_740:\n        /* \"#utility.yul\":26311:26400   */\n      tag_741\n        /* \"#utility.yul\":26393:26399   */\n      dup2\n        /* \"#utility.yul\":26388:26391   */\n      dup6\n        /* \"#utility.yul\":26311:26400   */\n      tag_466\n      jump\t// in\n    tag_741:\n        /* \"#utility.yul\":26304:26400   */\n      swap4\n      pop\n        /* \"#utility.yul\":26409:26474   */\n      tag_742\n        /* \"#utility.yul\":26467:26473   */\n      dup2\n        /* \"#utility.yul\":26462:26465   */\n      dup6\n        /* \"#utility.yul\":26455:26459   */\n      0x20\n        /* \"#utility.yul\":26448:26453   */\n      dup7\n        /* \"#utility.yul\":26444:26460   */\n      add\n        /* \"#utility.yul\":26409:26474   */\n      tag_414\n      jump\t// in\n    tag_742:\n        /* \"#utility.yul\":26499:26505   */\n      dup1\n        /* \"#utility.yul\":26494:26497   */\n      dup5\n        /* \"#utility.yul\":26490:26506   */\n      add\n        /* \"#utility.yul\":26483:26506   */\n      swap2\n      pop\n        /* \"#utility.yul\":26232:26512   */\n      pop\n        /* \"#utility.yul\":26122:26512   */\n      swap3\n      swap2\n      pop\n      pop\n      jump\t// out\n        /* \"#utility.yul\":26518:26793   */\n    tag_214:\n        /* \"#utility.yul\":26650:26653   */\n      0x00\n        /* \"#utility.yul\":26672:26767   */\n      tag_744\n        /* \"#utility.yul\":26763:26766   */\n      dup3\n        /* \"#utility.yul\":26754:26760   */\n      dup5\n        /* \"#utility.yul\":26672:26767   */\n      tag_467\n      jump\t// in\n    tag_744:\n        /* \"#utility.yul\":26665:26767   */\n      swap2\n      pop\n        /* \"#utility.yul\":26784:26787   */\n      dup2\n        /* \"#utility.yul\":26777:26787   */\n      swap1\n      pop\n        /* \"#utility.yul\":26518:26793   */\n      swap3\n      swap2\n      pop\n      pop\n      jump\t// out\n        /* \"#utility.yul\":26799:26915   */\n    tag_468:\n        /* \"#utility.yul\":26883:26884   */\n      0x04\n        /* \"#utility.yul\":26876:26881   */\n      dup2\n        /* \"#utility.yul\":26873:26885   */\n      lt\n        /* \"#utility.yul\":26863:26909   */\n      tag_746\n      jumpi\n        /* \"#utility.yul\":26889:26907   */\n      tag_747\n      tag_199\n      jump\t// in\n    tag_747:\n        /* \"#utility.yul\":26863:26909   */\n    tag_746:\n        /* \"#utility.yul\":26799:26915   */\n      pop\n      jump\t// out\n        /* \"#utility.yul\":26921:27054   */\n    tag_469:\n        /* \"#utility.yul\":26969:26976   */\n      0x00\n        /* \"#utility.yul\":26998:27003   */\n      dup2\n        /* \"#utility.yul\":26987:27003   */\n      swap1\n      pop\n        /* \"#utility.yul\":27004:27048   */\n      tag_749\n        /* \"#utility.yul\":27042:27047   */\n      dup3\n        /* \"#utility.yul\":27004:27048   */\n      tag_468\n      jump\t// in\n    tag_749:\n        /* \"#utility.yul\":26921:27054   */\n      swap2\n      swap1\n      pop\n      jump\t// out\n        /* \"#utility.yul\":27060:27193   */\n    tag_470:\n        /* \"#utility.yul\":27119:27128   */\n      0x00\n        /* \"#utility.yul\":27152:27187   */\n      tag_751\n        /* \"#utility.yul\":27181:27186   */\n      dup3\n        /* \"#utility.yul\":27152:27187   */\n      tag_469\n      jump\t// in\n    tag_751:\n        /* \"#utility.yul\":27139:27187   */\n      swap1\n      pop\n        /* \"#utility.yul\":27060:27193   */\n      swap2\n      swap1\n      pop\n      jump\t// out\n        /* \"#utility.yul\":27199:27348   */\n    tag_471:\n        /* \"#utility.yul\":27295:27341   */\n      tag_753\n        /* \"#utility.yul\":27335:27340   */\n      dup2\n        /* \"#utility.yul\":27295:27341   */\n      tag_470\n      jump\t// in\n    tag_753:\n        /* \"#utility.yul\":27290:27293   */\n      dup3\n        /* \"#utility.yul\":27283:27342   */\n      mstore\n        /* \"#utility.yul\":27199:27348   */\n      pop\n      pop\n      jump\t// out\n        /* \"#utility.yul\":27354:27795   */\n    tag_225:\n        /* \"#utility.yul\":27504:27508   */\n      0x00\n        /* \"#utility.yul\":27542:27544   */\n      0x40\n        /* \"#utility.yul\":27531:27540   */\n      dup3\n        /* \"#utility.yul\":27527:27545   */\n      add\n        /* \"#utility.yul\":27519:27545   */\n      swap1\n      pop\n        /* \"#utility.yul\":27591:27600   */\n      dup2\n        /* \"#utility.yul\":27585:27589   */\n      dup2\n        /* \"#utility.yul\":27581:27601   */\n      sub\n        /* \"#utility.yul\":27577:27578   */\n      0x00\n        /* \"#utility.yul\":27566:27575   */\n      dup4\n        /* \"#utility.yul\":27562:27579   */\n      add\n        /* \"#utility.yul\":27555:27602   */\n      mstore\n        /* \"#utility.yul\":27619:27697   */\n      tag_755\n        /* \"#utility.yul\":27692:27696   */\n      dup2\n        /* \"#utility.yul\":27683:27689   */\n      dup6\n        /* \"#utility.yul\":27619:27697   */\n      tag_443\n      jump\t// in\n    tag_755:\n        /* \"#utility.yul\":27611:27697   */\n      swap1\n      pop\n        /* \"#utility.yul\":27707:27788   */\n      tag_756\n        /* \"#utility.yul\":27784:27786   */\n      0x20\n        /* \"#utility.yul\":27773:27782   */\n      dup4\n        /* \"#utility.yul\":27769:27787   */\n      add\n        /* \"#utility.yul\":27760:27766   */\n      dup5\n        /* \"#utility.yul\":27707:27788   */\n      tag_471\n      jump\t// in\n    tag_756:\n        /* \"#utility.yul\":27354:27795   */\n      swap4\n      swap3\n      pop\n      pop\n      pop\n      jump\t// out\n        /* \"#utility.yul\":27801:27981   */\n    tag_472:\n        /* \"#utility.yul\":27849:27926   */\n      0x4e487b7100000000000000000000000000000000000000000000000000000000\n        /* \"#utility.yul\":27846:27847   */\n      0x00\n        /* \"#utility.yul\":27839:27927   */\n      mstore\n        /* \"#utility.yul\":27946:27950   */\n      0x11\n        /* \"#utility.yul\":27943:27944   */\n      0x04\n        /* \"#utility.yul\":27936:27951   */\n      mstore\n        /* \"#utility.yul\":27970:27974   */\n      0x24\n        /* \"#utility.yul\":27967:27968   */\n      0x00\n        /* \"#utility.yul\":27960:27975   */\n      revert\n        /* \"#utility.yul\":27987:28220   */\n    tag_228:\n        /* \"#utility.yul\":28026:28029   */\n      0x00\n        /* \"#utility.yul\":28049:28073   */\n      tag_759\n        /* \"#utility.yul\":28067:28072   */\n      dup3\n        /* \"#utility.yul\":28049:28073   */\n      tag_448\n      jump\t// in\n    tag_759:\n        /* \"#utility.yul\":28040:28073   */\n      swap2\n      pop\n        /* \"#utility.yul\":28095:28161   */\n      0xffffffffffffffffffffffffffffffffffffffffffffffffffffffffffffffff\n        /* \"#utility.yul\":28088:28093   */\n      dup3\n        /* \"#utility.yul\":28085:28162   */\n      sub\n        /* \"#utility.yul\":28082:28185   */\n      tag_760\n      jumpi\n        /* \"#utility.yul\":28165:28183   */\n      tag_761\n      tag_472\n      jump\t// in\n    tag_761:\n        /* \"#utility.yul\":28082:28185   */\n    tag_760:\n        /* \"#utility.yul\":28212:28213   */\n      0x01\n        /* \"#utility.yul\":28205:28210   */\n      dup3\n        /* \"#utility.yul\":28201:28214   */\n      add\n        /* \"#utility.yul\":28194:28214   */\n      swap1\n      pop\n        /* \"#utility.yul\":27987:28220   */\n      swap2\n      swap1\n      pop\n      jump\t// out\n        /* \"#utility.yul\":28226:28394   */\n    tag_473:\n        /* \"#utility.yul\":28366:28386   */\n      0x446f63756d656e74206e6f7420666f756e640000000000000000000000000000\n        /* \"#utility.yul\":28362:28363   */\n      0x00\n        /* \"#utility.yul\":28354:28360   */\n      dup3\n        /* \"#utility.yul\":28350:28364   */\n      add\n        /* \"#utility.yul\":28343:28387   */\n      mstore\n        /* \"#utility.yul\":28226:28394   */\n      pop\n      jump\t// out\n        /* \"#utility.yul\":28400:28766   */\n    tag_474:\n        /* \"#utility.yul\":28542:28545   */\n      0x00\n        /* \"#utility.yul\":28563:28630   */\n      tag_764\n        /* \"#utility.yul\":28627:28629   */\n      0x12\n        /* \"#utility.yul\":28622:28625   */\n      dup4\n        /* \"#utility.yul\":28563:28630   */\n      tag_442\n      jump\t// in\n    tag_764:\n        /* \"#utility.yul\":28556:28630   */\n      swap2\n      pop\n        /* \"#utility.yul\":28639:28732   */\n      tag_765\n        /* \"#utility.yul\":28728:28731   */\n      dup3\n        /* \"#utility.yul\":28639:28732   */\n      tag_473\n      jump\t// in\n    tag_765:\n        /* \"#utility.yul\":28757:28759   */\n      0x20\n        /* \"#utility.yul\":28752:28755   */\n      dup3\n        /* \"#utility.yul\":28748:28760   */\n      add\n        /* \"#utility.yul\":28741:28760   */\n      swap1\n      pop\n        /* \"#utility.yul\":28400:28766   */\n      swap2\n      swap1\n      pop\n      jump\t// out\n        /* \"#utility.yul\":28772:29191   */\n    tag_313:\n        /* \"#utility.yul\":28938:28942   */\n      0x00\n        /* \"#utility.yul\":28976:28978   */\n      0x20\n        /* \"#utility.yul\":28965:28974   */\n      dup3\n        /* \"#utility.yul\":28961:28979   */\n      add\n        /* \"#utility.yul\":28953:28979   */\n      swap1\n      pop\n        /* \"#utility.yul\":29025:29034   */\n      dup2\n        /* \"#utility.yul\":29019:29023   */\n      dup2\n        /* \"#utility.yul\":29015:29035   */\n      sub\n        /* \"#utility.yul\":29011:29012   */\n      0x00\n        /* \"#utility.yul\":29000:29009   */\n      dup4\n        /* \"#utility.yul\":28996:29013   */\n      add\n        /* \"#utility.yul\":28989:29036   */\n      mstore\n        /* \"#utility.yul\":29053:29184   */\n      tag_767\n        /* \"#utility.yul\":29179:29183   */\n      dup2\n        /* \"#utility.yul\":29053:29184   */\n      tag_474\n      jump\t// in\n    tag_767:\n        /* \"#utility.yul\":29045:29184   */\n      swap1\n      pop\n        /* \"#utility.yul\":28772:29191   */\n      swap2\n      swap1\n      pop\n      jump\t// out\n\n    auxdata: 0xa2646970667358221220259808cc809555f5390b4a21d62b1ba51e22c42476e236a9f1f74488dea6e31864736f6c63430008190033\n}\n",
				"bytecode": {
					"linkReferences": {},
					"object": "608060405260008055348015601357600080fd5b506138ef806100236000396000f3fe608060405234801561001057600080fd5b50600436106101365760003560e01c80638f578bf7116100b8578063d9cb28001161007c578063d9cb280014610398578063ddcab3ff146103b6578063e3d6f700146103d6578063e6ccc2be14610406578063f78bedf614610437578063faa380f21461046757610136565b80638f578bf7146102b1578063b744b46d146102e1578063c5caea0114610318578063c5ef9f7f14610348578063cafdef5a1461036857610136565b8063309a91d5116100ff578063309a91d51461020d5780633510349914610229578063419900771461024757806371f87d0214610265578063857cdbb81461028157610136565b8062d0810a1461013b5780631614b37a1461016d5780631796fd911461019d5780631870705a146101bd5780632dad6b65146101db575b600080fd5b61015560048036038101906101509190612a0f565b610497565b60405161016493929190612c56565b60405180910390f35b61018760048036038101906101829190612e03565b610955565b6040516101949190612ebd565b60405180910390f35b6101a5610a82565b6040516101b493929190612f40565b60405180910390f35b6101c5610c09565b6040516101d29190612ebd565b60405180910390f35b6101f560048036038101906101f09190612a0f565b610cb1565b60405161020493929190612f7e565b60405180910390f35b61022760048036038101906102229190612fca565b610f36565b005b610231610f95565b60405161023e919061300a565b60405180910390f35b61024f610fdf565b60405161025c9190613041565b60405180910390f35b61027f600480360381019061027a9190613088565b611048565b005b61029b60048036038101906102969190612a0f565b6110b3565b6040516102a891906130db565b60405180910390f35b6102cb60048036038101906102c691906130fd565b611187565b6040516102d89190612ebd565b60405180910390f35b6102fb60048036038101906102f6919061322b565b6114c8565b60405161030f989796959493929190613258565b60405180910390f35b610332600480360381019061032d9190613300565b611e63565b60405161033f9190613349565b60405180910390f35b610350611eab565b60405161035f93929190612c56565b60405180910390f35b610382600480360381019061037d9190612fca565b611ec4565b60405161038f91906130db565b60405180910390f35b6103a06120be565b6040516103ad919061337d565b60405180910390f35b6103be612108565b6040516103cd93929190612f7e565b60405180910390f35b6103f060048036038101906103eb9190613300565b61238b565b6040516103fd9190612ebd565b60405180910390f35b610420600480360381019061041b919061322b565b6124c0565b60405161042e929190613398565b60405180910390f35b610451600480360381019061044c9190612fca565b6127ad565b60405161045e919061337d565b60405180910390f35b610481600480360381019061047c919061322b565b6128c0565b60405161048e9190612ebd565b60405180910390f35b60608060606000600360008673ffffffffffffffffffffffffffffffffffffffff1673ffffffffffffffffffffffffffffffffffffffff1681526020019081526020016000208054905067ffffffffffffffff8111156104fa576104f9612cac565b5b60405190808252806020026020018201604052801561052d57816020015b60608152602001906001900390816105185790505b5090506000600360008773ffffffffffffffffffffffffffffffffffffffff1673ffffffffffffffffffffffffffffffffffffffff1681526020019081526020016000208054905067ffffffffffffffff81111561058e5761058d612cac565b5b6040519080825280602002602001820160405280156105c157816020015b60608152602001906001900390816105ac5790505b5090506000600360008873ffffffffffffffffffffffffffffffffffffffff1673ffffffffffffffffffffffffffffffffffffffff1681526020019081526020016000208054905067ffffffffffffffff81111561062257610621612cac565b5b6040519080825280602002602001820160405280156106505781602001602082028036833780820191505090505b50905060005b600360008973ffffffffffffffffffffffffffffffffffffffff1673ffffffffffffffffffffffffffffffffffffffff1681526020019081526020016000208054905081101561094157600360008973ffffffffffffffffffffffffffffffffffffffff1673ffffffffffffffffffffffffffffffffffffffff16815260200190815260200160002081815481106106f1576106f06133cf565b5b9060005260206000209060040201600201805461070d9061342d565b80601f01602080910402602001604051908101604052809291908181526020018280546107399061342d565b80156107865780601f1061075b57610100808354040283529160200191610786565b820191906000526020600020905b81548152906001019060200180831161076957829003601f168201915b505050505083828151811061079e5761079d6133cf565b5b6020026020010181905250600360008973ffffffffffffffffffffffffffffffffffffffff1673ffffffffffffffffffffffffffffffffffffffff16815260200190815260200160002081815481106107fa576107f96133cf565b5b906000526020600020906004020160010180546108169061342d565b80601f01602080910402602001604051908101604052809291908181526020018280546108429061342d565b801561088f5780601f106108645761010080835404028352916020019161088f565b820191906000526020600020905b81548152906001019060200180831161087257829003601f168201915b50505050508482815181106108a7576108a66133cf565b5b6020026020010181905250600360008973ffffffffffffffffffffffffffffffffffffffff1673ffffffffffffffffffffffffffffffffffffffff1681526020019081526020016000208181548110610903576109026133cf565b5b906000526020600020906004020160000154828281518110610928576109276133cf565b5b6020026020010181815250508080600101915050610656565b508282829550955095505050509193909250565b6000806040518060800160405280868152602001878152602001848152602001858152509050600360003373ffffffffffffffffffffffffffffffffffffffff1673ffffffffffffffffffffffffffffffffffffffff168152602001908152602001600020819080600181540180825580915050600190039060005260206000209060040201600090919091909150600082015181600001556020820151816001019081610a03919061360a565b506040820151816002019081610a19919061360a565b506060820151816003015550503373ffffffffffffffffffffffffffffffffffffffff16857f55855a3d3674c1acb8c196da3dfa5649298733532349de3028e120d990afbc0b86604051610a6d919061300a565b60405180910390a36001915050949350505050565b6000806060600260003373ffffffffffffffffffffffffffffffffffffffff1673ffffffffffffffffffffffffffffffffffffffff16815260200190815260200160002060060154600260003373ffffffffffffffffffffffffffffffffffffffff1673ffffffffffffffffffffffffffffffffffffffff16815260200190815260200160002060050160009054906101000a900473ffffffffffffffffffffffffffffffffffffffff16600260003373ffffffffffffffffffffffffffffffffffffffff1673ffffffffffffffffffffffffffffffffffffffff168152602001908152602001600020600101600001808054610b7e9061342d565b80601f0160208091040260200160405190810160405280929190818152602001828054610baa9061342d565b8015610bf75780601f10610bcc57610100808354040283529160200191610bf7565b820191906000526020600020905b815481529060010190602001808311610bda57829003601f168201915b50505050509050925092509250909192565b60008073ffffffffffffffffffffffffffffffffffffffff16600260003373ffffffffffffffffffffffffffffffffffffffff1673ffffffffffffffffffffffffffffffffffffffff16815260200190815260200160002060050160009054906101000a900473ffffffffffffffffffffffffffffffffffffffff1673ffffffffffffffffffffffffffffffffffffffff1603610ca95760009050610cae565b600190505b90565b6060806060600260008573ffffffffffffffffffffffffffffffffffffffff1673ffffffffffffffffffffffffffffffffffffffff168152602001908152602001600020600101600201600260008673ffffffffffffffffffffffffffffffffffffffff1673ffffffffffffffffffffffffffffffffffffffff168152602001908152602001600020600101600001600260008773ffffffffffffffffffffffffffffffffffffffff1673ffffffffffffffffffffffffffffffffffffffff168152602001908152602001600020600101600101828054610d919061342d565b80601f0160208091040260200160405190810160405280929190818152602001828054610dbd9061342d565b8015610e0a5780601f10610ddf57610100808354040283529160200191610e0a565b820191906000526020600020905b815481529060010190602001808311610ded57829003601f168201915b50505050509250818054610e1d9061342d565b80601f0160208091040260200160405190810160405280929190818152602001828054610e499061342d565b8015610e965780601f10610e6b57610100808354040283529160200191610e96565b820191906000526020600020905b815481529060010190602001808311610e7957829003601f168201915b50505050509150808054610ea99061342d565b80601f0160208091040260200160405190810160405280929190818152602001828054610ed59061342d565b8015610f225780601f10610ef757610100808354040283529160200191610f22565b820191906000526020600020905b815481529060010190602001808311610f0557829003601f168201915b505050505090509250925092509193909250565b3373ffffffffffffffffffffffffffffffffffffffff168173ffffffffffffffffffffffffffffffffffffffff16837fefa9780427d41555988632182f6bb7afd5abc6dd414ee4e7385006b84724465660405160405180910390a45050565b6000600260003373ffffffffffffffffffffffffffffffffffffffff1673ffffffffffffffffffffffffffffffffffffffff16815260200190815260200160002060060154905090565b6000600260003373ffffffffffffffffffffffffffffffffffffffff1673ffffffffffffffffffffffffffffffffffffffff16815260200190815260200160002060000160009054906101000a900460ff166003811115611043576110426136dc565b5b905090565b8073ffffffffffffffffffffffffffffffffffffffff163373ffffffffffffffffffffffffffffffffffffffff16847f8a37e769a30d7c802c6c7e129e45ffa69a48ca0ee91129702aca0653b92cbb7c856040516110a69190613041565b60405180910390a4505050565b6060600260008373ffffffffffffffffffffffffffffffffffffffff1673ffffffffffffffffffffffffffffffffffffffff16815260200190815260200160002060070180546111029061342d565b80601f016020809104026020016040519081016040528092919081815260200182805461112e9061342d565b801561117b5780601f106111505761010080835404028352916020019161117b565b820191906000526020600020905b81548152906001019060200180831161115e57829003601f168201915b50505050509050919050565b60008060405180608001604052808a815260200189815260200188815260200186815250905060006040518060c001604052808860ff1660038111156111d0576111cf6136dc565b5b60038111156111e2576111e16136dc565b5b81526020016001151581526020018381526020013373ffffffffffffffffffffffffffffffffffffffff1681526020018681526020018581525090503360048960405161122f9190613747565b908152602001604051809103902060006101000a81548173ffffffffffffffffffffffffffffffffffffffff021916908373ffffffffffffffffffffffffffffffffffffffff16021790555080600260003373ffffffffffffffffffffffffffffffffffffffff1673ffffffffffffffffffffffffffffffffffffffff16815260200190815260200160002060008201518160000160006101000a81548160ff021916908360038111156112e6576112e56136dc565b5b021790555060208201518160000160016101000a81548160ff0219169083151502179055506040820151816001016000820151816000019081611329919061360a565b50602082015181600101908161133f919061360a565b506040820151816002019081611355919061360a565b50606082015181600301908161136b919061360a565b50505060608201518160050160006101000a81548173ffffffffffffffffffffffffffffffffffffffff021916908373ffffffffffffffffffffffffffffffffffffffff1602179055506080820151816006015560a08201518160070190816113d4919061360a565b509050503373ffffffffffffffffffffffffffffffffffffffff167ffdad81b5969e49863813d58b8e0c260ab1c544829173977d205d8440d844bde5898960ff166003811115611427576114266136dc565b5b6040516114359291906137a6565b60405180910390a26001339080600181540180825580915050600190039060005260206000200160009091909190916101000a81548173ffffffffffffffffffffffffffffffffffffffff021916908373ffffffffffffffffffffffffffffffffffffffff1602179055506000808154809291906114b290613805565b9190505550600192505050979650505050505050565b6000606080600060608060608060005b600054811015611e1c5760005b60036000600184815481106114fd576114fc6133cf565b5b9060005260206000200160009054906101000a900473ffffffffffffffffffffffffffffffffffffffff1673ffffffffffffffffffffffffffffffffffffffff1673ffffffffffffffffffffffffffffffffffffffff16815260200190815260200160002080549050811015611e0e578a6003600060018581548110611586576115856133cf565b5b9060005260206000200160009054906101000a900473ffffffffffffffffffffffffffffffffffffffff1673ffffffffffffffffffffffffffffffffffffffff1673ffffffffffffffffffffffffffffffffffffffff16815260200190815260200160002082815481106115fd576115fc6133cf565b5b90600052602060002090600402016000015403611e0157600360006001848154811061162c5761162b6133cf565b5b9060005260206000200160009054906101000a900473ffffffffffffffffffffffffffffffffffffffff1673ffffffffffffffffffffffffffffffffffffffff1673ffffffffffffffffffffffffffffffffffffffff16815260200190815260200160002081815481106116a3576116a26133cf565b5b90600052602060002090600402016000015460036000600185815481106116cd576116cc6133cf565b5b9060005260206000200160009054906101000a900473ffffffffffffffffffffffffffffffffffffffff1673ffffffffffffffffffffffffffffffffffffffff1673ffffffffffffffffffffffffffffffffffffffff1681526020019081526020016000208281548110611744576117436133cf565b5b9060005260206000209060040201600101600360006001868154811061176d5761176c6133cf565b5b9060005260206000200160009054906101000a900473ffffffffffffffffffffffffffffffffffffffff1673ffffffffffffffffffffffffffffffffffffffff1673ffffffffffffffffffffffffffffffffffffffff16815260200190815260200160002083815481106117e4576117e36133cf565b5b9060005260206000209060040201600201600360006001878154811061180d5761180c6133cf565b5b9060005260206000200160009054906101000a900473ffffffffffffffffffffffffffffffffffffffff1673ffffffffffffffffffffffffffffffffffffffff1673ffffffffffffffffffffffffffffffffffffffff1681526020019081526020016000208481548110611884576118836133cf565b5b90600052602060002090600402016003015460026000600188815481106118ae576118ad6133cf565b5b9060005260206000200160009054906101000a900473ffffffffffffffffffffffffffffffffffffffff1673ffffffffffffffffffffffffffffffffffffffff1673ffffffffffffffffffffffffffffffffffffffff1681526020019081526020016000206001016000016002600060018981548110611931576119306133cf565b5b9060005260206000200160009054906101000a900473ffffffffffffffffffffffffffffffffffffffff1673ffffffffffffffffffffffffffffffffffffffff1673ffffffffffffffffffffffffffffffffffffffff1681526020019081526020016000206001016002016002600060018a815481106119b4576119b36133cf565b5b9060005260206000200160009054906101000a900473ffffffffffffffffffffffffffffffffffffffff1673ffffffffffffffffffffffffffffffffffffffff1673ffffffffffffffffffffffffffffffffffffffff1681526020019081526020016000206001016001016002600060018b81548110611a3757611a366133cf565b5b9060005260206000200160009054906101000a900473ffffffffffffffffffffffffffffffffffffffff1673ffffffffffffffffffffffffffffffffffffffff1673ffffffffffffffffffffffffffffffffffffffff168152602001908152602001600020600101600301868054611aae9061342d565b80601f0160208091040260200160405190810160405280929190818152602001828054611ada9061342d565b8015611b275780601f10611afc57610100808354040283529160200191611b27565b820191906000526020600020905b815481529060010190602001808311611b0a57829003601f168201915b50505050509650858054611b3a9061342d565b80601f0160208091040260200160405190810160405280929190818152602001828054611b669061342d565b8015611bb35780601f10611b8857610100808354040283529160200191611bb3565b820191906000526020600020905b815481529060010190602001808311611b9657829003601f168201915b50505050509550838054611bc69061342d565b80601f0160208091040260200160405190810160405280929190818152602001828054611bf29061342d565b8015611c3f5780601f10611c1457610100808354040283529160200191611c3f565b820191906000526020600020905b815481529060010190602001808311611c2257829003601f168201915b50505050509350828054611c529061342d565b80601f0160208091040260200160405190810160405280929190818152602001828054611c7e9061342d565b8015611ccb5780601f10611ca057610100808354040283529160200191611ccb565b820191906000526020600020905b815481529060010190602001808311611cae57829003601f168201915b50505050509250818054611cde9061342d565b80601f0160208091040260200160405190810160405280929190818152602001828054611d0a9061342d565b8015611d575780601f10611d2c57610100808354040283529160200191611d57565b820191906000526020600020905b815481529060010190602001808311611d3a57829003601f168201915b50505050509150808054611d6a9061342d565b80601f0160208091040260200160405190810160405280929190818152602001828054611d969061342d565b8015611de35780601f10611db857610100808354040283529160200191611de3565b820191906000526020600020905b815481529060010190602001808311611dc657829003601f168201915b50505050509050995099509950995099509950995099505050611e58565b80806001019150506114e5565b5080806001019150506114d8565b506040517f08c379a0000000000000000000000000000000000000000000000000000000008152600401611e4f90613899565b60405180910390fd5b919395975091939597565b6000600482604051611e759190613747565b908152602001604051809103902060009054906101000a900473ffffffffffffffffffffffffffffffffffffffff169050919050565b6060806060611eb933610497565b925092509250909192565b606060005b600360008473ffffffffffffffffffffffffffffffffffffffff1673ffffffffffffffffffffffffffffffffffffffff1681526020019081526020016000208054905081101561207c5783600360008573ffffffffffffffffffffffffffffffffffffffff1673ffffffffffffffffffffffffffffffffffffffff1681526020019081526020016000208281548110611f6557611f646133cf565b5b9060005260206000209060040201600001540361206f57600360008473ffffffffffffffffffffffffffffffffffffffff1673ffffffffffffffffffffffffffffffffffffffff1681526020019081526020016000208181548110611fcd57611fcc6133cf565b5b90600052602060002090600402016001018054611fe99061342d565b80601f01602080910402602001604051908101604052809291908181526020018280546120159061342d565b80156120625780601f1061203757610100808354040283529160200191612062565b820191906000526020600020905b81548152906001019060200180831161204557829003601f168201915b50505050509150506120b8565b8080600101915050611ec9565b506040517f08c379a00000000000000000000000000000000000000000000000000000000081526004016120af90613899565b60405180910390fd5b92915050565b6000600360003373ffffffffffffffffffffffffffffffffffffffff1673ffffffffffffffffffffffffffffffffffffffff16815260200190815260200160002080549050905090565b6060806060600260003373ffffffffffffffffffffffffffffffffffffffff1673ffffffffffffffffffffffffffffffffffffffff168152602001908152602001600020600101600201600260003373ffffffffffffffffffffffffffffffffffffffff1673ffffffffffffffffffffffffffffffffffffffff168152602001908152602001600020600101600001600260003373ffffffffffffffffffffffffffffffffffffffff1673ffffffffffffffffffffffffffffffffffffffff1681526020019081526020016000206001016001018280546121e89061342d565b80601f01602080910402602001604051908101604052809291908181526020018280546122149061342d565b80156122615780601f1061223657610100808354040283529160200191612261565b820191906000526020600020905b81548152906001019060200180831161224457829003601f168201915b505050505092508180546122749061342d565b80601f01602080910402602001604051908101604052809291908181526020018280546122a09061342d565b80156122ed5780601f106122c2576101008083540402835291602001916122ed565b820191906000526020600020905b8154815290600101906020018083116122d057829003601f168201915b505050505091508080546123009061342d565b80601f016020809104026020016040519081016040528092919081815260200182805461232c9061342d565b80156123795780601f1061234e57610100808354040283529160200191612379565b820191906000526020600020905b81548152906001019060200180831161235c57829003601f168201915b50505050509050925092509250909192565b60008073ffffffffffffffffffffffffffffffffffffffff166004836040516123b49190613747565b908152602001604051809103902060009054906101000a900473ffffffffffffffffffffffffffffffffffffffff1673ffffffffffffffffffffffffffffffffffffffff16141580156124a8575060028060006004856040516124179190613747565b908152602001604051809103902060009054906101000a900473ffffffffffffffffffffffffffffffffffffffff1673ffffffffffffffffffffffffffffffffffffffff1673ffffffffffffffffffffffffffffffffffffffff16815260200190815260200160002060000160009054906101000a900460ff1660038111156124a3576124a26136dc565b5b60ff16145b156124b657600190506124bb565b600090505b919050565b60608060005b600360003373ffffffffffffffffffffffffffffffffffffffff1673ffffffffffffffffffffffffffffffffffffffff1681526020019081526020016000208054905081101561276c5783600360003373ffffffffffffffffffffffffffffffffffffffff1673ffffffffffffffffffffffffffffffffffffffff1681526020019081526020016000208281548110612562576125616133cf565b5b9060005260206000209060040201600001540361275f57600360003373ffffffffffffffffffffffffffffffffffffffff1673ffffffffffffffffffffffffffffffffffffffff16815260200190815260200160002081815481106125ca576125c96133cf565b5b9060005260206000209060040201600101600360003373ffffffffffffffffffffffffffffffffffffffff1673ffffffffffffffffffffffffffffffffffffffff168152602001908152602001600020828154811061262c5761262b6133cf565b5b90600052602060002090600402016002018180546126499061342d565b80601f01602080910402602001604051908101604052809291908181526020018280546126759061342d565b80156126c25780601f10612697576101008083540402835291602001916126c2565b820191906000526020600020905b8154815290600101906020018083116126a557829003601f168201915b505050505091508080546126d59061342d565b80601f01602080910402602001604051908101604052809291908181526020018280546127019061342d565b801561274e5780601f106127235761010080835404028352916020019161274e565b820191906000526020600020905b81548152906001019060200180831161273157829003601f168201915b5050505050905092509250506127a8565b80806001019150506124c6565b506040517f08c379a000000000000000000000000000000000000000000000000000000000815260040161279f90613899565b60405180910390fd5b915091565b600080600090505b600360008473ffffffffffffffffffffffffffffffffffffffff1673ffffffffffffffffffffffffffffffffffffffff1681526020019081526020016000208054905081101561287e5783600360008573ffffffffffffffffffffffffffffffffffffffff1673ffffffffffffffffffffffffffffffffffffffff1681526020019081526020016000208281548110612851576128506133cf565b5b9060005260206000209060040201600001540361287157809150506128ba565b80806001019150506127b5565b506040517f08c379a00000000000000000000000000000000000000000000000000000000081526004016128b190613899565b60405180910390fd5b92915050565b600080600090505b600360003373ffffffffffffffffffffffffffffffffffffffff1673ffffffffffffffffffffffffffffffffffffffff168152602001908152602001600020805490508110156129925782600360003373ffffffffffffffffffffffffffffffffffffffff1673ffffffffffffffffffffffffffffffffffffffff1681526020019081526020016000208281548110612964576129636133cf565b5b90600052602060002090600402016000015403612985576001915050612998565b80806001019150506128c8565b50600090505b919050565b6000604051905090565b600080fd5b600080fd5b600073ffffffffffffffffffffffffffffffffffffffff82169050919050565b60006129dc826129b1565b9050919050565b6129ec816129d1565b81146129f757600080fd5b50565b600081359050612a09816129e3565b92915050565b600060208284031215612a2557612a246129a7565b5b6000612a33848285016129fa565b91505092915050565b600081519050919050565b600082825260208201905092915050565b6000819050602082019050919050565b600081519050919050565b600082825260208201905092915050565b60005b83811015612aa2578082015181840152602081019050612a87565b60008484015250505050565b6000601f19601f8301169050919050565b6000612aca82612a68565b612ad48185612a73565b9350612ae4818560208601612a84565b612aed81612aae565b840191505092915050565b6000612b048383612abf565b905092915050565b6000602082019050919050565b6000612b2482612a3c565b612b2e8185612a47565b935083602082028501612b4085612a58565b8060005b85811015612b7c5784840389528151612b5d8582612af8565b9450612b6883612b0c565b925060208a01995050600181019050612b44565b50829750879550505050505092915050565b600081519050919050565b600082825260208201905092915050565b6000819050602082019050919050565b6000819050919050565b612bcd81612bba565b82525050565b6000612bdf8383612bc4565b60208301905092915050565b6000602082019050919050565b6000612c0382612b8e565b612c0d8185612b99565b9350612c1883612baa565b8060005b83811015612c49578151612c308882612bd3565b9750612c3b83612beb565b925050600181019050612c1c565b5085935050505092915050565b60006060820190508181036000830152612c708186612b19565b90508181036020830152612c848185612b19565b90508181036040830152612c988184612bf8565b9050949350505050565b600080fd5b600080fd5b7f4e487b7100000000000000000000000000000000000000000000000000000000600052604160045260246000fd5b612ce482612aae565b810181811067ffffffffffffffff82111715612d0357612d02612cac565b5b80604052505050565b6000612d1661299d565b9050612d228282612cdb565b919050565b600067ffffffffffffffff821115612d4257612d41612cac565b5b612d4b82612aae565b9050602081019050919050565b82818337600083830152505050565b6000612d7a612d7584612d27565b612d0c565b905082815260208101848484011115612d9657612d95612ca7565b5b612da1848285612d58565b509392505050565b600082601f830112612dbe57612dbd612ca2565b5b8135612dce848260208601612d67565b91505092915050565b612de081612bba565b8114612deb57600080fd5b50565b600081359050612dfd81612dd7565b92915050565b60008060008060808587031215612e1d57612e1c6129a7565b5b600085013567ffffffffffffffff811115612e3b57612e3a6129ac565b5b612e4787828801612da9565b9450506020612e5887828801612dee565b9350506040612e6987828801612dee565b925050606085013567ffffffffffffffff811115612e8a57612e896129ac565b5b612e9687828801612da9565b91505092959194509250565b60008115159050919050565b612eb781612ea2565b82525050565b6000602082019050612ed26000830184612eae565b92915050565b612ee181612bba565b82525050565b612ef0816129d1565b82525050565b600082825260208201905092915050565b6000612f1282612a68565b612f1c8185612ef6565b9350612f2c818560208601612a84565b612f3581612aae565b840191505092915050565b6000606082019050612f556000830186612ed8565b612f626020830185612ee7565b8181036040830152612f748184612f07565b9050949350505050565b60006060820190508181036000830152612f988186612f07565b90508181036020830152612fac8185612f07565b90508181036040830152612fc08184612f07565b9050949350505050565b60008060408385031215612fe157612fe06129a7565b5b6000612fef85828601612dee565b9250506020613000858286016129fa565b9150509250929050565b600060208201905061301f6000830184612ed8565b92915050565b600060ff82169050919050565b61303b81613025565b82525050565b60006020820190506130566000830184613032565b92915050565b61306581613025565b811461307057600080fd5b50565b6000813590506130828161305c565b92915050565b6000806000606084860312156130a1576130a06129a7565b5b60006130af86828701612dee565b93505060206130c086828701613073565b92505060406130d1868287016129fa565b9150509250925092565b600060208201905081810360008301526130f58184612f07565b905092915050565b600080600080600080600060e0888a03121561311c5761311b6129a7565b5b600088013567ffffffffffffffff81111561313a576131396129ac565b5b6131468a828b01612da9565b975050602088013567ffffffffffffffff811115613167576131666129ac565b5b6131738a828b01612da9565b965050604088013567ffffffffffffffff811115613194576131936129ac565b5b6131a08a828b01612da9565b95505060606131b18a828b01613073565b945050608088013567ffffffffffffffff8111156131d2576131d16129ac565b5b6131de8a828b01612da9565b93505060a06131ef8a828b01612dee565b92505060c088013567ffffffffffffffff8111156132105761320f6129ac565b5b61321c8a828b01612da9565b91505092959891949750929550565b600060208284031215613241576132406129a7565b5b600061324f84828501612dee565b91505092915050565b60006101008201905061326e600083018b612ed8565b8181036020830152613280818a612f07565b905081810360408301526132948189612f07565b90506132a36060830188612ed8565b81810360808301526132b58187612f07565b905081810360a08301526132c98186612f07565b905081810360c08301526132dd8185612f07565b905081810360e08301526132f18184612f07565b90509998505050505050505050565b600060208284031215613316576133156129a7565b5b600082013567ffffffffffffffff811115613334576133336129ac565b5b61334084828501612da9565b91505092915050565b600060208201905061335e6000830184612ee7565b92915050565b6000819050919050565b61337781613364565b82525050565b6000602082019050613392600083018461336e565b92915050565b600060408201905081810360008301526133b28185612f07565b905081810360208301526133c68184612f07565b90509392505050565b7f4e487b7100000000000000000000000000000000000000000000000000000000600052603260045260246000fd5b7f4e487b7100000000000000000000000000000000000000000000000000000000600052602260045260246000fd5b6000600282049050600182168061344557607f821691505b602082108103613458576134576133fe565b5b50919050565b60008190508160005260206000209050919050565b60006020601f8301049050919050565b600082821b905092915050565b6000600883026134c07fffffffffffffffffffffffffffffffffffffffffffffffffffffffffffffffff82613483565b6134ca8683613483565b95508019841693508086168417925050509392505050565b6000819050919050565b60006135076135026134fd84613364565b6134e2565b613364565b9050919050565b6000819050919050565b613521836134ec565b61353561352d8261350e565b848454613490565b825550505050565b600090565b61354a61353d565b613555818484613518565b505050565b5b818110156135795761356e600082613542565b60018101905061355b565b5050565b601f8211156135be5761358f8161345e565b61359884613473565b810160208510156135a7578190505b6135bb6135b385613473565b83018261355a565b50505b505050565b600082821c905092915050565b60006135e1600019846008026135c3565b1980831691505092915050565b60006135fa83836135d0565b9150826002028217905092915050565b61361382612a68565b67ffffffffffffffff81111561362c5761362b612cac565b5b613636825461342d565b61364182828561357d565b600060209050601f8311600181146136745760008415613662578287015190505b61366c85826135ee565b8655506136d4565b601f1984166136828661345e565b60005b828110156136aa57848901518255600182019150602085019450602081019050613685565b868310156136c757848901516136c3601f8916826135d0565b8355505b6001600288020188555050505b505050505050565b7f4e487b7100000000000000000000000000000000000000000000000000000000600052602160045260246000fd5b600081905092915050565b600061372182612a68565b61372b818561370b565b935061373b818560208601612a84565b80840191505092915050565b60006137538284613716565b915081905092915050565b6004811061376f5761376e6136dc565b5b50565b60008190506137808261375e565b919050565b600061379082613772565b9050919050565b6137a081613785565b82525050565b600060408201905081810360008301526137c08185612f07565b90506137cf6020830184613797565b9392505050565b7f4e487b7100000000000000000000000000000000000000000000000000000000600052601160045260246000fd5b600061381082613364565b91507fffffffffffffffffffffffffffffffffffffffffffffffffffffffffffffffff8203613842576138416137d6565b5b600182019050919050565b7f446f63756d656e74206e6f7420666f756e640000000000000000000000000000600082015250565b6000613883601283612ef6565b915061388e8261384d565b602082019050919050565b600060208201905081810360008301526138b281613876565b905091905056fea2646970667358221220259808cc809555f5390b4a21d62b1ba51e22c42476e236a9f1f74488dea6e31864736f6c63430008190033",
					"opcodes": "PUSH1 0x80 PUSH1 0x40 MSTORE PUSH1 0x0 DUP1 SSTORE CALLVALUE DUP1 ISZERO PUSH1 0x13 JUMPI PUSH1 0x0 DUP1 REVERT JUMPDEST POP PUSH2 0x38EF DUP1 PUSH2 0x23 PUSH1 0x0 CODECOPY PUSH1 0x0 RETURN INVALID PUSH1 0x80 PUSH1 0x40 MSTORE CALLVALUE DUP1 ISZERO PUSH2 0x10 JUMPI PUSH1 0x0 DUP1 REVERT JUMPDEST POP PUSH1 0x4 CALLDATASIZE LT PUSH2 0x136 JUMPI PUSH1 0x0 CALLDATALOAD PUSH1 0xE0 SHR DUP1 PUSH4 0x8F578BF7 GT PUSH2 0xB8 JUMPI DUP1 PUSH4 0xD9CB2800 GT PUSH2 0x7C JUMPI DUP1 PUSH4 0xD9CB2800 EQ PUSH2 0x398 JUMPI DUP1 PUSH4 0xDDCAB3FF EQ PUSH2 0x3B6 JUMPI DUP1 PUSH4 0xE3D6F700 EQ PUSH2 0x3D6 JUMPI DUP1 PUSH4 0xE6CCC2BE EQ PUSH2 0x406 JUMPI DUP1 PUSH4 0xF78BEDF6 EQ PUSH2 0x437 JUMPI DUP1 PUSH4 0xFAA380F2 EQ PUSH2 0x467 JUMPI PUSH2 0x136 JUMP JUMPDEST DUP1 PUSH4 0x8F578BF7 EQ PUSH2 0x2B1 JUMPI DUP1 PUSH4 0xB744B46D EQ PUSH2 0x2E1 JUMPI DUP1 PUSH4 0xC5CAEA01 EQ PUSH2 0x318 JUMPI DUP1 PUSH4 0xC5EF9F7F EQ PUSH2 0x348 JUMPI DUP1 PUSH4 0xCAFDEF5A EQ PUSH2 0x368 JUMPI PUSH2 0x136 JUMP JUMPDEST DUP1 PUSH4 0x309A91D5 GT PUSH2 0xFF JUMPI DUP1 PUSH4 0x309A91D5 EQ PUSH2 0x20D JUMPI DUP1 PUSH4 0x35103499 EQ PUSH2 0x229 JUMPI DUP1 PUSH4 0x41990077 EQ PUSH2 0x247 JUMPI DUP1 PUSH4 0x71F87D02 EQ PUSH2 0x265 JUMPI DUP1 PUSH4 0x857CDBB8 EQ PUSH2 0x281 JUMPI PUSH2 0x136 JUMP JUMPDEST DUP1 PUSH3 0xD0810A EQ PUSH2 0x13B JUMPI DUP1 PUSH4 0x1614B37A EQ PUSH2 0x16D JUMPI DUP1 PUSH4 0x1796FD91 EQ PUSH2 0x19D JUMPI DUP1 PUSH4 0x1870705A EQ PUSH2 0x1BD JUMPI DUP1 PUSH4 0x2DAD6B65 EQ PUSH2 0x1DB JUMPI JUMPDEST PUSH1 0x0 DUP1 REVERT JUMPDEST PUSH2 0x155 PUSH1 0x4 DUP1 CALLDATASIZE SUB DUP2 ADD SWAP1 PUSH2 0x150 SWAP2 SWAP1 PUSH2 0x2A0F JUMP JUMPDEST PUSH2 0x497 JUMP JUMPDEST PUSH1 0x40 MLOAD PUSH2 0x164 SWAP4 SWAP3 SWAP2 SWAP1 PUSH2 0x2C56 JUMP JUMPDEST PUSH1 0x40 MLOAD DUP1 SWAP2 SUB SWAP1 RETURN JUMPDEST PUSH2 0x187 PUSH1 0x4 DUP1 CALLDATASIZE SUB DUP2 ADD SWAP1 PUSH2 0x182 SWAP2 SWAP1 PUSH2 0x2E03 JUMP JUMPDEST PUSH2 0x955 JUMP JUMPDEST PUSH1 0x40 MLOAD PUSH2 0x194 SWAP2 SWAP1 PUSH2 0x2EBD JUMP JUMPDEST PUSH1 0x40 MLOAD DUP1 SWAP2 SUB SWAP1 RETURN JUMPDEST PUSH2 0x1A5 PUSH2 0xA82 JUMP JUMPDEST PUSH1 0x40 MLOAD PUSH2 0x1B4 SWAP4 SWAP3 SWAP2 SWAP1 PUSH2 0x2F40 JUMP JUMPDEST PUSH1 0x40 MLOAD DUP1 SWAP2 SUB SWAP1 RETURN JUMPDEST PUSH2 0x1C5 PUSH2 0xC09 JUMP JUMPDEST PUSH1 0x40 MLOAD PUSH2 0x1D2 SWAP2 SWAP1 PUSH2 0x2EBD JUMP JUMPDEST PUSH1 0x40 MLOAD DUP1 SWAP2 SUB SWAP1 RETURN JUMPDEST PUSH2 0x1F5 PUSH1 0x4 DUP1 CALLDATASIZE SUB DUP2 ADD SWAP1 PUSH2 0x1F0 SWAP2 SWAP1 PUSH2 0x2A0F JUMP JUMPDEST PUSH2 0xCB1 JUMP JUMPDEST PUSH1 0x40 MLOAD PUSH2 0x204 SWAP4 SWAP3 SWAP2 SWAP1 PUSH2 0x2F7E JUMP JUMPDEST PUSH1 0x40 MLOAD DUP1 SWAP2 SUB SWAP1 RETURN JUMPDEST PUSH2 0x227 PUSH1 0x4 DUP1 CALLDATASIZE SUB DUP2 ADD SWAP1 PUSH2 0x222 SWAP2 SWAP1 PUSH2 0x2FCA JUMP JUMPDEST PUSH2 0xF36 JUMP JUMPDEST STOP JUMPDEST PUSH2 0x231 PUSH2 0xF95 JUMP JUMPDEST PUSH1 0x40 MLOAD PUSH2 0x23E SWAP2 SWAP1 PUSH2 0x300A JUMP JUMPDEST PUSH1 0x40 MLOAD DUP1 SWAP2 SUB SWAP1 RETURN JUMPDEST PUSH2 0x24F PUSH2 0xFDF JUMP JUMPDEST PUSH1 0x40 MLOAD PUSH2 0x25C SWAP2 SWAP1 PUSH2 0x3041 JUMP JUMPDEST PUSH1 0x40 MLOAD DUP1 SWAP2 SUB SWAP1 RETURN JUMPDEST PUSH2 0x27F PUSH1 0x4 DUP1 CALLDATASIZE SUB DUP2 ADD SWAP1 PUSH2 0x27A SWAP2 SWAP1 PUSH2 0x3088 JUMP JUMPDEST PUSH2 0x1048 JUMP JUMPDEST STOP JUMPDEST PUSH2 0x29B PUSH1 0x4 DUP1 CALLDATASIZE SUB DUP2 ADD SWAP1 PUSH2 0x296 SWAP2 SWAP1 PUSH2 0x2A0F JUMP JUMPDEST PUSH2 0x10B3 JUMP JUMPDEST PUSH1 0x40 MLOAD PUSH2 0x2A8 SWAP2 SWAP1 PUSH2 0x30DB JUMP JUMPDEST PUSH1 0x40 MLOAD DUP1 SWAP2 SUB SWAP1 RETURN JUMPDEST PUSH2 0x2CB PUSH1 0x4 DUP1 CALLDATASIZE SUB DUP2 ADD SWAP1 PUSH2 0x2C6 SWAP2 SWAP1 PUSH2 0x30FD JUMP JUMPDEST PUSH2 0x1187 JUMP JUMPDEST PUSH1 0x40 MLOAD PUSH2 0x2D8 SWAP2 SWAP1 PUSH2 0x2EBD JUMP JUMPDEST PUSH1 0x40 MLOAD DUP1 SWAP2 SUB SWAP1 RETURN JUMPDEST PUSH2 0x2FB PUSH1 0x4 DUP1 CALLDATASIZE SUB DUP2 ADD SWAP1 PUSH2 0x2F6 SWAP2 SWAP1 PUSH2 0x322B JUMP JUMPDEST PUSH2 0x14C8 JUMP JUMPDEST PUSH1 0x40 MLOAD PUSH2 0x30F SWAP9 SWAP8 SWAP7 SWAP6 SWAP5 SWAP4 SWAP3 SWAP2 SWAP1 PUSH2 0x3258 JUMP JUMPDEST PUSH1 0x40 MLOAD DUP1 SWAP2 SUB SWAP1 RETURN JUMPDEST PUSH2 0x332 PUSH1 0x4 DUP1 CALLDATASIZE SUB DUP2 ADD SWAP1 PUSH2 0x32D SWAP2 SWAP1 PUSH2 0x3300 JUMP JUMPDEST PUSH2 0x1E63 JUMP JUMPDEST PUSH1 0x40 MLOAD PUSH2 0x33F SWAP2 SWAP1 PUSH2 0x3349 JUMP JUMPDEST PUSH1 0x40 MLOAD DUP1 SWAP2 SUB SWAP1 RETURN JUMPDEST PUSH2 0x350 PUSH2 0x1EAB JUMP JUMPDEST PUSH1 0x40 MLOAD PUSH2 0x35F SWAP4 SWAP3 SWAP2 SWAP1 PUSH2 0x2C56 JUMP JUMPDEST PUSH1 0x40 MLOAD DUP1 SWAP2 SUB SWAP1 RETURN JUMPDEST PUSH2 0x382 PUSH1 0x4 DUP1 CALLDATASIZE SUB DUP2 ADD SWAP1 PUSH2 0x37D SWAP2 SWAP1 PUSH2 0x2FCA JUMP JUMPDEST PUSH2 0x1EC4 JUMP JUMPDEST PUSH1 0x40 MLOAD PUSH2 0x38F SWAP2 SWAP1 PUSH2 0x30DB JUMP JUMPDEST PUSH1 0x40 MLOAD DUP1 SWAP2 SUB SWAP1 RETURN JUMPDEST PUSH2 0x3A0 PUSH2 0x20BE JUMP JUMPDEST PUSH1 0x40 MLOAD PUSH2 0x3AD SWAP2 SWAP1 PUSH2 0x337D JUMP JUMPDEST PUSH1 0x40 MLOAD DUP1 SWAP2 SUB SWAP1 RETURN JUMPDEST PUSH2 0x3BE PUSH2 0x2108 JUMP JUMPDEST PUSH1 0x40 MLOAD PUSH2 0x3CD SWAP4 SWAP3 SWAP2 SWAP1 PUSH2 0x2F7E JUMP JUMPDEST PUSH1 0x40 MLOAD DUP1 SWAP2 SUB SWAP1 RETURN JUMPDEST PUSH2 0x3F0 PUSH1 0x4 DUP1 CALLDATASIZE SUB DUP2 ADD SWAP1 PUSH2 0x3EB SWAP2 SWAP1 PUSH2 0x3300 JUMP JUMPDEST PUSH2 0x238B JUMP JUMPDEST PUSH1 0x40 MLOAD PUSH2 0x3FD SWAP2 SWAP1 PUSH2 0x2EBD JUMP JUMPDEST PUSH1 0x40 MLOAD DUP1 SWAP2 SUB SWAP1 RETURN JUMPDEST PUSH2 0x420 PUSH1 0x4 DUP1 CALLDATASIZE SUB DUP2 ADD SWAP1 PUSH2 0x41B SWAP2 SWAP1 PUSH2 0x322B JUMP JUMPDEST PUSH2 0x24C0 JUMP JUMPDEST PUSH1 0x40 MLOAD PUSH2 0x42E SWAP3 SWAP2 SWAP1 PUSH2 0x3398 JUMP JUMPDEST PUSH1 0x40 MLOAD DUP1 SWAP2 SUB SWAP1 RETURN JUMPDEST PUSH2 0x451 PUSH1 0x4 DUP1 CALLDATASIZE SUB DUP2 ADD SWAP1 PUSH2 0x44C SWAP2 SWAP1 PUSH2 0x2FCA JUMP JUMPDEST PUSH2 0x27AD JUMP JUMPDEST PUSH1 0x40 MLOAD PUSH2 0x45E SWAP2 SWAP1 PUSH2 0x337D JUMP JUMPDEST PUSH1 0x40 MLOAD DUP1 SWAP2 SUB SWAP1 RETURN JUMPDEST PUSH2 0x481 PUSH1 0x4 DUP1 CALLDATASIZE SUB DUP2 ADD SWAP1 PUSH2 0x47C SWAP2 SWAP1 PUSH2 0x322B JUMP JUMPDEST PUSH2 0x28C0 JUMP JUMPDEST PUSH1 0x40 MLOAD PUSH2 0x48E SWAP2 SWAP1 PUSH2 0x2EBD JUMP JUMPDEST PUSH1 0x40 MLOAD DUP1 SWAP2 SUB SWAP1 RETURN JUMPDEST PUSH1 0x60 DUP1 PUSH1 0x60 PUSH1 0x0 PUSH1 0x3 PUSH1 0x0 DUP7 PUSH20 0xFFFFFFFFFFFFFFFFFFFFFFFFFFFFFFFFFFFFFFFF AND PUSH20 0xFFFFFFFFFFFFFFFFFFFFFFFFFFFFFFFFFFFFFFFF AND DUP2 MSTORE PUSH1 0x20 ADD SWAP1 DUP2 MSTORE PUSH1 0x20 ADD PUSH1 0x0 KECCAK256 DUP1 SLOAD SWAP1 POP PUSH8 0xFFFFFFFFFFFFFFFF DUP2 GT ISZERO PUSH2 0x4FA JUMPI PUSH2 0x4F9 PUSH2 0x2CAC JUMP JUMPDEST JUMPDEST PUSH1 0x40 MLOAD SWAP1 DUP1 DUP3 MSTORE DUP1 PUSH1 0x20 MUL PUSH1 0x20 ADD DUP3 ADD PUSH1 0x40 MSTORE DUP1 ISZERO PUSH2 0x52D JUMPI DUP2 PUSH1 0x20 ADD JUMPDEST PUSH1 0x60 DUP2 MSTORE PUSH1 0x20 ADD SWAP1 PUSH1 0x1 SWAP1 SUB SWAP1 DUP2 PUSH2 0x518 JUMPI SWAP1 POP JUMPDEST POP SWAP1 POP PUSH1 0x0 PUSH1 0x3 PUSH1 0x0 DUP8 PUSH20 0xFFFFFFFFFFFFFFFFFFFFFFFFFFFFFFFFFFFFFFFF AND PUSH20 0xFFFFFFFFFFFFFFFFFFFFFFFFFFFFFFFFFFFFFFFF AND DUP2 MSTORE PUSH1 0x20 ADD SWAP1 DUP2 MSTORE PUSH1 0x20 ADD PUSH1 0x0 KECCAK256 DUP1 SLOAD SWAP1 POP PUSH8 0xFFFFFFFFFFFFFFFF DUP2 GT ISZERO PUSH2 0x58E JUMPI PUSH2 0x58D PUSH2 0x2CAC JUMP JUMPDEST JUMPDEST PUSH1 0x40 MLOAD SWAP1 DUP1 DUP3 MSTORE DUP1 PUSH1 0x20 MUL PUSH1 0x20 ADD DUP3 ADD PUSH1 0x40 MSTORE DUP1 ISZERO PUSH2 0x5C1 JUMPI DUP2 PUSH1 0x20 ADD JUMPDEST PUSH1 0x60 DUP2 MSTORE PUSH1 0x20 ADD SWAP1 PUSH1 0x1 SWAP1 SUB SWAP1 DUP2 PUSH2 0x5AC JUMPI SWAP1 POP JUMPDEST POP SWAP1 POP PUSH1 0x0 PUSH1 0x3 PUSH1 0x0 DUP9 PUSH20 0xFFFFFFFFFFFFFFFFFFFFFFFFFFFFFFFFFFFFFFFF AND PUSH20 0xFFFFFFFFFFFFFFFFFFFFFFFFFFFFFFFFFFFFFFFF AND DUP2 MSTORE PUSH1 0x20 ADD SWAP1 DUP2 MSTORE PUSH1 0x20 ADD PUSH1 0x0 KECCAK256 DUP1 SLOAD SWAP1 POP PUSH8 0xFFFFFFFFFFFFFFFF DUP2 GT ISZERO PUSH2 0x622 JUMPI PUSH2 0x621 PUSH2 0x2CAC JUMP JUMPDEST JUMPDEST PUSH1 0x40 MLOAD SWAP1 DUP1 DUP3 MSTORE DUP1 PUSH1 0x20 MUL PUSH1 0x20 ADD DUP3 ADD PUSH1 0x40 MSTORE DUP1 ISZERO PUSH2 0x650 JUMPI DUP2 PUSH1 0x20 ADD PUSH1 0x20 DUP3 MUL DUP1 CALLDATASIZE DUP4 CALLDATACOPY DUP1 DUP3 ADD SWAP2 POP POP SWAP1 POP JUMPDEST POP SWAP1 POP PUSH1 0x0 JUMPDEST PUSH1 0x3 PUSH1 0x0 DUP10 PUSH20 0xFFFFFFFFFFFFFFFFFFFFFFFFFFFFFFFFFFFFFFFF AND PUSH20 0xFFFFFFFFFFFFFFFFFFFFFFFFFFFFFFFFFFFFFFFF AND DUP2 MSTORE PUSH1 0x20 ADD SWAP1 DUP2 MSTORE PUSH1 0x20 ADD PUSH1 0x0 KECCAK256 DUP1 SLOAD SWAP1 POP DUP2 LT ISZERO PUSH2 0x941 JUMPI PUSH1 0x3 PUSH1 0x0 DUP10 PUSH20 0xFFFFFFFFFFFFFFFFFFFFFFFFFFFFFFFFFFFFFFFF AND PUSH20 0xFFFFFFFFFFFFFFFFFFFFFFFFFFFFFFFFFFFFFFFF AND DUP2 MSTORE PUSH1 0x20 ADD SWAP1 DUP2 MSTORE PUSH1 0x20 ADD PUSH1 0x0 KECCAK256 DUP2 DUP2 SLOAD DUP2 LT PUSH2 0x6F1 JUMPI PUSH2 0x6F0 PUSH2 0x33CF JUMP JUMPDEST JUMPDEST SWAP1 PUSH1 0x0 MSTORE PUSH1 0x20 PUSH1 0x0 KECCAK256 SWAP1 PUSH1 0x4 MUL ADD PUSH1 0x2 ADD DUP1 SLOAD PUSH2 0x70D SWAP1 PUSH2 0x342D JUMP JUMPDEST DUP1 PUSH1 0x1F ADD PUSH1 0x20 DUP1 SWAP2 DIV MUL PUSH1 0x20 ADD PUSH1 0x40 MLOAD SWAP1 DUP2 ADD PUSH1 0x40 MSTORE DUP1 SWAP3 SWAP2 SWAP1 DUP2 DUP2 MSTORE PUSH1 0x20 ADD DUP3 DUP1 SLOAD PUSH2 0x739 SWAP1 PUSH2 0x342D JUMP JUMPDEST DUP1 ISZERO PUSH2 0x786 JUMPI DUP1 PUSH1 0x1F LT PUSH2 0x75B JUMPI PUSH2 0x100 DUP1 DUP4 SLOAD DIV MUL DUP4 MSTORE SWAP2 PUSH1 0x20 ADD SWAP2 PUSH2 0x786 JUMP JUMPDEST DUP3 ADD SWAP2 SWAP1 PUSH1 0x0 MSTORE PUSH1 0x20 PUSH1 0x0 KECCAK256 SWAP1 JUMPDEST DUP2 SLOAD DUP2 MSTORE SWAP1 PUSH1 0x1 ADD SWAP1 PUSH1 0x20 ADD DUP1 DUP4 GT PUSH2 0x769 JUMPI DUP3 SWAP1 SUB PUSH1 0x1F AND DUP3 ADD SWAP2 JUMPDEST POP POP POP POP POP DUP4 DUP3 DUP2 MLOAD DUP2 LT PUSH2 0x79E JUMPI PUSH2 0x79D PUSH2 0x33CF JUMP JUMPDEST JUMPDEST PUSH1 0x20 MUL PUSH1 0x20 ADD ADD DUP2 SWAP1 MSTORE POP PUSH1 0x3 PUSH1 0x0 DUP10 PUSH20 0xFFFFFFFFFFFFFFFFFFFFFFFFFFFFFFFFFFFFFFFF AND PUSH20 0xFFFFFFFFFFFFFFFFFFFFFFFFFFFFFFFFFFFFFFFF AND DUP2 MSTORE PUSH1 0x20 ADD SWAP1 DUP2 MSTORE PUSH1 0x20 ADD PUSH1 0x0 KECCAK256 DUP2 DUP2 SLOAD DUP2 LT PUSH2 0x7FA JUMPI PUSH2 0x7F9 PUSH2 0x33CF JUMP JUMPDEST JUMPDEST SWAP1 PUSH1 0x0 MSTORE PUSH1 0x20 PUSH1 0x0 KECCAK256 SWAP1 PUSH1 0x4 MUL ADD PUSH1 0x1 ADD DUP1 SLOAD PUSH2 0x816 SWAP1 PUSH2 0x342D JUMP JUMPDEST DUP1 PUSH1 0x1F ADD PUSH1 0x20 DUP1 SWAP2 DIV MUL PUSH1 0x20 ADD PUSH1 0x40 MLOAD SWAP1 DUP2 ADD PUSH1 0x40 MSTORE DUP1 SWAP3 SWAP2 SWAP1 DUP2 DUP2 MSTORE PUSH1 0x20 ADD DUP3 DUP1 SLOAD PUSH2 0x842 SWAP1 PUSH2 0x342D JUMP JUMPDEST DUP1 ISZERO PUSH2 0x88F JUMPI DUP1 PUSH1 0x1F LT PUSH2 0x864 JUMPI PUSH2 0x100 DUP1 DUP4 SLOAD DIV MUL DUP4 MSTORE SWAP2 PUSH1 0x20 ADD SWAP2 PUSH2 0x88F JUMP JUMPDEST DUP3 ADD SWAP2 SWAP1 PUSH1 0x0 MSTORE PUSH1 0x20 PUSH1 0x0 KECCAK256 SWAP1 JUMPDEST DUP2 SLOAD DUP2 MSTORE SWAP1 PUSH1 0x1 ADD SWAP1 PUSH1 0x20 ADD DUP1 DUP4 GT PUSH2 0x872 JUMPI DUP3 SWAP1 SUB PUSH1 0x1F AND DUP3 ADD SWAP2 JUMPDEST POP POP POP POP POP DUP5 DUP3 DUP2 MLOAD DUP2 LT PUSH2 0x8A7 JUMPI PUSH2 0x8A6 PUSH2 0x33CF JUMP JUMPDEST JUMPDEST PUSH1 0x20 MUL PUSH1 0x20 ADD ADD DUP2 SWAP1 MSTORE POP PUSH1 0x3 PUSH1 0x0 DUP10 PUSH20 0xFFFFFFFFFFFFFFFFFFFFFFFFFFFFFFFFFFFFFFFF AND PUSH20 0xFFFFFFFFFFFFFFFFFFFFFFFFFFFFFFFFFFFFFFFF AND DUP2 MSTORE PUSH1 0x20 ADD SWAP1 DUP2 MSTORE PUSH1 0x20 ADD PUSH1 0x0 KECCAK256 DUP2 DUP2 SLOAD DUP2 LT PUSH2 0x903 JUMPI PUSH2 0x902 PUSH2 0x33CF JUMP JUMPDEST JUMPDEST SWAP1 PUSH1 0x0 MSTORE PUSH1 0x20 PUSH1 0x0 KECCAK256 SWAP1 PUSH1 0x4 MUL ADD PUSH1 0x0 ADD SLOAD DUP3 DUP3 DUP2 MLOAD DUP2 LT PUSH2 0x928 JUMPI PUSH2 0x927 PUSH2 0x33CF JUMP JUMPDEST JUMPDEST PUSH1 0x20 MUL PUSH1 0x20 ADD ADD DUP2 DUP2 MSTORE POP POP DUP1 DUP1 PUSH1 0x1 ADD SWAP2 POP POP PUSH2 0x656 JUMP JUMPDEST POP DUP3 DUP3 DUP3 SWAP6 POP SWAP6 POP SWAP6 POP POP POP POP SWAP2 SWAP4 SWAP1 SWAP3 POP JUMP JUMPDEST PUSH1 0x0 DUP1 PUSH1 0x40 MLOAD DUP1 PUSH1 0x80 ADD PUSH1 0x40 MSTORE DUP1 DUP7 DUP2 MSTORE PUSH1 0x20 ADD DUP8 DUP2 MSTORE PUSH1 0x20 ADD DUP5 DUP2 MSTORE PUSH1 0x20 ADD DUP6 DUP2 MSTORE POP SWAP1 POP PUSH1 0x3 PUSH1 0x0 CALLER PUSH20 0xFFFFFFFFFFFFFFFFFFFFFFFFFFFFFFFFFFFFFFFF AND PUSH20 0xFFFFFFFFFFFFFFFFFFFFFFFFFFFFFFFFFFFFFFFF AND DUP2 MSTORE PUSH1 0x20 ADD SWAP1 DUP2 MSTORE PUSH1 0x20 ADD PUSH1 0x0 KECCAK256 DUP2 SWAP1 DUP1 PUSH1 0x1 DUP2 SLOAD ADD DUP1 DUP3 SSTORE DUP1 SWAP2 POP POP PUSH1 0x1 SWAP1 SUB SWAP1 PUSH1 0x0 MSTORE PUSH1 0x20 PUSH1 0x0 KECCAK256 SWAP1 PUSH1 0x4 MUL ADD PUSH1 0x0 SWAP1 SWAP2 SWAP1 SWAP2 SWAP1 SWAP2 POP PUSH1 0x0 DUP3 ADD MLOAD DUP2 PUSH1 0x0 ADD SSTORE PUSH1 0x20 DUP3 ADD MLOAD DUP2 PUSH1 0x1 ADD SWAP1 DUP2 PUSH2 0xA03 SWAP2 SWAP1 PUSH2 0x360A JUMP JUMPDEST POP PUSH1 0x40 DUP3 ADD MLOAD DUP2 PUSH1 0x2 ADD SWAP1 DUP2 PUSH2 0xA19 SWAP2 SWAP1 PUSH2 0x360A JUMP JUMPDEST POP PUSH1 0x60 DUP3 ADD MLOAD DUP2 PUSH1 0x3 ADD SSTORE POP POP CALLER PUSH20 0xFFFFFFFFFFFFFFFFFFFFFFFFFFFFFFFFFFFFFFFF AND DUP6 PUSH32 0x55855A3D3674C1ACB8C196DA3DFA5649298733532349DE3028E120D990AFBC0B DUP7 PUSH1 0x40 MLOAD PUSH2 0xA6D SWAP2 SWAP1 PUSH2 0x300A JUMP JUMPDEST PUSH1 0x40 MLOAD DUP1 SWAP2 SUB SWAP1 LOG3 PUSH1 0x1 SWAP2 POP POP SWAP5 SWAP4 POP POP POP POP JUMP JUMPDEST PUSH1 0x0 DUP1 PUSH1 0x60 PUSH1 0x2 PUSH1 0x0 CALLER PUSH20 0xFFFFFFFFFFFFFFFFFFFFFFFFFFFFFFFFFFFFFFFF AND PUSH20 0xFFFFFFFFFFFFFFFFFFFFFFFFFFFFFFFFFFFFFFFF AND DUP2 MSTORE PUSH1 0x20 ADD SWAP1 DUP2 MSTORE PUSH1 0x20 ADD PUSH1 0x0 KECCAK256 PUSH1 0x6 ADD SLOAD PUSH1 0x2 PUSH1 0x0 CALLER PUSH20 0xFFFFFFFFFFFFFFFFFFFFFFFFFFFFFFFFFFFFFFFF AND PUSH20 0xFFFFFFFFFFFFFFFFFFFFFFFFFFFFFFFFFFFFFFFF AND DUP2 MSTORE PUSH1 0x20 ADD SWAP1 DUP2 MSTORE PUSH1 0x20 ADD PUSH1 0x0 KECCAK256 PUSH1 0x5 ADD PUSH1 0x0 SWAP1 SLOAD SWAP1 PUSH2 0x100 EXP SWAP1 DIV PUSH20 0xFFFFFFFFFFFFFFFFFFFFFFFFFFFFFFFFFFFFFFFF AND PUSH1 0x2 PUSH1 0x0 CALLER PUSH20 0xFFFFFFFFFFFFFFFFFFFFFFFFFFFFFFFFFFFFFFFF AND PUSH20 0xFFFFFFFFFFFFFFFFFFFFFFFFFFFFFFFFFFFFFFFF AND DUP2 MSTORE PUSH1 0x20 ADD SWAP1 DUP2 MSTORE PUSH1 0x20 ADD PUSH1 0x0 KECCAK256 PUSH1 0x1 ADD PUSH1 0x0 ADD DUP1 DUP1 SLOAD PUSH2 0xB7E SWAP1 PUSH2 0x342D JUMP JUMPDEST DUP1 PUSH1 0x1F ADD PUSH1 0x20 DUP1 SWAP2 DIV MUL PUSH1 0x20 ADD PUSH1 0x40 MLOAD SWAP1 DUP2 ADD PUSH1 0x40 MSTORE DUP1 SWAP3 SWAP2 SWAP1 DUP2 DUP2 MSTORE PUSH1 0x20 ADD DUP3 DUP1 SLOAD PUSH2 0xBAA SWAP1 PUSH2 0x342D JUMP JUMPDEST DUP1 ISZERO PUSH2 0xBF7 JUMPI DUP1 PUSH1 0x1F LT PUSH2 0xBCC JUMPI PUSH2 0x100 DUP1 DUP4 SLOAD DIV MUL DUP4 MSTORE SWAP2 PUSH1 0x20 ADD SWAP2 PUSH2 0xBF7 JUMP JUMPDEST DUP3 ADD SWAP2 SWAP1 PUSH1 0x0 MSTORE PUSH1 0x20 PUSH1 0x0 KECCAK256 SWAP1 JUMPDEST DUP2 SLOAD DUP2 MSTORE SWAP1 PUSH1 0x1 ADD SWAP1 PUSH1 0x20 ADD DUP1 DUP4 GT PUSH2 0xBDA JUMPI DUP3 SWAP1 SUB PUSH1 0x1F AND DUP3 ADD SWAP2 JUMPDEST POP POP POP POP POP SWAP1 POP SWAP3 POP SWAP3 POP SWAP3 POP SWAP1 SWAP2 SWAP3 JUMP JUMPDEST PUSH1 0x0 DUP1 PUSH20 0xFFFFFFFFFFFFFFFFFFFFFFFFFFFFFFFFFFFFFFFF AND PUSH1 0x2 PUSH1 0x0 CALLER PUSH20 0xFFFFFFFFFFFFFFFFFFFFFFFFFFFFFFFFFFFFFFFF AND PUSH20 0xFFFFFFFFFFFFFFFFFFFFFFFFFFFFFFFFFFFFFFFF AND DUP2 MSTORE PUSH1 0x20 ADD SWAP1 DUP2 MSTORE PUSH1 0x20 ADD PUSH1 0x0 KECCAK256 PUSH1 0x5 ADD PUSH1 0x0 SWAP1 SLOAD SWAP1 PUSH2 0x100 EXP SWAP1 DIV PUSH20 0xFFFFFFFFFFFFFFFFFFFFFFFFFFFFFFFFFFFFFFFF AND PUSH20 0xFFFFFFFFFFFFFFFFFFFFFFFFFFFFFFFFFFFFFFFF AND SUB PUSH2 0xCA9 JUMPI PUSH1 0x0 SWAP1 POP PUSH2 0xCAE JUMP JUMPDEST PUSH1 0x1 SWAP1 POP JUMPDEST SWAP1 JUMP JUMPDEST PUSH1 0x60 DUP1 PUSH1 0x60 PUSH1 0x2 PUSH1 0x0 DUP6 PUSH20 0xFFFFFFFFFFFFFFFFFFFFFFFFFFFFFFFFFFFFFFFF AND PUSH20 0xFFFFFFFFFFFFFFFFFFFFFFFFFFFFFFFFFFFFFFFF AND DUP2 MSTORE PUSH1 0x20 ADD SWAP1 DUP2 MSTORE PUSH1 0x20 ADD PUSH1 0x0 KECCAK256 PUSH1 0x1 ADD PUSH1 0x2 ADD PUSH1 0x2 PUSH1 0x0 DUP7 PUSH20 0xFFFFFFFFFFFFFFFFFFFFFFFFFFFFFFFFFFFFFFFF AND PUSH20 0xFFFFFFFFFFFFFFFFFFFFFFFFFFFFFFFFFFFFFFFF AND DUP2 MSTORE PUSH1 0x20 ADD SWAP1 DUP2 MSTORE PUSH1 0x20 ADD PUSH1 0x0 KECCAK256 PUSH1 0x1 ADD PUSH1 0x0 ADD PUSH1 0x2 PUSH1 0x0 DUP8 PUSH20 0xFFFFFFFFFFFFFFFFFFFFFFFFFFFFFFFFFFFFFFFF AND PUSH20 0xFFFFFFFFFFFFFFFFFFFFFFFFFFFFFFFFFFFFFFFF AND DUP2 MSTORE PUSH1 0x20 ADD SWAP1 DUP2 MSTORE PUSH1 0x20 ADD PUSH1 0x0 KECCAK256 PUSH1 0x1 ADD PUSH1 0x1 ADD DUP3 DUP1 SLOAD PUSH2 0xD91 SWAP1 PUSH2 0x342D JUMP JUMPDEST DUP1 PUSH1 0x1F ADD PUSH1 0x20 DUP1 SWAP2 DIV MUL PUSH1 0x20 ADD PUSH1 0x40 MLOAD SWAP1 DUP2 ADD PUSH1 0x40 MSTORE DUP1 SWAP3 SWAP2 SWAP1 DUP2 DUP2 MSTORE PUSH1 0x20 ADD DUP3 DUP1 SLOAD PUSH2 0xDBD SWAP1 PUSH2 0x342D JUMP JUMPDEST DUP1 ISZERO PUSH2 0xE0A JUMPI DUP1 PUSH1 0x1F LT PUSH2 0xDDF JUMPI PUSH2 0x100 DUP1 DUP4 SLOAD DIV MUL DUP4 MSTORE SWAP2 PUSH1 0x20 ADD SWAP2 PUSH2 0xE0A JUMP JUMPDEST DUP3 ADD SWAP2 SWAP1 PUSH1 0x0 MSTORE PUSH1 0x20 PUSH1 0x0 KECCAK256 SWAP1 JUMPDEST DUP2 SLOAD DUP2 MSTORE SWAP1 PUSH1 0x1 ADD SWAP1 PUSH1 0x20 ADD DUP1 DUP4 GT PUSH2 0xDED JUMPI DUP3 SWAP1 SUB PUSH1 0x1F AND DUP3 ADD SWAP2 JUMPDEST POP POP POP POP POP SWAP3 POP DUP2 DUP1 SLOAD PUSH2 0xE1D SWAP1 PUSH2 0x342D JUMP JUMPDEST DUP1 PUSH1 0x1F ADD PUSH1 0x20 DUP1 SWAP2 DIV MUL PUSH1 0x20 ADD PUSH1 0x40 MLOAD SWAP1 DUP2 ADD PUSH1 0x40 MSTORE DUP1 SWAP3 SWAP2 SWAP1 DUP2 DUP2 MSTORE PUSH1 0x20 ADD DUP3 DUP1 SLOAD PUSH2 0xE49 SWAP1 PUSH2 0x342D JUMP JUMPDEST DUP1 ISZERO PUSH2 0xE96 JUMPI DUP1 PUSH1 0x1F LT PUSH2 0xE6B JUMPI PUSH2 0x100 DUP1 DUP4 SLOAD DIV MUL DUP4 MSTORE SWAP2 PUSH1 0x20 ADD SWAP2 PUSH2 0xE96 JUMP JUMPDEST DUP3 ADD SWAP2 SWAP1 PUSH1 0x0 MSTORE PUSH1 0x20 PUSH1 0x0 KECCAK256 SWAP1 JUMPDEST DUP2 SLOAD DUP2 MSTORE SWAP1 PUSH1 0x1 ADD SWAP1 PUSH1 0x20 ADD DUP1 DUP4 GT PUSH2 0xE79 JUMPI DUP3 SWAP1 SUB PUSH1 0x1F AND DUP3 ADD SWAP2 JUMPDEST POP POP POP POP POP SWAP2 POP DUP1 DUP1 SLOAD PUSH2 0xEA9 SWAP1 PUSH2 0x342D JUMP JUMPDEST DUP1 PUSH1 0x1F ADD PUSH1 0x20 DUP1 SWAP2 DIV MUL PUSH1 0x20 ADD PUSH1 0x40 MLOAD SWAP1 DUP2 ADD PUSH1 0x40 MSTORE DUP1 SWAP3 SWAP2 SWAP1 DUP2 DUP2 MSTORE PUSH1 0x20 ADD DUP3 DUP1 SLOAD PUSH2 0xED5 SWAP1 PUSH2 0x342D JUMP JUMPDEST DUP1 ISZERO PUSH2 0xF22 JUMPI DUP1 PUSH1 0x1F LT PUSH2 0xEF7 JUMPI PUSH2 0x100 DUP1 DUP4 SLOAD DIV MUL DUP4 MSTORE SWAP2 PUSH1 0x20 ADD SWAP2 PUSH2 0xF22 JUMP JUMPDEST DUP3 ADD SWAP2 SWAP1 PUSH1 0x0 MSTORE PUSH1 0x20 PUSH1 0x0 KECCAK256 SWAP1 JUMPDEST DUP2 SLOAD DUP2 MSTORE SWAP1 PUSH1 0x1 ADD SWAP1 PUSH1 0x20 ADD DUP1 DUP4 GT PUSH2 0xF05 JUMPI DUP3 SWAP1 SUB PUSH1 0x1F AND DUP3 ADD SWAP2 JUMPDEST POP POP POP POP POP SWAP1 POP SWAP3 POP SWAP3 POP SWAP3 POP SWAP2 SWAP4 SWAP1 SWAP3 POP JUMP JUMPDEST CALLER PUSH20 0xFFFFFFFFFFFFFFFFFFFFFFFFFFFFFFFFFFFFFFFF AND DUP2 PUSH20 0xFFFFFFFFFFFFFFFFFFFFFFFFFFFFFFFFFFFFFFFF AND DUP4 PUSH32 0xEFA9780427D41555988632182F6BB7AFD5ABC6DD414EE4E7385006B847244656 PUSH1 0x40 MLOAD PUSH1 0x40 MLOAD DUP1 SWAP2 SUB SWAP1 LOG4 POP POP JUMP JUMPDEST PUSH1 0x0 PUSH1 0x2 PUSH1 0x0 CALLER PUSH20 0xFFFFFFFFFFFFFFFFFFFFFFFFFFFFFFFFFFFFFFFF AND PUSH20 0xFFFFFFFFFFFFFFFFFFFFFFFFFFFFFFFFFFFFFFFF AND DUP2 MSTORE PUSH1 0x20 ADD SWAP1 DUP2 MSTORE PUSH1 0x20 ADD PUSH1 0x0 KECCAK256 PUSH1 0x6 ADD SLOAD SWAP1 POP SWAP1 JUMP JUMPDEST PUSH1 0x0 PUSH1 0x2 PUSH1 0x0 CALLER PUSH20 0xFFFFFFFFFFFFFFFFFFFFFFFFFFFFFFFFFFFFFFFF AND PUSH20 0xFFFFFFFFFFFFFFFFFFFFFFFFFFFFFFFFFFFFFFFF AND DUP2 MSTORE PUSH1 0x20 ADD SWAP1 DUP2 MSTORE PUSH1 0x20 ADD PUSH1 0x0 KECCAK256 PUSH1 0x0 ADD PUSH1 0x0 SWAP1 SLOAD SWAP1 PUSH2 0x100 EXP SWAP1 DIV PUSH1 0xFF AND PUSH1 0x3 DUP2 GT ISZERO PUSH2 0x1043 JUMPI PUSH2 0x1042 PUSH2 0x36DC JUMP JUMPDEST JUMPDEST SWAP1 POP SWAP1 JUMP JUMPDEST DUP1 PUSH20 0xFFFFFFFFFFFFFFFFFFFFFFFFFFFFFFFFFFFFFFFF AND CALLER PUSH20 0xFFFFFFFFFFFFFFFFFFFFFFFFFFFFFFFFFFFFFFFF AND DUP5 PUSH32 0x8A37E769A30D7C802C6C7E129E45FFA69A48CA0EE91129702ACA0653B92CBB7C DUP6 PUSH1 0x40 MLOAD PUSH2 0x10A6 SWAP2 SWAP1 PUSH2 0x3041 JUMP JUMPDEST PUSH1 0x40 MLOAD DUP1 SWAP2 SUB SWAP1 LOG4 POP POP POP JUMP JUMPDEST PUSH1 0x60 PUSH1 0x2 PUSH1 0x0 DUP4 PUSH20 0xFFFFFFFFFFFFFFFFFFFFFFFFFFFFFFFFFFFFFFFF AND PUSH20 0xFFFFFFFFFFFFFFFFFFFFFFFFFFFFFFFFFFFFFFFF AND DUP2 MSTORE PUSH1 0x20 ADD SWAP1 DUP2 MSTORE PUSH1 0x20 ADD PUSH1 0x0 KECCAK256 PUSH1 0x7 ADD DUP1 SLOAD PUSH2 0x1102 SWAP1 PUSH2 0x342D JUMP JUMPDEST DUP1 PUSH1 0x1F ADD PUSH1 0x20 DUP1 SWAP2 DIV MUL PUSH1 0x20 ADD PUSH1 0x40 MLOAD SWAP1 DUP2 ADD PUSH1 0x40 MSTORE DUP1 SWAP3 SWAP2 SWAP1 DUP2 DUP2 MSTORE PUSH1 0x20 ADD DUP3 DUP1 SLOAD PUSH2 0x112E SWAP1 PUSH2 0x342D JUMP JUMPDEST DUP1 ISZERO PUSH2 0x117B JUMPI DUP1 PUSH1 0x1F LT PUSH2 0x1150 JUMPI PUSH2 0x100 DUP1 DUP4 SLOAD DIV MUL DUP4 MSTORE SWAP2 PUSH1 0x20 ADD SWAP2 PUSH2 0x117B JUMP JUMPDEST DUP3 ADD SWAP2 SWAP1 PUSH1 0x0 MSTORE PUSH1 0x20 PUSH1 0x0 KECCAK256 SWAP1 JUMPDEST DUP2 SLOAD DUP2 MSTORE SWAP1 PUSH1 0x1 ADD SWAP1 PUSH1 0x20 ADD DUP1 DUP4 GT PUSH2 0x115E JUMPI DUP3 SWAP1 SUB PUSH1 0x1F AND DUP3 ADD SWAP2 JUMPDEST POP POP POP POP POP SWAP1 POP SWAP2 SWAP1 POP JUMP JUMPDEST PUSH1 0x0 DUP1 PUSH1 0x40 MLOAD DUP1 PUSH1 0x80 ADD PUSH1 0x40 MSTORE DUP1 DUP11 DUP2 MSTORE PUSH1 0x20 ADD DUP10 DUP2 MSTORE PUSH1 0x20 ADD DUP9 DUP2 MSTORE PUSH1 0x20 ADD DUP7 DUP2 MSTORE POP SWAP1 POP PUSH1 0x0 PUSH1 0x40 MLOAD DUP1 PUSH1 0xC0 ADD PUSH1 0x40 MSTORE DUP1 DUP9 PUSH1 0xFF AND PUSH1 0x3 DUP2 GT ISZERO PUSH2 0x11D0 JUMPI PUSH2 0x11CF PUSH2 0x36DC JUMP JUMPDEST JUMPDEST PUSH1 0x3 DUP2 GT ISZERO PUSH2 0x11E2 JUMPI PUSH2 0x11E1 PUSH2 0x36DC JUMP JUMPDEST JUMPDEST DUP2 MSTORE PUSH1 0x20 ADD PUSH1 0x1 ISZERO ISZERO DUP2 MSTORE PUSH1 0x20 ADD DUP4 DUP2 MSTORE PUSH1 0x20 ADD CALLER PUSH20 0xFFFFFFFFFFFFFFFFFFFFFFFFFFFFFFFFFFFFFFFF AND DUP2 MSTORE PUSH1 0x20 ADD DUP7 DUP2 MSTORE PUSH1 0x20 ADD DUP6 DUP2 MSTORE POP SWAP1 POP CALLER PUSH1 0x4 DUP10 PUSH1 0x40 MLOAD PUSH2 0x122F SWAP2 SWAP1 PUSH2 0x3747 JUMP JUMPDEST SWAP1 DUP2 MSTORE PUSH1 0x20 ADD PUSH1 0x40 MLOAD DUP1 SWAP2 SUB SWAP1 KECCAK256 PUSH1 0x0 PUSH2 0x100 EXP DUP2 SLOAD DUP2 PUSH20 0xFFFFFFFFFFFFFFFFFFFFFFFFFFFFFFFFFFFFFFFF MUL NOT AND SWAP1 DUP4 PUSH20 0xFFFFFFFFFFFFFFFFFFFFFFFFFFFFFFFFFFFFFFFF AND MUL OR SWAP1 SSTORE POP DUP1 PUSH1 0x2 PUSH1 0x0 CALLER PUSH20 0xFFFFFFFFFFFFFFFFFFFFFFFFFFFFFFFFFFFFFFFF AND PUSH20 0xFFFFFFFFFFFFFFFFFFFFFFFFFFFFFFFFFFFFFFFF AND DUP2 MSTORE PUSH1 0x20 ADD SWAP1 DUP2 MSTORE PUSH1 0x20 ADD PUSH1 0x0 KECCAK256 PUSH1 0x0 DUP3 ADD MLOAD DUP2 PUSH1 0x0 ADD PUSH1 0x0 PUSH2 0x100 EXP DUP2 SLOAD DUP2 PUSH1 0xFF MUL NOT AND SWAP1 DUP4 PUSH1 0x3 DUP2 GT ISZERO PUSH2 0x12E6 JUMPI PUSH2 0x12E5 PUSH2 0x36DC JUMP JUMPDEST JUMPDEST MUL OR SWAP1 SSTORE POP PUSH1 0x20 DUP3 ADD MLOAD DUP2 PUSH1 0x0 ADD PUSH1 0x1 PUSH2 0x100 EXP DUP2 SLOAD DUP2 PUSH1 0xFF MUL NOT AND SWAP1 DUP4 ISZERO ISZERO MUL OR SWAP1 SSTORE POP PUSH1 0x40 DUP3 ADD MLOAD DUP2 PUSH1 0x1 ADD PUSH1 0x0 DUP3 ADD MLOAD DUP2 PUSH1 0x0 ADD SWAP1 DUP2 PUSH2 0x1329 SWAP2 SWAP1 PUSH2 0x360A JUMP JUMPDEST POP PUSH1 0x20 DUP3 ADD MLOAD DUP2 PUSH1 0x1 ADD SWAP1 DUP2 PUSH2 0x133F SWAP2 SWAP1 PUSH2 0x360A JUMP JUMPDEST POP PUSH1 0x40 DUP3 ADD MLOAD DUP2 PUSH1 0x2 ADD SWAP1 DUP2 PUSH2 0x1355 SWAP2 SWAP1 PUSH2 0x360A JUMP JUMPDEST POP PUSH1 0x60 DUP3 ADD MLOAD DUP2 PUSH1 0x3 ADD SWAP1 DUP2 PUSH2 0x136B SWAP2 SWAP1 PUSH2 0x360A JUMP JUMPDEST POP POP POP PUSH1 0x60 DUP3 ADD MLOAD DUP2 PUSH1 0x5 ADD PUSH1 0x0 PUSH2 0x100 EXP DUP2 SLOAD DUP2 PUSH20 0xFFFFFFFFFFFFFFFFFFFFFFFFFFFFFFFFFFFFFFFF MUL NOT AND SWAP1 DUP4 PUSH20 0xFFFFFFFFFFFFFFFFFFFFFFFFFFFFFFFFFFFFFFFF AND MUL OR SWAP1 SSTORE POP PUSH1 0x80 DUP3 ADD MLOAD DUP2 PUSH1 0x6 ADD SSTORE PUSH1 0xA0 DUP3 ADD MLOAD DUP2 PUSH1 0x7 ADD SWAP1 DUP2 PUSH2 0x13D4 SWAP2 SWAP1 PUSH2 0x360A JUMP JUMPDEST POP SWAP1 POP POP CALLER PUSH20 0xFFFFFFFFFFFFFFFFFFFFFFFFFFFFFFFFFFFFFFFF AND PUSH32 0xFDAD81B5969E49863813D58B8E0C260AB1C544829173977D205D8440D844BDE5 DUP10 DUP10 PUSH1 0xFF AND PUSH1 0x3 DUP2 GT ISZERO PUSH2 0x1427 JUMPI PUSH2 0x1426 PUSH2 0x36DC JUMP JUMPDEST JUMPDEST PUSH1 0x40 MLOAD PUSH2 0x1435 SWAP3 SWAP2 SWAP1 PUSH2 0x37A6 JUMP JUMPDEST PUSH1 0x40 MLOAD DUP1 SWAP2 SUB SWAP1 LOG2 PUSH1 0x1 CALLER SWAP1 DUP1 PUSH1 0x1 DUP2 SLOAD ADD DUP1 DUP3 SSTORE DUP1 SWAP2 POP POP PUSH1 0x1 SWAP1 SUB SWAP1 PUSH1 0x0 MSTORE PUSH1 0x20 PUSH1 0x0 KECCAK256 ADD PUSH1 0x0 SWAP1 SWAP2 SWAP1 SWAP2 SWAP1 SWAP2 PUSH2 0x100 EXP DUP2 SLOAD DUP2 PUSH20 0xFFFFFFFFFFFFFFFFFFFFFFFFFFFFFFFFFFFFFFFF MUL NOT AND SWAP1 DUP4 PUSH20 0xFFFFFFFFFFFFFFFFFFFFFFFFFFFFFFFFFFFFFFFF AND MUL OR SWAP1 SSTORE POP PUSH1 0x0 DUP1 DUP2 SLOAD DUP1 SWAP3 SWAP2 SWAP1 PUSH2 0x14B2 SWAP1 PUSH2 0x3805 JUMP JUMPDEST SWAP2 SWAP1 POP SSTORE POP PUSH1 0x1 SWAP3 POP POP POP SWAP8 SWAP7 POP POP POP POP POP POP POP JUMP JUMPDEST PUSH1 0x0 PUSH1 0x60 DUP1 PUSH1 0x0 PUSH1 0x60 DUP1 PUSH1 0x60 DUP1 PUSH1 0x0 JUMPDEST PUSH1 0x0 SLOAD DUP2 LT ISZERO PUSH2 0x1E1C JUMPI PUSH1 0x0 JUMPDEST PUSH1 0x3 PUSH1 0x0 PUSH1 0x1 DUP5 DUP2 SLOAD DUP2 LT PUSH2 0x14FD JUMPI PUSH2 0x14FC PUSH2 0x33CF JUMP JUMPDEST JUMPDEST SWAP1 PUSH1 0x0 MSTORE PUSH1 0x20 PUSH1 0x0 KECCAK256 ADD PUSH1 0x0 SWAP1 SLOAD SWAP1 PUSH2 0x100 EXP SWAP1 DIV PUSH20 0xFFFFFFFFFFFFFFFFFFFFFFFFFFFFFFFFFFFFFFFF AND PUSH20 0xFFFFFFFFFFFFFFFFFFFFFFFFFFFFFFFFFFFFFFFF AND PUSH20 0xFFFFFFFFFFFFFFFFFFFFFFFFFFFFFFFFFFFFFFFF AND DUP2 MSTORE PUSH1 0x20 ADD SWAP1 DUP2 MSTORE PUSH1 0x20 ADD PUSH1 0x0 KECCAK256 DUP1 SLOAD SWAP1 POP DUP2 LT ISZERO PUSH2 0x1E0E JUMPI DUP11 PUSH1 0x3 PUSH1 0x0 PUSH1 0x1 DUP6 DUP2 SLOAD DUP2 LT PUSH2 0x1586 JUMPI PUSH2 0x1585 PUSH2 0x33CF JUMP JUMPDEST JUMPDEST SWAP1 PUSH1 0x0 MSTORE PUSH1 0x20 PUSH1 0x0 KECCAK256 ADD PUSH1 0x0 SWAP1 SLOAD SWAP1 PUSH2 0x100 EXP SWAP1 DIV PUSH20 0xFFFFFFFFFFFFFFFFFFFFFFFFFFFFFFFFFFFFFFFF AND PUSH20 0xFFFFFFFFFFFFFFFFFFFFFFFFFFFFFFFFFFFFFFFF AND PUSH20 0xFFFFFFFFFFFFFFFFFFFFFFFFFFFFFFFFFFFFFFFF AND DUP2 MSTORE PUSH1 0x20 ADD SWAP1 DUP2 MSTORE PUSH1 0x20 ADD PUSH1 0x0 KECCAK256 DUP3 DUP2 SLOAD DUP2 LT PUSH2 0x15FD JUMPI PUSH2 0x15FC PUSH2 0x33CF JUMP JUMPDEST JUMPDEST SWAP1 PUSH1 0x0 MSTORE PUSH1 0x20 PUSH1 0x0 KECCAK256 SWAP1 PUSH1 0x4 MUL ADD PUSH1 0x0 ADD SLOAD SUB PUSH2 0x1E01 JUMPI PUSH1 0x3 PUSH1 0x0 PUSH1 0x1 DUP5 DUP2 SLOAD DUP2 LT PUSH2 0x162C JUMPI PUSH2 0x162B PUSH2 0x33CF JUMP JUMPDEST JUMPDEST SWAP1 PUSH1 0x0 MSTORE PUSH1 0x20 PUSH1 0x0 KECCAK256 ADD PUSH1 0x0 SWAP1 SLOAD SWAP1 PUSH2 0x100 EXP SWAP1 DIV PUSH20 0xFFFFFFFFFFFFFFFFFFFFFFFFFFFFFFFFFFFFFFFF AND PUSH20 0xFFFFFFFFFFFFFFFFFFFFFFFFFFFFFFFFFFFFFFFF AND PUSH20 0xFFFFFFFFFFFFFFFFFFFFFFFFFFFFFFFFFFFFFFFF AND DUP2 MSTORE PUSH1 0x20 ADD SWAP1 DUP2 MSTORE PUSH1 0x20 ADD PUSH1 0x0 KECCAK256 DUP2 DUP2 SLOAD DUP2 LT PUSH2 0x16A3 JUMPI PUSH2 0x16A2 PUSH2 0x33CF JUMP JUMPDEST JUMPDEST SWAP1 PUSH1 0x0 MSTORE PUSH1 0x20 PUSH1 0x0 KECCAK256 SWAP1 PUSH1 0x4 MUL ADD PUSH1 0x0 ADD SLOAD PUSH1 0x3 PUSH1 0x0 PUSH1 0x1 DUP6 DUP2 SLOAD DUP2 LT PUSH2 0x16CD JUMPI PUSH2 0x16CC PUSH2 0x33CF JUMP JUMPDEST JUMPDEST SWAP1 PUSH1 0x0 MSTORE PUSH1 0x20 PUSH1 0x0 KECCAK256 ADD PUSH1 0x0 SWAP1 SLOAD SWAP1 PUSH2 0x100 EXP SWAP1 DIV PUSH20 0xFFFFFFFFFFFFFFFFFFFFFFFFFFFFFFFFFFFFFFFF AND PUSH20 0xFFFFFFFFFFFFFFFFFFFFFFFFFFFFFFFFFFFFFFFF AND PUSH20 0xFFFFFFFFFFFFFFFFFFFFFFFFFFFFFFFFFFFFFFFF AND DUP2 MSTORE PUSH1 0x20 ADD SWAP1 DUP2 MSTORE PUSH1 0x20 ADD PUSH1 0x0 KECCAK256 DUP3 DUP2 SLOAD DUP2 LT PUSH2 0x1744 JUMPI PUSH2 0x1743 PUSH2 0x33CF JUMP JUMPDEST JUMPDEST SWAP1 PUSH1 0x0 MSTORE PUSH1 0x20 PUSH1 0x0 KECCAK256 SWAP1 PUSH1 0x4 MUL ADD PUSH1 0x1 ADD PUSH1 0x3 PUSH1 0x0 PUSH1 0x1 DUP7 DUP2 SLOAD DUP2 LT PUSH2 0x176D JUMPI PUSH2 0x176C PUSH2 0x33CF JUMP JUMPDEST JUMPDEST SWAP1 PUSH1 0x0 MSTORE PUSH1 0x20 PUSH1 0x0 KECCAK256 ADD PUSH1 0x0 SWAP1 SLOAD SWAP1 PUSH2 0x100 EXP SWAP1 DIV PUSH20 0xFFFFFFFFFFFFFFFFFFFFFFFFFFFFFFFFFFFFFFFF AND PUSH20 0xFFFFFFFFFFFFFFFFFFFFFFFFFFFFFFFFFFFFFFFF AND PUSH20 0xFFFFFFFFFFFFFFFFFFFFFFFFFFFFFFFFFFFFFFFF AND DUP2 MSTORE PUSH1 0x20 ADD SWAP1 DUP2 MSTORE PUSH1 0x20 ADD PUSH1 0x0 KECCAK256 DUP4 DUP2 SLOAD DUP2 LT PUSH2 0x17E4 JUMPI PUSH2 0x17E3 PUSH2 0x33CF JUMP JUMPDEST JUMPDEST SWAP1 PUSH1 0x0 MSTORE PUSH1 0x20 PUSH1 0x0 KECCAK256 SWAP1 PUSH1 0x4 MUL ADD PUSH1 0x2 ADD PUSH1 0x3 PUSH1 0x0 PUSH1 0x1 DUP8 DUP2 SLOAD DUP2 LT PUSH2 0x180D JUMPI PUSH2 0x180C PUSH2 0x33CF JUMP JUMPDEST JUMPDEST SWAP1 PUSH1 0x0 MSTORE PUSH1 0x20 PUSH1 0x0 KECCAK256 ADD PUSH1 0x0 SWAP1 SLOAD SWAP1 PUSH2 0x100 EXP SWAP1 DIV PUSH20 0xFFFFFFFFFFFFFFFFFFFFFFFFFFFFFFFFFFFFFFFF AND PUSH20 0xFFFFFFFFFFFFFFFFFFFFFFFFFFFFFFFFFFFFFFFF AND PUSH20 0xFFFFFFFFFFFFFFFFFFFFFFFFFFFFFFFFFFFFFFFF AND DUP2 MSTORE PUSH1 0x20 ADD SWAP1 DUP2 MSTORE PUSH1 0x20 ADD PUSH1 0x0 KECCAK256 DUP5 DUP2 SLOAD DUP2 LT PUSH2 0x1884 JUMPI PUSH2 0x1883 PUSH2 0x33CF JUMP JUMPDEST JUMPDEST SWAP1 PUSH1 0x0 MSTORE PUSH1 0x20 PUSH1 0x0 KECCAK256 SWAP1 PUSH1 0x4 MUL ADD PUSH1 0x3 ADD SLOAD PUSH1 0x2 PUSH1 0x0 PUSH1 0x1 DUP9 DUP2 SLOAD DUP2 LT PUSH2 0x18AE JUMPI PUSH2 0x18AD PUSH2 0x33CF JUMP JUMPDEST JUMPDEST SWAP1 PUSH1 0x0 MSTORE PUSH1 0x20 PUSH1 0x0 KECCAK256 ADD PUSH1 0x0 SWAP1 SLOAD SWAP1 PUSH2 0x100 EXP SWAP1 DIV PUSH20 0xFFFFFFFFFFFFFFFFFFFFFFFFFFFFFFFFFFFFFFFF AND PUSH20 0xFFFFFFFFFFFFFFFFFFFFFFFFFFFFFFFFFFFFFFFF AND PUSH20 0xFFFFFFFFFFFFFFFFFFFFFFFFFFFFFFFFFFFFFFFF AND DUP2 MSTORE PUSH1 0x20 ADD SWAP1 DUP2 MSTORE PUSH1 0x20 ADD PUSH1 0x0 KECCAK256 PUSH1 0x1 ADD PUSH1 0x0 ADD PUSH1 0x2 PUSH1 0x0 PUSH1 0x1 DUP10 DUP2 SLOAD DUP2 LT PUSH2 0x1931 JUMPI PUSH2 0x1930 PUSH2 0x33CF JUMP JUMPDEST JUMPDEST SWAP1 PUSH1 0x0 MSTORE PUSH1 0x20 PUSH1 0x0 KECCAK256 ADD PUSH1 0x0 SWAP1 SLOAD SWAP1 PUSH2 0x100 EXP SWAP1 DIV PUSH20 0xFFFFFFFFFFFFFFFFFFFFFFFFFFFFFFFFFFFFFFFF AND PUSH20 0xFFFFFFFFFFFFFFFFFFFFFFFFFFFFFFFFFFFFFFFF AND PUSH20 0xFFFFFFFFFFFFFFFFFFFFFFFFFFFFFFFFFFFFFFFF AND DUP2 MSTORE PUSH1 0x20 ADD SWAP1 DUP2 MSTORE PUSH1 0x20 ADD PUSH1 0x0 KECCAK256 PUSH1 0x1 ADD PUSH1 0x2 ADD PUSH1 0x2 PUSH1 0x0 PUSH1 0x1 DUP11 DUP2 SLOAD DUP2 LT PUSH2 0x19B4 JUMPI PUSH2 0x19B3 PUSH2 0x33CF JUMP JUMPDEST JUMPDEST SWAP1 PUSH1 0x0 MSTORE PUSH1 0x20 PUSH1 0x0 KECCAK256 ADD PUSH1 0x0 SWAP1 SLOAD SWAP1 PUSH2 0x100 EXP SWAP1 DIV PUSH20 0xFFFFFFFFFFFFFFFFFFFFFFFFFFFFFFFFFFFFFFFF AND PUSH20 0xFFFFFFFFFFFFFFFFFFFFFFFFFFFFFFFFFFFFFFFF AND PUSH20 0xFFFFFFFFFFFFFFFFFFFFFFFFFFFFFFFFFFFFFFFF AND DUP2 MSTORE PUSH1 0x20 ADD SWAP1 DUP2 MSTORE PUSH1 0x20 ADD PUSH1 0x0 KECCAK256 PUSH1 0x1 ADD PUSH1 0x1 ADD PUSH1 0x2 PUSH1 0x0 PUSH1 0x1 DUP12 DUP2 SLOAD DUP2 LT PUSH2 0x1A37 JUMPI PUSH2 0x1A36 PUSH2 0x33CF JUMP JUMPDEST JUMPDEST SWAP1 PUSH1 0x0 MSTORE PUSH1 0x20 PUSH1 0x0 KECCAK256 ADD PUSH1 0x0 SWAP1 SLOAD SWAP1 PUSH2 0x100 EXP SWAP1 DIV PUSH20 0xFFFFFFFFFFFFFFFFFFFFFFFFFFFFFFFFFFFFFFFF AND PUSH20 0xFFFFFFFFFFFFFFFFFFFFFFFFFFFFFFFFFFFFFFFF AND PUSH20 0xFFFFFFFFFFFFFFFFFFFFFFFFFFFFFFFFFFFFFFFF AND DUP2 MSTORE PUSH1 0x20 ADD SWAP1 DUP2 MSTORE PUSH1 0x20 ADD PUSH1 0x0 KECCAK256 PUSH1 0x1 ADD PUSH1 0x3 ADD DUP7 DUP1 SLOAD PUSH2 0x1AAE SWAP1 PUSH2 0x342D JUMP JUMPDEST DUP1 PUSH1 0x1F ADD PUSH1 0x20 DUP1 SWAP2 DIV MUL PUSH1 0x20 ADD PUSH1 0x40 MLOAD SWAP1 DUP2 ADD PUSH1 0x40 MSTORE DUP1 SWAP3 SWAP2 SWAP1 DUP2 DUP2 MSTORE PUSH1 0x20 ADD DUP3 DUP1 SLOAD PUSH2 0x1ADA SWAP1 PUSH2 0x342D JUMP JUMPDEST DUP1 ISZERO PUSH2 0x1B27 JUMPI DUP1 PUSH1 0x1F LT PUSH2 0x1AFC JUMPI PUSH2 0x100 DUP1 DUP4 SLOAD DIV MUL DUP4 MSTORE SWAP2 PUSH1 0x20 ADD SWAP2 PUSH2 0x1B27 JUMP JUMPDEST DUP3 ADD SWAP2 SWAP1 PUSH1 0x0 MSTORE PUSH1 0x20 PUSH1 0x0 KECCAK256 SWAP1 JUMPDEST DUP2 SLOAD DUP2 MSTORE SWAP1 PUSH1 0x1 ADD SWAP1 PUSH1 0x20 ADD DUP1 DUP4 GT PUSH2 0x1B0A JUMPI DUP3 SWAP1 SUB PUSH1 0x1F AND DUP3 ADD SWAP2 JUMPDEST POP POP POP POP POP SWAP7 POP DUP6 DUP1 SLOAD PUSH2 0x1B3A SWAP1 PUSH2 0x342D JUMP JUMPDEST DUP1 PUSH1 0x1F ADD PUSH1 0x20 DUP1 SWAP2 DIV MUL PUSH1 0x20 ADD PUSH1 0x40 MLOAD SWAP1 DUP2 ADD PUSH1 0x40 MSTORE DUP1 SWAP3 SWAP2 SWAP1 DUP2 DUP2 MSTORE PUSH1 0x20 ADD DUP3 DUP1 SLOAD PUSH2 0x1B66 SWAP1 PUSH2 0x342D JUMP JUMPDEST DUP1 ISZERO PUSH2 0x1BB3 JUMPI DUP1 PUSH1 0x1F LT PUSH2 0x1B88 JUMPI PUSH2 0x100 DUP1 DUP4 SLOAD DIV MUL DUP4 MSTORE SWAP2 PUSH1 0x20 ADD SWAP2 PUSH2 0x1BB3 JUMP JUMPDEST DUP3 ADD SWAP2 SWAP1 PUSH1 0x0 MSTORE PUSH1 0x20 PUSH1 0x0 KECCAK256 SWAP1 JUMPDEST DUP2 SLOAD DUP2 MSTORE SWAP1 PUSH1 0x1 ADD SWAP1 PUSH1 0x20 ADD DUP1 DUP4 GT PUSH2 0x1B96 JUMPI DUP3 SWAP1 SUB PUSH1 0x1F AND DUP3 ADD SWAP2 JUMPDEST POP POP POP POP POP SWAP6 POP DUP4 DUP1 SLOAD PUSH2 0x1BC6 SWAP1 PUSH2 0x342D JUMP JUMPDEST DUP1 PUSH1 0x1F ADD PUSH1 0x20 DUP1 SWAP2 DIV MUL PUSH1 0x20 ADD PUSH1 0x40 MLOAD SWAP1 DUP2 ADD PUSH1 0x40 MSTORE DUP1 SWAP3 SWAP2 SWAP1 DUP2 DUP2 MSTORE PUSH1 0x20 ADD DUP3 DUP1 SLOAD PUSH2 0x1BF2 SWAP1 PUSH2 0x342D JUMP JUMPDEST DUP1 ISZERO PUSH2 0x1C3F JUMPI DUP1 PUSH1 0x1F LT PUSH2 0x1C14 JUMPI PUSH2 0x100 DUP1 DUP4 SLOAD DIV MUL DUP4 MSTORE SWAP2 PUSH1 0x20 ADD SWAP2 PUSH2 0x1C3F JUMP JUMPDEST DUP3 ADD SWAP2 SWAP1 PUSH1 0x0 MSTORE PUSH1 0x20 PUSH1 0x0 KECCAK256 SWAP1 JUMPDEST DUP2 SLOAD DUP2 MSTORE SWAP1 PUSH1 0x1 ADD SWAP1 PUSH1 0x20 ADD DUP1 DUP4 GT PUSH2 0x1C22 JUMPI DUP3 SWAP1 SUB PUSH1 0x1F AND DUP3 ADD SWAP2 JUMPDEST POP POP POP POP POP SWAP4 POP DUP3 DUP1 SLOAD PUSH2 0x1C52 SWAP1 PUSH2 0x342D JUMP JUMPDEST DUP1 PUSH1 0x1F ADD PUSH1 0x20 DUP1 SWAP2 DIV MUL PUSH1 0x20 ADD PUSH1 0x40 MLOAD SWAP1 DUP2 ADD PUSH1 0x40 MSTORE DUP1 SWAP3 SWAP2 SWAP1 DUP2 DUP2 MSTORE PUSH1 0x20 ADD DUP3 DUP1 SLOAD PUSH2 0x1C7E SWAP1 PUSH2 0x342D JUMP JUMPDEST DUP1 ISZERO PUSH2 0x1CCB JUMPI DUP1 PUSH1 0x1F LT PUSH2 0x1CA0 JUMPI PUSH2 0x100 DUP1 DUP4 SLOAD DIV MUL DUP4 MSTORE SWAP2 PUSH1 0x20 ADD SWAP2 PUSH2 0x1CCB JUMP JUMPDEST DUP3 ADD SWAP2 SWAP1 PUSH1 0x0 MSTORE PUSH1 0x20 PUSH1 0x0 KECCAK256 SWAP1 JUMPDEST DUP2 SLOAD DUP2 MSTORE SWAP1 PUSH1 0x1 ADD SWAP1 PUSH1 0x20 ADD DUP1 DUP4 GT PUSH2 0x1CAE JUMPI DUP3 SWAP1 SUB PUSH1 0x1F AND DUP3 ADD SWAP2 JUMPDEST POP POP POP POP POP SWAP3 POP DUP2 DUP1 SLOAD PUSH2 0x1CDE SWAP1 PUSH2 0x342D JUMP JUMPDEST DUP1 PUSH1 0x1F ADD PUSH1 0x20 DUP1 SWAP2 DIV MUL PUSH1 0x20 ADD PUSH1 0x40 MLOAD SWAP1 DUP2 ADD PUSH1 0x40 MSTORE DUP1 SWAP3 SWAP2 SWAP1 DUP2 DUP2 MSTORE PUSH1 0x20 ADD DUP3 DUP1 SLOAD PUSH2 0x1D0A SWAP1 PUSH2 0x342D JUMP JUMPDEST DUP1 ISZERO PUSH2 0x1D57 JUMPI DUP1 PUSH1 0x1F LT PUSH2 0x1D2C JUMPI PUSH2 0x100 DUP1 DUP4 SLOAD DIV MUL DUP4 MSTORE SWAP2 PUSH1 0x20 ADD SWAP2 PUSH2 0x1D57 JUMP JUMPDEST DUP3 ADD SWAP2 SWAP1 PUSH1 0x0 MSTORE PUSH1 0x20 PUSH1 0x0 KECCAK256 SWAP1 JUMPDEST DUP2 SLOAD DUP2 MSTORE SWAP1 PUSH1 0x1 ADD SWAP1 PUSH1 0x20 ADD DUP1 DUP4 GT PUSH2 0x1D3A JUMPI DUP3 SWAP1 SUB PUSH1 0x1F AND DUP3 ADD SWAP2 JUMPDEST POP POP POP POP POP SWAP2 POP DUP1 DUP1 SLOAD PUSH2 0x1D6A SWAP1 PUSH2 0x342D JUMP JUMPDEST DUP1 PUSH1 0x1F ADD PUSH1 0x20 DUP1 SWAP2 DIV MUL PUSH1 0x20 ADD PUSH1 0x40 MLOAD SWAP1 DUP2 ADD PUSH1 0x40 MSTORE DUP1 SWAP3 SWAP2 SWAP1 DUP2 DUP2 MSTORE PUSH1 0x20 ADD DUP3 DUP1 SLOAD PUSH2 0x1D96 SWAP1 PUSH2 0x342D JUMP JUMPDEST DUP1 ISZERO PUSH2 0x1DE3 JUMPI DUP1 PUSH1 0x1F LT PUSH2 0x1DB8 JUMPI PUSH2 0x100 DUP1 DUP4 SLOAD DIV MUL DUP4 MSTORE SWAP2 PUSH1 0x20 ADD SWAP2 PUSH2 0x1DE3 JUMP JUMPDEST DUP3 ADD SWAP2 SWAP1 PUSH1 0x0 MSTORE PUSH1 0x20 PUSH1 0x0 KECCAK256 SWAP1 JUMPDEST DUP2 SLOAD DUP2 MSTORE SWAP1 PUSH1 0x1 ADD SWAP1 PUSH1 0x20 ADD DUP1 DUP4 GT PUSH2 0x1DC6 JUMPI DUP3 SWAP1 SUB PUSH1 0x1F AND DUP3 ADD SWAP2 JUMPDEST POP POP POP POP POP SWAP1 POP SWAP10 POP SWAP10 POP SWAP10 POP SWAP10 POP SWAP10 POP SWAP10 POP SWAP10 POP SWAP10 POP POP POP PUSH2 0x1E58 JUMP JUMPDEST DUP1 DUP1 PUSH1 0x1 ADD SWAP2 POP POP PUSH2 0x14E5 JUMP JUMPDEST POP DUP1 DUP1 PUSH1 0x1 ADD SWAP2 POP POP PUSH2 0x14D8 JUMP JUMPDEST POP PUSH1 0x40 MLOAD PUSH32 0x8C379A000000000000000000000000000000000000000000000000000000000 DUP2 MSTORE PUSH1 0x4 ADD PUSH2 0x1E4F SWAP1 PUSH2 0x3899 JUMP JUMPDEST PUSH1 0x40 MLOAD DUP1 SWAP2 SUB SWAP1 REVERT JUMPDEST SWAP2 SWAP4 SWAP6 SWAP8 POP SWAP2 SWAP4 SWAP6 SWAP8 JUMP JUMPDEST PUSH1 0x0 PUSH1 0x4 DUP3 PUSH1 0x40 MLOAD PUSH2 0x1E75 SWAP2 SWAP1 PUSH2 0x3747 JUMP JUMPDEST SWAP1 DUP2 MSTORE PUSH1 0x20 ADD PUSH1 0x40 MLOAD DUP1 SWAP2 SUB SWAP1 KECCAK256 PUSH1 0x0 SWAP1 SLOAD SWAP1 PUSH2 0x100 EXP SWAP1 DIV PUSH20 0xFFFFFFFFFFFFFFFFFFFFFFFFFFFFFFFFFFFFFFFF AND SWAP1 POP SWAP2 SWAP1 POP JUMP JUMPDEST PUSH1 0x60 DUP1 PUSH1 0x60 PUSH2 0x1EB9 CALLER PUSH2 0x497 JUMP JUMPDEST SWAP3 POP SWAP3 POP SWAP3 POP SWAP1 SWAP2 SWAP3 JUMP JUMPDEST PUSH1 0x60 PUSH1 0x0 JUMPDEST PUSH1 0x3 PUSH1 0x0 DUP5 PUSH20 0xFFFFFFFFFFFFFFFFFFFFFFFFFFFFFFFFFFFFFFFF AND PUSH20 0xFFFFFFFFFFFFFFFFFFFFFFFFFFFFFFFFFFFFFFFF AND DUP2 MSTORE PUSH1 0x20 ADD SWAP1 DUP2 MSTORE PUSH1 0x20 ADD PUSH1 0x0 KECCAK256 DUP1 SLOAD SWAP1 POP DUP2 LT ISZERO PUSH2 0x207C JUMPI DUP4 PUSH1 0x3 PUSH1 0x0 DUP6 PUSH20 0xFFFFFFFFFFFFFFFFFFFFFFFFFFFFFFFFFFFFFFFF AND PUSH20 0xFFFFFFFFFFFFFFFFFFFFFFFFFFFFFFFFFFFFFFFF AND DUP2 MSTORE PUSH1 0x20 ADD SWAP1 DUP2 MSTORE PUSH1 0x20 ADD PUSH1 0x0 KECCAK256 DUP3 DUP2 SLOAD DUP2 LT PUSH2 0x1F65 JUMPI PUSH2 0x1F64 PUSH2 0x33CF JUMP JUMPDEST JUMPDEST SWAP1 PUSH1 0x0 MSTORE PUSH1 0x20 PUSH1 0x0 KECCAK256 SWAP1 PUSH1 0x4 MUL ADD PUSH1 0x0 ADD SLOAD SUB PUSH2 0x206F JUMPI PUSH1 0x3 PUSH1 0x0 DUP5 PUSH20 0xFFFFFFFFFFFFFFFFFFFFFFFFFFFFFFFFFFFFFFFF AND PUSH20 0xFFFFFFFFFFFFFFFFFFFFFFFFFFFFFFFFFFFFFFFF AND DUP2 MSTORE PUSH1 0x20 ADD SWAP1 DUP2 MSTORE PUSH1 0x20 ADD PUSH1 0x0 KECCAK256 DUP2 DUP2 SLOAD DUP2 LT PUSH2 0x1FCD JUMPI PUSH2 0x1FCC PUSH2 0x33CF JUMP JUMPDEST JUMPDEST SWAP1 PUSH1 0x0 MSTORE PUSH1 0x20 PUSH1 0x0 KECCAK256 SWAP1 PUSH1 0x4 MUL ADD PUSH1 0x1 ADD DUP1 SLOAD PUSH2 0x1FE9 SWAP1 PUSH2 0x342D JUMP JUMPDEST DUP1 PUSH1 0x1F ADD PUSH1 0x20 DUP1 SWAP2 DIV MUL PUSH1 0x20 ADD PUSH1 0x40 MLOAD SWAP1 DUP2 ADD PUSH1 0x40 MSTORE DUP1 SWAP3 SWAP2 SWAP1 DUP2 DUP2 MSTORE PUSH1 0x20 ADD DUP3 DUP1 SLOAD PUSH2 0x2015 SWAP1 PUSH2 0x342D JUMP JUMPDEST DUP1 ISZERO PUSH2 0x2062 JUMPI DUP1 PUSH1 0x1F LT PUSH2 0x2037 JUMPI PUSH2 0x100 DUP1 DUP4 SLOAD DIV MUL DUP4 MSTORE SWAP2 PUSH1 0x20 ADD SWAP2 PUSH2 0x2062 JUMP JUMPDEST DUP3 ADD SWAP2 SWAP1 PUSH1 0x0 MSTORE PUSH1 0x20 PUSH1 0x0 KECCAK256 SWAP1 JUMPDEST DUP2 SLOAD DUP2 MSTORE SWAP1 PUSH1 0x1 ADD SWAP1 PUSH1 0x20 ADD DUP1 DUP4 GT PUSH2 0x2045 JUMPI DUP3 SWAP1 SUB PUSH1 0x1F AND DUP3 ADD SWAP2 JUMPDEST POP POP POP POP POP SWAP2 POP POP PUSH2 0x20B8 JUMP JUMPDEST DUP1 DUP1 PUSH1 0x1 ADD SWAP2 POP POP PUSH2 0x1EC9 JUMP JUMPDEST POP PUSH1 0x40 MLOAD PUSH32 0x8C379A000000000000000000000000000000000000000000000000000000000 DUP2 MSTORE PUSH1 0x4 ADD PUSH2 0x20AF SWAP1 PUSH2 0x3899 JUMP JUMPDEST PUSH1 0x40 MLOAD DUP1 SWAP2 SUB SWAP1 REVERT JUMPDEST SWAP3 SWAP2 POP POP JUMP JUMPDEST PUSH1 0x0 PUSH1 0x3 PUSH1 0x0 CALLER PUSH20 0xFFFFFFFFFFFFFFFFFFFFFFFFFFFFFFFFFFFFFFFF AND PUSH20 0xFFFFFFFFFFFFFFFFFFFFFFFFFFFFFFFFFFFFFFFF AND DUP2 MSTORE PUSH1 0x20 ADD SWAP1 DUP2 MSTORE PUSH1 0x20 ADD PUSH1 0x0 KECCAK256 DUP1 SLOAD SWAP1 POP SWAP1 POP SWAP1 JUMP JUMPDEST PUSH1 0x60 DUP1 PUSH1 0x60 PUSH1 0x2 PUSH1 0x0 CALLER PUSH20 0xFFFFFFFFFFFFFFFFFFFFFFFFFFFFFFFFFFFFFFFF AND PUSH20 0xFFFFFFFFFFFFFFFFFFFFFFFFFFFFFFFFFFFFFFFF AND DUP2 MSTORE PUSH1 0x20 ADD SWAP1 DUP2 MSTORE PUSH1 0x20 ADD PUSH1 0x0 KECCAK256 PUSH1 0x1 ADD PUSH1 0x2 ADD PUSH1 0x2 PUSH1 0x0 CALLER PUSH20 0xFFFFFFFFFFFFFFFFFFFFFFFFFFFFFFFFFFFFFFFF AND PUSH20 0xFFFFFFFFFFFFFFFFFFFFFFFFFFFFFFFFFFFFFFFF AND DUP2 MSTORE PUSH1 0x20 ADD SWAP1 DUP2 MSTORE PUSH1 0x20 ADD PUSH1 0x0 KECCAK256 PUSH1 0x1 ADD PUSH1 0x0 ADD PUSH1 0x2 PUSH1 0x0 CALLER PUSH20 0xFFFFFFFFFFFFFFFFFFFFFFFFFFFFFFFFFFFFFFFF AND PUSH20 0xFFFFFFFFFFFFFFFFFFFFFFFFFFFFFFFFFFFFFFFF AND DUP2 MSTORE PUSH1 0x20 ADD SWAP1 DUP2 MSTORE PUSH1 0x20 ADD PUSH1 0x0 KECCAK256 PUSH1 0x1 ADD PUSH1 0x1 ADD DUP3 DUP1 SLOAD PUSH2 0x21E8 SWAP1 PUSH2 0x342D JUMP JUMPDEST DUP1 PUSH1 0x1F ADD PUSH1 0x20 DUP1 SWAP2 DIV MUL PUSH1 0x20 ADD PUSH1 0x40 MLOAD SWAP1 DUP2 ADD PUSH1 0x40 MSTORE DUP1 SWAP3 SWAP2 SWAP1 DUP2 DUP2 MSTORE PUSH1 0x20 ADD DUP3 DUP1 SLOAD PUSH2 0x2214 SWAP1 PUSH2 0x342D JUMP JUMPDEST DUP1 ISZERO PUSH2 0x2261 JUMPI DUP1 PUSH1 0x1F LT PUSH2 0x2236 JUMPI PUSH2 0x100 DUP1 DUP4 SLOAD DIV MUL DUP4 MSTORE SWAP2 PUSH1 0x20 ADD SWAP2 PUSH2 0x2261 JUMP JUMPDEST DUP3 ADD SWAP2 SWAP1 PUSH1 0x0 MSTORE PUSH1 0x20 PUSH1 0x0 KECCAK256 SWAP1 JUMPDEST DUP2 SLOAD DUP2 MSTORE SWAP1 PUSH1 0x1 ADD SWAP1 PUSH1 0x20 ADD DUP1 DUP4 GT PUSH2 0x2244 JUMPI DUP3 SWAP1 SUB PUSH1 0x1F AND DUP3 ADD SWAP2 JUMPDEST POP POP POP POP POP SWAP3 POP DUP2 DUP1 SLOAD PUSH2 0x2274 SWAP1 PUSH2 0x342D JUMP JUMPDEST DUP1 PUSH1 0x1F ADD PUSH1 0x20 DUP1 SWAP2 DIV MUL PUSH1 0x20 ADD PUSH1 0x40 MLOAD SWAP1 DUP2 ADD PUSH1 0x40 MSTORE DUP1 SWAP3 SWAP2 SWAP1 DUP2 DUP2 MSTORE PUSH1 0x20 ADD DUP3 DUP1 SLOAD PUSH2 0x22A0 SWAP1 PUSH2 0x342D JUMP JUMPDEST DUP1 ISZERO PUSH2 0x22ED JUMPI DUP1 PUSH1 0x1F LT PUSH2 0x22C2 JUMPI PUSH2 0x100 DUP1 DUP4 SLOAD DIV MUL DUP4 MSTORE SWAP2 PUSH1 0x20 ADD SWAP2 PUSH2 0x22ED JUMP JUMPDEST DUP3 ADD SWAP2 SWAP1 PUSH1 0x0 MSTORE PUSH1 0x20 PUSH1 0x0 KECCAK256 SWAP1 JUMPDEST DUP2 SLOAD DUP2 MSTORE SWAP1 PUSH1 0x1 ADD SWAP1 PUSH1 0x20 ADD DUP1 DUP4 GT PUSH2 0x22D0 JUMPI DUP3 SWAP1 SUB PUSH1 0x1F AND DUP3 ADD SWAP2 JUMPDEST POP POP POP POP POP SWAP2 POP DUP1 DUP1 SLOAD PUSH2 0x2300 SWAP1 PUSH2 0x342D JUMP JUMPDEST DUP1 PUSH1 0x1F ADD PUSH1 0x20 DUP1 SWAP2 DIV MUL PUSH1 0x20 ADD PUSH1 0x40 MLOAD SWAP1 DUP2 ADD PUSH1 0x40 MSTORE DUP1 SWAP3 SWAP2 SWAP1 DUP2 DUP2 MSTORE PUSH1 0x20 ADD DUP3 DUP1 SLOAD PUSH2 0x232C SWAP1 PUSH2 0x342D JUMP JUMPDEST DUP1 ISZERO PUSH2 0x2379 JUMPI DUP1 PUSH1 0x1F LT PUSH2 0x234E JUMPI PUSH2 0x100 DUP1 DUP4 SLOAD DIV MUL DUP4 MSTORE SWAP2 PUSH1 0x20 ADD SWAP2 PUSH2 0x2379 JUMP JUMPDEST DUP3 ADD SWAP2 SWAP1 PUSH1 0x0 MSTORE PUSH1 0x20 PUSH1 0x0 KECCAK256 SWAP1 JUMPDEST DUP2 SLOAD DUP2 MSTORE SWAP1 PUSH1 0x1 ADD SWAP1 PUSH1 0x20 ADD DUP1 DUP4 GT PUSH2 0x235C JUMPI DUP3 SWAP1 SUB PUSH1 0x1F AND DUP3 ADD SWAP2 JUMPDEST POP POP POP POP POP SWAP1 POP SWAP3 POP SWAP3 POP SWAP3 POP SWAP1 SWAP2 SWAP3 JUMP JUMPDEST PUSH1 0x0 DUP1 PUSH20 0xFFFFFFFFFFFFFFFFFFFFFFFFFFFFFFFFFFFFFFFF AND PUSH1 0x4 DUP4 PUSH1 0x40 MLOAD PUSH2 0x23B4 SWAP2 SWAP1 PUSH2 0x3747 JUMP JUMPDEST SWAP1 DUP2 MSTORE PUSH1 0x20 ADD PUSH1 0x40 MLOAD DUP1 SWAP2 SUB SWAP1 KECCAK256 PUSH1 0x0 SWAP1 SLOAD SWAP1 PUSH2 0x100 EXP SWAP1 DIV PUSH20 0xFFFFFFFFFFFFFFFFFFFFFFFFFFFFFFFFFFFFFFFF AND PUSH20 0xFFFFFFFFFFFFFFFFFFFFFFFFFFFFFFFFFFFFFFFF AND EQ ISZERO DUP1 ISZERO PUSH2 0x24A8 JUMPI POP PUSH1 0x2 DUP1 PUSH1 0x0 PUSH1 0x4 DUP6 PUSH1 0x40 MLOAD PUSH2 0x2417 SWAP2 SWAP1 PUSH2 0x3747 JUMP JUMPDEST SWAP1 DUP2 MSTORE PUSH1 0x20 ADD PUSH1 0x40 MLOAD DUP1 SWAP2 SUB SWAP1 KECCAK256 PUSH1 0x0 SWAP1 SLOAD SWAP1 PUSH2 0x100 EXP SWAP1 DIV PUSH20 0xFFFFFFFFFFFFFFFFFFFFFFFFFFFFFFFFFFFFFFFF AND PUSH20 0xFFFFFFFFFFFFFFFFFFFFFFFFFFFFFFFFFFFFFFFF AND PUSH20 0xFFFFFFFFFFFFFFFFFFFFFFFFFFFFFFFFFFFFFFFF AND DUP2 MSTORE PUSH1 0x20 ADD SWAP1 DUP2 MSTORE PUSH1 0x20 ADD PUSH1 0x0 KECCAK256 PUSH1 0x0 ADD PUSH1 0x0 SWAP1 SLOAD SWAP1 PUSH2 0x100 EXP SWAP1 DIV PUSH1 0xFF AND PUSH1 0x3 DUP2 GT ISZERO PUSH2 0x24A3 JUMPI PUSH2 0x24A2 PUSH2 0x36DC JUMP JUMPDEST JUMPDEST PUSH1 0xFF AND EQ JUMPDEST ISZERO PUSH2 0x24B6 JUMPI PUSH1 0x1 SWAP1 POP PUSH2 0x24BB JUMP JUMPDEST PUSH1 0x0 SWAP1 POP JUMPDEST SWAP2 SWAP1 POP JUMP JUMPDEST PUSH1 0x60 DUP1 PUSH1 0x0 JUMPDEST PUSH1 0x3 PUSH1 0x0 CALLER PUSH20 0xFFFFFFFFFFFFFFFFFFFFFFFFFFFFFFFFFFFFFFFF AND PUSH20 0xFFFFFFFFFFFFFFFFFFFFFFFFFFFFFFFFFFFFFFFF AND DUP2 MSTORE PUSH1 0x20 ADD SWAP1 DUP2 MSTORE PUSH1 0x20 ADD PUSH1 0x0 KECCAK256 DUP1 SLOAD SWAP1 POP DUP2 LT ISZERO PUSH2 0x276C JUMPI DUP4 PUSH1 0x3 PUSH1 0x0 CALLER PUSH20 0xFFFFFFFFFFFFFFFFFFFFFFFFFFFFFFFFFFFFFFFF AND PUSH20 0xFFFFFFFFFFFFFFFFFFFFFFFFFFFFFFFFFFFFFFFF AND DUP2 MSTORE PUSH1 0x20 ADD SWAP1 DUP2 MSTORE PUSH1 0x20 ADD PUSH1 0x0 KECCAK256 DUP3 DUP2 SLOAD DUP2 LT PUSH2 0x2562 JUMPI PUSH2 0x2561 PUSH2 0x33CF JUMP JUMPDEST JUMPDEST SWAP1 PUSH1 0x0 MSTORE PUSH1 0x20 PUSH1 0x0 KECCAK256 SWAP1 PUSH1 0x4 MUL ADD PUSH1 0x0 ADD SLOAD SUB PUSH2 0x275F JUMPI PUSH1 0x3 PUSH1 0x0 CALLER PUSH20 0xFFFFFFFFFFFFFFFFFFFFFFFFFFFFFFFFFFFFFFFF AND PUSH20 0xFFFFFFFFFFFFFFFFFFFFFFFFFFFFFFFFFFFFFFFF AND DUP2 MSTORE PUSH1 0x20 ADD SWAP1 DUP2 MSTORE PUSH1 0x20 ADD PUSH1 0x0 KECCAK256 DUP2 DUP2 SLOAD DUP2 LT PUSH2 0x25CA JUMPI PUSH2 0x25C9 PUSH2 0x33CF JUMP JUMPDEST JUMPDEST SWAP1 PUSH1 0x0 MSTORE PUSH1 0x20 PUSH1 0x0 KECCAK256 SWAP1 PUSH1 0x4 MUL ADD PUSH1 0x1 ADD PUSH1 0x3 PUSH1 0x0 CALLER PUSH20 0xFFFFFFFFFFFFFFFFFFFFFFFFFFFFFFFFFFFFFFFF AND PUSH20 0xFFFFFFFFFFFFFFFFFFFFFFFFFFFFFFFFFFFFFFFF AND DUP2 MSTORE PUSH1 0x20 ADD SWAP1 DUP2 MSTORE PUSH1 0x20 ADD PUSH1 0x0 KECCAK256 DUP3 DUP2 SLOAD DUP2 LT PUSH2 0x262C JUMPI PUSH2 0x262B PUSH2 0x33CF JUMP JUMPDEST JUMPDEST SWAP1 PUSH1 0x0 MSTORE PUSH1 0x20 PUSH1 0x0 KECCAK256 SWAP1 PUSH1 0x4 MUL ADD PUSH1 0x2 ADD DUP2 DUP1 SLOAD PUSH2 0x2649 SWAP1 PUSH2 0x342D JUMP JUMPDEST DUP1 PUSH1 0x1F ADD PUSH1 0x20 DUP1 SWAP2 DIV MUL PUSH1 0x20 ADD PUSH1 0x40 MLOAD SWAP1 DUP2 ADD PUSH1 0x40 MSTORE DUP1 SWAP3 SWAP2 SWAP1 DUP2 DUP2 MSTORE PUSH1 0x20 ADD DUP3 DUP1 SLOAD PUSH2 0x2675 SWAP1 PUSH2 0x342D JUMP JUMPDEST DUP1 ISZERO PUSH2 0x26C2 JUMPI DUP1 PUSH1 0x1F LT PUSH2 0x2697 JUMPI PUSH2 0x100 DUP1 DUP4 SLOAD DIV MUL DUP4 MSTORE SWAP2 PUSH1 0x20 ADD SWAP2 PUSH2 0x26C2 JUMP JUMPDEST DUP3 ADD SWAP2 SWAP1 PUSH1 0x0 MSTORE PUSH1 0x20 PUSH1 0x0 KECCAK256 SWAP1 JUMPDEST DUP2 SLOAD DUP2 MSTORE SWAP1 PUSH1 0x1 ADD SWAP1 PUSH1 0x20 ADD DUP1 DUP4 GT PUSH2 0x26A5 JUMPI DUP3 SWAP1 SUB PUSH1 0x1F AND DUP3 ADD SWAP2 JUMPDEST POP POP POP POP POP SWAP2 POP DUP1 DUP1 SLOAD PUSH2 0x26D5 SWAP1 PUSH2 0x342D JUMP JUMPDEST DUP1 PUSH1 0x1F ADD PUSH1 0x20 DUP1 SWAP2 DIV MUL PUSH1 0x20 ADD PUSH1 0x40 MLOAD SWAP1 DUP2 ADD PUSH1 0x40 MSTORE DUP1 SWAP3 SWAP2 SWAP1 DUP2 DUP2 MSTORE PUSH1 0x20 ADD DUP3 DUP1 SLOAD PUSH2 0x2701 SWAP1 PUSH2 0x342D JUMP JUMPDEST DUP1 ISZERO PUSH2 0x274E JUMPI DUP1 PUSH1 0x1F LT PUSH2 0x2723 JUMPI PUSH2 0x100 DUP1 DUP4 SLOAD DIV MUL DUP4 MSTORE SWAP2 PUSH1 0x20 ADD SWAP2 PUSH2 0x274E JUMP JUMPDEST DUP3 ADD SWAP2 SWAP1 PUSH1 0x0 MSTORE PUSH1 0x20 PUSH1 0x0 KECCAK256 SWAP1 JUMPDEST DUP2 SLOAD DUP2 MSTORE SWAP1 PUSH1 0x1 ADD SWAP1 PUSH1 0x20 ADD DUP1 DUP4 GT PUSH2 0x2731 JUMPI DUP3 SWAP1 SUB PUSH1 0x1F AND DUP3 ADD SWAP2 JUMPDEST POP POP POP POP POP SWAP1 POP SWAP3 POP SWAP3 POP POP PUSH2 0x27A8 JUMP JUMPDEST DUP1 DUP1 PUSH1 0x1 ADD SWAP2 POP POP PUSH2 0x24C6 JUMP JUMPDEST POP PUSH1 0x40 MLOAD PUSH32 0x8C379A000000000000000000000000000000000000000000000000000000000 DUP2 MSTORE PUSH1 0x4 ADD PUSH2 0x279F SWAP1 PUSH2 0x3899 JUMP JUMPDEST PUSH1 0x40 MLOAD DUP1 SWAP2 SUB SWAP1 REVERT JUMPDEST SWAP2 POP SWAP2 JUMP JUMPDEST PUSH1 0x0 DUP1 PUSH1 0x0 SWAP1 POP JUMPDEST PUSH1 0x3 PUSH1 0x0 DUP5 PUSH20 0xFFFFFFFFFFFFFFFFFFFFFFFFFFFFFFFFFFFFFFFF AND PUSH20 0xFFFFFFFFFFFFFFFFFFFFFFFFFFFFFFFFFFFFFFFF AND DUP2 MSTORE PUSH1 0x20 ADD SWAP1 DUP2 MSTORE PUSH1 0x20 ADD PUSH1 0x0 KECCAK256 DUP1 SLOAD SWAP1 POP DUP2 LT ISZERO PUSH2 0x287E JUMPI DUP4 PUSH1 0x3 PUSH1 0x0 DUP6 PUSH20 0xFFFFFFFFFFFFFFFFFFFFFFFFFFFFFFFFFFFFFFFF AND PUSH20 0xFFFFFFFFFFFFFFFFFFFFFFFFFFFFFFFFFFFFFFFF AND DUP2 MSTORE PUSH1 0x20 ADD SWAP1 DUP2 MSTORE PUSH1 0x20 ADD PUSH1 0x0 KECCAK256 DUP3 DUP2 SLOAD DUP2 LT PUSH2 0x2851 JUMPI PUSH2 0x2850 PUSH2 0x33CF JUMP JUMPDEST JUMPDEST SWAP1 PUSH1 0x0 MSTORE PUSH1 0x20 PUSH1 0x0 KECCAK256 SWAP1 PUSH1 0x4 MUL ADD PUSH1 0x0 ADD SLOAD SUB PUSH2 0x2871 JUMPI DUP1 SWAP2 POP POP PUSH2 0x28BA JUMP JUMPDEST DUP1 DUP1 PUSH1 0x1 ADD SWAP2 POP POP PUSH2 0x27B5 JUMP JUMPDEST POP PUSH1 0x40 MLOAD PUSH32 0x8C379A000000000000000000000000000000000000000000000000000000000 DUP2 MSTORE PUSH1 0x4 ADD PUSH2 0x28B1 SWAP1 PUSH2 0x3899 JUMP JUMPDEST PUSH1 0x40 MLOAD DUP1 SWAP2 SUB SWAP1 REVERT JUMPDEST SWAP3 SWAP2 POP POP JUMP JUMPDEST PUSH1 0x0 DUP1 PUSH1 0x0 SWAP1 POP JUMPDEST PUSH1 0x3 PUSH1 0x0 CALLER PUSH20 0xFFFFFFFFFFFFFFFFFFFFFFFFFFFFFFFFFFFFFFFF AND PUSH20 0xFFFFFFFFFFFFFFFFFFFFFFFFFFFFFFFFFFFFFFFF AND DUP2 MSTORE PUSH1 0x20 ADD SWAP1 DUP2 MSTORE PUSH1 0x20 ADD PUSH1 0x0 KECCAK256 DUP1 SLOAD SWAP1 POP DUP2 LT ISZERO PUSH2 0x2992 JUMPI DUP3 PUSH1 0x3 PUSH1 0x0 CALLER PUSH20 0xFFFFFFFFFFFFFFFFFFFFFFFFFFFFFFFFFFFFFFFF AND PUSH20 0xFFFFFFFFFFFFFFFFFFFFFFFFFFFFFFFFFFFFFFFF AND DUP2 MSTORE PUSH1 0x20 ADD SWAP1 DUP2 MSTORE PUSH1 0x20 ADD PUSH1 0x0 KECCAK256 DUP3 DUP2 SLOAD DUP2 LT PUSH2 0x2964 JUMPI PUSH2 0x2963 PUSH2 0x33CF JUMP JUMPDEST JUMPDEST SWAP1 PUSH1 0x0 MSTORE PUSH1 0x20 PUSH1 0x0 KECCAK256 SWAP1 PUSH1 0x4 MUL ADD PUSH1 0x0 ADD SLOAD SUB PUSH2 0x2985 JUMPI PUSH1 0x1 SWAP2 POP POP PUSH2 0x2998 JUMP JUMPDEST DUP1 DUP1 PUSH1 0x1 ADD SWAP2 POP POP PUSH2 0x28C8 JUMP JUMPDEST POP PUSH1 0x0 SWAP1 POP JUMPDEST SWAP2 SWAP1 POP JUMP JUMPDEST PUSH1 0x0 PUSH1 0x40 MLOAD SWAP1 POP SWAP1 JUMP JUMPDEST PUSH1 0x0 DUP1 REVERT JUMPDEST PUSH1 0x0 DUP1 REVERT JUMPDEST PUSH1 0x0 PUSH20 0xFFFFFFFFFFFFFFFFFFFFFFFFFFFFFFFFFFFFFFFF DUP3 AND SWAP1 POP SWAP2 SWAP1 POP JUMP JUMPDEST PUSH1 0x0 PUSH2 0x29DC DUP3 PUSH2 0x29B1 JUMP JUMPDEST SWAP1 POP SWAP2 SWAP1 POP JUMP JUMPDEST PUSH2 0x29EC DUP2 PUSH2 0x29D1 JUMP JUMPDEST DUP2 EQ PUSH2 0x29F7 JUMPI PUSH1 0x0 DUP1 REVERT JUMPDEST POP JUMP JUMPDEST PUSH1 0x0 DUP2 CALLDATALOAD SWAP1 POP PUSH2 0x2A09 DUP2 PUSH2 0x29E3 JUMP JUMPDEST SWAP3 SWAP2 POP POP JUMP JUMPDEST PUSH1 0x0 PUSH1 0x20 DUP3 DUP5 SUB SLT ISZERO PUSH2 0x2A25 JUMPI PUSH2 0x2A24 PUSH2 0x29A7 JUMP JUMPDEST JUMPDEST PUSH1 0x0 PUSH2 0x2A33 DUP5 DUP3 DUP6 ADD PUSH2 0x29FA JUMP JUMPDEST SWAP2 POP POP SWAP3 SWAP2 POP POP JUMP JUMPDEST PUSH1 0x0 DUP2 MLOAD SWAP1 POP SWAP2 SWAP1 POP JUMP JUMPDEST PUSH1 0x0 DUP3 DUP3 MSTORE PUSH1 0x20 DUP3 ADD SWAP1 POP SWAP3 SWAP2 POP POP JUMP JUMPDEST PUSH1 0x0 DUP2 SWAP1 POP PUSH1 0x20 DUP3 ADD SWAP1 POP SWAP2 SWAP1 POP JUMP JUMPDEST PUSH1 0x0 DUP2 MLOAD SWAP1 POP SWAP2 SWAP1 POP JUMP JUMPDEST PUSH1 0x0 DUP3 DUP3 MSTORE PUSH1 0x20 DUP3 ADD SWAP1 POP SWAP3 SWAP2 POP POP JUMP JUMPDEST PUSH1 0x0 JUMPDEST DUP4 DUP2 LT ISZERO PUSH2 0x2AA2 JUMPI DUP1 DUP3 ADD MLOAD DUP2 DUP5 ADD MSTORE PUSH1 0x20 DUP2 ADD SWAP1 POP PUSH2 0x2A87 JUMP JUMPDEST PUSH1 0x0 DUP5 DUP5 ADD MSTORE POP POP POP POP JUMP JUMPDEST PUSH1 0x0 PUSH1 0x1F NOT PUSH1 0x1F DUP4 ADD AND SWAP1 POP SWAP2 SWAP1 POP JUMP JUMPDEST PUSH1 0x0 PUSH2 0x2ACA DUP3 PUSH2 0x2A68 JUMP JUMPDEST PUSH2 0x2AD4 DUP2 DUP6 PUSH2 0x2A73 JUMP JUMPDEST SWAP4 POP PUSH2 0x2AE4 DUP2 DUP6 PUSH1 0x20 DUP7 ADD PUSH2 0x2A84 JUMP JUMPDEST PUSH2 0x2AED DUP2 PUSH2 0x2AAE JUMP JUMPDEST DUP5 ADD SWAP2 POP POP SWAP3 SWAP2 POP POP JUMP JUMPDEST PUSH1 0x0 PUSH2 0x2B04 DUP4 DUP4 PUSH2 0x2ABF JUMP JUMPDEST SWAP1 POP SWAP3 SWAP2 POP POP JUMP JUMPDEST PUSH1 0x0 PUSH1 0x20 DUP3 ADD SWAP1 POP SWAP2 SWAP1 POP JUMP JUMPDEST PUSH1 0x0 PUSH2 0x2B24 DUP3 PUSH2 0x2A3C JUMP JUMPDEST PUSH2 0x2B2E DUP2 DUP6 PUSH2 0x2A47 JUMP JUMPDEST SWAP4 POP DUP4 PUSH1 0x20 DUP3 MUL DUP6 ADD PUSH2 0x2B40 DUP6 PUSH2 0x2A58 JUMP JUMPDEST DUP1 PUSH1 0x0 JUMPDEST DUP6 DUP2 LT ISZERO PUSH2 0x2B7C JUMPI DUP5 DUP5 SUB DUP10 MSTORE DUP2 MLOAD PUSH2 0x2B5D DUP6 DUP3 PUSH2 0x2AF8 JUMP JUMPDEST SWAP5 POP PUSH2 0x2B68 DUP4 PUSH2 0x2B0C JUMP JUMPDEST SWAP3 POP PUSH1 0x20 DUP11 ADD SWAP10 POP POP PUSH1 0x1 DUP2 ADD SWAP1 POP PUSH2 0x2B44 JUMP JUMPDEST POP DUP3 SWAP8 POP DUP8 SWAP6 POP POP POP POP POP POP SWAP3 SWAP2 POP POP JUMP JUMPDEST PUSH1 0x0 DUP2 MLOAD SWAP1 POP SWAP2 SWAP1 POP JUMP JUMPDEST PUSH1 0x0 DUP3 DUP3 MSTORE PUSH1 0x20 DUP3 ADD SWAP1 POP SWAP3 SWAP2 POP POP JUMP JUMPDEST PUSH1 0x0 DUP2 SWAP1 POP PUSH1 0x20 DUP3 ADD SWAP1 POP SWAP2 SWAP1 POP JUMP JUMPDEST PUSH1 0x0 DUP2 SWAP1 POP SWAP2 SWAP1 POP JUMP JUMPDEST PUSH2 0x2BCD DUP2 PUSH2 0x2BBA JUMP JUMPDEST DUP3 MSTORE POP POP JUMP JUMPDEST PUSH1 0x0 PUSH2 0x2BDF DUP4 DUP4 PUSH2 0x2BC4 JUMP JUMPDEST PUSH1 0x20 DUP4 ADD SWAP1 POP SWAP3 SWAP2 POP POP JUMP JUMPDEST PUSH1 0x0 PUSH1 0x20 DUP3 ADD SWAP1 POP SWAP2 SWAP1 POP JUMP JUMPDEST PUSH1 0x0 PUSH2 0x2C03 DUP3 PUSH2 0x2B8E JUMP JUMPDEST PUSH2 0x2C0D DUP2 DUP6 PUSH2 0x2B99 JUMP JUMPDEST SWAP4 POP PUSH2 0x2C18 DUP4 PUSH2 0x2BAA JUMP JUMPDEST DUP1 PUSH1 0x0 JUMPDEST DUP4 DUP2 LT ISZERO PUSH2 0x2C49 JUMPI DUP2 MLOAD PUSH2 0x2C30 DUP9 DUP3 PUSH2 0x2BD3 JUMP JUMPDEST SWAP8 POP PUSH2 0x2C3B DUP4 PUSH2 0x2BEB JUMP JUMPDEST SWAP3 POP POP PUSH1 0x1 DUP2 ADD SWAP1 POP PUSH2 0x2C1C JUMP JUMPDEST POP DUP6 SWAP4 POP POP POP POP SWAP3 SWAP2 POP POP JUMP JUMPDEST PUSH1 0x0 PUSH1 0x60 DUP3 ADD SWAP1 POP DUP2 DUP2 SUB PUSH1 0x0 DUP4 ADD MSTORE PUSH2 0x2C70 DUP2 DUP7 PUSH2 0x2B19 JUMP JUMPDEST SWAP1 POP DUP2 DUP2 SUB PUSH1 0x20 DUP4 ADD MSTORE PUSH2 0x2C84 DUP2 DUP6 PUSH2 0x2B19 JUMP JUMPDEST SWAP1 POP DUP2 DUP2 SUB PUSH1 0x40 DUP4 ADD MSTORE PUSH2 0x2C98 DUP2 DUP5 PUSH2 0x2BF8 JUMP JUMPDEST SWAP1 POP SWAP5 SWAP4 POP POP POP POP JUMP JUMPDEST PUSH1 0x0 DUP1 REVERT JUMPDEST PUSH1 0x0 DUP1 REVERT JUMPDEST PUSH32 0x4E487B7100000000000000000000000000000000000000000000000000000000 PUSH1 0x0 MSTORE PUSH1 0x41 PUSH1 0x4 MSTORE PUSH1 0x24 PUSH1 0x0 REVERT JUMPDEST PUSH2 0x2CE4 DUP3 PUSH2 0x2AAE JUMP JUMPDEST DUP2 ADD DUP2 DUP2 LT PUSH8 0xFFFFFFFFFFFFFFFF DUP3 GT OR ISZERO PUSH2 0x2D03 JUMPI PUSH2 0x2D02 PUSH2 0x2CAC JUMP JUMPDEST JUMPDEST DUP1 PUSH1 0x40 MSTORE POP POP POP JUMP JUMPDEST PUSH1 0x0 PUSH2 0x2D16 PUSH2 0x299D JUMP JUMPDEST SWAP1 POP PUSH2 0x2D22 DUP3 DUP3 PUSH2 0x2CDB JUMP JUMPDEST SWAP2 SWAP1 POP JUMP JUMPDEST PUSH1 0x0 PUSH8 0xFFFFFFFFFFFFFFFF DUP3 GT ISZERO PUSH2 0x2D42 JUMPI PUSH2 0x2D41 PUSH2 0x2CAC JUMP JUMPDEST JUMPDEST PUSH2 0x2D4B DUP3 PUSH2 0x2AAE JUMP JUMPDEST SWAP1 POP PUSH1 0x20 DUP2 ADD SWAP1 POP SWAP2 SWAP1 POP JUMP JUMPDEST DUP3 DUP2 DUP4 CALLDATACOPY PUSH1 0x0 DUP4 DUP4 ADD MSTORE POP POP POP JUMP JUMPDEST PUSH1 0x0 PUSH2 0x2D7A PUSH2 0x2D75 DUP5 PUSH2 0x2D27 JUMP JUMPDEST PUSH2 0x2D0C JUMP JUMPDEST SWAP1 POP DUP3 DUP2 MSTORE PUSH1 0x20 DUP2 ADD DUP5 DUP5 DUP5 ADD GT ISZERO PUSH2 0x2D96 JUMPI PUSH2 0x2D95 PUSH2 0x2CA7 JUMP JUMPDEST JUMPDEST PUSH2 0x2DA1 DUP5 DUP3 DUP6 PUSH2 0x2D58 JUMP JUMPDEST POP SWAP4 SWAP3 POP POP POP JUMP JUMPDEST PUSH1 0x0 DUP3 PUSH1 0x1F DUP4 ADD SLT PUSH2 0x2DBE JUMPI PUSH2 0x2DBD PUSH2 0x2CA2 JUMP JUMPDEST JUMPDEST DUP2 CALLDATALOAD PUSH2 0x2DCE DUP5 DUP3 PUSH1 0x20 DUP7 ADD PUSH2 0x2D67 JUMP JUMPDEST SWAP2 POP POP SWAP3 SWAP2 POP POP JUMP JUMPDEST PUSH2 0x2DE0 DUP2 PUSH2 0x2BBA JUMP JUMPDEST DUP2 EQ PUSH2 0x2DEB JUMPI PUSH1 0x0 DUP1 REVERT JUMPDEST POP JUMP JUMPDEST PUSH1 0x0 DUP2 CALLDATALOAD SWAP1 POP PUSH2 0x2DFD DUP2 PUSH2 0x2DD7 JUMP JUMPDEST SWAP3 SWAP2 POP POP JUMP JUMPDEST PUSH1 0x0 DUP1 PUSH1 0x0 DUP1 PUSH1 0x80 DUP6 DUP8 SUB SLT ISZERO PUSH2 0x2E1D JUMPI PUSH2 0x2E1C PUSH2 0x29A7 JUMP JUMPDEST JUMPDEST PUSH1 0x0 DUP6 ADD CALLDATALOAD PUSH8 0xFFFFFFFFFFFFFFFF DUP2 GT ISZERO PUSH2 0x2E3B JUMPI PUSH2 0x2E3A PUSH2 0x29AC JUMP JUMPDEST JUMPDEST PUSH2 0x2E47 DUP8 DUP3 DUP9 ADD PUSH2 0x2DA9 JUMP JUMPDEST SWAP5 POP POP PUSH1 0x20 PUSH2 0x2E58 DUP8 DUP3 DUP9 ADD PUSH2 0x2DEE JUMP JUMPDEST SWAP4 POP POP PUSH1 0x40 PUSH2 0x2E69 DUP8 DUP3 DUP9 ADD PUSH2 0x2DEE JUMP JUMPDEST SWAP3 POP POP PUSH1 0x60 DUP6 ADD CALLDATALOAD PUSH8 0xFFFFFFFFFFFFFFFF DUP2 GT ISZERO PUSH2 0x2E8A JUMPI PUSH2 0x2E89 PUSH2 0x29AC JUMP JUMPDEST JUMPDEST PUSH2 0x2E96 DUP8 DUP3 DUP9 ADD PUSH2 0x2DA9 JUMP JUMPDEST SWAP2 POP POP SWAP3 SWAP6 SWAP2 SWAP5 POP SWAP3 POP JUMP JUMPDEST PUSH1 0x0 DUP2 ISZERO ISZERO SWAP1 POP SWAP2 SWAP1 POP JUMP JUMPDEST PUSH2 0x2EB7 DUP2 PUSH2 0x2EA2 JUMP JUMPDEST DUP3 MSTORE POP POP JUMP JUMPDEST PUSH1 0x0 PUSH1 0x20 DUP3 ADD SWAP1 POP PUSH2 0x2ED2 PUSH1 0x0 DUP4 ADD DUP5 PUSH2 0x2EAE JUMP JUMPDEST SWAP3 SWAP2 POP POP JUMP JUMPDEST PUSH2 0x2EE1 DUP2 PUSH2 0x2BBA JUMP JUMPDEST DUP3 MSTORE POP POP JUMP JUMPDEST PUSH2 0x2EF0 DUP2 PUSH2 0x29D1 JUMP JUMPDEST DUP3 MSTORE POP POP JUMP JUMPDEST PUSH1 0x0 DUP3 DUP3 MSTORE PUSH1 0x20 DUP3 ADD SWAP1 POP SWAP3 SWAP2 POP POP JUMP JUMPDEST PUSH1 0x0 PUSH2 0x2F12 DUP3 PUSH2 0x2A68 JUMP JUMPDEST PUSH2 0x2F1C DUP2 DUP6 PUSH2 0x2EF6 JUMP JUMPDEST SWAP4 POP PUSH2 0x2F2C DUP2 DUP6 PUSH1 0x20 DUP7 ADD PUSH2 0x2A84 JUMP JUMPDEST PUSH2 0x2F35 DUP2 PUSH2 0x2AAE JUMP JUMPDEST DUP5 ADD SWAP2 POP POP SWAP3 SWAP2 POP POP JUMP JUMPDEST PUSH1 0x0 PUSH1 0x60 DUP3 ADD SWAP1 POP PUSH2 0x2F55 PUSH1 0x0 DUP4 ADD DUP7 PUSH2 0x2ED8 JUMP JUMPDEST PUSH2 0x2F62 PUSH1 0x20 DUP4 ADD DUP6 PUSH2 0x2EE7 JUMP JUMPDEST DUP2 DUP2 SUB PUSH1 0x40 DUP4 ADD MSTORE PUSH2 0x2F74 DUP2 DUP5 PUSH2 0x2F07 JUMP JUMPDEST SWAP1 POP SWAP5 SWAP4 POP POP POP POP JUMP JUMPDEST PUSH1 0x0 PUSH1 0x60 DUP3 ADD SWAP1 POP DUP2 DUP2 SUB PUSH1 0x0 DUP4 ADD MSTORE PUSH2 0x2F98 DUP2 DUP7 PUSH2 0x2F07 JUMP JUMPDEST SWAP1 POP DUP2 DUP2 SUB PUSH1 0x20 DUP4 ADD MSTORE PUSH2 0x2FAC DUP2 DUP6 PUSH2 0x2F07 JUMP JUMPDEST SWAP1 POP DUP2 DUP2 SUB PUSH1 0x40 DUP4 ADD MSTORE PUSH2 0x2FC0 DUP2 DUP5 PUSH2 0x2F07 JUMP JUMPDEST SWAP1 POP SWAP5 SWAP4 POP POP POP POP JUMP JUMPDEST PUSH1 0x0 DUP1 PUSH1 0x40 DUP4 DUP6 SUB SLT ISZERO PUSH2 0x2FE1 JUMPI PUSH2 0x2FE0 PUSH2 0x29A7 JUMP JUMPDEST JUMPDEST PUSH1 0x0 PUSH2 0x2FEF DUP6 DUP3 DUP7 ADD PUSH2 0x2DEE JUMP JUMPDEST SWAP3 POP POP PUSH1 0x20 PUSH2 0x3000 DUP6 DUP3 DUP7 ADD PUSH2 0x29FA JUMP JUMPDEST SWAP2 POP POP SWAP3 POP SWAP3 SWAP1 POP JUMP JUMPDEST PUSH1 0x0 PUSH1 0x20 DUP3 ADD SWAP1 POP PUSH2 0x301F PUSH1 0x0 DUP4 ADD DUP5 PUSH2 0x2ED8 JUMP JUMPDEST SWAP3 SWAP2 POP POP JUMP JUMPDEST PUSH1 0x0 PUSH1 0xFF DUP3 AND SWAP1 POP SWAP2 SWAP1 POP JUMP JUMPDEST PUSH2 0x303B DUP2 PUSH2 0x3025 JUMP JUMPDEST DUP3 MSTORE POP POP JUMP JUMPDEST PUSH1 0x0 PUSH1 0x20 DUP3 ADD SWAP1 POP PUSH2 0x3056 PUSH1 0x0 DUP4 ADD DUP5 PUSH2 0x3032 JUMP JUMPDEST SWAP3 SWAP2 POP POP JUMP JUMPDEST PUSH2 0x3065 DUP2 PUSH2 0x3025 JUMP JUMPDEST DUP2 EQ PUSH2 0x3070 JUMPI PUSH1 0x0 DUP1 REVERT JUMPDEST POP JUMP JUMPDEST PUSH1 0x0 DUP2 CALLDATALOAD SWAP1 POP PUSH2 0x3082 DUP2 PUSH2 0x305C JUMP JUMPDEST SWAP3 SWAP2 POP POP JUMP JUMPDEST PUSH1 0x0 DUP1 PUSH1 0x0 PUSH1 0x60 DUP5 DUP7 SUB SLT ISZERO PUSH2 0x30A1 JUMPI PUSH2 0x30A0 PUSH2 0x29A7 JUMP JUMPDEST JUMPDEST PUSH1 0x0 PUSH2 0x30AF DUP7 DUP3 DUP8 ADD PUSH2 0x2DEE JUMP JUMPDEST SWAP4 POP POP PUSH1 0x20 PUSH2 0x30C0 DUP7 DUP3 DUP8 ADD PUSH2 0x3073 JUMP JUMPDEST SWAP3 POP POP PUSH1 0x40 PUSH2 0x30D1 DUP7 DUP3 DUP8 ADD PUSH2 0x29FA JUMP JUMPDEST SWAP2 POP POP SWAP3 POP SWAP3 POP SWAP3 JUMP JUMPDEST PUSH1 0x0 PUSH1 0x20 DUP3 ADD SWAP1 POP DUP2 DUP2 SUB PUSH1 0x0 DUP4 ADD MSTORE PUSH2 0x30F5 DUP2 DUP5 PUSH2 0x2F07 JUMP JUMPDEST SWAP1 POP SWAP3 SWAP2 POP POP JUMP JUMPDEST PUSH1 0x0 DUP1 PUSH1 0x0 DUP1 PUSH1 0x0 DUP1 PUSH1 0x0 PUSH1 0xE0 DUP9 DUP11 SUB SLT ISZERO PUSH2 0x311C JUMPI PUSH2 0x311B PUSH2 0x29A7 JUMP JUMPDEST JUMPDEST PUSH1 0x0 DUP9 ADD CALLDATALOAD PUSH8 0xFFFFFFFFFFFFFFFF DUP2 GT ISZERO PUSH2 0x313A JUMPI PUSH2 0x3139 PUSH2 0x29AC JUMP JUMPDEST JUMPDEST PUSH2 0x3146 DUP11 DUP3 DUP12 ADD PUSH2 0x2DA9 JUMP JUMPDEST SWAP8 POP POP PUSH1 0x20 DUP9 ADD CALLDATALOAD PUSH8 0xFFFFFFFFFFFFFFFF DUP2 GT ISZERO PUSH2 0x3167 JUMPI PUSH2 0x3166 PUSH2 0x29AC JUMP JUMPDEST JUMPDEST PUSH2 0x3173 DUP11 DUP3 DUP12 ADD PUSH2 0x2DA9 JUMP JUMPDEST SWAP7 POP POP PUSH1 0x40 DUP9 ADD CALLDATALOAD PUSH8 0xFFFFFFFFFFFFFFFF DUP2 GT ISZERO PUSH2 0x3194 JUMPI PUSH2 0x3193 PUSH2 0x29AC JUMP JUMPDEST JUMPDEST PUSH2 0x31A0 DUP11 DUP3 DUP12 ADD PUSH2 0x2DA9 JUMP JUMPDEST SWAP6 POP POP PUSH1 0x60 PUSH2 0x31B1 DUP11 DUP3 DUP12 ADD PUSH2 0x3073 JUMP JUMPDEST SWAP5 POP POP PUSH1 0x80 DUP9 ADD CALLDATALOAD PUSH8 0xFFFFFFFFFFFFFFFF DUP2 GT ISZERO PUSH2 0x31D2 JUMPI PUSH2 0x31D1 PUSH2 0x29AC JUMP JUMPDEST JUMPDEST PUSH2 0x31DE DUP11 DUP3 DUP12 ADD PUSH2 0x2DA9 JUMP JUMPDEST SWAP4 POP POP PUSH1 0xA0 PUSH2 0x31EF DUP11 DUP3 DUP12 ADD PUSH2 0x2DEE JUMP JUMPDEST SWAP3 POP POP PUSH1 0xC0 DUP9 ADD CALLDATALOAD PUSH8 0xFFFFFFFFFFFFFFFF DUP2 GT ISZERO PUSH2 0x3210 JUMPI PUSH2 0x320F PUSH2 0x29AC JUMP JUMPDEST JUMPDEST PUSH2 0x321C DUP11 DUP3 DUP12 ADD PUSH2 0x2DA9 JUMP JUMPDEST SWAP2 POP POP SWAP3 SWAP6 SWAP9 SWAP2 SWAP5 SWAP8 POP SWAP3 SWAP6 POP JUMP JUMPDEST PUSH1 0x0 PUSH1 0x20 DUP3 DUP5 SUB SLT ISZERO PUSH2 0x3241 JUMPI PUSH2 0x3240 PUSH2 0x29A7 JUMP JUMPDEST JUMPDEST PUSH1 0x0 PUSH2 0x324F DUP5 DUP3 DUP6 ADD PUSH2 0x2DEE JUMP JUMPDEST SWAP2 POP POP SWAP3 SWAP2 POP POP JUMP JUMPDEST PUSH1 0x0 PUSH2 0x100 DUP3 ADD SWAP1 POP PUSH2 0x326E PUSH1 0x0 DUP4 ADD DUP12 PUSH2 0x2ED8 JUMP JUMPDEST DUP2 DUP2 SUB PUSH1 0x20 DUP4 ADD MSTORE PUSH2 0x3280 DUP2 DUP11 PUSH2 0x2F07 JUMP JUMPDEST SWAP1 POP DUP2 DUP2 SUB PUSH1 0x40 DUP4 ADD MSTORE PUSH2 0x3294 DUP2 DUP10 PUSH2 0x2F07 JUMP JUMPDEST SWAP1 POP PUSH2 0x32A3 PUSH1 0x60 DUP4 ADD DUP9 PUSH2 0x2ED8 JUMP JUMPDEST DUP2 DUP2 SUB PUSH1 0x80 DUP4 ADD MSTORE PUSH2 0x32B5 DUP2 DUP8 PUSH2 0x2F07 JUMP JUMPDEST SWAP1 POP DUP2 DUP2 SUB PUSH1 0xA0 DUP4 ADD MSTORE PUSH2 0x32C9 DUP2 DUP7 PUSH2 0x2F07 JUMP JUMPDEST SWAP1 POP DUP2 DUP2 SUB PUSH1 0xC0 DUP4 ADD MSTORE PUSH2 0x32DD DUP2 DUP6 PUSH2 0x2F07 JUMP JUMPDEST SWAP1 POP DUP2 DUP2 SUB PUSH1 0xE0 DUP4 ADD MSTORE PUSH2 0x32F1 DUP2 DUP5 PUSH2 0x2F07 JUMP JUMPDEST SWAP1 POP SWAP10 SWAP9 POP POP POP POP POP POP POP POP POP JUMP JUMPDEST PUSH1 0x0 PUSH1 0x20 DUP3 DUP5 SUB SLT ISZERO PUSH2 0x3316 JUMPI PUSH2 0x3315 PUSH2 0x29A7 JUMP JUMPDEST JUMPDEST PUSH1 0x0 DUP3 ADD CALLDATALOAD PUSH8 0xFFFFFFFFFFFFFFFF DUP2 GT ISZERO PUSH2 0x3334 JUMPI PUSH2 0x3333 PUSH2 0x29AC JUMP JUMPDEST JUMPDEST PUSH2 0x3340 DUP5 DUP3 DUP6 ADD PUSH2 0x2DA9 JUMP JUMPDEST SWAP2 POP POP SWAP3 SWAP2 POP POP JUMP JUMPDEST PUSH1 0x0 PUSH1 0x20 DUP3 ADD SWAP1 POP PUSH2 0x335E PUSH1 0x0 DUP4 ADD DUP5 PUSH2 0x2EE7 JUMP JUMPDEST SWAP3 SWAP2 POP POP JUMP JUMPDEST PUSH1 0x0 DUP2 SWAP1 POP SWAP2 SWAP1 POP JUMP JUMPDEST PUSH2 0x3377 DUP2 PUSH2 0x3364 JUMP JUMPDEST DUP3 MSTORE POP POP JUMP JUMPDEST PUSH1 0x0 PUSH1 0x20 DUP3 ADD SWAP1 POP PUSH2 0x3392 PUSH1 0x0 DUP4 ADD DUP5 PUSH2 0x336E JUMP JUMPDEST SWAP3 SWAP2 POP POP JUMP JUMPDEST PUSH1 0x0 PUSH1 0x40 DUP3 ADD SWAP1 POP DUP2 DUP2 SUB PUSH1 0x0 DUP4 ADD MSTORE PUSH2 0x33B2 DUP2 DUP6 PUSH2 0x2F07 JUMP JUMPDEST SWAP1 POP DUP2 DUP2 SUB PUSH1 0x20 DUP4 ADD MSTORE PUSH2 0x33C6 DUP2 DUP5 PUSH2 0x2F07 JUMP JUMPDEST SWAP1 POP SWAP4 SWAP3 POP POP POP JUMP JUMPDEST PUSH32 0x4E487B7100000000000000000000000000000000000000000000000000000000 PUSH1 0x0 MSTORE PUSH1 0x32 PUSH1 0x4 MSTORE PUSH1 0x24 PUSH1 0x0 REVERT JUMPDEST PUSH32 0x4E487B7100000000000000000000000000000000000000000000000000000000 PUSH1 0x0 MSTORE PUSH1 0x22 PUSH1 0x4 MSTORE PUSH1 0x24 PUSH1 0x0 REVERT JUMPDEST PUSH1 0x0 PUSH1 0x2 DUP3 DIV SWAP1 POP PUSH1 0x1 DUP3 AND DUP1 PUSH2 0x3445 JUMPI PUSH1 0x7F DUP3 AND SWAP2 POP JUMPDEST PUSH1 0x20 DUP3 LT DUP2 SUB PUSH2 0x3458 JUMPI PUSH2 0x3457 PUSH2 0x33FE JUMP JUMPDEST JUMPDEST POP SWAP2 SWAP1 POP JUMP JUMPDEST PUSH1 0x0 DUP2 SWAP1 POP DUP2 PUSH1 0x0 MSTORE PUSH1 0x20 PUSH1 0x0 KECCAK256 SWAP1 POP SWAP2 SWAP1 POP JUMP JUMPDEST PUSH1 0x0 PUSH1 0x20 PUSH1 0x1F DUP4 ADD DIV SWAP1 POP SWAP2 SWAP1 POP JUMP JUMPDEST PUSH1 0x0 DUP3 DUP3 SHL SWAP1 POP SWAP3 SWAP2 POP POP JUMP JUMPDEST PUSH1 0x0 PUSH1 0x8 DUP4 MUL PUSH2 0x34C0 PUSH32 0xFFFFFFFFFFFFFFFFFFFFFFFFFFFFFFFFFFFFFFFFFFFFFFFFFFFFFFFFFFFFFFFF DUP3 PUSH2 0x3483 JUMP JUMPDEST PUSH2 0x34CA DUP7 DUP4 PUSH2 0x3483 JUMP JUMPDEST SWAP6 POP DUP1 NOT DUP5 AND SWAP4 POP DUP1 DUP7 AND DUP5 OR SWAP3 POP POP POP SWAP4 SWAP3 POP POP POP JUMP JUMPDEST PUSH1 0x0 DUP2 SWAP1 POP SWAP2 SWAP1 POP JUMP JUMPDEST PUSH1 0x0 PUSH2 0x3507 PUSH2 0x3502 PUSH2 0x34FD DUP5 PUSH2 0x3364 JUMP JUMPDEST PUSH2 0x34E2 JUMP JUMPDEST PUSH2 0x3364 JUMP JUMPDEST SWAP1 POP SWAP2 SWAP1 POP JUMP JUMPDEST PUSH1 0x0 DUP2 SWAP1 POP SWAP2 SWAP1 POP JUMP JUMPDEST PUSH2 0x3521 DUP4 PUSH2 0x34EC JUMP JUMPDEST PUSH2 0x3535 PUSH2 0x352D DUP3 PUSH2 0x350E JUMP JUMPDEST DUP5 DUP5 SLOAD PUSH2 0x3490 JUMP JUMPDEST DUP3 SSTORE POP POP POP POP JUMP JUMPDEST PUSH1 0x0 SWAP1 JUMP JUMPDEST PUSH2 0x354A PUSH2 0x353D JUMP JUMPDEST PUSH2 0x3555 DUP2 DUP5 DUP5 PUSH2 0x3518 JUMP JUMPDEST POP POP POP JUMP JUMPDEST JUMPDEST DUP2 DUP2 LT ISZERO PUSH2 0x3579 JUMPI PUSH2 0x356E PUSH1 0x0 DUP3 PUSH2 0x3542 JUMP JUMPDEST PUSH1 0x1 DUP2 ADD SWAP1 POP PUSH2 0x355B JUMP JUMPDEST POP POP JUMP JUMPDEST PUSH1 0x1F DUP3 GT ISZERO PUSH2 0x35BE JUMPI PUSH2 0x358F DUP2 PUSH2 0x345E JUMP JUMPDEST PUSH2 0x3598 DUP5 PUSH2 0x3473 JUMP JUMPDEST DUP2 ADD PUSH1 0x20 DUP6 LT ISZERO PUSH2 0x35A7 JUMPI DUP2 SWAP1 POP JUMPDEST PUSH2 0x35BB PUSH2 0x35B3 DUP6 PUSH2 0x3473 JUMP JUMPDEST DUP4 ADD DUP3 PUSH2 0x355A JUMP JUMPDEST POP POP JUMPDEST POP POP POP JUMP JUMPDEST PUSH1 0x0 DUP3 DUP3 SHR SWAP1 POP SWAP3 SWAP2 POP POP JUMP JUMPDEST PUSH1 0x0 PUSH2 0x35E1 PUSH1 0x0 NOT DUP5 PUSH1 0x8 MUL PUSH2 0x35C3 JUMP JUMPDEST NOT DUP1 DUP4 AND SWAP2 POP POP SWAP3 SWAP2 POP POP JUMP JUMPDEST PUSH1 0x0 PUSH2 0x35FA DUP4 DUP4 PUSH2 0x35D0 JUMP JUMPDEST SWAP2 POP DUP3 PUSH1 0x2 MUL DUP3 OR SWAP1 POP SWAP3 SWAP2 POP POP JUMP JUMPDEST PUSH2 0x3613 DUP3 PUSH2 0x2A68 JUMP JUMPDEST PUSH8 0xFFFFFFFFFFFFFFFF DUP2 GT ISZERO PUSH2 0x362C JUMPI PUSH2 0x362B PUSH2 0x2CAC JUMP JUMPDEST JUMPDEST PUSH2 0x3636 DUP3 SLOAD PUSH2 0x342D JUMP JUMPDEST PUSH2 0x3641 DUP3 DUP3 DUP6 PUSH2 0x357D JUMP JUMPDEST PUSH1 0x0 PUSH1 0x20 SWAP1 POP PUSH1 0x1F DUP4 GT PUSH1 0x1 DUP2 EQ PUSH2 0x3674 JUMPI PUSH1 0x0 DUP5 ISZERO PUSH2 0x3662 JUMPI DUP3 DUP8 ADD MLOAD SWAP1 POP JUMPDEST PUSH2 0x366C DUP6 DUP3 PUSH2 0x35EE JUMP JUMPDEST DUP7 SSTORE POP PUSH2 0x36D4 JUMP JUMPDEST PUSH1 0x1F NOT DUP5 AND PUSH2 0x3682 DUP7 PUSH2 0x345E JUMP JUMPDEST PUSH1 0x0 JUMPDEST DUP3 DUP2 LT ISZERO PUSH2 0x36AA JUMPI DUP5 DUP10 ADD MLOAD DUP3 SSTORE PUSH1 0x1 DUP3 ADD SWAP2 POP PUSH1 0x20 DUP6 ADD SWAP5 POP PUSH1 0x20 DUP2 ADD SWAP1 POP PUSH2 0x3685 JUMP JUMPDEST DUP7 DUP4 LT ISZERO PUSH2 0x36C7 JUMPI DUP5 DUP10 ADD MLOAD PUSH2 0x36C3 PUSH1 0x1F DUP10 AND DUP3 PUSH2 0x35D0 JUMP JUMPDEST DUP4 SSTORE POP JUMPDEST PUSH1 0x1 PUSH1 0x2 DUP9 MUL ADD DUP9 SSTORE POP POP POP JUMPDEST POP POP POP POP POP POP JUMP JUMPDEST PUSH32 0x4E487B7100000000000000000000000000000000000000000000000000000000 PUSH1 0x0 MSTORE PUSH1 0x21 PUSH1 0x4 MSTORE PUSH1 0x24 PUSH1 0x0 REVERT JUMPDEST PUSH1 0x0 DUP2 SWAP1 POP SWAP3 SWAP2 POP POP JUMP JUMPDEST PUSH1 0x0 PUSH2 0x3721 DUP3 PUSH2 0x2A68 JUMP JUMPDEST PUSH2 0x372B DUP2 DUP6 PUSH2 0x370B JUMP JUMPDEST SWAP4 POP PUSH2 0x373B DUP2 DUP6 PUSH1 0x20 DUP7 ADD PUSH2 0x2A84 JUMP JUMPDEST DUP1 DUP5 ADD SWAP2 POP POP SWAP3 SWAP2 POP POP JUMP JUMPDEST PUSH1 0x0 PUSH2 0x3753 DUP3 DUP5 PUSH2 0x3716 JUMP JUMPDEST SWAP2 POP DUP2 SWAP1 POP SWAP3 SWAP2 POP POP JUMP JUMPDEST PUSH1 0x4 DUP2 LT PUSH2 0x376F JUMPI PUSH2 0x376E PUSH2 0x36DC JUMP JUMPDEST JUMPDEST POP JUMP JUMPDEST PUSH1 0x0 DUP2 SWAP1 POP PUSH2 0x3780 DUP3 PUSH2 0x375E JUMP JUMPDEST SWAP2 SWAP1 POP JUMP JUMPDEST PUSH1 0x0 PUSH2 0x3790 DUP3 PUSH2 0x3772 JUMP JUMPDEST SWAP1 POP SWAP2 SWAP1 POP JUMP JUMPDEST PUSH2 0x37A0 DUP2 PUSH2 0x3785 JUMP JUMPDEST DUP3 MSTORE POP POP JUMP JUMPDEST PUSH1 0x0 PUSH1 0x40 DUP3 ADD SWAP1 POP DUP2 DUP2 SUB PUSH1 0x0 DUP4 ADD MSTORE PUSH2 0x37C0 DUP2 DUP6 PUSH2 0x2F07 JUMP JUMPDEST SWAP1 POP PUSH2 0x37CF PUSH1 0x20 DUP4 ADD DUP5 PUSH2 0x3797 JUMP JUMPDEST SWAP4 SWAP3 POP POP POP JUMP JUMPDEST PUSH32 0x4E487B7100000000000000000000000000000000000000000000000000000000 PUSH1 0x0 MSTORE PUSH1 0x11 PUSH1 0x4 MSTORE PUSH1 0x24 PUSH1 0x0 REVERT JUMPDEST PUSH1 0x0 PUSH2 0x3810 DUP3 PUSH2 0x3364 JUMP JUMPDEST SWAP2 POP PUSH32 0xFFFFFFFFFFFFFFFFFFFFFFFFFFFFFFFFFFFFFFFFFFFFFFFFFFFFFFFFFFFFFFFF DUP3 SUB PUSH2 0x3842 JUMPI PUSH2 0x3841 PUSH2 0x37D6 JUMP JUMPDEST JUMPDEST PUSH1 0x1 DUP3 ADD SWAP1 POP SWAP2 SWAP1 POP JUMP JUMPDEST PUSH32 0x446F63756D656E74206E6F7420666F756E640000000000000000000000000000 PUSH1 0x0 DUP3 ADD MSTORE POP JUMP JUMPDEST PUSH1 0x0 PUSH2 0x3883 PUSH1 0x12 DUP4 PUSH2 0x2EF6 JUMP JUMPDEST SWAP2 POP PUSH2 0x388E DUP3 PUSH2 0x384D JUMP JUMPDEST PUSH1 0x20 DUP3 ADD SWAP1 POP SWAP2 SWAP1 POP JUMP JUMPDEST PUSH1 0x0 PUSH1 0x20 DUP3 ADD SWAP1 POP DUP2 DUP2 SUB PUSH1 0x0 DUP4 ADD MSTORE PUSH2 0x38B2 DUP2 PUSH2 0x3876 JUMP JUMPDEST SWAP1 POP SWAP2 SWAP1 POP JUMP INVALID LOG2 PUSH5 0x6970667358 0x22 SLT KECCAK256 0x25 SWAP9 ADDMOD 0xCC DUP1 SWAP6 SSTORE CREATE2 CODECOPY SIGNEXTEND BLOBBASEFEE 0x21 0xD6 0x2B SHL 0xA5 0x1E 0x22 0xC4 0x24 PUSH23 0xE236A9F1F74488DEA6E31864736F6C6343000819003300 "
				},
				"gasEstimates": {
					"creation": {
						"codeDepositCost": "2915000",
						"executionCost": "8199",
						"totalCost": "2923199"
					},
					"external": {
						"checkAlreadyUpload(bytes32)": "infinite",
						"getAddressByEmail(string)": "infinite",
						"getDocCountByUserId()": "2556",
						"getDocIndex(bytes32,address)": "infinite",
						"getDocumentListbyDocId(bytes32)": "infinite",
						"getDocumentName(bytes32,address)": "infinite",
						"getDocumetList(address)": "infinite",
						"getEmailIdByAddrss()": "infinite",
						"getEmailIdByUsrAddr(address)": "infinite",
						"getOwnerDocInfoByDocId(bytes32)": "infinite",
						"getOwnerDocumetList()": "infinite",
						"getPublicKey(address)": "infinite",
						"getRegisteredUser()": "infinite",
						"getUserType()": "2667",
						"getUseraccessKey()": "2577",
						"isValidSharableUser(string)": "infinite",
						"isalreadyRegisteredUser()": "2710",
						"registerUser(string,string,string,uint8,string,bytes32,string)": "infinite",
						"shareDocumentwithUser(bytes32,uint8,address)": "infinite",
						"uploadDocument(string,bytes32,bytes32,string)": "infinite",
						"verifyUserDocument(bytes32,address)": "2573"
					}
				},
				"methodIdentifiers": {
					"checkAlreadyUpload(bytes32)": "faa380f2",
					"getAddressByEmail(string)": "c5caea01",
					"getDocCountByUserId()": "d9cb2800",
					"getDocIndex(bytes32,address)": "f78bedf6",
					"getDocumentListbyDocId(bytes32)": "b744b46d",
					"getDocumentName(bytes32,address)": "cafdef5a",
					"getDocumetList(address)": "00d0810a",
					"getEmailIdByAddrss()": "ddcab3ff",
					"getEmailIdByUsrAddr(address)": "2dad6b65",
					"getOwnerDocInfoByDocId(bytes32)": "e6ccc2be",
					"getOwnerDocumetList()": "c5ef9f7f",
					"getPublicKey(address)": "857cdbb8",
					"getRegisteredUser()": "1796fd91",
					"getUserType()": "41990077",
					"getUseraccessKey()": "35103499",
					"isValidSharableUser(string)": "e3d6f700",
					"isalreadyRegisteredUser()": "1870705a",
					"registerUser(string,string,string,uint8,string,bytes32,string)": "8f578bf7",
					"shareDocumentwithUser(bytes32,uint8,address)": "71f87d02",
					"uploadDocument(string,bytes32,bytes32,string)": "1614b37a",
					"verifyUserDocument(bytes32,address)": "309a91d5"
				}
			},
			"storageLayout": {
				"storage": [
					{
						"astId": 38,
						"contract": "contracts/digiLocker.sol:digiLocker",
						"label": "usercount",
						"offset": 0,
						"slot": "0",
						"type": "t_uint256"
					},
					{
						"astId": 41,
						"contract": "contracts/digiLocker.sol:digiLocker",
						"label": "_glbluseraddress",
						"offset": 0,
						"slot": "1",
						"type": "t_array(t_address)dyn_storage"
					},
					{
						"astId": 89,
						"contract": "contracts/digiLocker.sol:digiLocker",
						"label": "registerUsers",
						"offset": 0,
						"slot": "2",
						"type": "t_mapping(t_address,t_struct(User)35_storage)"
					},
					{
						"astId": 95,
						"contract": "contracts/digiLocker.sol:digiLocker",
						"label": "ownerDocuments",
						"offset": 0,
						"slot": "3",
						"type": "t_mapping(t_address,t_array(t_struct(Document)11_storage)dyn_storage)"
					},
					{
						"astId": 99,
						"contract": "contracts/digiLocker.sol:digiLocker",
						"label": "emailAddressMapping",
						"offset": 0,
						"slot": "4",
						"type": "t_mapping(t_string_memory_ptr,t_address)"
					}
				],
				"types": {
					"t_address": {
						"encoding": "inplace",
						"label": "address",
						"numberOfBytes": "20"
					},
					"t_array(t_address)dyn_storage": {
						"base": "t_address",
						"encoding": "dynamic_array",
						"label": "address[]",
						"numberOfBytes": "32"
					},
					"t_array(t_struct(Document)11_storage)dyn_storage": {
						"base": "t_struct(Document)11_storage",
						"encoding": "dynamic_array",
						"label": "struct digiLocker.Document[]",
						"numberOfBytes": "32"
					},
					"t_bool": {
						"encoding": "inplace",
						"label": "bool",
						"numberOfBytes": "1"
					},
					"t_bytes32": {
						"encoding": "inplace",
						"label": "bytes32",
						"numberOfBytes": "32"
					},
					"t_enum(userType)46": {
						"encoding": "inplace",
						"label": "enum digiLocker.userType",
						"numberOfBytes": "1"
					},
					"t_mapping(t_address,t_array(t_struct(Document)11_storage)dyn_storage)": {
						"encoding": "mapping",
						"key": "t_address",
						"label": "mapping(address => struct digiLocker.Document[])",
						"numberOfBytes": "32",
						"value": "t_array(t_struct(Document)11_storage)dyn_storage"
					},
					"t_mapping(t_address,t_struct(User)35_storage)": {
						"encoding": "mapping",
						"key": "t_address",
						"label": "mapping(address => struct digiLocker.User)",
						"numberOfBytes": "32",
						"value": "t_struct(User)35_storage"
					},
					"t_mapping(t_string_memory_ptr,t_address)": {
						"encoding": "mapping",
						"key": "t_string_memory_ptr",
						"label": "mapping(string => address)",
						"numberOfBytes": "32",
						"value": "t_address"
					},
					"t_string_memory_ptr": {
						"encoding": "bytes",
						"label": "string",
						"numberOfBytes": "32"
					},
					"t_string_storage": {
						"encoding": "bytes",
						"label": "string",
						"numberOfBytes": "32"
					},
					"t_struct(Document)11_storage": {
						"encoding": "inplace",
						"label": "struct digiLocker.Document",
						"members": [
							{
								"astId": 4,
								"contract": "contracts/digiLocker.sol:digiLocker",
								"label": "docid",
								"offset": 0,
								"slot": "0",
								"type": "t_bytes32"
							},
							{
								"astId": 6,
								"contract": "contracts/digiLocker.sol:digiLocker",
								"label": "docName",
								"offset": 0,
								"slot": "1",
								"type": "t_string_storage"
							},
							{
								"astId": 8,
								"contract": "contracts/digiLocker.sol:digiLocker",
								"label": "timestamp",
								"offset": 0,
								"slot": "2",
								"type": "t_string_storage"
							},
							{
								"astId": 10,
								"contract": "contracts/digiLocker.sol:digiLocker",
								"label": "docHash",
								"offset": 0,
								"slot": "3",
								"type": "t_bytes32"
							}
						],
						"numberOfBytes": "128"
					},
					"t_struct(User)35_storage": {
						"encoding": "inplace",
						"label": "struct digiLocker.User",
						"members": [
							{
								"astId": 23,
								"contract": "contracts/digiLocker.sol:digiLocker",
								"label": "utype",
								"offset": 0,
								"slot": "0",
								"type": "t_enum(userType)46"
							},
							{
								"astId": 25,
								"contract": "contracts/digiLocker.sol:digiLocker",
								"label": "valid",
								"offset": 1,
								"slot": "0",
								"type": "t_bool"
							},
							{
								"astId": 28,
								"contract": "contracts/digiLocker.sol:digiLocker",
								"label": "details",
								"offset": 0,
								"slot": "1",
								"type": "t_struct(UserDetails)20_storage"
							},
							{
								"astId": 30,
								"contract": "contracts/digiLocker.sol:digiLocker",
								"label": "_useraddress",
								"offset": 0,
								"slot": "5",
								"type": "t_address"
							},
							{
								"astId": 32,
								"contract": "contracts/digiLocker.sol:digiLocker",
								"label": "accessKey",
								"offset": 0,
								"slot": "6",
								"type": "t_bytes32"
							},
							{
								"astId": 34,
								"contract": "contracts/digiLocker.sol:digiLocker",
								"label": "pubKey",
								"offset": 0,
								"slot": "7",
								"type": "t_string_storage"
							}
						],
						"numberOfBytes": "256"
					},
					"t_struct(UserDetails)20_storage": {
						"encoding": "inplace",
						"label": "struct digiLocker.UserDetails",
						"members": [
							{
								"astId": 13,
								"contract": "contracts/digiLocker.sol:digiLocker",
								"label": "firstName",
								"offset": 0,
								"slot": "0",
								"type": "t_string_storage"
							},
							{
								"astId": 15,
								"contract": "contracts/digiLocker.sol:digiLocker",
								"label": "lastName",
								"offset": 0,
								"slot": "1",
								"type": "t_string_storage"
							},
							{
								"astId": 17,
								"contract": "contracts/digiLocker.sol:digiLocker",
								"label": "email",
								"offset": 0,
								"slot": "2",
								"type": "t_string_storage"
							},
							{
								"astId": 19,
								"contract": "contracts/digiLocker.sol:digiLocker",
								"label": "contact",
								"offset": 0,
								"slot": "3",
								"type": "t_string_storage"
							}
						],
						"numberOfBytes": "128"
					},
					"t_uint256": {
						"encoding": "inplace",
						"label": "uint256",
						"numberOfBytes": "32"
					}
				}
			},
			"userdoc": {
				"kind": "user",
				"methods": {},
				"version": 1
			}
		}
	}
}